{
	"data": {
		"bytecode": {
			"linkReferences": {},
			"object": "60806040523480156200001157600080fd5b506040516200498c3803806200498c833981016040819052620000349162000467565b6001600055600280546001600160a01b03191633179055620000556200019c565b600655670de0b6b3a76400006007556000620000796706f05b59d3b20000620001a0565b90508015620000a55760405162461bcd60e51b81526004016200009c906200056e565b60405180910390fd5b620000b8671bc16d674ec800006200023a565b90508015620000db5760405162461bcd60e51b81526004016200009c90620005a5565b620000e684620002b9565b90508015620001095760405162461bcd60e51b81526004016200009c90620004f5565b600b8054610100600160ff19909216821761ff0019161790915580546001600160a01b03199081166001600160a01b03858116919091179092556013805490911691851691909117905560405130906000907fddf252ad1be2c89b69c2b068fc378daa952ba7f163c4a11628f55a4df523b3ef906200018a908390620004ec565b60405180910390a35050505062000600565b4390565b6002546000906001600160a01b03163314620001cc57620001c460016000620003e3565b905062000235565b670de0b6b3a7640000821115620001eb57620001c460026023620003e3565b60058054908390556040517faaa68312e2ea9d50e16af5068410ab56e1a1fd06037b1a35664812c30f82146090620002279083908690620005dc565b60405180910390a160009150505b919050565b6002546000906001600160a01b031633146200025e57620001c460016000620003e3565b670de0b6b3a76400008210156200027d57620001c460026024620003e3565b60118054908390556040517f389ce8cc8e8243c4ee80c30e284539a8f6fa01c546c8f3f3d76093aace77367e90620002279083908690620005dc565b60025460009081906001600160a01b03163314620002e857620002df60016000620003e3565b91505062000235565b600460009054906101000a90046001600160a01b03169050826001600160a01b0316632191f92a6040518163ffffffff1660e01b815260040160206040518083038186803b1580156200033a57600080fd5b505afa1580156200034f573d6000803e3d6000fd5b505050506040513d601f19601f82011682018060405250810190620003759190620004b0565b620003945760405162461bcd60e51b81526004016200009c9062000537565b600480546001600160a01b0319166001600160a01b0385161790556040517feb5cc99f497dc2d7106563bb080e06c9b09e3d81a38623ac4d0839575658d1fa90620002279083908690620004d2565b60007f45b96fe442630264581b197e84bbada861235052c5a1aadfff9ea4e40a969aa08360098111156200041357fe5b8360278111156200042057fe5b60006040516200043393929190620005ea565b60405180910390a18260098111156200044857fe5b9392505050565b80516001600160a01b03811681146200023557600080fd5b6000806000606084860312156200047c578283fd5b62000487846200044f565b925062000497602085016200044f565b9150620004a7604085016200044f565b90509250925092565b600060208284031215620004c2578081fd5b8151801515811462000448578182fd5b6001600160a01b0392831681529116602082015260400190565b90815260200190565b60208082526022908201527f73657474696e6720696e7465726573742072617465206d6f64656c206661696c604082015261195960f21b606082015260800190565b6020808252601c908201527f6d61726b6572206d6574686f642072657475726e65642066616c736500000000604082015260600190565b6020808252601d908201527f73657474696e67207265736572766520666163746f72206661696c6564000000604082015260600190565b6020808252601f908201527f73657474696e67206c697175696461746520666163746f72206661696c656400604082015260600190565b918252602082015260400190565b9283526020830191909152604082015260600190565b61437c80620006106000396000f3fe608060405234801561001057600080fd5b50600436106103415760003560e01c806395d89b41116101b8578063bd37b77511610104578063dd62ed3e116100a2578063f3fdb15a1161007c578063f3fdb15a14610658578063f851a44014610660578063f8f9da2814610668578063fca7820b1461067057610341565b8063dd62ed3e1461062a578063e9c714f21461063d578063f2b3abbd1461064557610341565b8063c5ebeaec116100de578063c5ebeaec146105de578063c95de7cf146105f1578063d8e94ea914610604578063db006a751461061757610341565b8063bd37b775146105bb578063bd6d894d146105ce578063c467201e146105d657610341565b8063a2e354c811610171578063aa5af0fd1161014b578063aa5af0fd14610590578063ae9d70b014610598578063b2879ee4146105a0578063b71d1a0c146105a857610341565b8063a2e354c81461056d578063a6afed9514610575578063a9059cbb1461057d57610341565b806395d89b411461050657806395dd91931461050e5780639937edfe146105215780639b56d6c9146105345780639f06aa0814610547578063a0712d681461055a57610341565b806330504b6f116102925780635bf8633a1161023057806373acee981161020a57806373acee98146104ce578063852a12e3146104d6578063883747c4146104e95780638f840ddd146104fe57610341565b80635bf8633a146104ab5780636c540baf146104b357806370a08231146104bb57610341565b80633b1d21a21161026c5780633b1d21a21461047357806347bd37181461047b578063590e3f60146104835780635bb31693146104a357610341565b806330504b6f14610443578063313ce5671461044b5780633af9e6691461046057610341565b806317539b1e116102ff578063182df0f5116102d9578063182df0f51461040057806323b872dd146104085780632608f8181461041b578063267822471461042e57610341565b806317539b1e146103d257806317bfdfbc146103e557806318160ddd146103f857610341565b8062517f621461034657806306fdde031461036f578063095ea7b3146103845780630e752702146103a457806312f0dea7146103b7578063173b9904146103ca575b600080fd5b61035961035436600461389c565b610683565b60405161036691906142a1565b60405180910390f35b6103776106d6565b6040516103669190613b56565b61039761039236600461394c565b610705565b6040516103669190613b4b565b6103596103b23660046139af565b61079a565b6103596103c536600461389c565b61080e565b61035961086f565b6103596103e0366004613977565b610875565b6103596103f336600461389c565b610907565b61035961096c565b610359610972565b61039761041636600461390c565b6109b6565b61035961042936600461394c565b6109fc565b610436610a68565b60405161036691906139fb565b610359610a77565b610453610a7d565b60405161036691906142e9565b61035961046e36600461389c565b610a82565b610359610afc565b610359610b0b565b61049661049136600461389c565b610b11565b6040516103669190613b07565b610397610ba3565b610436610bb1565b610359610bc0565b6103596104c936600461389c565b610bc6565b610359610be1565b6103596104e43660046139af565b610c3e565b6104fc6104f73660046139af565b610c95565b005b610359610cae565b610377610cb4565b61035961051c36600461389c565b610cd5565b61035961052f36600461389c565b610d13565b61035961054236600461389c565b610d44565b6103596105553660046139af565b610d5f565b6103596105683660046139af565b610ded565b610359610e42565b610359610e48565b61039761058b36600461394c565b611102565b610359611147565b61035961114d565b6104366111e1565b6103596105b636600461389c565b6111f0565b6103596105c93660046139af565b611275565b6103596112ca565b6103976112fa565b6103596105ec3660046139af565b611303565b6103596105ff3660046139af565b611358565b610359610612366004613977565b6113ac565b6103596106253660046139af565b61141b565b6103596106383660046138d4565b611472565b61035961149d565b61035961065336600461389c565b61158a565b6104366115de565b6104366115ed565b6103596115fc565b61035961067e3660046139af565b61163c565b600080600061069184611690565b509193509150600090508260038111156106a757fe5b146106cd5760405162461bcd60e51b81526004016106c490613da4565b60405180910390fd5b9150505b919050565b6040518060400160405280601381526020017210d95c9d1a599a58d85d19481bd98819519253606a1b81525081565b60006001600160a01b03831661072d5760405162461bcd60e51b81526004016106c490613ed6565b336000818152600d602090815260408083206001600160a01b038816808552925291829020859055905182907f8c5be1e5ebec7d5bd14f71427d1e84f3dd0314c0f7b2291e5b200ac8c7c3b925906107869087906142a1565b60405180910390a360019150505b92915050565b6000600260005414156107bf5760405162461bcd60e51b81526004016106c490614214565b600260009081556107ce610e48565b905080156107f4576107ec8160098111156107e557fe5b6002611744565b915050610804565b6107ff3333856117ab565b509150505b6001600055919050565b6000600260005414156108335760405162461bcd60e51b81526004016106c490614214565b60026000908155610842610e48565b90508015610859576107ec8160098111156107e557fe5b61086333846119dc565b60016000559392505050565b60055481565b6002546000906001600160a01b0316331461089d5761089660016000611744565b90506106d1565b600b5460ff610100909104161515821515146108ff57600b805461ff001916610100841515021790556040517f1717b5ea3deee7263023836cdd49998ac11579e79797df6028a834abad3619a2906108f6908490613b4b565b60405180910390a15b600092915050565b60006002600054141561092c5760405162461bcd60e51b81526004016106c490614214565b6002600090815561093b610e48565b146109585760405162461bcd60e51b81526004016106c490613be6565b61096182610cd5565b600160005592915050565b600a5481565b600080600061097f611c06565b9092509050600082600381111561099257fe5b146109af5760405162461bcd60e51b81526004016106c490614123565b9150505b90565b6000600260005414156109db5760405162461bcd60e51b81526004016106c490614214565b600260009081556109ee33868686611cbb565b600160005514949350505050565b600060026000541415610a215760405162461bcd60e51b81526004016106c490614214565b60026000908155610a30610e48565b90508015610a4f57610a478160098111156107e557fe5b915050610961565b610a5a3385856117ab565b506001600055949350505050565b6003546001600160a01b031681565b600f5481565b601281565b6000806040518060200160405280610a986112ca565b90526001600160a01b0384166000908152600c6020526040812054919250908190610ac4908490611eca565b90925090506000826003811115610ad757fe5b14610af45760405162461bcd60e51b81526004016106c490613c4d565b949350505050565b6000610b06611f17565b905090565b60085481565b60606001600160a01b038216610b395760405162461bcd60e51b81526004016106c490614095565b6001600160a01b03821660009081526012602090815260409182902080548351818402810184019094528084529091830182828015610b9757602002820191906000526020600020905b815481526020019060010190808311610b83575b50505050509050919050565b600b54610100900460ff1681565b6013546001600160a01b031681565b60065481565b6001600160a01b03166000908152600c602052604090205490565b600060026000541415610c065760405162461bcd60e51b81526004016106c490614214565b60026000908155610c15610e48565b14610c325760405162461bcd60e51b81526004016106c490613be6565b50600854600160005590565b600060026000541415610c635760405162461bcd60e51b81526004016106c490614214565b60026000908155610c72610e48565b90508015610c89576107ec8160098111156107e557fe5b61086333600085611f9a565b601354610cab906001600160a01b0316826122fd565b50565b60095481565b6040518060400160405280600581526020016418d951925360da1b81525081565b6000806000610ce384612437565b90925090506000826003811115610cf657fe5b146106cd5760405162461bcd60e51b81526004016106c490613e79565b600080610d1e610e48565b14610d3b5760405162461bcd60e51b81526004016106c490613be6565b61079482610683565b6001600160a01b031660009081526010602052604090205490565b600060026000541415610d845760405162461bcd60e51b81526004016106c490614214565b6002600055610d92826124ea565b6001600160a01b0316336001600160a01b031614610dc25760405162461bcd60e51b81526004016106c490613c84565b6000610dcc610e48565b90508015610de3576107ec8160098111156107e557fe5b6107ff3384612624565b600060026000541415610e125760405162461bcd60e51b81526004016106c490614214565b60026000908155610e21610e48565b90508015610e38576107ec8160098111156107e557fe5b6107ff3384612802565b60115481565b600080610e53612af2565b60065490915080821415610e6c576000925050506109b3565b6000610e76611f17565b600854600954600754600480546040516315f2405360e01b81529596509394929391926000926001600160a01b0316916315f2405391610ebc91899189918991016142b8565b60206040518083038186803b158015610ed457600080fd5b505afa158015610ee8573d6000803e3d6000fd5b505050506040513d601f19601f82011682018060405250810190610f0c91906139c7565b9050600080610f1b8989612af6565b90925090506000826003811115610f2e57fe5b14610f4b5760405162461bcd60e51b81526004016106c49061400d565b610f5361378a565b600080600080610f7160405180602001604052808a81525087612b19565b90975094506000876003811115610f8457fe5b14610fb657610fa160046007896003811115610f9c57fe5b612b81565b9e5050505050505050505050505050506109b3565b610fc0858c611eca565b90975093506000876003811115610fd357fe5b14610feb57610fa160046003896003811115610f9c57fe5b610ff5848c612be0565b9097509250600087600381111561100857fe5b1461102057610fa160046005896003811115610f9c57fe5b61103b6040518060200160405280600554815250858c612c06565b9097509150600087600381111561104e57fe5b1461106657610fa160046006896003811115610f9c57fe5b611071858a8b612c06565b9097509050600087600381111561108457fe5b1461109b57610fa1600480896003811115610f9c57fe5b60068e90556007819055600883905560098290556040517f4dec04e750ca11537cabcd8a9eab06494de08da3735bc8871cd41250e190bc04906110e5908e908790859088906142ce565b60405180910390a160009e50505050505050505050505050505090565b6000600260005414156111275760405162461bcd60e51b81526004016106c490614214565b6002600090815561113a33338686611cbb565b6001600055149392505050565b60075481565b6004546000906001600160a01b031663b8168816611169611f17565b6008546009546005546040518563ffffffff1660e01b815260040161119194939291906142ce565b60206040518083038186803b1580156111a957600080fd5b505afa1580156111bd573d6000803e3d6000fd5b505050506040513d601f19601f82011682018060405250810190610b0691906139c7565b6001546001600160a01b031681565b6002546000906001600160a01b031633146112115761089660016000611744565b600380546001600160a01b038481166001600160a01b03198316179092556040519116907fca4f2f25d0898edd99413412fb94012f9e54ec8142f9b093e7720646a95b16a9906112649083908690613a0f565b60405180910390a160009392505050565b60006002600054141561129a5760405162461bcd60e51b81526004016106c490614214565b600260009081556112a9610e48565b905080156112c0576107ec8160098111156107e557fe5b6108633384612c5a565b6000806112d5610e48565b146112f25760405162461bcd60e51b81526004016106c490613be6565b610b06610972565b600b5460ff1681565b6000600260005414156113285760405162461bcd60e51b81526004016106c490614214565b60026000908155611337610e48565b9050801561134e576107ec8160098111156107e557fe5b6108633384612e7e565b60006002600054141561137d5760405162461bcd60e51b81526004016106c490614214565b6002600090815561138c610e48565b905080156113a3576107ec8160098111156107e557fe5b61086383613102565b6002546000906001600160a01b031633146113cd5761089660016000611744565b600b5460ff161515821515146108ff57600b805460ff19168315151790556040517f7c11d7b79bdcc9099218ef3518d3a3202389ab06e9690c937f724618b9e0c46f906108f6908490613b4b565b6000600260005414156114405760405162461bcd60e51b81526004016106c490614214565b6002600090815561144f610e48565b90508015611466576107ec8160098111156107e557fe5b61086333846000611f9a565b6001600160a01b039182166000908152600d6020908152604080832093909416825291909152205490565b6003546000906001600160a01b0316331415806114b8575033155b156114d0576114c960016000611744565b90506109b3565b60028054600380546001600160a01b038082166001600160a01b03198086168217968790559092169092556040519282169390927ff9ffabca9c8276e99321725bcb43fb076a6c66a54b7f21c4e8146d8519b417dc92611534928692911690613a0f565b60405180910390a16003546040517fca4f2f25d0898edd99413412fb94012f9e54ec8142f9b093e7720646a95b16a9916115799184916001600160a01b031690613a0f565b60405180910390a160009250505090565b6000600260005414156115af5760405162461bcd60e51b81526004016106c490614214565b600260009081556115be610e48565b905080156115d5576107ec8160098111156107e557fe5b61086383613179565b6004546001600160a01b031681565b6002546001600160a01b031681565b6004546000906001600160a01b03166315f24053611618611f17565b6008546009546040518463ffffffff1660e01b8152600401611191939291906142b8565b6000600260005414156116615760405162461bcd60e51b81526004016106c490614214565b60026000908155611670610e48565b90508015611687576107ec8160098111156107e557fe5b61086383613296565b60008060008060008060006116a361378a565b6116ac89612437565b909450925060008460038111156116bf57fe5b146116db5783600080600097509750975097505050505061173d565b6001600160a01b0389166000908152601060205260409020549150611700838361330d565b9094509050600084600381111561171357fe5b1461172f5783600080600097509750975097505050505061173d565b516000975095509093509150505b9193509193565b60007f45b96fe442630264581b197e84bbada861235052c5a1aadfff9ea4e40a969aa083600981111561177357fe5b83602781111561177f57fe5b6000604051611790939291906142b8565b60405180910390a18260098111156117a457fe5b9392505050565b6000806117b661379d565b6001600160a01b0385166000908152600e602052604090206001015460608201526117e085612437565b60808301819052602083018260038111156117f757fe5b600381111561180257fe5b905250600090508160200151600381111561181957fe5b14611841576118356004601983602001516003811115610f9c57fe5b600092509250506119d4565b60001984141561185a5760808101516040820152611862565b604081018490525b600154604082015161187f916001600160a01b03169088906133be565b60e08201819052608082015161189491612af6565b60a08301819052602083018260038111156118ab57fe5b60038111156118b657fe5b90525060009050816020015160038111156118cd57fe5b146118ea5760405162461bcd60e51b81526004016106c490613f6d565b6118fa6008548260e00151612af6565b60c083018190526020830182600381111561191157fe5b600381111561191c57fe5b905250600090508160200151600381111561193357fe5b146119505760405162461bcd60e51b81526004016106c490614044565b60a0810180516001600160a01b0387166000908152600e60205260409081902091825560075460019092019190915560c0830151600881905560e0840151925191517f1a2a22cb034d26d1854bdc6666a5b91fe25efbbb5dcad3b0355478d6f5c362a1936119c1938b938b93613a76565b60405180910390a160e001516000925090505b935093915050565b6001600160a01b038216600090815260106020526040812054151580611a1957506001600160a01b0383166000908152600c602052604090205415155b15611a3157611a2a60036020611744565b9050610794565b611a396137e3565b611a4283611690565b60608501819052604085018290526080850183905260208501846003811115611a6757fe5b6003811115611a7257fe5b90525060009250611a81915050565b81602001516003811115611a9157fe5b14611ab557611aad6004602183602001516003811115610f9c57fe5b915050610794565b60115481608001511015611acf57611aad60036022611744565b6040810151600154611aeb906001600160a01b031686836133be565b14611b085760405162461bcd60e51b81526004016106c490613fca565b611b186008548260400151612af6565b60a0830181905260208301826003811115611b2f57fe5b6003811115611b3a57fe5b9052506000905081602001516003811115611b5157fe5b14611b6e5760405162461bcd60e51b81526004016106c490613f18565b6001600160a01b038084166000908152600e6020908152604080832083815560075460019091015560a085015160085560109091528082208290556060840180519388168352918190209290925582820151905191517f08b197b6ae66d18ee6fa20a826a84579a925b9e646a3bf19e96f59ed568c268892611bf4928892889290613a4d565b60405180910390a16000949350505050565b600a54600090819080611c2757600066071afd498d00009250925050611cb7565b6000611c31611f17565b90506000611c3d61378a565b6000611c4e846008546009546135a1565b935090506000816003811115611c6057fe5b14611c7557955060009450611cb79350505050565b611c7f838661330d565b925090506000816003811115611c9157fe5b14611ca657955060009450611cb79350505050565b5051600095509350611cb792505050565b9091565b6000826001600160a01b0316846001600160a01b03161480611ce457506001600160a01b038316155b15611cfc57611cf560026025611744565b9050610af4565b6000846001600160a01b0316866001600160a01b03161415611d215750600019611d49565b506001600160a01b038085166000908152600d60209081526040808320938916835292905220545b600080600080611d598588612af6565b90945092506000846003811115611d6c57fe5b14611d8957611d7d60046025611744565b95505050505050610af4565b6001600160a01b0389166000908152600c6020526040902054611dac9088612af6565b90945091506000846003811115611dbf57fe5b14611dd057611d7d60046026611744565b6001600160a01b0388166000908152600c6020526040902054611df39088612be0565b90945090506000846003811115611e0657fe5b14611e1757611d7d60046027611744565b6001600160a01b03808a166000908152600c6020526040808220859055918a168152208190556000198514611e6f576001600160a01b03808a166000908152600d60209081526040808320938e168352929052208390555b876001600160a01b0316896001600160a01b03167fddf252ad1be2c89b69c2b068fc378daa952ba7f163c4a11628f55a4df523b3ef89604051611eb291906142a1565b60405180910390a35060009998505050505050505050565b600080600080611eda8686612b19565b90925090506000826003811115611eed57fe5b14611efe5750915060009050611f10565b6000611f09826135df565b9350935050505b9250929050565b6001546040516370a0823160e01b81526000916001600160a01b03169081906370a0823190611f4a9030906004016139fb565b60206040518083038186803b158015611f6257600080fd5b505afa158015611f76573d6000803e3d6000fd5b505050506040513d601f19601f820116820180604052508101906109af91906139c7565b6000821580611fa7575081155b611fc35760405162461bcd60e51b81526004016106c4906141c0565b611fcb61381b565b611fd3611c06565b6040830181905260208301826003811115611fea57fe5b6003811115611ff557fe5b905250600090508160200151600381111561200c57fe5b14612030576120286004601583602001516003811115610f9c57fe5b9150506117a4565b83156120b15760608101849052604080516020810182529082015181526120579085611eca565b608083018190526020830182600381111561206e57fe5b600381111561207957fe5b905250600090508160200151600381111561209057fe5b146120ac576120286004601383602001516003811115610f9c57fe5b61212a565b6120cd83604051806020016040528084604001518152506135ee565b60608301819052602083018260038111156120e457fe5b60038111156120ef57fe5b905250600090508160200151600381111561210657fe5b14612122576120286004601483602001516003811115610f9c57fe5b608081018390525b61213a600a548260600151612af6565b60a083018190526020830182600381111561215157fe5b600381111561215c57fe5b905250600090508160200151600381111561217357fe5b1461218f576120286004601783602001516003811115610f9c57fe5b6001600160a01b0385166000908152600c602052604090205460608201516121b79190612af6565b60c08301819052602083018260038111156121ce57fe5b60038111156121d957fe5b90525060009050816020015160038111156121f057fe5b1461220c576120286004601683602001516003811115610f9c57fe5b8060800151612219611f17565b101561222b5761202860066018611744565b6001546080820151612248916001600160a01b03169087906135fe565b60a0810151600a5560c08101516001600160a01b0386166000818152600c602052604090819020929092556060830151915130927fddf252ad1be2c89b69c2b068fc378daa952ba7f163c4a11628f55a4df523b3ef916122a891906142a1565b60405180910390a3608081015160608201516040517fe5b754fb1abb7f01b499791d0b820ae3b6af3424ac1c59768edb53f4ec31a929926122ea928992613ac0565b60405180910390a1506000949350505050565b604080518082018252601681527574616b654f776e6572736869702875696e743235362960501b6020909101525160009081906001600160a01b038516907fb2e6ceeb1d49a91a4643f2301a191b052162704c5a2b4c43f8b313b2428268a79061236b9086906024016142a1565b60408051601f198184030181529181526020820180516001600160e01b03166001600160e01b03199094169390931790925290516123a991906139df565b6000604051808303816000865af19150503d80600081146123e6576040519150601f19603f3d011682016040523d82523d6000602084013e6123eb565b606091505b50915091508180156124155750805115806124155750808060200190518101906124159190613993565b6124315760405162461bcd60e51b81526004016106c490613d6d565b50505050565b6001600160a01b0381166000908152600e602052604081208054829182918291829161246d5760008095509550505050506124e5565b61247d81600001546007546136b3565b9094509250600084600381111561249057fe5b146124a55783600095509550505050506124e5565b6124b38382600101546136f2565b909450915060008460038111156124c657fe5b146124db5783600095509550505050506124e5565b5060009450925050505b915091565b601354604080518082018252601081526f6f776e65724f662875696e743235362960801b60209091015251600091829182916001600160a01b0316907f6352211e6566aa027e75ac9dbf2423197fbd9b82b9d981a3ab367d355866aa1c906125569087906024016142a1565b60408051601f198184030181529181526020820180516001600160e01b03166001600160e01b031990941693909317909252905161259491906139df565b6000604051808303816000865af19150503d80600081146125d1576040519150601f19603f3d011682016040523d82523d6000602084013e6125d6565b606091505b50915091506000818060200190518101906125f191906138b8565b905082801561260857506001600160a01b03811615155b610af45760405162461bcd60e51b81526004016106c4906140f8565b6001600160a01b0382166000908152600c602052604081205481901561265b576126506003601c611744565b600091509150611f10565b612663613859565b61266c8461371d565b60808201526001600160a01b038086166000908152601260209081526040822080546001810182559083529120018590556013546126ab9116856122fd565b6126bb600f548260800151612be0565b60408301819052602083018260038111156126d257fe5b60038111156126dd57fe5b90525060009050816020015160038111156126f457fe5b146127115760405162461bcd60e51b81526004016106c49061424b565b6001600160a01b03851660009081526010602052604090205460808201516127399190612be0565b606083018190526020830182600381111561275057fe5b600381111561275b57fe5b905250600090508160200151600381111561277257fe5b1461278f5760405162461bcd60e51b81526004016106c490613d19565b604080820151600f5560608201516001600160a01b0387166000908152601060205282902055608082015190517f94c9d5464fed48366596c718219e5fbd3c0c61c1a21391bf239075e9de5a727a916127ea91889190613aa7565b60405180910390a16080015160009590945092505050565b600b54600090819060ff16158061283057506001600160a01b03841660009081526010602052604090205415155b15612841576126506003600e611744565b61284961381b565b612851611c06565b604083018190526020830182600381111561286857fe5b600381111561287357fe5b905250600090508160200151600381111561288a57fe5b146128b2576128a66004601083602001516003811115610f9c57fe5b60009250925050611f10565b6001546128c9906001600160a01b031686866133be565b60c08201819052604080516020810182529083015181526128ea91906135ee565b606083018190526020830182600381111561290157fe5b600381111561290c57fe5b905250600090508160200151600381111561292357fe5b146129405760405162461bcd60e51b81526004016106c4906140c3565b612950600a548260600151612be0565b608083018190526020830182600381111561296757fe5b600381111561297257fe5b905250600090508160200151600381111561298957fe5b146129a65760405162461bcd60e51b81526004016106c490614178565b6001600160a01b0385166000908152600c602052604090205460608201516129ce9190612be0565b60a08301819052602083018260038111156129e557fe5b60038111156129f057fe5b9052506000905081602001516003811115612a0757fe5b14612a245760405162461bcd60e51b81526004016106c490613e2e565b6080810151600a5560a08101516001600160a01b0386166000908152600c6020526040908190209190915560c0820151606083015191517f4c209b5fc8ad50758f13e2e1088ba56a560dff690a1c6fef26394f4c03821c4f92612a8b928992909190613ac0565b60405180910390a1846001600160a01b0316306001600160a01b03167fddf252ad1be2c89b69c2b068fc378daa952ba7f163c4a11628f55a4df523b3ef8360600151604051612ada91906142a1565b60405180910390a360c0015160009590945092505050565b4390565b600080838311612b0d575060009050818303611f10565b50600390506000611f10565b6000612b2361378a565b600080612b348660000151866136b3565b90925090506000826003811115612b4757fe5b14612b6657506040805160208101909152600081529092509050611f10565b60408051602081019091529081526000969095509350505050565b60007f45b96fe442630264581b197e84bbada861235052c5a1aadfff9ea4e40a969aa0846009811115612bb057fe5b846027811115612bbc57fe5b84604051612bcc939291906142b8565b60405180910390a1836009811115610af457fe5b600080838301848110612bf857600092509050611f10565b600260009250925050611f10565b600080600080612c168787612b19565b90925090506000826003811115612c2957fe5b14612c3a57509150600090506119d4565b612c4c612c46826135df565b86612be0565b935093505050935093915050565b6000612c6461381b565b612c6d84612437565b6060830181905260208301826003811115612c8457fe5b6003811115612c8f57fe5b9052506000905081602001516003811115612ca657fe5b14612cc257611aad6004601d83602001516003811115610f9c57fe5b6001600160a01b0384166000908152601060205260409020546080820152600019831415612d1757806060015181608001511015612d01576000612d0d565b80606001518160800151035b6040820152612d1f565b604081018390525b6001600160a01b038416600090815260106020526040908190205490820151612d489190612af6565b60a0830181905260208301826003811115612d5f57fe5b6003811115612d6a57fe5b9052506000905081602001516003811115612d8157fe5b14612d9d57611aad6004601e83602001516003811115610f9c57fe5b80606001518160a001511015612db957611aad6009601f611744565b612dc9600f548260400151612af6565b60c0830181905260208301826003811115612de057fe5b6003811115612deb57fe5b9052506000905081602001516003811115612e0257fe5b14612e1f5760405162461bcd60e51b81526004016106c490613b89565b60c0810151600f5560a08101516001600160a01b03851660009081526010602052604090819020919091558082015190517f925b1add21f66e1e2c8c9e9fffb3e0f4105df02dbd05c280f2fe4d19f5c50be591611bf491879190613aa7565b600b54600090610100900460ff16612e9c57611a2a6003600c611744565b612ea4613889565b612ead84612437565b6040830181905282826003811115612ec157fe5b6003811115612ecc57fe5b9052506000905081516003811115612ee057fe5b14612efc57611aad6004600883600001516003811115610f9c57fe5b600019831415612f5c576040808201516001600160a01b03861660009081526010602052919091205411612f31576000612f52565b6040808201516001600160a01b038616600090815260106020529190912054035b6020820152612f64565b602081018390525b8060200151612f71611f17565b1015612f8357611aad60066009611744565b612f9581604001518260200151612be0565b6060830181905282826003811115612fa957fe5b6003811115612fb457fe5b9052506000905081516003811115612fc857fe5b14612fe457611aad6004600b83600001516003811115610f9c57fe5b60608101516001600160a01b038516600090815260106020526040902054101561301457611aad6009600d611744565b6130246008548260200151612be0565b608083018190528282600381111561303857fe5b600381111561304357fe5b905250600090508151600381111561305757fe5b1461307357611aad6004600a83600001516003811115610f9c57fe5b6001546020820151613090916001600160a01b03169086906135fe565b6060810180516001600160a01b0386166000908152600e60209081526040918290209283556007546001909301929092556080840151600881905591840151925190517f13ed6866d4e1ee6da46f845c46d7e54120883d75c5ea9a2dacc1c4ca8984ab8093611bf49389939192613ae1565b6002546000906001600160a01b031633146131235761089660016000611744565b670de0b6b3a764000082101561313f5761089660026024611744565b60118054908390556040517f389ce8cc8e8243c4ee80c30e284539a8f6fa01c546c8f3f3d76093aace77367e9061126490839086906142aa565b60025460009081906001600160a01b031633146131a45761319c60016000611744565b9150506106d1565b600460009054906101000a90046001600160a01b03169050826001600160a01b0316632191f92a6040518163ffffffff1660e01b815260040160206040518083038186803b1580156131f557600080fd5b505afa158015613209573d6000803e3d6000fd5b505050506040513d601f19601f8201168201806040525081019061322d9190613993565b6132495760405162461bcd60e51b81526004016106c490613df7565b600480546001600160a01b0319166001600160a01b0385161790556040517feb5cc99f497dc2d7106563bb080e06c9b09e3d81a38623ac4d0839575658d1fa906112649083908690613a0f565b6002546000906001600160a01b031633146132b75761089660016000611744565b670de0b6b3a76400008211156132d35761089660026023611744565b60058054908390556040517faaa68312e2ea9d50e16af5068410ab56e1a1fd06037b1a35664812c30f8214609061126490839086906142aa565b600061331761378a565b60008061332c86670de0b6b3a76400006136b3565b9092509050600082600381111561333f57fe5b1461335e57506040805160208101909152600081529092509050611f10565b60008061336b83886136f2565b9092509050600082600381111561337e57fe5b146133a15781604051806020016040528060008152509550955050505050611f10565b604080516020810190915290815260009890975095505050505050565b6040516370a0823160e01b8152600090849082906001600160a01b038316906370a08231906133f19030906004016139fb565b60206040518083038186803b15801561340957600080fd5b505afa15801561341d573d6000803e3d6000fd5b505050506040513d601f19601f8201168201806040525081019061344191906139c7565b6040516323b872dd60e01b81529091506001600160a01b038316906323b872dd9061347490889030908990600401613a29565b600060405180830381600087803b15801561348e57600080fd5b505af11580156134a2573d6000803e3d6000fd5b5050505060003d600081146134be57602081146134c857600080fd5b60001991506134d4565b60206000803e60005191505b50806134f25760405162461bcd60e51b81526004016106c490613c16565b6040516370a0823160e01b81526000906001600160a01b038916906370a08231906135219030906004016139fb565b60206040518083038186803b15801561353957600080fd5b505afa15801561354d573d6000803e3d6000fd5b505050506040513d601f19601f8201168201806040525081019061357191906139c7565b9050828110156135935760405162461bcd60e51b81526004016106c490613cab565b919091039695505050505050565b6000806000806135b18787612be0565b909250905060008260038111156135c457fe5b146135d557509150600090506119d4565b612c4c8186612af6565b51670de0b6b3a7640000900490565b600080600080611eda868661372b565b60405163a9059cbb60e01b815283906001600160a01b0382169063a9059cbb9061362e9086908690600401613aa7565b600060405180830381600087803b15801561364857600080fd5b505af115801561365c573d6000803e3d6000fd5b5050505060003d60008114613678576020811461368257600080fd5b600019915061368e565b60206000803e60005191505b50806136ac5760405162461bcd60e51b81526004016106c490613ce2565b5050505050565b600080836136c657506000905080611f10565b838302838582816136d357fe5b04146136e757600260009250925050611f10565b600092509050611f10565b600080826137065750600190506000611f10565b600083858161371157fe5b04915091509250929050565b5068056bc75e2d6310000090565b600061373561378a565b60008061374a670de0b6b3a7640000876136b3565b9092509050600082600381111561375d57fe5b1461377c57506040805160208101909152600081529092509050611f10565b611f0981866000015161330d565b6040518060200160405280600081525090565b6040805161010081019091528060008152602001600081526020016000815260200160008152602001600081526020016000815260200160008152602001600081525090565b6040805160c08101909152806000815260200160005b8152602001600081526020016000815260200160008152602001600081525090565b6040805160e0810190915280600081526020016000815260200160008152602001600081526020016000815260200160008152602001600081525090565b6040805160a081019091528060008152602001600081526020016000815260200160008152602001600081525090565b6040805160a081019091528060006137f9565b6000602082840312156138ad578081fd5b81356117a481614323565b6000602082840312156138c9578081fd5b81516117a481614323565b600080604083850312156138e6578081fd5b82356138f181614323565b9150602083013561390181614323565b809150509250929050565b600080600060608486031215613920578081fd5b833561392b81614323565b9250602084013561393b81614323565b929592945050506040919091013590565b6000806040838503121561395e578182fd5b823561396981614323565b946020939093013593505050565b600060208284031215613988578081fd5b81356117a481614338565b6000602082840312156139a4578081fd5b81516117a481614338565b6000602082840312156139c0578081fd5b5035919050565b6000602082840312156139d8578081fd5b5051919050565b600082516139f18184602087016142f7565b9190910192915050565b6001600160a01b0391909116815260200190565b6001600160a01b0392831681529116602082015260400190565b6001600160a01b039384168152919092166020820152604081019190915260600190565b6001600160a01b0394851681529290931660208301526040820152606081019190915260800190565b6001600160a01b03958616815293909416602084015260408301919091526060820152608081019190915260a00190565b6001600160a01b03929092168252602082015260400190565b6001600160a01b039390931683526020830191909152604082015260600190565b6001600160a01b0394909416845260208401929092526040830152606082015260800190565b6020808252825182820181905260009190848201906040850190845b81811015613b3f57835183529284019291840191600101613b23565b50909695505050505050565b901515815260200190565b6000602082528251806020840152613b758160408501602087016142f7565b601f01601f19169190910160400192915050565b6020808252603b908201527f52454445454d5f434f4c4c41544552414c535f4e45575f544f54414c5f434f4c60408201527f4c41544552414c535f43414c43554c4154494f4e5f4641494c45440000000000606082015260800190565b6020808252601690820152751858d8dc9d59481a5b9d195c995cdd0819985a5b195960521b604082015260600190565b60208082526018908201527f544f4b454e5f5452414e534645525f494e5f4641494c45440000000000000000604082015260600190565b6020808252601f908201527f62616c616e636520636f756c64206e6f742062652063616c63756c6174656400604082015260600190565b6020808252600d908201526c36bab9ba1031329037b73bb2b960991b604082015260600190565b6020808252601a908201527f544f4b454e5f5452414e534645525f494e5f4f564552464c4f57000000000000604082015260600190565b60208082526019908201527f544f4b454e5f5452414e534645525f4f55545f4641494c454400000000000000604082015260600190565b60208082526034908201527f434f4c4c41544552414c495a455f4e45575f4143434f554e545f42414c414e436040820152731157d0d05310d55310551253d397d1905253115160621b606082015260800190565b6020808252601d908201527f4e46544f776e6572736869703a205452414e534645525f4641494c4544000000604082015260600190565b60208082526033908201527f636f6c6c61746572616c5261746553746f7265643a20636f6c6c61746572616c60408201527214985d19525b9d195c9b985b0819985a5b1959606a1b606082015260800190565b6020808252601c908201527f6d61726b6572206d6574686f642072657475726e65642066616c736500000000604082015260600190565b6020808252602b908201527f4d494e545f4e45575f4143434f554e545f42414c414e43455f43414c43554c4160408201526a151253d397d1905253115160aa1b606082015260800190565b60208082526037908201527f626f72726f7742616c616e636553746f7265643a20626f72726f7742616c616e60408201527f636553746f726564496e7465726e616c206661696c6564000000000000000000606082015260800190565b60208082526022908201527f63616e6e6f7420617070726f766520746f20746865207a65726f206164647265604082015261737360f01b606082015260800190565b60208082526035908201527f4c49515549444154455f424f52524f575f4e45575f544f54414c5f424f52524f60408201527415d4d7d0d05310d55310551253d397d19052531151605a1b606082015260800190565b6020808252603a908201527f52455041595f424f52524f575f4e45575f4143434f554e545f424f52524f575f60408201527f42414c414e43455f43414c43554c4154494f4e5f4641494c4544000000000000606082015260800190565b60208082526023908201527f4c49515549444154455f424f52524f575f5452414e534645525f494e5f46414960408201526213115160ea1b606082015260800190565b6020808252601f908201527f636f756c64206e6f742063616c63756c61746520626c6f636b2064656c746100604082015260600190565b60208082526031908201527f52455041595f424f52524f575f4e45575f544f54414c5f42414c414e43455f43604082015270105310d55310551253d397d19052531151607a1b606082015260800190565b602080825260149082015273616464726573732063616e74206265207a65726f60601b604082015260600190565b6020808252818101527f4d494e545f45584348414e47455f43414c43554c4154494f4e5f4641494c4544604082015260600190565b6020808252601190820152701b999d0e881b9bdd081d985a5b19081a59607a1b604082015260600190565b60208082526035908201527f65786368616e67655261746553746f7265643a2065786368616e67655261746560408201527414dd1bdc9959125b9d195c9b985b0819985a5b1959605a1b606082015260800190565b60208082526028908201527f4d494e545f4e45575f544f54414c5f535550504c595f43414c43554c4154494f6040820152671397d1905253115160c21b606082015260800190565b60208082526034908201527f6f6e65206f662072656465656d546f6b656e73496e206f722072656465656d416040820152736d6f756e74496e206d757374206265207a65726f60601b606082015260800190565b6020808252601f908201527f5265656e7472616e637947756172643a207265656e7472616e742063616c6c00604082015260600190565b60208082526036908201527f434f4c4c41544552414c495a455f4e45575f544f54414c5f434f4c4c41544552604082015275105314d7d0d05310d55310551253d397d1905253115160521b606082015260800190565b90815260200190565b918252602082015260400190565b9283526020830191909152604082015260600190565b93845260208401929092526040830152606082015260800190565b60ff91909116815260200190565b60005b838110156143125781810151838201526020016142fa565b838111156124315750506000910152565b6001600160a01b0381168114610cab57600080fd5b8015158114610cab57600080fdfea26469706673582212205a27e4859aa2cb6563a7e1b6ab38ad5a68f06e442e1a654f7f9f5269302e73cd64736f6c63430007060033",
			"opcodes": "PUSH1 0x80 PUSH1 0x40 MSTORE CALLVALUE DUP1 ISZERO PUSH3 0x11 JUMPI PUSH1 0x0 DUP1 REVERT JUMPDEST POP PUSH1 0x40 MLOAD PUSH3 0x498C CODESIZE SUB DUP1 PUSH3 0x498C DUP4 CODECOPY DUP2 ADD PUSH1 0x40 DUP2 SWAP1 MSTORE PUSH3 0x34 SWAP2 PUSH3 0x467 JUMP JUMPDEST PUSH1 0x1 PUSH1 0x0 SSTORE PUSH1 0x2 DUP1 SLOAD PUSH1 0x1 PUSH1 0x1 PUSH1 0xA0 SHL SUB NOT AND CALLER OR SWAP1 SSTORE PUSH3 0x55 PUSH3 0x19C JUMP JUMPDEST PUSH1 0x6 SSTORE PUSH8 0xDE0B6B3A7640000 PUSH1 0x7 SSTORE PUSH1 0x0 PUSH3 0x79 PUSH8 0x6F05B59D3B20000 PUSH3 0x1A0 JUMP JUMPDEST SWAP1 POP DUP1 ISZERO PUSH3 0xA5 JUMPI PUSH1 0x40 MLOAD PUSH3 0x461BCD PUSH1 0xE5 SHL DUP2 MSTORE PUSH1 0x4 ADD PUSH3 0x9C SWAP1 PUSH3 0x56E JUMP JUMPDEST PUSH1 0x40 MLOAD DUP1 SWAP2 SUB SWAP1 REVERT JUMPDEST PUSH3 0xB8 PUSH8 0x1BC16D674EC80000 PUSH3 0x23A JUMP JUMPDEST SWAP1 POP DUP1 ISZERO PUSH3 0xDB JUMPI PUSH1 0x40 MLOAD PUSH3 0x461BCD PUSH1 0xE5 SHL DUP2 MSTORE PUSH1 0x4 ADD PUSH3 0x9C SWAP1 PUSH3 0x5A5 JUMP JUMPDEST PUSH3 0xE6 DUP5 PUSH3 0x2B9 JUMP JUMPDEST SWAP1 POP DUP1 ISZERO PUSH3 0x109 JUMPI PUSH1 0x40 MLOAD PUSH3 0x461BCD PUSH1 0xE5 SHL DUP2 MSTORE PUSH1 0x4 ADD PUSH3 0x9C SWAP1 PUSH3 0x4F5 JUMP JUMPDEST PUSH1 0xB DUP1 SLOAD PUSH2 0x100 PUSH1 0x1 PUSH1 0xFF NOT SWAP1 SWAP3 AND DUP3 OR PUSH2 0xFF00 NOT AND OR SWAP1 SWAP2 SSTORE DUP1 SLOAD PUSH1 0x1 PUSH1 0x1 PUSH1 0xA0 SHL SUB NOT SWAP1 DUP2 AND PUSH1 0x1 PUSH1 0x1 PUSH1 0xA0 SHL SUB DUP6 DUP2 AND SWAP2 SWAP1 SWAP2 OR SWAP1 SWAP3 SSTORE PUSH1 0x13 DUP1 SLOAD SWAP1 SWAP2 AND SWAP2 DUP6 AND SWAP2 SWAP1 SWAP2 OR SWAP1 SSTORE PUSH1 0x40 MLOAD ADDRESS SWAP1 PUSH1 0x0 SWAP1 PUSH32 0xDDF252AD1BE2C89B69C2B068FC378DAA952BA7F163C4A11628F55A4DF523B3EF SWAP1 PUSH3 0x18A SWAP1 DUP4 SWAP1 PUSH3 0x4EC JUMP JUMPDEST PUSH1 0x40 MLOAD DUP1 SWAP2 SUB SWAP1 LOG3 POP POP POP POP PUSH3 0x600 JUMP JUMPDEST NUMBER SWAP1 JUMP JUMPDEST PUSH1 0x2 SLOAD PUSH1 0x0 SWAP1 PUSH1 0x1 PUSH1 0x1 PUSH1 0xA0 SHL SUB AND CALLER EQ PUSH3 0x1CC JUMPI PUSH3 0x1C4 PUSH1 0x1 PUSH1 0x0 PUSH3 0x3E3 JUMP JUMPDEST SWAP1 POP PUSH3 0x235 JUMP JUMPDEST PUSH8 0xDE0B6B3A7640000 DUP3 GT ISZERO PUSH3 0x1EB JUMPI PUSH3 0x1C4 PUSH1 0x2 PUSH1 0x23 PUSH3 0x3E3 JUMP JUMPDEST PUSH1 0x5 DUP1 SLOAD SWAP1 DUP4 SWAP1 SSTORE PUSH1 0x40 MLOAD PUSH32 0xAAA68312E2EA9D50E16AF5068410AB56E1A1FD06037B1A35664812C30F821460 SWAP1 PUSH3 0x227 SWAP1 DUP4 SWAP1 DUP7 SWAP1 PUSH3 0x5DC JUMP JUMPDEST PUSH1 0x40 MLOAD DUP1 SWAP2 SUB SWAP1 LOG1 PUSH1 0x0 SWAP2 POP POP JUMPDEST SWAP2 SWAP1 POP JUMP JUMPDEST PUSH1 0x2 SLOAD PUSH1 0x0 SWAP1 PUSH1 0x1 PUSH1 0x1 PUSH1 0xA0 SHL SUB AND CALLER EQ PUSH3 0x25E JUMPI PUSH3 0x1C4 PUSH1 0x1 PUSH1 0x0 PUSH3 0x3E3 JUMP JUMPDEST PUSH8 0xDE0B6B3A7640000 DUP3 LT ISZERO PUSH3 0x27D JUMPI PUSH3 0x1C4 PUSH1 0x2 PUSH1 0x24 PUSH3 0x3E3 JUMP JUMPDEST PUSH1 0x11 DUP1 SLOAD SWAP1 DUP4 SWAP1 SSTORE PUSH1 0x40 MLOAD PUSH32 0x389CE8CC8E8243C4EE80C30E284539A8F6FA01C546C8F3F3D76093AACE77367E SWAP1 PUSH3 0x227 SWAP1 DUP4 SWAP1 DUP7 SWAP1 PUSH3 0x5DC JUMP JUMPDEST PUSH1 0x2 SLOAD PUSH1 0x0 SWAP1 DUP2 SWAP1 PUSH1 0x1 PUSH1 0x1 PUSH1 0xA0 SHL SUB AND CALLER EQ PUSH3 0x2E8 JUMPI PUSH3 0x2DF PUSH1 0x1 PUSH1 0x0 PUSH3 0x3E3 JUMP JUMPDEST SWAP2 POP POP PUSH3 0x235 JUMP JUMPDEST PUSH1 0x4 PUSH1 0x0 SWAP1 SLOAD SWAP1 PUSH2 0x100 EXP SWAP1 DIV PUSH1 0x1 PUSH1 0x1 PUSH1 0xA0 SHL SUB AND SWAP1 POP DUP3 PUSH1 0x1 PUSH1 0x1 PUSH1 0xA0 SHL SUB AND PUSH4 0x2191F92A PUSH1 0x40 MLOAD DUP2 PUSH4 0xFFFFFFFF AND PUSH1 0xE0 SHL DUP2 MSTORE PUSH1 0x4 ADD PUSH1 0x20 PUSH1 0x40 MLOAD DUP1 DUP4 SUB DUP2 DUP7 DUP1 EXTCODESIZE ISZERO DUP1 ISZERO PUSH3 0x33A JUMPI PUSH1 0x0 DUP1 REVERT JUMPDEST POP GAS STATICCALL ISZERO DUP1 ISZERO PUSH3 0x34F JUMPI RETURNDATASIZE PUSH1 0x0 DUP1 RETURNDATACOPY RETURNDATASIZE PUSH1 0x0 REVERT JUMPDEST POP POP POP POP PUSH1 0x40 MLOAD RETURNDATASIZE PUSH1 0x1F NOT PUSH1 0x1F DUP3 ADD AND DUP3 ADD DUP1 PUSH1 0x40 MSTORE POP DUP2 ADD SWAP1 PUSH3 0x375 SWAP2 SWAP1 PUSH3 0x4B0 JUMP JUMPDEST PUSH3 0x394 JUMPI PUSH1 0x40 MLOAD PUSH3 0x461BCD PUSH1 0xE5 SHL DUP2 MSTORE PUSH1 0x4 ADD PUSH3 0x9C SWAP1 PUSH3 0x537 JUMP JUMPDEST PUSH1 0x4 DUP1 SLOAD PUSH1 0x1 PUSH1 0x1 PUSH1 0xA0 SHL SUB NOT AND PUSH1 0x1 PUSH1 0x1 PUSH1 0xA0 SHL SUB DUP6 AND OR SWAP1 SSTORE PUSH1 0x40 MLOAD PUSH32 0xEB5CC99F497DC2D7106563BB080E06C9B09E3D81A38623AC4D0839575658D1FA SWAP1 PUSH3 0x227 SWAP1 DUP4 SWAP1 DUP7 SWAP1 PUSH3 0x4D2 JUMP JUMPDEST PUSH1 0x0 PUSH32 0x45B96FE442630264581B197E84BBADA861235052C5A1AADFFF9EA4E40A969AA0 DUP4 PUSH1 0x9 DUP2 GT ISZERO PUSH3 0x413 JUMPI INVALID JUMPDEST DUP4 PUSH1 0x27 DUP2 GT ISZERO PUSH3 0x420 JUMPI INVALID JUMPDEST PUSH1 0x0 PUSH1 0x40 MLOAD PUSH3 0x433 SWAP4 SWAP3 SWAP2 SWAP1 PUSH3 0x5EA JUMP JUMPDEST PUSH1 0x40 MLOAD DUP1 SWAP2 SUB SWAP1 LOG1 DUP3 PUSH1 0x9 DUP2 GT ISZERO PUSH3 0x448 JUMPI INVALID JUMPDEST SWAP4 SWAP3 POP POP POP JUMP JUMPDEST DUP1 MLOAD PUSH1 0x1 PUSH1 0x1 PUSH1 0xA0 SHL SUB DUP2 AND DUP2 EQ PUSH3 0x235 JUMPI PUSH1 0x0 DUP1 REVERT JUMPDEST PUSH1 0x0 DUP1 PUSH1 0x0 PUSH1 0x60 DUP5 DUP7 SUB SLT ISZERO PUSH3 0x47C JUMPI DUP3 DUP4 REVERT JUMPDEST PUSH3 0x487 DUP5 PUSH3 0x44F JUMP JUMPDEST SWAP3 POP PUSH3 0x497 PUSH1 0x20 DUP6 ADD PUSH3 0x44F JUMP JUMPDEST SWAP2 POP PUSH3 0x4A7 PUSH1 0x40 DUP6 ADD PUSH3 0x44F JUMP JUMPDEST SWAP1 POP SWAP3 POP SWAP3 POP SWAP3 JUMP JUMPDEST PUSH1 0x0 PUSH1 0x20 DUP3 DUP5 SUB SLT ISZERO PUSH3 0x4C2 JUMPI DUP1 DUP2 REVERT JUMPDEST DUP2 MLOAD DUP1 ISZERO ISZERO DUP2 EQ PUSH3 0x448 JUMPI DUP2 DUP3 REVERT JUMPDEST PUSH1 0x1 PUSH1 0x1 PUSH1 0xA0 SHL SUB SWAP3 DUP4 AND DUP2 MSTORE SWAP2 AND PUSH1 0x20 DUP3 ADD MSTORE PUSH1 0x40 ADD SWAP1 JUMP JUMPDEST SWAP1 DUP2 MSTORE PUSH1 0x20 ADD SWAP1 JUMP JUMPDEST PUSH1 0x20 DUP1 DUP3 MSTORE PUSH1 0x22 SWAP1 DUP3 ADD MSTORE PUSH32 0x73657474696E6720696E7465726573742072617465206D6F64656C206661696C PUSH1 0x40 DUP3 ADD MSTORE PUSH2 0x1959 PUSH1 0xF2 SHL PUSH1 0x60 DUP3 ADD MSTORE PUSH1 0x80 ADD SWAP1 JUMP JUMPDEST PUSH1 0x20 DUP1 DUP3 MSTORE PUSH1 0x1C SWAP1 DUP3 ADD MSTORE PUSH32 0x6D61726B6572206D6574686F642072657475726E65642066616C736500000000 PUSH1 0x40 DUP3 ADD MSTORE PUSH1 0x60 ADD SWAP1 JUMP JUMPDEST PUSH1 0x20 DUP1 DUP3 MSTORE PUSH1 0x1D SWAP1 DUP3 ADD MSTORE PUSH32 0x73657474696E67207265736572766520666163746F72206661696C6564000000 PUSH1 0x40 DUP3 ADD MSTORE PUSH1 0x60 ADD SWAP1 JUMP JUMPDEST PUSH1 0x20 DUP1 DUP3 MSTORE PUSH1 0x1F SWAP1 DUP3 ADD MSTORE PUSH32 0x73657474696E67206C697175696461746520666163746F72206661696C656400 PUSH1 0x40 DUP3 ADD MSTORE PUSH1 0x60 ADD SWAP1 JUMP JUMPDEST SWAP2 DUP3 MSTORE PUSH1 0x20 DUP3 ADD MSTORE PUSH1 0x40 ADD SWAP1 JUMP JUMPDEST SWAP3 DUP4 MSTORE PUSH1 0x20 DUP4 ADD SWAP2 SWAP1 SWAP2 MSTORE PUSH1 0x40 DUP3 ADD MSTORE PUSH1 0x60 ADD SWAP1 JUMP JUMPDEST PUSH2 0x437C DUP1 PUSH3 0x610 PUSH1 0x0 CODECOPY PUSH1 0x0 RETURN INVALID PUSH1 0x80 PUSH1 0x40 MSTORE CALLVALUE DUP1 ISZERO PUSH2 0x10 JUMPI PUSH1 0x0 DUP1 REVERT JUMPDEST POP PUSH1 0x4 CALLDATASIZE LT PUSH2 0x341 JUMPI PUSH1 0x0 CALLDATALOAD PUSH1 0xE0 SHR DUP1 PUSH4 0x95D89B41 GT PUSH2 0x1B8 JUMPI DUP1 PUSH4 0xBD37B775 GT PUSH2 0x104 JUMPI DUP1 PUSH4 0xDD62ED3E GT PUSH2 0xA2 JUMPI DUP1 PUSH4 0xF3FDB15A GT PUSH2 0x7C JUMPI DUP1 PUSH4 0xF3FDB15A EQ PUSH2 0x658 JUMPI DUP1 PUSH4 0xF851A440 EQ PUSH2 0x660 JUMPI DUP1 PUSH4 0xF8F9DA28 EQ PUSH2 0x668 JUMPI DUP1 PUSH4 0xFCA7820B EQ PUSH2 0x670 JUMPI PUSH2 0x341 JUMP JUMPDEST DUP1 PUSH4 0xDD62ED3E EQ PUSH2 0x62A JUMPI DUP1 PUSH4 0xE9C714F2 EQ PUSH2 0x63D JUMPI DUP1 PUSH4 0xF2B3ABBD EQ PUSH2 0x645 JUMPI PUSH2 0x341 JUMP JUMPDEST DUP1 PUSH4 0xC5EBEAEC GT PUSH2 0xDE JUMPI DUP1 PUSH4 0xC5EBEAEC EQ PUSH2 0x5DE JUMPI DUP1 PUSH4 0xC95DE7CF EQ PUSH2 0x5F1 JUMPI DUP1 PUSH4 0xD8E94EA9 EQ PUSH2 0x604 JUMPI DUP1 PUSH4 0xDB006A75 EQ PUSH2 0x617 JUMPI PUSH2 0x341 JUMP JUMPDEST DUP1 PUSH4 0xBD37B775 EQ PUSH2 0x5BB JUMPI DUP1 PUSH4 0xBD6D894D EQ PUSH2 0x5CE JUMPI DUP1 PUSH4 0xC467201E EQ PUSH2 0x5D6 JUMPI PUSH2 0x341 JUMP JUMPDEST DUP1 PUSH4 0xA2E354C8 GT PUSH2 0x171 JUMPI DUP1 PUSH4 0xAA5AF0FD GT PUSH2 0x14B JUMPI DUP1 PUSH4 0xAA5AF0FD EQ PUSH2 0x590 JUMPI DUP1 PUSH4 0xAE9D70B0 EQ PUSH2 0x598 JUMPI DUP1 PUSH4 0xB2879EE4 EQ PUSH2 0x5A0 JUMPI DUP1 PUSH4 0xB71D1A0C EQ PUSH2 0x5A8 JUMPI PUSH2 0x341 JUMP JUMPDEST DUP1 PUSH4 0xA2E354C8 EQ PUSH2 0x56D JUMPI DUP1 PUSH4 0xA6AFED95 EQ PUSH2 0x575 JUMPI DUP1 PUSH4 0xA9059CBB EQ PUSH2 0x57D JUMPI PUSH2 0x341 JUMP JUMPDEST DUP1 PUSH4 0x95D89B41 EQ PUSH2 0x506 JUMPI DUP1 PUSH4 0x95DD9193 EQ PUSH2 0x50E JUMPI DUP1 PUSH4 0x9937EDFE EQ PUSH2 0x521 JUMPI DUP1 PUSH4 0x9B56D6C9 EQ PUSH2 0x534 JUMPI DUP1 PUSH4 0x9F06AA08 EQ PUSH2 0x547 JUMPI DUP1 PUSH4 0xA0712D68 EQ PUSH2 0x55A JUMPI PUSH2 0x341 JUMP JUMPDEST DUP1 PUSH4 0x30504B6F GT PUSH2 0x292 JUMPI DUP1 PUSH4 0x5BF8633A GT PUSH2 0x230 JUMPI DUP1 PUSH4 0x73ACEE98 GT PUSH2 0x20A JUMPI DUP1 PUSH4 0x73ACEE98 EQ PUSH2 0x4CE JUMPI DUP1 PUSH4 0x852A12E3 EQ PUSH2 0x4D6 JUMPI DUP1 PUSH4 0x883747C4 EQ PUSH2 0x4E9 JUMPI DUP1 PUSH4 0x8F840DDD EQ PUSH2 0x4FE JUMPI PUSH2 0x341 JUMP JUMPDEST DUP1 PUSH4 0x5BF8633A EQ PUSH2 0x4AB JUMPI DUP1 PUSH4 0x6C540BAF EQ PUSH2 0x4B3 JUMPI DUP1 PUSH4 0x70A08231 EQ PUSH2 0x4BB JUMPI PUSH2 0x341 JUMP JUMPDEST DUP1 PUSH4 0x3B1D21A2 GT PUSH2 0x26C JUMPI DUP1 PUSH4 0x3B1D21A2 EQ PUSH2 0x473 JUMPI DUP1 PUSH4 0x47BD3718 EQ PUSH2 0x47B JUMPI DUP1 PUSH4 0x590E3F60 EQ PUSH2 0x483 JUMPI DUP1 PUSH4 0x5BB31693 EQ PUSH2 0x4A3 JUMPI PUSH2 0x341 JUMP JUMPDEST DUP1 PUSH4 0x30504B6F EQ PUSH2 0x443 JUMPI DUP1 PUSH4 0x313CE567 EQ PUSH2 0x44B JUMPI DUP1 PUSH4 0x3AF9E669 EQ PUSH2 0x460 JUMPI PUSH2 0x341 JUMP JUMPDEST DUP1 PUSH4 0x17539B1E GT PUSH2 0x2FF JUMPI DUP1 PUSH4 0x182DF0F5 GT PUSH2 0x2D9 JUMPI DUP1 PUSH4 0x182DF0F5 EQ PUSH2 0x400 JUMPI DUP1 PUSH4 0x23B872DD EQ PUSH2 0x408 JUMPI DUP1 PUSH4 0x2608F818 EQ PUSH2 0x41B JUMPI DUP1 PUSH4 0x26782247 EQ PUSH2 0x42E JUMPI PUSH2 0x341 JUMP JUMPDEST DUP1 PUSH4 0x17539B1E EQ PUSH2 0x3D2 JUMPI DUP1 PUSH4 0x17BFDFBC EQ PUSH2 0x3E5 JUMPI DUP1 PUSH4 0x18160DDD EQ PUSH2 0x3F8 JUMPI PUSH2 0x341 JUMP JUMPDEST DUP1 PUSH3 0x517F62 EQ PUSH2 0x346 JUMPI DUP1 PUSH4 0x6FDDE03 EQ PUSH2 0x36F JUMPI DUP1 PUSH4 0x95EA7B3 EQ PUSH2 0x384 JUMPI DUP1 PUSH4 0xE752702 EQ PUSH2 0x3A4 JUMPI DUP1 PUSH4 0x12F0DEA7 EQ PUSH2 0x3B7 JUMPI DUP1 PUSH4 0x173B9904 EQ PUSH2 0x3CA JUMPI JUMPDEST PUSH1 0x0 DUP1 REVERT JUMPDEST PUSH2 0x359 PUSH2 0x354 CALLDATASIZE PUSH1 0x4 PUSH2 0x389C JUMP JUMPDEST PUSH2 0x683 JUMP JUMPDEST PUSH1 0x40 MLOAD PUSH2 0x366 SWAP2 SWAP1 PUSH2 0x42A1 JUMP JUMPDEST PUSH1 0x40 MLOAD DUP1 SWAP2 SUB SWAP1 RETURN JUMPDEST PUSH2 0x377 PUSH2 0x6D6 JUMP JUMPDEST PUSH1 0x40 MLOAD PUSH2 0x366 SWAP2 SWAP1 PUSH2 0x3B56 JUMP JUMPDEST PUSH2 0x397 PUSH2 0x392 CALLDATASIZE PUSH1 0x4 PUSH2 0x394C JUMP JUMPDEST PUSH2 0x705 JUMP JUMPDEST PUSH1 0x40 MLOAD PUSH2 0x366 SWAP2 SWAP1 PUSH2 0x3B4B JUMP JUMPDEST PUSH2 0x359 PUSH2 0x3B2 CALLDATASIZE PUSH1 0x4 PUSH2 0x39AF JUMP JUMPDEST PUSH2 0x79A JUMP JUMPDEST PUSH2 0x359 PUSH2 0x3C5 CALLDATASIZE PUSH1 0x4 PUSH2 0x389C JUMP JUMPDEST PUSH2 0x80E JUMP JUMPDEST PUSH2 0x359 PUSH2 0x86F JUMP JUMPDEST PUSH2 0x359 PUSH2 0x3E0 CALLDATASIZE PUSH1 0x4 PUSH2 0x3977 JUMP JUMPDEST PUSH2 0x875 JUMP JUMPDEST PUSH2 0x359 PUSH2 0x3F3 CALLDATASIZE PUSH1 0x4 PUSH2 0x389C JUMP JUMPDEST PUSH2 0x907 JUMP JUMPDEST PUSH2 0x359 PUSH2 0x96C JUMP JUMPDEST PUSH2 0x359 PUSH2 0x972 JUMP JUMPDEST PUSH2 0x397 PUSH2 0x416 CALLDATASIZE PUSH1 0x4 PUSH2 0x390C JUMP JUMPDEST PUSH2 0x9B6 JUMP JUMPDEST PUSH2 0x359 PUSH2 0x429 CALLDATASIZE PUSH1 0x4 PUSH2 0x394C JUMP JUMPDEST PUSH2 0x9FC JUMP JUMPDEST PUSH2 0x436 PUSH2 0xA68 JUMP JUMPDEST PUSH1 0x40 MLOAD PUSH2 0x366 SWAP2 SWAP1 PUSH2 0x39FB JUMP JUMPDEST PUSH2 0x359 PUSH2 0xA77 JUMP JUMPDEST PUSH2 0x453 PUSH2 0xA7D JUMP JUMPDEST PUSH1 0x40 MLOAD PUSH2 0x366 SWAP2 SWAP1 PUSH2 0x42E9 JUMP JUMPDEST PUSH2 0x359 PUSH2 0x46E CALLDATASIZE PUSH1 0x4 PUSH2 0x389C JUMP JUMPDEST PUSH2 0xA82 JUMP JUMPDEST PUSH2 0x359 PUSH2 0xAFC JUMP JUMPDEST PUSH2 0x359 PUSH2 0xB0B JUMP JUMPDEST PUSH2 0x496 PUSH2 0x491 CALLDATASIZE PUSH1 0x4 PUSH2 0x389C JUMP JUMPDEST PUSH2 0xB11 JUMP JUMPDEST PUSH1 0x40 MLOAD PUSH2 0x366 SWAP2 SWAP1 PUSH2 0x3B07 JUMP JUMPDEST PUSH2 0x397 PUSH2 0xBA3 JUMP JUMPDEST PUSH2 0x436 PUSH2 0xBB1 JUMP JUMPDEST PUSH2 0x359 PUSH2 0xBC0 JUMP JUMPDEST PUSH2 0x359 PUSH2 0x4C9 CALLDATASIZE PUSH1 0x4 PUSH2 0x389C JUMP JUMPDEST PUSH2 0xBC6 JUMP JUMPDEST PUSH2 0x359 PUSH2 0xBE1 JUMP JUMPDEST PUSH2 0x359 PUSH2 0x4E4 CALLDATASIZE PUSH1 0x4 PUSH2 0x39AF JUMP JUMPDEST PUSH2 0xC3E JUMP JUMPDEST PUSH2 0x4FC PUSH2 0x4F7 CALLDATASIZE PUSH1 0x4 PUSH2 0x39AF JUMP JUMPDEST PUSH2 0xC95 JUMP JUMPDEST STOP JUMPDEST PUSH2 0x359 PUSH2 0xCAE JUMP JUMPDEST PUSH2 0x377 PUSH2 0xCB4 JUMP JUMPDEST PUSH2 0x359 PUSH2 0x51C CALLDATASIZE PUSH1 0x4 PUSH2 0x389C JUMP JUMPDEST PUSH2 0xCD5 JUMP JUMPDEST PUSH2 0x359 PUSH2 0x52F CALLDATASIZE PUSH1 0x4 PUSH2 0x389C JUMP JUMPDEST PUSH2 0xD13 JUMP JUMPDEST PUSH2 0x359 PUSH2 0x542 CALLDATASIZE PUSH1 0x4 PUSH2 0x389C JUMP JUMPDEST PUSH2 0xD44 JUMP JUMPDEST PUSH2 0x359 PUSH2 0x555 CALLDATASIZE PUSH1 0x4 PUSH2 0x39AF JUMP JUMPDEST PUSH2 0xD5F JUMP JUMPDEST PUSH2 0x359 PUSH2 0x568 CALLDATASIZE PUSH1 0x4 PUSH2 0x39AF JUMP JUMPDEST PUSH2 0xDED JUMP JUMPDEST PUSH2 0x359 PUSH2 0xE42 JUMP JUMPDEST PUSH2 0x359 PUSH2 0xE48 JUMP JUMPDEST PUSH2 0x397 PUSH2 0x58B CALLDATASIZE PUSH1 0x4 PUSH2 0x394C JUMP JUMPDEST PUSH2 0x1102 JUMP JUMPDEST PUSH2 0x359 PUSH2 0x1147 JUMP JUMPDEST PUSH2 0x359 PUSH2 0x114D JUMP JUMPDEST PUSH2 0x436 PUSH2 0x11E1 JUMP JUMPDEST PUSH2 0x359 PUSH2 0x5B6 CALLDATASIZE PUSH1 0x4 PUSH2 0x389C JUMP JUMPDEST PUSH2 0x11F0 JUMP JUMPDEST PUSH2 0x359 PUSH2 0x5C9 CALLDATASIZE PUSH1 0x4 PUSH2 0x39AF JUMP JUMPDEST PUSH2 0x1275 JUMP JUMPDEST PUSH2 0x359 PUSH2 0x12CA JUMP JUMPDEST PUSH2 0x397 PUSH2 0x12FA JUMP JUMPDEST PUSH2 0x359 PUSH2 0x5EC CALLDATASIZE PUSH1 0x4 PUSH2 0x39AF JUMP JUMPDEST PUSH2 0x1303 JUMP JUMPDEST PUSH2 0x359 PUSH2 0x5FF CALLDATASIZE PUSH1 0x4 PUSH2 0x39AF JUMP JUMPDEST PUSH2 0x1358 JUMP JUMPDEST PUSH2 0x359 PUSH2 0x612 CALLDATASIZE PUSH1 0x4 PUSH2 0x3977 JUMP JUMPDEST PUSH2 0x13AC JUMP JUMPDEST PUSH2 0x359 PUSH2 0x625 CALLDATASIZE PUSH1 0x4 PUSH2 0x39AF JUMP JUMPDEST PUSH2 0x141B JUMP JUMPDEST PUSH2 0x359 PUSH2 0x638 CALLDATASIZE PUSH1 0x4 PUSH2 0x38D4 JUMP JUMPDEST PUSH2 0x1472 JUMP JUMPDEST PUSH2 0x359 PUSH2 0x149D JUMP JUMPDEST PUSH2 0x359 PUSH2 0x653 CALLDATASIZE PUSH1 0x4 PUSH2 0x389C JUMP JUMPDEST PUSH2 0x158A JUMP JUMPDEST PUSH2 0x436 PUSH2 0x15DE JUMP JUMPDEST PUSH2 0x436 PUSH2 0x15ED JUMP JUMPDEST PUSH2 0x359 PUSH2 0x15FC JUMP JUMPDEST PUSH2 0x359 PUSH2 0x67E CALLDATASIZE PUSH1 0x4 PUSH2 0x39AF JUMP JUMPDEST PUSH2 0x163C JUMP JUMPDEST PUSH1 0x0 DUP1 PUSH1 0x0 PUSH2 0x691 DUP5 PUSH2 0x1690 JUMP JUMPDEST POP SWAP2 SWAP4 POP SWAP2 POP PUSH1 0x0 SWAP1 POP DUP3 PUSH1 0x3 DUP2 GT ISZERO PUSH2 0x6A7 JUMPI INVALID JUMPDEST EQ PUSH2 0x6CD JUMPI PUSH1 0x40 MLOAD PUSH3 0x461BCD PUSH1 0xE5 SHL DUP2 MSTORE PUSH1 0x4 ADD PUSH2 0x6C4 SWAP1 PUSH2 0x3DA4 JUMP JUMPDEST PUSH1 0x40 MLOAD DUP1 SWAP2 SUB SWAP1 REVERT JUMPDEST SWAP2 POP POP JUMPDEST SWAP2 SWAP1 POP JUMP JUMPDEST PUSH1 0x40 MLOAD DUP1 PUSH1 0x40 ADD PUSH1 0x40 MSTORE DUP1 PUSH1 0x13 DUP2 MSTORE PUSH1 0x20 ADD PUSH19 0x10D95C9D1A599A58D85D19481BD98819519253 PUSH1 0x6A SHL DUP2 MSTORE POP DUP2 JUMP JUMPDEST PUSH1 0x0 PUSH1 0x1 PUSH1 0x1 PUSH1 0xA0 SHL SUB DUP4 AND PUSH2 0x72D JUMPI PUSH1 0x40 MLOAD PUSH3 0x461BCD PUSH1 0xE5 SHL DUP2 MSTORE PUSH1 0x4 ADD PUSH2 0x6C4 SWAP1 PUSH2 0x3ED6 JUMP JUMPDEST CALLER PUSH1 0x0 DUP2 DUP2 MSTORE PUSH1 0xD PUSH1 0x20 SWAP1 DUP2 MSTORE PUSH1 0x40 DUP1 DUP4 KECCAK256 PUSH1 0x1 PUSH1 0x1 PUSH1 0xA0 SHL SUB DUP9 AND DUP1 DUP6 MSTORE SWAP3 MSTORE SWAP2 DUP3 SWAP1 KECCAK256 DUP6 SWAP1 SSTORE SWAP1 MLOAD DUP3 SWAP1 PUSH32 0x8C5BE1E5EBEC7D5BD14F71427D1E84F3DD0314C0F7B2291E5B200AC8C7C3B925 SWAP1 PUSH2 0x786 SWAP1 DUP8 SWAP1 PUSH2 0x42A1 JUMP JUMPDEST PUSH1 0x40 MLOAD DUP1 SWAP2 SUB SWAP1 LOG3 PUSH1 0x1 SWAP2 POP POP JUMPDEST SWAP3 SWAP2 POP POP JUMP JUMPDEST PUSH1 0x0 PUSH1 0x2 PUSH1 0x0 SLOAD EQ ISZERO PUSH2 0x7BF JUMPI PUSH1 0x40 MLOAD PUSH3 0x461BCD PUSH1 0xE5 SHL DUP2 MSTORE PUSH1 0x4 ADD PUSH2 0x6C4 SWAP1 PUSH2 0x4214 JUMP JUMPDEST PUSH1 0x2 PUSH1 0x0 SWAP1 DUP2 SSTORE PUSH2 0x7CE PUSH2 0xE48 JUMP JUMPDEST SWAP1 POP DUP1 ISZERO PUSH2 0x7F4 JUMPI PUSH2 0x7EC DUP2 PUSH1 0x9 DUP2 GT ISZERO PUSH2 0x7E5 JUMPI INVALID JUMPDEST PUSH1 0x2 PUSH2 0x1744 JUMP JUMPDEST SWAP2 POP POP PUSH2 0x804 JUMP JUMPDEST PUSH2 0x7FF CALLER CALLER DUP6 PUSH2 0x17AB JUMP JUMPDEST POP SWAP2 POP POP JUMPDEST PUSH1 0x1 PUSH1 0x0 SSTORE SWAP2 SWAP1 POP JUMP JUMPDEST PUSH1 0x0 PUSH1 0x2 PUSH1 0x0 SLOAD EQ ISZERO PUSH2 0x833 JUMPI PUSH1 0x40 MLOAD PUSH3 0x461BCD PUSH1 0xE5 SHL DUP2 MSTORE PUSH1 0x4 ADD PUSH2 0x6C4 SWAP1 PUSH2 0x4214 JUMP JUMPDEST PUSH1 0x2 PUSH1 0x0 SWAP1 DUP2 SSTORE PUSH2 0x842 PUSH2 0xE48 JUMP JUMPDEST SWAP1 POP DUP1 ISZERO PUSH2 0x859 JUMPI PUSH2 0x7EC DUP2 PUSH1 0x9 DUP2 GT ISZERO PUSH2 0x7E5 JUMPI INVALID JUMPDEST PUSH2 0x863 CALLER DUP5 PUSH2 0x19DC JUMP JUMPDEST PUSH1 0x1 PUSH1 0x0 SSTORE SWAP4 SWAP3 POP POP POP JUMP JUMPDEST PUSH1 0x5 SLOAD DUP2 JUMP JUMPDEST PUSH1 0x2 SLOAD PUSH1 0x0 SWAP1 PUSH1 0x1 PUSH1 0x1 PUSH1 0xA0 SHL SUB AND CALLER EQ PUSH2 0x89D JUMPI PUSH2 0x896 PUSH1 0x1 PUSH1 0x0 PUSH2 0x1744 JUMP JUMPDEST SWAP1 POP PUSH2 0x6D1 JUMP JUMPDEST PUSH1 0xB SLOAD PUSH1 0xFF PUSH2 0x100 SWAP1 SWAP2 DIV AND ISZERO ISZERO DUP3 ISZERO ISZERO EQ PUSH2 0x8FF JUMPI PUSH1 0xB DUP1 SLOAD PUSH2 0xFF00 NOT AND PUSH2 0x100 DUP5 ISZERO ISZERO MUL OR SWAP1 SSTORE PUSH1 0x40 MLOAD PUSH32 0x1717B5EA3DEEE7263023836CDD49998AC11579E79797DF6028A834ABAD3619A2 SWAP1 PUSH2 0x8F6 SWAP1 DUP5 SWAP1 PUSH2 0x3B4B JUMP JUMPDEST PUSH1 0x40 MLOAD DUP1 SWAP2 SUB SWAP1 LOG1 JUMPDEST PUSH1 0x0 SWAP3 SWAP2 POP POP JUMP JUMPDEST PUSH1 0x0 PUSH1 0x2 PUSH1 0x0 SLOAD EQ ISZERO PUSH2 0x92C JUMPI PUSH1 0x40 MLOAD PUSH3 0x461BCD PUSH1 0xE5 SHL DUP2 MSTORE PUSH1 0x4 ADD PUSH2 0x6C4 SWAP1 PUSH2 0x4214 JUMP JUMPDEST PUSH1 0x2 PUSH1 0x0 SWAP1 DUP2 SSTORE PUSH2 0x93B PUSH2 0xE48 JUMP JUMPDEST EQ PUSH2 0x958 JUMPI PUSH1 0x40 MLOAD PUSH3 0x461BCD PUSH1 0xE5 SHL DUP2 MSTORE PUSH1 0x4 ADD PUSH2 0x6C4 SWAP1 PUSH2 0x3BE6 JUMP JUMPDEST PUSH2 0x961 DUP3 PUSH2 0xCD5 JUMP JUMPDEST PUSH1 0x1 PUSH1 0x0 SSTORE SWAP3 SWAP2 POP POP JUMP JUMPDEST PUSH1 0xA SLOAD DUP2 JUMP JUMPDEST PUSH1 0x0 DUP1 PUSH1 0x0 PUSH2 0x97F PUSH2 0x1C06 JUMP JUMPDEST SWAP1 SWAP3 POP SWAP1 POP PUSH1 0x0 DUP3 PUSH1 0x3 DUP2 GT ISZERO PUSH2 0x992 JUMPI INVALID JUMPDEST EQ PUSH2 0x9AF JUMPI PUSH1 0x40 MLOAD PUSH3 0x461BCD PUSH1 0xE5 SHL DUP2 MSTORE PUSH1 0x4 ADD PUSH2 0x6C4 SWAP1 PUSH2 0x4123 JUMP JUMPDEST SWAP2 POP POP JUMPDEST SWAP1 JUMP JUMPDEST PUSH1 0x0 PUSH1 0x2 PUSH1 0x0 SLOAD EQ ISZERO PUSH2 0x9DB JUMPI PUSH1 0x40 MLOAD PUSH3 0x461BCD PUSH1 0xE5 SHL DUP2 MSTORE PUSH1 0x4 ADD PUSH2 0x6C4 SWAP1 PUSH2 0x4214 JUMP JUMPDEST PUSH1 0x2 PUSH1 0x0 SWAP1 DUP2 SSTORE PUSH2 0x9EE CALLER DUP7 DUP7 DUP7 PUSH2 0x1CBB JUMP JUMPDEST PUSH1 0x1 PUSH1 0x0 SSTORE EQ SWAP5 SWAP4 POP POP POP POP JUMP JUMPDEST PUSH1 0x0 PUSH1 0x2 PUSH1 0x0 SLOAD EQ ISZERO PUSH2 0xA21 JUMPI PUSH1 0x40 MLOAD PUSH3 0x461BCD PUSH1 0xE5 SHL DUP2 MSTORE PUSH1 0x4 ADD PUSH2 0x6C4 SWAP1 PUSH2 0x4214 JUMP JUMPDEST PUSH1 0x2 PUSH1 0x0 SWAP1 DUP2 SSTORE PUSH2 0xA30 PUSH2 0xE48 JUMP JUMPDEST SWAP1 POP DUP1 ISZERO PUSH2 0xA4F JUMPI PUSH2 0xA47 DUP2 PUSH1 0x9 DUP2 GT ISZERO PUSH2 0x7E5 JUMPI INVALID JUMPDEST SWAP2 POP POP PUSH2 0x961 JUMP JUMPDEST PUSH2 0xA5A CALLER DUP6 DUP6 PUSH2 0x17AB JUMP JUMPDEST POP PUSH1 0x1 PUSH1 0x0 SSTORE SWAP5 SWAP4 POP POP POP POP JUMP JUMPDEST PUSH1 0x3 SLOAD PUSH1 0x1 PUSH1 0x1 PUSH1 0xA0 SHL SUB AND DUP2 JUMP JUMPDEST PUSH1 0xF SLOAD DUP2 JUMP JUMPDEST PUSH1 0x12 DUP2 JUMP JUMPDEST PUSH1 0x0 DUP1 PUSH1 0x40 MLOAD DUP1 PUSH1 0x20 ADD PUSH1 0x40 MSTORE DUP1 PUSH2 0xA98 PUSH2 0x12CA JUMP JUMPDEST SWAP1 MSTORE PUSH1 0x1 PUSH1 0x1 PUSH1 0xA0 SHL SUB DUP5 AND PUSH1 0x0 SWAP1 DUP2 MSTORE PUSH1 0xC PUSH1 0x20 MSTORE PUSH1 0x40 DUP2 KECCAK256 SLOAD SWAP2 SWAP3 POP SWAP1 DUP2 SWAP1 PUSH2 0xAC4 SWAP1 DUP5 SWAP1 PUSH2 0x1ECA JUMP JUMPDEST SWAP1 SWAP3 POP SWAP1 POP PUSH1 0x0 DUP3 PUSH1 0x3 DUP2 GT ISZERO PUSH2 0xAD7 JUMPI INVALID JUMPDEST EQ PUSH2 0xAF4 JUMPI PUSH1 0x40 MLOAD PUSH3 0x461BCD PUSH1 0xE5 SHL DUP2 MSTORE PUSH1 0x4 ADD PUSH2 0x6C4 SWAP1 PUSH2 0x3C4D JUMP JUMPDEST SWAP5 SWAP4 POP POP POP POP JUMP JUMPDEST PUSH1 0x0 PUSH2 0xB06 PUSH2 0x1F17 JUMP JUMPDEST SWAP1 POP SWAP1 JUMP JUMPDEST PUSH1 0x8 SLOAD DUP2 JUMP JUMPDEST PUSH1 0x60 PUSH1 0x1 PUSH1 0x1 PUSH1 0xA0 SHL SUB DUP3 AND PUSH2 0xB39 JUMPI PUSH1 0x40 MLOAD PUSH3 0x461BCD PUSH1 0xE5 SHL DUP2 MSTORE PUSH1 0x4 ADD PUSH2 0x6C4 SWAP1 PUSH2 0x4095 JUMP JUMPDEST PUSH1 0x1 PUSH1 0x1 PUSH1 0xA0 SHL SUB DUP3 AND PUSH1 0x0 SWAP1 DUP2 MSTORE PUSH1 0x12 PUSH1 0x20 SWAP1 DUP2 MSTORE PUSH1 0x40 SWAP2 DUP3 SWAP1 KECCAK256 DUP1 SLOAD DUP4 MLOAD DUP2 DUP5 MUL DUP2 ADD DUP5 ADD SWAP1 SWAP5 MSTORE DUP1 DUP5 MSTORE SWAP1 SWAP2 DUP4 ADD DUP3 DUP3 DUP1 ISZERO PUSH2 0xB97 JUMPI PUSH1 0x20 MUL DUP3 ADD SWAP2 SWAP1 PUSH1 0x0 MSTORE PUSH1 0x20 PUSH1 0x0 KECCAK256 SWAP1 JUMPDEST DUP2 SLOAD DUP2 MSTORE PUSH1 0x20 ADD SWAP1 PUSH1 0x1 ADD SWAP1 DUP1 DUP4 GT PUSH2 0xB83 JUMPI JUMPDEST POP POP POP POP POP SWAP1 POP SWAP2 SWAP1 POP JUMP JUMPDEST PUSH1 0xB SLOAD PUSH2 0x100 SWAP1 DIV PUSH1 0xFF AND DUP2 JUMP JUMPDEST PUSH1 0x13 SLOAD PUSH1 0x1 PUSH1 0x1 PUSH1 0xA0 SHL SUB AND DUP2 JUMP JUMPDEST PUSH1 0x6 SLOAD DUP2 JUMP JUMPDEST PUSH1 0x1 PUSH1 0x1 PUSH1 0xA0 SHL SUB AND PUSH1 0x0 SWAP1 DUP2 MSTORE PUSH1 0xC PUSH1 0x20 MSTORE PUSH1 0x40 SWAP1 KECCAK256 SLOAD SWAP1 JUMP JUMPDEST PUSH1 0x0 PUSH1 0x2 PUSH1 0x0 SLOAD EQ ISZERO PUSH2 0xC06 JUMPI PUSH1 0x40 MLOAD PUSH3 0x461BCD PUSH1 0xE5 SHL DUP2 MSTORE PUSH1 0x4 ADD PUSH2 0x6C4 SWAP1 PUSH2 0x4214 JUMP JUMPDEST PUSH1 0x2 PUSH1 0x0 SWAP1 DUP2 SSTORE PUSH2 0xC15 PUSH2 0xE48 JUMP JUMPDEST EQ PUSH2 0xC32 JUMPI PUSH1 0x40 MLOAD PUSH3 0x461BCD PUSH1 0xE5 SHL DUP2 MSTORE PUSH1 0x4 ADD PUSH2 0x6C4 SWAP1 PUSH2 0x3BE6 JUMP JUMPDEST POP PUSH1 0x8 SLOAD PUSH1 0x1 PUSH1 0x0 SSTORE SWAP1 JUMP JUMPDEST PUSH1 0x0 PUSH1 0x2 PUSH1 0x0 SLOAD EQ ISZERO PUSH2 0xC63 JUMPI PUSH1 0x40 MLOAD PUSH3 0x461BCD PUSH1 0xE5 SHL DUP2 MSTORE PUSH1 0x4 ADD PUSH2 0x6C4 SWAP1 PUSH2 0x4214 JUMP JUMPDEST PUSH1 0x2 PUSH1 0x0 SWAP1 DUP2 SSTORE PUSH2 0xC72 PUSH2 0xE48 JUMP JUMPDEST SWAP1 POP DUP1 ISZERO PUSH2 0xC89 JUMPI PUSH2 0x7EC DUP2 PUSH1 0x9 DUP2 GT ISZERO PUSH2 0x7E5 JUMPI INVALID JUMPDEST PUSH2 0x863 CALLER PUSH1 0x0 DUP6 PUSH2 0x1F9A JUMP JUMPDEST PUSH1 0x13 SLOAD PUSH2 0xCAB SWAP1 PUSH1 0x1 PUSH1 0x1 PUSH1 0xA0 SHL SUB AND DUP3 PUSH2 0x22FD JUMP JUMPDEST POP JUMP JUMPDEST PUSH1 0x9 SLOAD DUP2 JUMP JUMPDEST PUSH1 0x40 MLOAD DUP1 PUSH1 0x40 ADD PUSH1 0x40 MSTORE DUP1 PUSH1 0x5 DUP2 MSTORE PUSH1 0x20 ADD PUSH5 0x18D9519253 PUSH1 0xDA SHL DUP2 MSTORE POP DUP2 JUMP JUMPDEST PUSH1 0x0 DUP1 PUSH1 0x0 PUSH2 0xCE3 DUP5 PUSH2 0x2437 JUMP JUMPDEST SWAP1 SWAP3 POP SWAP1 POP PUSH1 0x0 DUP3 PUSH1 0x3 DUP2 GT ISZERO PUSH2 0xCF6 JUMPI INVALID JUMPDEST EQ PUSH2 0x6CD JUMPI PUSH1 0x40 MLOAD PUSH3 0x461BCD PUSH1 0xE5 SHL DUP2 MSTORE PUSH1 0x4 ADD PUSH2 0x6C4 SWAP1 PUSH2 0x3E79 JUMP JUMPDEST PUSH1 0x0 DUP1 PUSH2 0xD1E PUSH2 0xE48 JUMP JUMPDEST EQ PUSH2 0xD3B JUMPI PUSH1 0x40 MLOAD PUSH3 0x461BCD PUSH1 0xE5 SHL DUP2 MSTORE PUSH1 0x4 ADD PUSH2 0x6C4 SWAP1 PUSH2 0x3BE6 JUMP JUMPDEST PUSH2 0x794 DUP3 PUSH2 0x683 JUMP JUMPDEST PUSH1 0x1 PUSH1 0x1 PUSH1 0xA0 SHL SUB AND PUSH1 0x0 SWAP1 DUP2 MSTORE PUSH1 0x10 PUSH1 0x20 MSTORE PUSH1 0x40 SWAP1 KECCAK256 SLOAD SWAP1 JUMP JUMPDEST PUSH1 0x0 PUSH1 0x2 PUSH1 0x0 SLOAD EQ ISZERO PUSH2 0xD84 JUMPI PUSH1 0x40 MLOAD PUSH3 0x461BCD PUSH1 0xE5 SHL DUP2 MSTORE PUSH1 0x4 ADD PUSH2 0x6C4 SWAP1 PUSH2 0x4214 JUMP JUMPDEST PUSH1 0x2 PUSH1 0x0 SSTORE PUSH2 0xD92 DUP3 PUSH2 0x24EA JUMP JUMPDEST PUSH1 0x1 PUSH1 0x1 PUSH1 0xA0 SHL SUB AND CALLER PUSH1 0x1 PUSH1 0x1 PUSH1 0xA0 SHL SUB AND EQ PUSH2 0xDC2 JUMPI PUSH1 0x40 MLOAD PUSH3 0x461BCD PUSH1 0xE5 SHL DUP2 MSTORE PUSH1 0x4 ADD PUSH2 0x6C4 SWAP1 PUSH2 0x3C84 JUMP JUMPDEST PUSH1 0x0 PUSH2 0xDCC PUSH2 0xE48 JUMP JUMPDEST SWAP1 POP DUP1 ISZERO PUSH2 0xDE3 JUMPI PUSH2 0x7EC DUP2 PUSH1 0x9 DUP2 GT ISZERO PUSH2 0x7E5 JUMPI INVALID JUMPDEST PUSH2 0x7FF CALLER DUP5 PUSH2 0x2624 JUMP JUMPDEST PUSH1 0x0 PUSH1 0x2 PUSH1 0x0 SLOAD EQ ISZERO PUSH2 0xE12 JUMPI PUSH1 0x40 MLOAD PUSH3 0x461BCD PUSH1 0xE5 SHL DUP2 MSTORE PUSH1 0x4 ADD PUSH2 0x6C4 SWAP1 PUSH2 0x4214 JUMP JUMPDEST PUSH1 0x2 PUSH1 0x0 SWAP1 DUP2 SSTORE PUSH2 0xE21 PUSH2 0xE48 JUMP JUMPDEST SWAP1 POP DUP1 ISZERO PUSH2 0xE38 JUMPI PUSH2 0x7EC DUP2 PUSH1 0x9 DUP2 GT ISZERO PUSH2 0x7E5 JUMPI INVALID JUMPDEST PUSH2 0x7FF CALLER DUP5 PUSH2 0x2802 JUMP JUMPDEST PUSH1 0x11 SLOAD DUP2 JUMP JUMPDEST PUSH1 0x0 DUP1 PUSH2 0xE53 PUSH2 0x2AF2 JUMP JUMPDEST PUSH1 0x6 SLOAD SWAP1 SWAP2 POP DUP1 DUP3 EQ ISZERO PUSH2 0xE6C JUMPI PUSH1 0x0 SWAP3 POP POP POP PUSH2 0x9B3 JUMP JUMPDEST PUSH1 0x0 PUSH2 0xE76 PUSH2 0x1F17 JUMP JUMPDEST PUSH1 0x8 SLOAD PUSH1 0x9 SLOAD PUSH1 0x7 SLOAD PUSH1 0x4 DUP1 SLOAD PUSH1 0x40 MLOAD PUSH4 0x15F24053 PUSH1 0xE0 SHL DUP2 MSTORE SWAP6 SWAP7 POP SWAP4 SWAP5 SWAP3 SWAP4 SWAP2 SWAP3 PUSH1 0x0 SWAP3 PUSH1 0x1 PUSH1 0x1 PUSH1 0xA0 SHL SUB AND SWAP2 PUSH4 0x15F24053 SWAP2 PUSH2 0xEBC SWAP2 DUP10 SWAP2 DUP10 SWAP2 DUP10 SWAP2 ADD PUSH2 0x42B8 JUMP JUMPDEST PUSH1 0x20 PUSH1 0x40 MLOAD DUP1 DUP4 SUB DUP2 DUP7 DUP1 EXTCODESIZE ISZERO DUP1 ISZERO PUSH2 0xED4 JUMPI PUSH1 0x0 DUP1 REVERT JUMPDEST POP GAS STATICCALL ISZERO DUP1 ISZERO PUSH2 0xEE8 JUMPI RETURNDATASIZE PUSH1 0x0 DUP1 RETURNDATACOPY RETURNDATASIZE PUSH1 0x0 REVERT JUMPDEST POP POP POP POP PUSH1 0x40 MLOAD RETURNDATASIZE PUSH1 0x1F NOT PUSH1 0x1F DUP3 ADD AND DUP3 ADD DUP1 PUSH1 0x40 MSTORE POP DUP2 ADD SWAP1 PUSH2 0xF0C SWAP2 SWAP1 PUSH2 0x39C7 JUMP JUMPDEST SWAP1 POP PUSH1 0x0 DUP1 PUSH2 0xF1B DUP10 DUP10 PUSH2 0x2AF6 JUMP JUMPDEST SWAP1 SWAP3 POP SWAP1 POP PUSH1 0x0 DUP3 PUSH1 0x3 DUP2 GT ISZERO PUSH2 0xF2E JUMPI INVALID JUMPDEST EQ PUSH2 0xF4B JUMPI PUSH1 0x40 MLOAD PUSH3 0x461BCD PUSH1 0xE5 SHL DUP2 MSTORE PUSH1 0x4 ADD PUSH2 0x6C4 SWAP1 PUSH2 0x400D JUMP JUMPDEST PUSH2 0xF53 PUSH2 0x378A JUMP JUMPDEST PUSH1 0x0 DUP1 PUSH1 0x0 DUP1 PUSH2 0xF71 PUSH1 0x40 MLOAD DUP1 PUSH1 0x20 ADD PUSH1 0x40 MSTORE DUP1 DUP11 DUP2 MSTORE POP DUP8 PUSH2 0x2B19 JUMP JUMPDEST SWAP1 SWAP8 POP SWAP5 POP PUSH1 0x0 DUP8 PUSH1 0x3 DUP2 GT ISZERO PUSH2 0xF84 JUMPI INVALID JUMPDEST EQ PUSH2 0xFB6 JUMPI PUSH2 0xFA1 PUSH1 0x4 PUSH1 0x7 DUP10 PUSH1 0x3 DUP2 GT ISZERO PUSH2 0xF9C JUMPI INVALID JUMPDEST PUSH2 0x2B81 JUMP JUMPDEST SWAP15 POP POP POP POP POP POP POP POP POP POP POP POP POP POP POP PUSH2 0x9B3 JUMP JUMPDEST PUSH2 0xFC0 DUP6 DUP13 PUSH2 0x1ECA JUMP JUMPDEST SWAP1 SWAP8 POP SWAP4 POP PUSH1 0x0 DUP8 PUSH1 0x3 DUP2 GT ISZERO PUSH2 0xFD3 JUMPI INVALID JUMPDEST EQ PUSH2 0xFEB JUMPI PUSH2 0xFA1 PUSH1 0x4 PUSH1 0x3 DUP10 PUSH1 0x3 DUP2 GT ISZERO PUSH2 0xF9C JUMPI INVALID JUMPDEST PUSH2 0xFF5 DUP5 DUP13 PUSH2 0x2BE0 JUMP JUMPDEST SWAP1 SWAP8 POP SWAP3 POP PUSH1 0x0 DUP8 PUSH1 0x3 DUP2 GT ISZERO PUSH2 0x1008 JUMPI INVALID JUMPDEST EQ PUSH2 0x1020 JUMPI PUSH2 0xFA1 PUSH1 0x4 PUSH1 0x5 DUP10 PUSH1 0x3 DUP2 GT ISZERO PUSH2 0xF9C JUMPI INVALID JUMPDEST PUSH2 0x103B PUSH1 0x40 MLOAD DUP1 PUSH1 0x20 ADD PUSH1 0x40 MSTORE DUP1 PUSH1 0x5 SLOAD DUP2 MSTORE POP DUP6 DUP13 PUSH2 0x2C06 JUMP JUMPDEST SWAP1 SWAP8 POP SWAP2 POP PUSH1 0x0 DUP8 PUSH1 0x3 DUP2 GT ISZERO PUSH2 0x104E JUMPI INVALID JUMPDEST EQ PUSH2 0x1066 JUMPI PUSH2 0xFA1 PUSH1 0x4 PUSH1 0x6 DUP10 PUSH1 0x3 DUP2 GT ISZERO PUSH2 0xF9C JUMPI INVALID JUMPDEST PUSH2 0x1071 DUP6 DUP11 DUP12 PUSH2 0x2C06 JUMP JUMPDEST SWAP1 SWAP8 POP SWAP1 POP PUSH1 0x0 DUP8 PUSH1 0x3 DUP2 GT ISZERO PUSH2 0x1084 JUMPI INVALID JUMPDEST EQ PUSH2 0x109B JUMPI PUSH2 0xFA1 PUSH1 0x4 DUP1 DUP10 PUSH1 0x3 DUP2 GT ISZERO PUSH2 0xF9C JUMPI INVALID JUMPDEST PUSH1 0x6 DUP15 SWAP1 SSTORE PUSH1 0x7 DUP2 SWAP1 SSTORE PUSH1 0x8 DUP4 SWAP1 SSTORE PUSH1 0x9 DUP3 SWAP1 SSTORE PUSH1 0x40 MLOAD PUSH32 0x4DEC04E750CA11537CABCD8A9EAB06494DE08DA3735BC8871CD41250E190BC04 SWAP1 PUSH2 0x10E5 SWAP1 DUP15 SWAP1 DUP8 SWAP1 DUP6 SWAP1 DUP9 SWAP1 PUSH2 0x42CE JUMP JUMPDEST PUSH1 0x40 MLOAD DUP1 SWAP2 SUB SWAP1 LOG1 PUSH1 0x0 SWAP15 POP POP POP POP POP POP POP POP POP POP POP POP POP POP POP SWAP1 JUMP JUMPDEST PUSH1 0x0 PUSH1 0x2 PUSH1 0x0 SLOAD EQ ISZERO PUSH2 0x1127 JUMPI PUSH1 0x40 MLOAD PUSH3 0x461BCD PUSH1 0xE5 SHL DUP2 MSTORE PUSH1 0x4 ADD PUSH2 0x6C4 SWAP1 PUSH2 0x4214 JUMP JUMPDEST PUSH1 0x2 PUSH1 0x0 SWAP1 DUP2 SSTORE PUSH2 0x113A CALLER CALLER DUP7 DUP7 PUSH2 0x1CBB JUMP JUMPDEST PUSH1 0x1 PUSH1 0x0 SSTORE EQ SWAP4 SWAP3 POP POP POP JUMP JUMPDEST PUSH1 0x7 SLOAD DUP2 JUMP JUMPDEST PUSH1 0x4 SLOAD PUSH1 0x0 SWAP1 PUSH1 0x1 PUSH1 0x1 PUSH1 0xA0 SHL SUB AND PUSH4 0xB8168816 PUSH2 0x1169 PUSH2 0x1F17 JUMP JUMPDEST PUSH1 0x8 SLOAD PUSH1 0x9 SLOAD PUSH1 0x5 SLOAD PUSH1 0x40 MLOAD DUP6 PUSH4 0xFFFFFFFF AND PUSH1 0xE0 SHL DUP2 MSTORE PUSH1 0x4 ADD PUSH2 0x1191 SWAP5 SWAP4 SWAP3 SWAP2 SWAP1 PUSH2 0x42CE JUMP JUMPDEST PUSH1 0x20 PUSH1 0x40 MLOAD DUP1 DUP4 SUB DUP2 DUP7 DUP1 EXTCODESIZE ISZERO DUP1 ISZERO PUSH2 0x11A9 JUMPI PUSH1 0x0 DUP1 REVERT JUMPDEST POP GAS STATICCALL ISZERO DUP1 ISZERO PUSH2 0x11BD JUMPI RETURNDATASIZE PUSH1 0x0 DUP1 RETURNDATACOPY RETURNDATASIZE PUSH1 0x0 REVERT JUMPDEST POP POP POP POP PUSH1 0x40 MLOAD RETURNDATASIZE PUSH1 0x1F NOT PUSH1 0x1F DUP3 ADD AND DUP3 ADD DUP1 PUSH1 0x40 MSTORE POP DUP2 ADD SWAP1 PUSH2 0xB06 SWAP2 SWAP1 PUSH2 0x39C7 JUMP JUMPDEST PUSH1 0x1 SLOAD PUSH1 0x1 PUSH1 0x1 PUSH1 0xA0 SHL SUB AND DUP2 JUMP JUMPDEST PUSH1 0x2 SLOAD PUSH1 0x0 SWAP1 PUSH1 0x1 PUSH1 0x1 PUSH1 0xA0 SHL SUB AND CALLER EQ PUSH2 0x1211 JUMPI PUSH2 0x896 PUSH1 0x1 PUSH1 0x0 PUSH2 0x1744 JUMP JUMPDEST PUSH1 0x3 DUP1 SLOAD PUSH1 0x1 PUSH1 0x1 PUSH1 0xA0 SHL SUB DUP5 DUP2 AND PUSH1 0x1 PUSH1 0x1 PUSH1 0xA0 SHL SUB NOT DUP4 AND OR SWAP1 SWAP3 SSTORE PUSH1 0x40 MLOAD SWAP2 AND SWAP1 PUSH32 0xCA4F2F25D0898EDD99413412FB94012F9E54EC8142F9B093E7720646A95B16A9 SWAP1 PUSH2 0x1264 SWAP1 DUP4 SWAP1 DUP7 SWAP1 PUSH2 0x3A0F JUMP JUMPDEST PUSH1 0x40 MLOAD DUP1 SWAP2 SUB SWAP1 LOG1 PUSH1 0x0 SWAP4 SWAP3 POP POP POP JUMP JUMPDEST PUSH1 0x0 PUSH1 0x2 PUSH1 0x0 SLOAD EQ ISZERO PUSH2 0x129A JUMPI PUSH1 0x40 MLOAD PUSH3 0x461BCD PUSH1 0xE5 SHL DUP2 MSTORE PUSH1 0x4 ADD PUSH2 0x6C4 SWAP1 PUSH2 0x4214 JUMP JUMPDEST PUSH1 0x2 PUSH1 0x0 SWAP1 DUP2 SSTORE PUSH2 0x12A9 PUSH2 0xE48 JUMP JUMPDEST SWAP1 POP DUP1 ISZERO PUSH2 0x12C0 JUMPI PUSH2 0x7EC DUP2 PUSH1 0x9 DUP2 GT ISZERO PUSH2 0x7E5 JUMPI INVALID JUMPDEST PUSH2 0x863 CALLER DUP5 PUSH2 0x2C5A JUMP JUMPDEST PUSH1 0x0 DUP1 PUSH2 0x12D5 PUSH2 0xE48 JUMP JUMPDEST EQ PUSH2 0x12F2 JUMPI PUSH1 0x40 MLOAD PUSH3 0x461BCD PUSH1 0xE5 SHL DUP2 MSTORE PUSH1 0x4 ADD PUSH2 0x6C4 SWAP1 PUSH2 0x3BE6 JUMP JUMPDEST PUSH2 0xB06 PUSH2 0x972 JUMP JUMPDEST PUSH1 0xB SLOAD PUSH1 0xFF AND DUP2 JUMP JUMPDEST PUSH1 0x0 PUSH1 0x2 PUSH1 0x0 SLOAD EQ ISZERO PUSH2 0x1328 JUMPI PUSH1 0x40 MLOAD PUSH3 0x461BCD PUSH1 0xE5 SHL DUP2 MSTORE PUSH1 0x4 ADD PUSH2 0x6C4 SWAP1 PUSH2 0x4214 JUMP JUMPDEST PUSH1 0x2 PUSH1 0x0 SWAP1 DUP2 SSTORE PUSH2 0x1337 PUSH2 0xE48 JUMP JUMPDEST SWAP1 POP DUP1 ISZERO PUSH2 0x134E JUMPI PUSH2 0x7EC DUP2 PUSH1 0x9 DUP2 GT ISZERO PUSH2 0x7E5 JUMPI INVALID JUMPDEST PUSH2 0x863 CALLER DUP5 PUSH2 0x2E7E JUMP JUMPDEST PUSH1 0x0 PUSH1 0x2 PUSH1 0x0 SLOAD EQ ISZERO PUSH2 0x137D JUMPI PUSH1 0x40 MLOAD PUSH3 0x461BCD PUSH1 0xE5 SHL DUP2 MSTORE PUSH1 0x4 ADD PUSH2 0x6C4 SWAP1 PUSH2 0x4214 JUMP JUMPDEST PUSH1 0x2 PUSH1 0x0 SWAP1 DUP2 SSTORE PUSH2 0x138C PUSH2 0xE48 JUMP JUMPDEST SWAP1 POP DUP1 ISZERO PUSH2 0x13A3 JUMPI PUSH2 0x7EC DUP2 PUSH1 0x9 DUP2 GT ISZERO PUSH2 0x7E5 JUMPI INVALID JUMPDEST PUSH2 0x863 DUP4 PUSH2 0x3102 JUMP JUMPDEST PUSH1 0x2 SLOAD PUSH1 0x0 SWAP1 PUSH1 0x1 PUSH1 0x1 PUSH1 0xA0 SHL SUB AND CALLER EQ PUSH2 0x13CD JUMPI PUSH2 0x896 PUSH1 0x1 PUSH1 0x0 PUSH2 0x1744 JUMP JUMPDEST PUSH1 0xB SLOAD PUSH1 0xFF AND ISZERO ISZERO DUP3 ISZERO ISZERO EQ PUSH2 0x8FF JUMPI PUSH1 0xB DUP1 SLOAD PUSH1 0xFF NOT AND DUP4 ISZERO ISZERO OR SWAP1 SSTORE PUSH1 0x40 MLOAD PUSH32 0x7C11D7B79BDCC9099218EF3518D3A3202389AB06E9690C937F724618B9E0C46F SWAP1 PUSH2 0x8F6 SWAP1 DUP5 SWAP1 PUSH2 0x3B4B JUMP JUMPDEST PUSH1 0x0 PUSH1 0x2 PUSH1 0x0 SLOAD EQ ISZERO PUSH2 0x1440 JUMPI PUSH1 0x40 MLOAD PUSH3 0x461BCD PUSH1 0xE5 SHL DUP2 MSTORE PUSH1 0x4 ADD PUSH2 0x6C4 SWAP1 PUSH2 0x4214 JUMP JUMPDEST PUSH1 0x2 PUSH1 0x0 SWAP1 DUP2 SSTORE PUSH2 0x144F PUSH2 0xE48 JUMP JUMPDEST SWAP1 POP DUP1 ISZERO PUSH2 0x1466 JUMPI PUSH2 0x7EC DUP2 PUSH1 0x9 DUP2 GT ISZERO PUSH2 0x7E5 JUMPI INVALID JUMPDEST PUSH2 0x863 CALLER DUP5 PUSH1 0x0 PUSH2 0x1F9A JUMP JUMPDEST PUSH1 0x1 PUSH1 0x1 PUSH1 0xA0 SHL SUB SWAP2 DUP3 AND PUSH1 0x0 SWAP1 DUP2 MSTORE PUSH1 0xD PUSH1 0x20 SWAP1 DUP2 MSTORE PUSH1 0x40 DUP1 DUP4 KECCAK256 SWAP4 SWAP1 SWAP5 AND DUP3 MSTORE SWAP2 SWAP1 SWAP2 MSTORE KECCAK256 SLOAD SWAP1 JUMP JUMPDEST PUSH1 0x3 SLOAD PUSH1 0x0 SWAP1 PUSH1 0x1 PUSH1 0x1 PUSH1 0xA0 SHL SUB AND CALLER EQ ISZERO DUP1 PUSH2 0x14B8 JUMPI POP CALLER ISZERO JUMPDEST ISZERO PUSH2 0x14D0 JUMPI PUSH2 0x14C9 PUSH1 0x1 PUSH1 0x0 PUSH2 0x1744 JUMP JUMPDEST SWAP1 POP PUSH2 0x9B3 JUMP JUMPDEST PUSH1 0x2 DUP1 SLOAD PUSH1 0x3 DUP1 SLOAD PUSH1 0x1 PUSH1 0x1 PUSH1 0xA0 SHL SUB DUP1 DUP3 AND PUSH1 0x1 PUSH1 0x1 PUSH1 0xA0 SHL SUB NOT DUP1 DUP7 AND DUP3 OR SWAP7 DUP8 SWAP1 SSTORE SWAP1 SWAP3 AND SWAP1 SWAP3 SSTORE PUSH1 0x40 MLOAD SWAP3 DUP3 AND SWAP4 SWAP1 SWAP3 PUSH32 0xF9FFABCA9C8276E99321725BCB43FB076A6C66A54B7F21C4E8146D8519B417DC SWAP3 PUSH2 0x1534 SWAP3 DUP7 SWAP3 SWAP2 AND SWAP1 PUSH2 0x3A0F JUMP JUMPDEST PUSH1 0x40 MLOAD DUP1 SWAP2 SUB SWAP1 LOG1 PUSH1 0x3 SLOAD PUSH1 0x40 MLOAD PUSH32 0xCA4F2F25D0898EDD99413412FB94012F9E54EC8142F9B093E7720646A95B16A9 SWAP2 PUSH2 0x1579 SWAP2 DUP5 SWAP2 PUSH1 0x1 PUSH1 0x1 PUSH1 0xA0 SHL SUB AND SWAP1 PUSH2 0x3A0F JUMP JUMPDEST PUSH1 0x40 MLOAD DUP1 SWAP2 SUB SWAP1 LOG1 PUSH1 0x0 SWAP3 POP POP POP SWAP1 JUMP JUMPDEST PUSH1 0x0 PUSH1 0x2 PUSH1 0x0 SLOAD EQ ISZERO PUSH2 0x15AF JUMPI PUSH1 0x40 MLOAD PUSH3 0x461BCD PUSH1 0xE5 SHL DUP2 MSTORE PUSH1 0x4 ADD PUSH2 0x6C4 SWAP1 PUSH2 0x4214 JUMP JUMPDEST PUSH1 0x2 PUSH1 0x0 SWAP1 DUP2 SSTORE PUSH2 0x15BE PUSH2 0xE48 JUMP JUMPDEST SWAP1 POP DUP1 ISZERO PUSH2 0x15D5 JUMPI PUSH2 0x7EC DUP2 PUSH1 0x9 DUP2 GT ISZERO PUSH2 0x7E5 JUMPI INVALID JUMPDEST PUSH2 0x863 DUP4 PUSH2 0x3179 JUMP JUMPDEST PUSH1 0x4 SLOAD PUSH1 0x1 PUSH1 0x1 PUSH1 0xA0 SHL SUB AND DUP2 JUMP JUMPDEST PUSH1 0x2 SLOAD PUSH1 0x1 PUSH1 0x1 PUSH1 0xA0 SHL SUB AND DUP2 JUMP JUMPDEST PUSH1 0x4 SLOAD PUSH1 0x0 SWAP1 PUSH1 0x1 PUSH1 0x1 PUSH1 0xA0 SHL SUB AND PUSH4 0x15F24053 PUSH2 0x1618 PUSH2 0x1F17 JUMP JUMPDEST PUSH1 0x8 SLOAD PUSH1 0x9 SLOAD PUSH1 0x40 MLOAD DUP5 PUSH4 0xFFFFFFFF AND PUSH1 0xE0 SHL DUP2 MSTORE PUSH1 0x4 ADD PUSH2 0x1191 SWAP4 SWAP3 SWAP2 SWAP1 PUSH2 0x42B8 JUMP JUMPDEST PUSH1 0x0 PUSH1 0x2 PUSH1 0x0 SLOAD EQ ISZERO PUSH2 0x1661 JUMPI PUSH1 0x40 MLOAD PUSH3 0x461BCD PUSH1 0xE5 SHL DUP2 MSTORE PUSH1 0x4 ADD PUSH2 0x6C4 SWAP1 PUSH2 0x4214 JUMP JUMPDEST PUSH1 0x2 PUSH1 0x0 SWAP1 DUP2 SSTORE PUSH2 0x1670 PUSH2 0xE48 JUMP JUMPDEST SWAP1 POP DUP1 ISZERO PUSH2 0x1687 JUMPI PUSH2 0x7EC DUP2 PUSH1 0x9 DUP2 GT ISZERO PUSH2 0x7E5 JUMPI INVALID JUMPDEST PUSH2 0x863 DUP4 PUSH2 0x3296 JUMP JUMPDEST PUSH1 0x0 DUP1 PUSH1 0x0 DUP1 PUSH1 0x0 DUP1 PUSH1 0x0 PUSH2 0x16A3 PUSH2 0x378A JUMP JUMPDEST PUSH2 0x16AC DUP10 PUSH2 0x2437 JUMP JUMPDEST SWAP1 SWAP5 POP SWAP3 POP PUSH1 0x0 DUP5 PUSH1 0x3 DUP2 GT ISZERO PUSH2 0x16BF JUMPI INVALID JUMPDEST EQ PUSH2 0x16DB JUMPI DUP4 PUSH1 0x0 DUP1 PUSH1 0x0 SWAP8 POP SWAP8 POP SWAP8 POP SWAP8 POP POP POP POP POP PUSH2 0x173D JUMP JUMPDEST PUSH1 0x1 PUSH1 0x1 PUSH1 0xA0 SHL SUB DUP10 AND PUSH1 0x0 SWAP1 DUP2 MSTORE PUSH1 0x10 PUSH1 0x20 MSTORE PUSH1 0x40 SWAP1 KECCAK256 SLOAD SWAP2 POP PUSH2 0x1700 DUP4 DUP4 PUSH2 0x330D JUMP JUMPDEST SWAP1 SWAP5 POP SWAP1 POP PUSH1 0x0 DUP5 PUSH1 0x3 DUP2 GT ISZERO PUSH2 0x1713 JUMPI INVALID JUMPDEST EQ PUSH2 0x172F JUMPI DUP4 PUSH1 0x0 DUP1 PUSH1 0x0 SWAP8 POP SWAP8 POP SWAP8 POP SWAP8 POP POP POP POP POP PUSH2 0x173D JUMP JUMPDEST MLOAD PUSH1 0x0 SWAP8 POP SWAP6 POP SWAP1 SWAP4 POP SWAP2 POP POP JUMPDEST SWAP2 SWAP4 POP SWAP2 SWAP4 JUMP JUMPDEST PUSH1 0x0 PUSH32 0x45B96FE442630264581B197E84BBADA861235052C5A1AADFFF9EA4E40A969AA0 DUP4 PUSH1 0x9 DUP2 GT ISZERO PUSH2 0x1773 JUMPI INVALID JUMPDEST DUP4 PUSH1 0x27 DUP2 GT ISZERO PUSH2 0x177F JUMPI INVALID JUMPDEST PUSH1 0x0 PUSH1 0x40 MLOAD PUSH2 0x1790 SWAP4 SWAP3 SWAP2 SWAP1 PUSH2 0x42B8 JUMP JUMPDEST PUSH1 0x40 MLOAD DUP1 SWAP2 SUB SWAP1 LOG1 DUP3 PUSH1 0x9 DUP2 GT ISZERO PUSH2 0x17A4 JUMPI INVALID JUMPDEST SWAP4 SWAP3 POP POP POP JUMP JUMPDEST PUSH1 0x0 DUP1 PUSH2 0x17B6 PUSH2 0x379D JUMP JUMPDEST PUSH1 0x1 PUSH1 0x1 PUSH1 0xA0 SHL SUB DUP6 AND PUSH1 0x0 SWAP1 DUP2 MSTORE PUSH1 0xE PUSH1 0x20 MSTORE PUSH1 0x40 SWAP1 KECCAK256 PUSH1 0x1 ADD SLOAD PUSH1 0x60 DUP3 ADD MSTORE PUSH2 0x17E0 DUP6 PUSH2 0x2437 JUMP JUMPDEST PUSH1 0x80 DUP4 ADD DUP2 SWAP1 MSTORE PUSH1 0x20 DUP4 ADD DUP3 PUSH1 0x3 DUP2 GT ISZERO PUSH2 0x17F7 JUMPI INVALID JUMPDEST PUSH1 0x3 DUP2 GT ISZERO PUSH2 0x1802 JUMPI INVALID JUMPDEST SWAP1 MSTORE POP PUSH1 0x0 SWAP1 POP DUP2 PUSH1 0x20 ADD MLOAD PUSH1 0x3 DUP2 GT ISZERO PUSH2 0x1819 JUMPI INVALID JUMPDEST EQ PUSH2 0x1841 JUMPI PUSH2 0x1835 PUSH1 0x4 PUSH1 0x19 DUP4 PUSH1 0x20 ADD MLOAD PUSH1 0x3 DUP2 GT ISZERO PUSH2 0xF9C JUMPI INVALID JUMPDEST PUSH1 0x0 SWAP3 POP SWAP3 POP POP PUSH2 0x19D4 JUMP JUMPDEST PUSH1 0x0 NOT DUP5 EQ ISZERO PUSH2 0x185A JUMPI PUSH1 0x80 DUP2 ADD MLOAD PUSH1 0x40 DUP3 ADD MSTORE PUSH2 0x1862 JUMP JUMPDEST PUSH1 0x40 DUP2 ADD DUP5 SWAP1 MSTORE JUMPDEST PUSH1 0x1 SLOAD PUSH1 0x40 DUP3 ADD MLOAD PUSH2 0x187F SWAP2 PUSH1 0x1 PUSH1 0x1 PUSH1 0xA0 SHL SUB AND SWAP1 DUP9 SWAP1 PUSH2 0x33BE JUMP JUMPDEST PUSH1 0xE0 DUP3 ADD DUP2 SWAP1 MSTORE PUSH1 0x80 DUP3 ADD MLOAD PUSH2 0x1894 SWAP2 PUSH2 0x2AF6 JUMP JUMPDEST PUSH1 0xA0 DUP4 ADD DUP2 SWAP1 MSTORE PUSH1 0x20 DUP4 ADD DUP3 PUSH1 0x3 DUP2 GT ISZERO PUSH2 0x18AB JUMPI INVALID JUMPDEST PUSH1 0x3 DUP2 GT ISZERO PUSH2 0x18B6 JUMPI INVALID JUMPDEST SWAP1 MSTORE POP PUSH1 0x0 SWAP1 POP DUP2 PUSH1 0x20 ADD MLOAD PUSH1 0x3 DUP2 GT ISZERO PUSH2 0x18CD JUMPI INVALID JUMPDEST EQ PUSH2 0x18EA JUMPI PUSH1 0x40 MLOAD PUSH3 0x461BCD PUSH1 0xE5 SHL DUP2 MSTORE PUSH1 0x4 ADD PUSH2 0x6C4 SWAP1 PUSH2 0x3F6D JUMP JUMPDEST PUSH2 0x18FA PUSH1 0x8 SLOAD DUP3 PUSH1 0xE0 ADD MLOAD PUSH2 0x2AF6 JUMP JUMPDEST PUSH1 0xC0 DUP4 ADD DUP2 SWAP1 MSTORE PUSH1 0x20 DUP4 ADD DUP3 PUSH1 0x3 DUP2 GT ISZERO PUSH2 0x1911 JUMPI INVALID JUMPDEST PUSH1 0x3 DUP2 GT ISZERO PUSH2 0x191C JUMPI INVALID JUMPDEST SWAP1 MSTORE POP PUSH1 0x0 SWAP1 POP DUP2 PUSH1 0x20 ADD MLOAD PUSH1 0x3 DUP2 GT ISZERO PUSH2 0x1933 JUMPI INVALID JUMPDEST EQ PUSH2 0x1950 JUMPI PUSH1 0x40 MLOAD PUSH3 0x461BCD PUSH1 0xE5 SHL DUP2 MSTORE PUSH1 0x4 ADD PUSH2 0x6C4 SWAP1 PUSH2 0x4044 JUMP JUMPDEST PUSH1 0xA0 DUP2 ADD DUP1 MLOAD PUSH1 0x1 PUSH1 0x1 PUSH1 0xA0 SHL SUB DUP8 AND PUSH1 0x0 SWAP1 DUP2 MSTORE PUSH1 0xE PUSH1 0x20 MSTORE PUSH1 0x40 SWAP1 DUP2 SWAP1 KECCAK256 SWAP2 DUP3 SSTORE PUSH1 0x7 SLOAD PUSH1 0x1 SWAP1 SWAP3 ADD SWAP2 SWAP1 SWAP2 SSTORE PUSH1 0xC0 DUP4 ADD MLOAD PUSH1 0x8 DUP2 SWAP1 SSTORE PUSH1 0xE0 DUP5 ADD MLOAD SWAP3 MLOAD SWAP2 MLOAD PUSH32 0x1A2A22CB034D26D1854BDC6666A5B91FE25EFBBB5DCAD3B0355478D6F5C362A1 SWAP4 PUSH2 0x19C1 SWAP4 DUP12 SWAP4 DUP12 SWAP4 PUSH2 0x3A76 JUMP JUMPDEST PUSH1 0x40 MLOAD DUP1 SWAP2 SUB SWAP1 LOG1 PUSH1 0xE0 ADD MLOAD PUSH1 0x0 SWAP3 POP SWAP1 POP JUMPDEST SWAP4 POP SWAP4 SWAP2 POP POP JUMP JUMPDEST PUSH1 0x1 PUSH1 0x1 PUSH1 0xA0 SHL SUB DUP3 AND PUSH1 0x0 SWAP1 DUP2 MSTORE PUSH1 0x10 PUSH1 0x20 MSTORE PUSH1 0x40 DUP2 KECCAK256 SLOAD ISZERO ISZERO DUP1 PUSH2 0x1A19 JUMPI POP PUSH1 0x1 PUSH1 0x1 PUSH1 0xA0 SHL SUB DUP4 AND PUSH1 0x0 SWAP1 DUP2 MSTORE PUSH1 0xC PUSH1 0x20 MSTORE PUSH1 0x40 SWAP1 KECCAK256 SLOAD ISZERO ISZERO JUMPDEST ISZERO PUSH2 0x1A31 JUMPI PUSH2 0x1A2A PUSH1 0x3 PUSH1 0x20 PUSH2 0x1744 JUMP JUMPDEST SWAP1 POP PUSH2 0x794 JUMP JUMPDEST PUSH2 0x1A39 PUSH2 0x37E3 JUMP JUMPDEST PUSH2 0x1A42 DUP4 PUSH2 0x1690 JUMP JUMPDEST PUSH1 0x60 DUP6 ADD DUP2 SWAP1 MSTORE PUSH1 0x40 DUP6 ADD DUP3 SWAP1 MSTORE PUSH1 0x80 DUP6 ADD DUP4 SWAP1 MSTORE PUSH1 0x20 DUP6 ADD DUP5 PUSH1 0x3 DUP2 GT ISZERO PUSH2 0x1A67 JUMPI INVALID JUMPDEST PUSH1 0x3 DUP2 GT ISZERO PUSH2 0x1A72 JUMPI INVALID JUMPDEST SWAP1 MSTORE POP PUSH1 0x0 SWAP3 POP PUSH2 0x1A81 SWAP2 POP POP JUMP JUMPDEST DUP2 PUSH1 0x20 ADD MLOAD PUSH1 0x3 DUP2 GT ISZERO PUSH2 0x1A91 JUMPI INVALID JUMPDEST EQ PUSH2 0x1AB5 JUMPI PUSH2 0x1AAD PUSH1 0x4 PUSH1 0x21 DUP4 PUSH1 0x20 ADD MLOAD PUSH1 0x3 DUP2 GT ISZERO PUSH2 0xF9C JUMPI INVALID JUMPDEST SWAP2 POP POP PUSH2 0x794 JUMP JUMPDEST PUSH1 0x11 SLOAD DUP2 PUSH1 0x80 ADD MLOAD LT ISZERO PUSH2 0x1ACF JUMPI PUSH2 0x1AAD PUSH1 0x3 PUSH1 0x22 PUSH2 0x1744 JUMP JUMPDEST PUSH1 0x40 DUP2 ADD MLOAD PUSH1 0x1 SLOAD PUSH2 0x1AEB SWAP1 PUSH1 0x1 PUSH1 0x1 PUSH1 0xA0 SHL SUB AND DUP7 DUP4 PUSH2 0x33BE JUMP JUMPDEST EQ PUSH2 0x1B08 JUMPI PUSH1 0x40 MLOAD PUSH3 0x461BCD PUSH1 0xE5 SHL DUP2 MSTORE PUSH1 0x4 ADD PUSH2 0x6C4 SWAP1 PUSH2 0x3FCA JUMP JUMPDEST PUSH2 0x1B18 PUSH1 0x8 SLOAD DUP3 PUSH1 0x40 ADD MLOAD PUSH2 0x2AF6 JUMP JUMPDEST PUSH1 0xA0 DUP4 ADD DUP2 SWAP1 MSTORE PUSH1 0x20 DUP4 ADD DUP3 PUSH1 0x3 DUP2 GT ISZERO PUSH2 0x1B2F JUMPI INVALID JUMPDEST PUSH1 0x3 DUP2 GT ISZERO PUSH2 0x1B3A JUMPI INVALID JUMPDEST SWAP1 MSTORE POP PUSH1 0x0 SWAP1 POP DUP2 PUSH1 0x20 ADD MLOAD PUSH1 0x3 DUP2 GT ISZERO PUSH2 0x1B51 JUMPI INVALID JUMPDEST EQ PUSH2 0x1B6E JUMPI PUSH1 0x40 MLOAD PUSH3 0x461BCD PUSH1 0xE5 SHL DUP2 MSTORE PUSH1 0x4 ADD PUSH2 0x6C4 SWAP1 PUSH2 0x3F18 JUMP JUMPDEST PUSH1 0x1 PUSH1 0x1 PUSH1 0xA0 SHL SUB DUP1 DUP5 AND PUSH1 0x0 SWAP1 DUP2 MSTORE PUSH1 0xE PUSH1 0x20 SWAP1 DUP2 MSTORE PUSH1 0x40 DUP1 DUP4 KECCAK256 DUP4 DUP2 SSTORE PUSH1 0x7 SLOAD PUSH1 0x1 SWAP1 SWAP2 ADD SSTORE PUSH1 0xA0 DUP6 ADD MLOAD PUSH1 0x8 SSTORE PUSH1 0x10 SWAP1 SWAP2 MSTORE DUP1 DUP3 KECCAK256 DUP3 SWAP1 SSTORE PUSH1 0x60 DUP5 ADD DUP1 MLOAD SWAP4 DUP9 AND DUP4 MSTORE SWAP2 DUP2 SWAP1 KECCAK256 SWAP3 SWAP1 SWAP3 SSTORE DUP3 DUP3 ADD MLOAD SWAP1 MLOAD SWAP2 MLOAD PUSH32 0x8B197B6AE66D18EE6FA20A826A84579A925B9E646A3BF19E96F59ED568C2688 SWAP3 PUSH2 0x1BF4 SWAP3 DUP9 SWAP3 DUP9 SWAP3 SWAP1 PUSH2 0x3A4D JUMP JUMPDEST PUSH1 0x40 MLOAD DUP1 SWAP2 SUB SWAP1 LOG1 PUSH1 0x0 SWAP5 SWAP4 POP POP POP POP JUMP JUMPDEST PUSH1 0xA SLOAD PUSH1 0x0 SWAP1 DUP2 SWAP1 DUP1 PUSH2 0x1C27 JUMPI PUSH1 0x0 PUSH7 0x71AFD498D0000 SWAP3 POP SWAP3 POP POP PUSH2 0x1CB7 JUMP JUMPDEST PUSH1 0x0 PUSH2 0x1C31 PUSH2 0x1F17 JUMP JUMPDEST SWAP1 POP PUSH1 0x0 PUSH2 0x1C3D PUSH2 0x378A JUMP JUMPDEST PUSH1 0x0 PUSH2 0x1C4E DUP5 PUSH1 0x8 SLOAD PUSH1 0x9 SLOAD PUSH2 0x35A1 JUMP JUMPDEST SWAP4 POP SWAP1 POP PUSH1 0x0 DUP2 PUSH1 0x3 DUP2 GT ISZERO PUSH2 0x1C60 JUMPI INVALID JUMPDEST EQ PUSH2 0x1C75 JUMPI SWAP6 POP PUSH1 0x0 SWAP5 POP PUSH2 0x1CB7 SWAP4 POP POP POP POP JUMP JUMPDEST PUSH2 0x1C7F DUP4 DUP7 PUSH2 0x330D JUMP JUMPDEST SWAP3 POP SWAP1 POP PUSH1 0x0 DUP2 PUSH1 0x3 DUP2 GT ISZERO PUSH2 0x1C91 JUMPI INVALID JUMPDEST EQ PUSH2 0x1CA6 JUMPI SWAP6 POP PUSH1 0x0 SWAP5 POP PUSH2 0x1CB7 SWAP4 POP POP POP POP JUMP JUMPDEST POP MLOAD PUSH1 0x0 SWAP6 POP SWAP4 POP PUSH2 0x1CB7 SWAP3 POP POP POP JUMP JUMPDEST SWAP1 SWAP2 JUMP JUMPDEST PUSH1 0x0 DUP3 PUSH1 0x1 PUSH1 0x1 PUSH1 0xA0 SHL SUB AND DUP5 PUSH1 0x1 PUSH1 0x1 PUSH1 0xA0 SHL SUB AND EQ DUP1 PUSH2 0x1CE4 JUMPI POP PUSH1 0x1 PUSH1 0x1 PUSH1 0xA0 SHL SUB DUP4 AND ISZERO JUMPDEST ISZERO PUSH2 0x1CFC JUMPI PUSH2 0x1CF5 PUSH1 0x2 PUSH1 0x25 PUSH2 0x1744 JUMP JUMPDEST SWAP1 POP PUSH2 0xAF4 JUMP JUMPDEST PUSH1 0x0 DUP5 PUSH1 0x1 PUSH1 0x1 PUSH1 0xA0 SHL SUB AND DUP7 PUSH1 0x1 PUSH1 0x1 PUSH1 0xA0 SHL SUB AND EQ ISZERO PUSH2 0x1D21 JUMPI POP PUSH1 0x0 NOT PUSH2 0x1D49 JUMP JUMPDEST POP PUSH1 0x1 PUSH1 0x1 PUSH1 0xA0 SHL SUB DUP1 DUP6 AND PUSH1 0x0 SWAP1 DUP2 MSTORE PUSH1 0xD PUSH1 0x20 SWAP1 DUP2 MSTORE PUSH1 0x40 DUP1 DUP4 KECCAK256 SWAP4 DUP10 AND DUP4 MSTORE SWAP3 SWAP1 MSTORE KECCAK256 SLOAD JUMPDEST PUSH1 0x0 DUP1 PUSH1 0x0 DUP1 PUSH2 0x1D59 DUP6 DUP9 PUSH2 0x2AF6 JUMP JUMPDEST SWAP1 SWAP5 POP SWAP3 POP PUSH1 0x0 DUP5 PUSH1 0x3 DUP2 GT ISZERO PUSH2 0x1D6C JUMPI INVALID JUMPDEST EQ PUSH2 0x1D89 JUMPI PUSH2 0x1D7D PUSH1 0x4 PUSH1 0x25 PUSH2 0x1744 JUMP JUMPDEST SWAP6 POP POP POP POP POP POP PUSH2 0xAF4 JUMP JUMPDEST PUSH1 0x1 PUSH1 0x1 PUSH1 0xA0 SHL SUB DUP10 AND PUSH1 0x0 SWAP1 DUP2 MSTORE PUSH1 0xC PUSH1 0x20 MSTORE PUSH1 0x40 SWAP1 KECCAK256 SLOAD PUSH2 0x1DAC SWAP1 DUP9 PUSH2 0x2AF6 JUMP JUMPDEST SWAP1 SWAP5 POP SWAP2 POP PUSH1 0x0 DUP5 PUSH1 0x3 DUP2 GT ISZERO PUSH2 0x1DBF JUMPI INVALID JUMPDEST EQ PUSH2 0x1DD0 JUMPI PUSH2 0x1D7D PUSH1 0x4 PUSH1 0x26 PUSH2 0x1744 JUMP JUMPDEST PUSH1 0x1 PUSH1 0x1 PUSH1 0xA0 SHL SUB DUP9 AND PUSH1 0x0 SWAP1 DUP2 MSTORE PUSH1 0xC PUSH1 0x20 MSTORE PUSH1 0x40 SWAP1 KECCAK256 SLOAD PUSH2 0x1DF3 SWAP1 DUP9 PUSH2 0x2BE0 JUMP JUMPDEST SWAP1 SWAP5 POP SWAP1 POP PUSH1 0x0 DUP5 PUSH1 0x3 DUP2 GT ISZERO PUSH2 0x1E06 JUMPI INVALID JUMPDEST EQ PUSH2 0x1E17 JUMPI PUSH2 0x1D7D PUSH1 0x4 PUSH1 0x27 PUSH2 0x1744 JUMP JUMPDEST PUSH1 0x1 PUSH1 0x1 PUSH1 0xA0 SHL SUB DUP1 DUP11 AND PUSH1 0x0 SWAP1 DUP2 MSTORE PUSH1 0xC PUSH1 0x20 MSTORE PUSH1 0x40 DUP1 DUP3 KECCAK256 DUP6 SWAP1 SSTORE SWAP2 DUP11 AND DUP2 MSTORE KECCAK256 DUP2 SWAP1 SSTORE PUSH1 0x0 NOT DUP6 EQ PUSH2 0x1E6F JUMPI PUSH1 0x1 PUSH1 0x1 PUSH1 0xA0 SHL SUB DUP1 DUP11 AND PUSH1 0x0 SWAP1 DUP2 MSTORE PUSH1 0xD PUSH1 0x20 SWAP1 DUP2 MSTORE PUSH1 0x40 DUP1 DUP4 KECCAK256 SWAP4 DUP15 AND DUP4 MSTORE SWAP3 SWAP1 MSTORE KECCAK256 DUP4 SWAP1 SSTORE JUMPDEST DUP8 PUSH1 0x1 PUSH1 0x1 PUSH1 0xA0 SHL SUB AND DUP10 PUSH1 0x1 PUSH1 0x1 PUSH1 0xA0 SHL SUB AND PUSH32 0xDDF252AD1BE2C89B69C2B068FC378DAA952BA7F163C4A11628F55A4DF523B3EF DUP10 PUSH1 0x40 MLOAD PUSH2 0x1EB2 SWAP2 SWAP1 PUSH2 0x42A1 JUMP JUMPDEST PUSH1 0x40 MLOAD DUP1 SWAP2 SUB SWAP1 LOG3 POP PUSH1 0x0 SWAP10 SWAP9 POP POP POP POP POP POP POP POP POP JUMP JUMPDEST PUSH1 0x0 DUP1 PUSH1 0x0 DUP1 PUSH2 0x1EDA DUP7 DUP7 PUSH2 0x2B19 JUMP JUMPDEST SWAP1 SWAP3 POP SWAP1 POP PUSH1 0x0 DUP3 PUSH1 0x3 DUP2 GT ISZERO PUSH2 0x1EED JUMPI INVALID JUMPDEST EQ PUSH2 0x1EFE JUMPI POP SWAP2 POP PUSH1 0x0 SWAP1 POP PUSH2 0x1F10 JUMP JUMPDEST PUSH1 0x0 PUSH2 0x1F09 DUP3 PUSH2 0x35DF JUMP JUMPDEST SWAP4 POP SWAP4 POP POP POP JUMPDEST SWAP3 POP SWAP3 SWAP1 POP JUMP JUMPDEST PUSH1 0x1 SLOAD PUSH1 0x40 MLOAD PUSH4 0x70A08231 PUSH1 0xE0 SHL DUP2 MSTORE PUSH1 0x0 SWAP2 PUSH1 0x1 PUSH1 0x1 PUSH1 0xA0 SHL SUB AND SWAP1 DUP2 SWAP1 PUSH4 0x70A08231 SWAP1 PUSH2 0x1F4A SWAP1 ADDRESS SWAP1 PUSH1 0x4 ADD PUSH2 0x39FB JUMP JUMPDEST PUSH1 0x20 PUSH1 0x40 MLOAD DUP1 DUP4 SUB DUP2 DUP7 DUP1 EXTCODESIZE ISZERO DUP1 ISZERO PUSH2 0x1F62 JUMPI PUSH1 0x0 DUP1 REVERT JUMPDEST POP GAS STATICCALL ISZERO DUP1 ISZERO PUSH2 0x1F76 JUMPI RETURNDATASIZE PUSH1 0x0 DUP1 RETURNDATACOPY RETURNDATASIZE PUSH1 0x0 REVERT JUMPDEST POP POP POP POP PUSH1 0x40 MLOAD RETURNDATASIZE PUSH1 0x1F NOT PUSH1 0x1F DUP3 ADD AND DUP3 ADD DUP1 PUSH1 0x40 MSTORE POP DUP2 ADD SWAP1 PUSH2 0x9AF SWAP2 SWAP1 PUSH2 0x39C7 JUMP JUMPDEST PUSH1 0x0 DUP3 ISZERO DUP1 PUSH2 0x1FA7 JUMPI POP DUP2 ISZERO JUMPDEST PUSH2 0x1FC3 JUMPI PUSH1 0x40 MLOAD PUSH3 0x461BCD PUSH1 0xE5 SHL DUP2 MSTORE PUSH1 0x4 ADD PUSH2 0x6C4 SWAP1 PUSH2 0x41C0 JUMP JUMPDEST PUSH2 0x1FCB PUSH2 0x381B JUMP JUMPDEST PUSH2 0x1FD3 PUSH2 0x1C06 JUMP JUMPDEST PUSH1 0x40 DUP4 ADD DUP2 SWAP1 MSTORE PUSH1 0x20 DUP4 ADD DUP3 PUSH1 0x3 DUP2 GT ISZERO PUSH2 0x1FEA JUMPI INVALID JUMPDEST PUSH1 0x3 DUP2 GT ISZERO PUSH2 0x1FF5 JUMPI INVALID JUMPDEST SWAP1 MSTORE POP PUSH1 0x0 SWAP1 POP DUP2 PUSH1 0x20 ADD MLOAD PUSH1 0x3 DUP2 GT ISZERO PUSH2 0x200C JUMPI INVALID JUMPDEST EQ PUSH2 0x2030 JUMPI PUSH2 0x2028 PUSH1 0x4 PUSH1 0x15 DUP4 PUSH1 0x20 ADD MLOAD PUSH1 0x3 DUP2 GT ISZERO PUSH2 0xF9C JUMPI INVALID JUMPDEST SWAP2 POP POP PUSH2 0x17A4 JUMP JUMPDEST DUP4 ISZERO PUSH2 0x20B1 JUMPI PUSH1 0x60 DUP2 ADD DUP5 SWAP1 MSTORE PUSH1 0x40 DUP1 MLOAD PUSH1 0x20 DUP2 ADD DUP3 MSTORE SWAP1 DUP3 ADD MLOAD DUP2 MSTORE PUSH2 0x2057 SWAP1 DUP6 PUSH2 0x1ECA JUMP JUMPDEST PUSH1 0x80 DUP4 ADD DUP2 SWAP1 MSTORE PUSH1 0x20 DUP4 ADD DUP3 PUSH1 0x3 DUP2 GT ISZERO PUSH2 0x206E JUMPI INVALID JUMPDEST PUSH1 0x3 DUP2 GT ISZERO PUSH2 0x2079 JUMPI INVALID JUMPDEST SWAP1 MSTORE POP PUSH1 0x0 SWAP1 POP DUP2 PUSH1 0x20 ADD MLOAD PUSH1 0x3 DUP2 GT ISZERO PUSH2 0x2090 JUMPI INVALID JUMPDEST EQ PUSH2 0x20AC JUMPI PUSH2 0x2028 PUSH1 0x4 PUSH1 0x13 DUP4 PUSH1 0x20 ADD MLOAD PUSH1 0x3 DUP2 GT ISZERO PUSH2 0xF9C JUMPI INVALID JUMPDEST PUSH2 0x212A JUMP JUMPDEST PUSH2 0x20CD DUP4 PUSH1 0x40 MLOAD DUP1 PUSH1 0x20 ADD PUSH1 0x40 MSTORE DUP1 DUP5 PUSH1 0x40 ADD MLOAD DUP2 MSTORE POP PUSH2 0x35EE JUMP JUMPDEST PUSH1 0x60 DUP4 ADD DUP2 SWAP1 MSTORE PUSH1 0x20 DUP4 ADD DUP3 PUSH1 0x3 DUP2 GT ISZERO PUSH2 0x20E4 JUMPI INVALID JUMPDEST PUSH1 0x3 DUP2 GT ISZERO PUSH2 0x20EF JUMPI INVALID JUMPDEST SWAP1 MSTORE POP PUSH1 0x0 SWAP1 POP DUP2 PUSH1 0x20 ADD MLOAD PUSH1 0x3 DUP2 GT ISZERO PUSH2 0x2106 JUMPI INVALID JUMPDEST EQ PUSH2 0x2122 JUMPI PUSH2 0x2028 PUSH1 0x4 PUSH1 0x14 DUP4 PUSH1 0x20 ADD MLOAD PUSH1 0x3 DUP2 GT ISZERO PUSH2 0xF9C JUMPI INVALID JUMPDEST PUSH1 0x80 DUP2 ADD DUP4 SWAP1 MSTORE JUMPDEST PUSH2 0x213A PUSH1 0xA SLOAD DUP3 PUSH1 0x60 ADD MLOAD PUSH2 0x2AF6 JUMP JUMPDEST PUSH1 0xA0 DUP4 ADD DUP2 SWAP1 MSTORE PUSH1 0x20 DUP4 ADD DUP3 PUSH1 0x3 DUP2 GT ISZERO PUSH2 0x2151 JUMPI INVALID JUMPDEST PUSH1 0x3 DUP2 GT ISZERO PUSH2 0x215C JUMPI INVALID JUMPDEST SWAP1 MSTORE POP PUSH1 0x0 SWAP1 POP DUP2 PUSH1 0x20 ADD MLOAD PUSH1 0x3 DUP2 GT ISZERO PUSH2 0x2173 JUMPI INVALID JUMPDEST EQ PUSH2 0x218F JUMPI PUSH2 0x2028 PUSH1 0x4 PUSH1 0x17 DUP4 PUSH1 0x20 ADD MLOAD PUSH1 0x3 DUP2 GT ISZERO PUSH2 0xF9C JUMPI INVALID JUMPDEST PUSH1 0x1 PUSH1 0x1 PUSH1 0xA0 SHL SUB DUP6 AND PUSH1 0x0 SWAP1 DUP2 MSTORE PUSH1 0xC PUSH1 0x20 MSTORE PUSH1 0x40 SWAP1 KECCAK256 SLOAD PUSH1 0x60 DUP3 ADD MLOAD PUSH2 0x21B7 SWAP2 SWAP1 PUSH2 0x2AF6 JUMP JUMPDEST PUSH1 0xC0 DUP4 ADD DUP2 SWAP1 MSTORE PUSH1 0x20 DUP4 ADD DUP3 PUSH1 0x3 DUP2 GT ISZERO PUSH2 0x21CE JUMPI INVALID JUMPDEST PUSH1 0x3 DUP2 GT ISZERO PUSH2 0x21D9 JUMPI INVALID JUMPDEST SWAP1 MSTORE POP PUSH1 0x0 SWAP1 POP DUP2 PUSH1 0x20 ADD MLOAD PUSH1 0x3 DUP2 GT ISZERO PUSH2 0x21F0 JUMPI INVALID JUMPDEST EQ PUSH2 0x220C JUMPI PUSH2 0x2028 PUSH1 0x4 PUSH1 0x16 DUP4 PUSH1 0x20 ADD MLOAD PUSH1 0x3 DUP2 GT ISZERO PUSH2 0xF9C JUMPI INVALID JUMPDEST DUP1 PUSH1 0x80 ADD MLOAD PUSH2 0x2219 PUSH2 0x1F17 JUMP JUMPDEST LT ISZERO PUSH2 0x222B JUMPI PUSH2 0x2028 PUSH1 0x6 PUSH1 0x18 PUSH2 0x1744 JUMP JUMPDEST PUSH1 0x1 SLOAD PUSH1 0x80 DUP3 ADD MLOAD PUSH2 0x2248 SWAP2 PUSH1 0x1 PUSH1 0x1 PUSH1 0xA0 SHL SUB AND SWAP1 DUP8 SWAP1 PUSH2 0x35FE JUMP JUMPDEST PUSH1 0xA0 DUP2 ADD MLOAD PUSH1 0xA SSTORE PUSH1 0xC0 DUP2 ADD MLOAD PUSH1 0x1 PUSH1 0x1 PUSH1 0xA0 SHL SUB DUP7 AND PUSH1 0x0 DUP2 DUP2 MSTORE PUSH1 0xC PUSH1 0x20 MSTORE PUSH1 0x40 SWAP1 DUP2 SWAP1 KECCAK256 SWAP3 SWAP1 SWAP3 SSTORE PUSH1 0x60 DUP4 ADD MLOAD SWAP2 MLOAD ADDRESS SWAP3 PUSH32 0xDDF252AD1BE2C89B69C2B068FC378DAA952BA7F163C4A11628F55A4DF523B3EF SWAP2 PUSH2 0x22A8 SWAP2 SWAP1 PUSH2 0x42A1 JUMP JUMPDEST PUSH1 0x40 MLOAD DUP1 SWAP2 SUB SWAP1 LOG3 PUSH1 0x80 DUP2 ADD MLOAD PUSH1 0x60 DUP3 ADD MLOAD PUSH1 0x40 MLOAD PUSH32 0xE5B754FB1ABB7F01B499791D0B820AE3B6AF3424AC1C59768EDB53F4EC31A929 SWAP3 PUSH2 0x22EA SWAP3 DUP10 SWAP3 PUSH2 0x3AC0 JUMP JUMPDEST PUSH1 0x40 MLOAD DUP1 SWAP2 SUB SWAP1 LOG1 POP PUSH1 0x0 SWAP5 SWAP4 POP POP POP POP JUMP JUMPDEST PUSH1 0x40 DUP1 MLOAD DUP1 DUP3 ADD DUP3 MSTORE PUSH1 0x16 DUP2 MSTORE PUSH22 0x74616B654F776E6572736869702875696E7432353629 PUSH1 0x50 SHL PUSH1 0x20 SWAP1 SWAP2 ADD MSTORE MLOAD PUSH1 0x0 SWAP1 DUP2 SWAP1 PUSH1 0x1 PUSH1 0x1 PUSH1 0xA0 SHL SUB DUP6 AND SWAP1 PUSH32 0xB2E6CEEB1D49A91A4643F2301A191B052162704C5A2B4C43F8B313B2428268A7 SWAP1 PUSH2 0x236B SWAP1 DUP7 SWAP1 PUSH1 0x24 ADD PUSH2 0x42A1 JUMP JUMPDEST PUSH1 0x40 DUP1 MLOAD PUSH1 0x1F NOT DUP2 DUP5 SUB ADD DUP2 MSTORE SWAP2 DUP2 MSTORE PUSH1 0x20 DUP3 ADD DUP1 MLOAD PUSH1 0x1 PUSH1 0x1 PUSH1 0xE0 SHL SUB AND PUSH1 0x1 PUSH1 0x1 PUSH1 0xE0 SHL SUB NOT SWAP1 SWAP5 AND SWAP4 SWAP1 SWAP4 OR SWAP1 SWAP3 MSTORE SWAP1 MLOAD PUSH2 0x23A9 SWAP2 SWAP1 PUSH2 0x39DF JUMP JUMPDEST PUSH1 0x0 PUSH1 0x40 MLOAD DUP1 DUP4 SUB DUP2 PUSH1 0x0 DUP7 GAS CALL SWAP2 POP POP RETURNDATASIZE DUP1 PUSH1 0x0 DUP2 EQ PUSH2 0x23E6 JUMPI PUSH1 0x40 MLOAD SWAP2 POP PUSH1 0x1F NOT PUSH1 0x3F RETURNDATASIZE ADD AND DUP3 ADD PUSH1 0x40 MSTORE RETURNDATASIZE DUP3 MSTORE RETURNDATASIZE PUSH1 0x0 PUSH1 0x20 DUP5 ADD RETURNDATACOPY PUSH2 0x23EB JUMP JUMPDEST PUSH1 0x60 SWAP2 POP JUMPDEST POP SWAP2 POP SWAP2 POP DUP2 DUP1 ISZERO PUSH2 0x2415 JUMPI POP DUP1 MLOAD ISZERO DUP1 PUSH2 0x2415 JUMPI POP DUP1 DUP1 PUSH1 0x20 ADD SWAP1 MLOAD DUP2 ADD SWAP1 PUSH2 0x2415 SWAP2 SWAP1 PUSH2 0x3993 JUMP JUMPDEST PUSH2 0x2431 JUMPI PUSH1 0x40 MLOAD PUSH3 0x461BCD PUSH1 0xE5 SHL DUP2 MSTORE PUSH1 0x4 ADD PUSH2 0x6C4 SWAP1 PUSH2 0x3D6D JUMP JUMPDEST POP POP POP POP JUMP JUMPDEST PUSH1 0x1 PUSH1 0x1 PUSH1 0xA0 SHL SUB DUP2 AND PUSH1 0x0 SWAP1 DUP2 MSTORE PUSH1 0xE PUSH1 0x20 MSTORE PUSH1 0x40 DUP2 KECCAK256 DUP1 SLOAD DUP3 SWAP2 DUP3 SWAP2 DUP3 SWAP2 DUP3 SWAP2 PUSH2 0x246D JUMPI PUSH1 0x0 DUP1 SWAP6 POP SWAP6 POP POP POP POP POP PUSH2 0x24E5 JUMP JUMPDEST PUSH2 0x247D DUP2 PUSH1 0x0 ADD SLOAD PUSH1 0x7 SLOAD PUSH2 0x36B3 JUMP JUMPDEST SWAP1 SWAP5 POP SWAP3 POP PUSH1 0x0 DUP5 PUSH1 0x3 DUP2 GT ISZERO PUSH2 0x2490 JUMPI INVALID JUMPDEST EQ PUSH2 0x24A5 JUMPI DUP4 PUSH1 0x0 SWAP6 POP SWAP6 POP POP POP POP POP PUSH2 0x24E5 JUMP JUMPDEST PUSH2 0x24B3 DUP4 DUP3 PUSH1 0x1 ADD SLOAD PUSH2 0x36F2 JUMP JUMPDEST SWAP1 SWAP5 POP SWAP2 POP PUSH1 0x0 DUP5 PUSH1 0x3 DUP2 GT ISZERO PUSH2 0x24C6 JUMPI INVALID JUMPDEST EQ PUSH2 0x24DB JUMPI DUP4 PUSH1 0x0 SWAP6 POP SWAP6 POP POP POP POP POP PUSH2 0x24E5 JUMP JUMPDEST POP PUSH1 0x0 SWAP5 POP SWAP3 POP POP POP JUMPDEST SWAP2 POP SWAP2 JUMP JUMPDEST PUSH1 0x13 SLOAD PUSH1 0x40 DUP1 MLOAD DUP1 DUP3 ADD DUP3 MSTORE PUSH1 0x10 DUP2 MSTORE PUSH16 0x6F776E65724F662875696E7432353629 PUSH1 0x80 SHL PUSH1 0x20 SWAP1 SWAP2 ADD MSTORE MLOAD PUSH1 0x0 SWAP2 DUP3 SWAP2 DUP3 SWAP2 PUSH1 0x1 PUSH1 0x1 PUSH1 0xA0 SHL SUB AND SWAP1 PUSH32 0x6352211E6566AA027E75AC9DBF2423197FBD9B82B9D981A3AB367D355866AA1C SWAP1 PUSH2 0x2556 SWAP1 DUP8 SWAP1 PUSH1 0x24 ADD PUSH2 0x42A1 JUMP JUMPDEST PUSH1 0x40 DUP1 MLOAD PUSH1 0x1F NOT DUP2 DUP5 SUB ADD DUP2 MSTORE SWAP2 DUP2 MSTORE PUSH1 0x20 DUP3 ADD DUP1 MLOAD PUSH1 0x1 PUSH1 0x1 PUSH1 0xE0 SHL SUB AND PUSH1 0x1 PUSH1 0x1 PUSH1 0xE0 SHL SUB NOT SWAP1 SWAP5 AND SWAP4 SWAP1 SWAP4 OR SWAP1 SWAP3 MSTORE SWAP1 MLOAD PUSH2 0x2594 SWAP2 SWAP1 PUSH2 0x39DF JUMP JUMPDEST PUSH1 0x0 PUSH1 0x40 MLOAD DUP1 DUP4 SUB DUP2 PUSH1 0x0 DUP7 GAS CALL SWAP2 POP POP RETURNDATASIZE DUP1 PUSH1 0x0 DUP2 EQ PUSH2 0x25D1 JUMPI PUSH1 0x40 MLOAD SWAP2 POP PUSH1 0x1F NOT PUSH1 0x3F RETURNDATASIZE ADD AND DUP3 ADD PUSH1 0x40 MSTORE RETURNDATASIZE DUP3 MSTORE RETURNDATASIZE PUSH1 0x0 PUSH1 0x20 DUP5 ADD RETURNDATACOPY PUSH2 0x25D6 JUMP JUMPDEST PUSH1 0x60 SWAP2 POP JUMPDEST POP SWAP2 POP SWAP2 POP PUSH1 0x0 DUP2 DUP1 PUSH1 0x20 ADD SWAP1 MLOAD DUP2 ADD SWAP1 PUSH2 0x25F1 SWAP2 SWAP1 PUSH2 0x38B8 JUMP JUMPDEST SWAP1 POP DUP3 DUP1 ISZERO PUSH2 0x2608 JUMPI POP PUSH1 0x1 PUSH1 0x1 PUSH1 0xA0 SHL SUB DUP2 AND ISZERO ISZERO JUMPDEST PUSH2 0xAF4 JUMPI PUSH1 0x40 MLOAD PUSH3 0x461BCD PUSH1 0xE5 SHL DUP2 MSTORE PUSH1 0x4 ADD PUSH2 0x6C4 SWAP1 PUSH2 0x40F8 JUMP JUMPDEST PUSH1 0x1 PUSH1 0x1 PUSH1 0xA0 SHL SUB DUP3 AND PUSH1 0x0 SWAP1 DUP2 MSTORE PUSH1 0xC PUSH1 0x20 MSTORE PUSH1 0x40 DUP2 KECCAK256 SLOAD DUP2 SWAP1 ISZERO PUSH2 0x265B JUMPI PUSH2 0x2650 PUSH1 0x3 PUSH1 0x1C PUSH2 0x1744 JUMP JUMPDEST PUSH1 0x0 SWAP2 POP SWAP2 POP PUSH2 0x1F10 JUMP JUMPDEST PUSH2 0x2663 PUSH2 0x3859 JUMP JUMPDEST PUSH2 0x266C DUP5 PUSH2 0x371D JUMP JUMPDEST PUSH1 0x80 DUP3 ADD MSTORE PUSH1 0x1 PUSH1 0x1 PUSH1 0xA0 SHL SUB DUP1 DUP7 AND PUSH1 0x0 SWAP1 DUP2 MSTORE PUSH1 0x12 PUSH1 0x20 SWAP1 DUP2 MSTORE PUSH1 0x40 DUP3 KECCAK256 DUP1 SLOAD PUSH1 0x1 DUP2 ADD DUP3 SSTORE SWAP1 DUP4 MSTORE SWAP2 KECCAK256 ADD DUP6 SWAP1 SSTORE PUSH1 0x13 SLOAD PUSH2 0x26AB SWAP2 AND DUP6 PUSH2 0x22FD JUMP JUMPDEST PUSH2 0x26BB PUSH1 0xF SLOAD DUP3 PUSH1 0x80 ADD MLOAD PUSH2 0x2BE0 JUMP JUMPDEST PUSH1 0x40 DUP4 ADD DUP2 SWAP1 MSTORE PUSH1 0x20 DUP4 ADD DUP3 PUSH1 0x3 DUP2 GT ISZERO PUSH2 0x26D2 JUMPI INVALID JUMPDEST PUSH1 0x3 DUP2 GT ISZERO PUSH2 0x26DD JUMPI INVALID JUMPDEST SWAP1 MSTORE POP PUSH1 0x0 SWAP1 POP DUP2 PUSH1 0x20 ADD MLOAD PUSH1 0x3 DUP2 GT ISZERO PUSH2 0x26F4 JUMPI INVALID JUMPDEST EQ PUSH2 0x2711 JUMPI PUSH1 0x40 MLOAD PUSH3 0x461BCD PUSH1 0xE5 SHL DUP2 MSTORE PUSH1 0x4 ADD PUSH2 0x6C4 SWAP1 PUSH2 0x424B JUMP JUMPDEST PUSH1 0x1 PUSH1 0x1 PUSH1 0xA0 SHL SUB DUP6 AND PUSH1 0x0 SWAP1 DUP2 MSTORE PUSH1 0x10 PUSH1 0x20 MSTORE PUSH1 0x40 SWAP1 KECCAK256 SLOAD PUSH1 0x80 DUP3 ADD MLOAD PUSH2 0x2739 SWAP2 SWAP1 PUSH2 0x2BE0 JUMP JUMPDEST PUSH1 0x60 DUP4 ADD DUP2 SWAP1 MSTORE PUSH1 0x20 DUP4 ADD DUP3 PUSH1 0x3 DUP2 GT ISZERO PUSH2 0x2750 JUMPI INVALID JUMPDEST PUSH1 0x3 DUP2 GT ISZERO PUSH2 0x275B JUMPI INVALID JUMPDEST SWAP1 MSTORE POP PUSH1 0x0 SWAP1 POP DUP2 PUSH1 0x20 ADD MLOAD PUSH1 0x3 DUP2 GT ISZERO PUSH2 0x2772 JUMPI INVALID JUMPDEST EQ PUSH2 0x278F JUMPI PUSH1 0x40 MLOAD PUSH3 0x461BCD PUSH1 0xE5 SHL DUP2 MSTORE PUSH1 0x4 ADD PUSH2 0x6C4 SWAP1 PUSH2 0x3D19 JUMP JUMPDEST PUSH1 0x40 DUP1 DUP3 ADD MLOAD PUSH1 0xF SSTORE PUSH1 0x60 DUP3 ADD MLOAD PUSH1 0x1 PUSH1 0x1 PUSH1 0xA0 SHL SUB DUP8 AND PUSH1 0x0 SWAP1 DUP2 MSTORE PUSH1 0x10 PUSH1 0x20 MSTORE DUP3 SWAP1 KECCAK256 SSTORE PUSH1 0x80 DUP3 ADD MLOAD SWAP1 MLOAD PUSH32 0x94C9D5464FED48366596C718219E5FBD3C0C61C1A21391BF239075E9DE5A727A SWAP2 PUSH2 0x27EA SWAP2 DUP9 SWAP2 SWAP1 PUSH2 0x3AA7 JUMP JUMPDEST PUSH1 0x40 MLOAD DUP1 SWAP2 SUB SWAP1 LOG1 PUSH1 0x80 ADD MLOAD PUSH1 0x0 SWAP6 SWAP1 SWAP5 POP SWAP3 POP POP POP JUMP JUMPDEST PUSH1 0xB SLOAD PUSH1 0x0 SWAP1 DUP2 SWAP1 PUSH1 0xFF AND ISZERO DUP1 PUSH2 0x2830 JUMPI POP PUSH1 0x1 PUSH1 0x1 PUSH1 0xA0 SHL SUB DUP5 AND PUSH1 0x0 SWAP1 DUP2 MSTORE PUSH1 0x10 PUSH1 0x20 MSTORE PUSH1 0x40 SWAP1 KECCAK256 SLOAD ISZERO ISZERO JUMPDEST ISZERO PUSH2 0x2841 JUMPI PUSH2 0x2650 PUSH1 0x3 PUSH1 0xE PUSH2 0x1744 JUMP JUMPDEST PUSH2 0x2849 PUSH2 0x381B JUMP JUMPDEST PUSH2 0x2851 PUSH2 0x1C06 JUMP JUMPDEST PUSH1 0x40 DUP4 ADD DUP2 SWAP1 MSTORE PUSH1 0x20 DUP4 ADD DUP3 PUSH1 0x3 DUP2 GT ISZERO PUSH2 0x2868 JUMPI INVALID JUMPDEST PUSH1 0x3 DUP2 GT ISZERO PUSH2 0x2873 JUMPI INVALID JUMPDEST SWAP1 MSTORE POP PUSH1 0x0 SWAP1 POP DUP2 PUSH1 0x20 ADD MLOAD PUSH1 0x3 DUP2 GT ISZERO PUSH2 0x288A JUMPI INVALID JUMPDEST EQ PUSH2 0x28B2 JUMPI PUSH2 0x28A6 PUSH1 0x4 PUSH1 0x10 DUP4 PUSH1 0x20 ADD MLOAD PUSH1 0x3 DUP2 GT ISZERO PUSH2 0xF9C JUMPI INVALID JUMPDEST PUSH1 0x0 SWAP3 POP SWAP3 POP POP PUSH2 0x1F10 JUMP JUMPDEST PUSH1 0x1 SLOAD PUSH2 0x28C9 SWAP1 PUSH1 0x1 PUSH1 0x1 PUSH1 0xA0 SHL SUB AND DUP7 DUP7 PUSH2 0x33BE JUMP JUMPDEST PUSH1 0xC0 DUP3 ADD DUP2 SWAP1 MSTORE PUSH1 0x40 DUP1 MLOAD PUSH1 0x20 DUP2 ADD DUP3 MSTORE SWAP1 DUP4 ADD MLOAD DUP2 MSTORE PUSH2 0x28EA SWAP2 SWAP1 PUSH2 0x35EE JUMP JUMPDEST PUSH1 0x60 DUP4 ADD DUP2 SWAP1 MSTORE PUSH1 0x20 DUP4 ADD DUP3 PUSH1 0x3 DUP2 GT ISZERO PUSH2 0x2901 JUMPI INVALID JUMPDEST PUSH1 0x3 DUP2 GT ISZERO PUSH2 0x290C JUMPI INVALID JUMPDEST SWAP1 MSTORE POP PUSH1 0x0 SWAP1 POP DUP2 PUSH1 0x20 ADD MLOAD PUSH1 0x3 DUP2 GT ISZERO PUSH2 0x2923 JUMPI INVALID JUMPDEST EQ PUSH2 0x2940 JUMPI PUSH1 0x40 MLOAD PUSH3 0x461BCD PUSH1 0xE5 SHL DUP2 MSTORE PUSH1 0x4 ADD PUSH2 0x6C4 SWAP1 PUSH2 0x40C3 JUMP JUMPDEST PUSH2 0x2950 PUSH1 0xA SLOAD DUP3 PUSH1 0x60 ADD MLOAD PUSH2 0x2BE0 JUMP JUMPDEST PUSH1 0x80 DUP4 ADD DUP2 SWAP1 MSTORE PUSH1 0x20 DUP4 ADD DUP3 PUSH1 0x3 DUP2 GT ISZERO PUSH2 0x2967 JUMPI INVALID JUMPDEST PUSH1 0x3 DUP2 GT ISZERO PUSH2 0x2972 JUMPI INVALID JUMPDEST SWAP1 MSTORE POP PUSH1 0x0 SWAP1 POP DUP2 PUSH1 0x20 ADD MLOAD PUSH1 0x3 DUP2 GT ISZERO PUSH2 0x2989 JUMPI INVALID JUMPDEST EQ PUSH2 0x29A6 JUMPI PUSH1 0x40 MLOAD PUSH3 0x461BCD PUSH1 0xE5 SHL DUP2 MSTORE PUSH1 0x4 ADD PUSH2 0x6C4 SWAP1 PUSH2 0x4178 JUMP JUMPDEST PUSH1 0x1 PUSH1 0x1 PUSH1 0xA0 SHL SUB DUP6 AND PUSH1 0x0 SWAP1 DUP2 MSTORE PUSH1 0xC PUSH1 0x20 MSTORE PUSH1 0x40 SWAP1 KECCAK256 SLOAD PUSH1 0x60 DUP3 ADD MLOAD PUSH2 0x29CE SWAP2 SWAP1 PUSH2 0x2BE0 JUMP JUMPDEST PUSH1 0xA0 DUP4 ADD DUP2 SWAP1 MSTORE PUSH1 0x20 DUP4 ADD DUP3 PUSH1 0x3 DUP2 GT ISZERO PUSH2 0x29E5 JUMPI INVALID JUMPDEST PUSH1 0x3 DUP2 GT ISZERO PUSH2 0x29F0 JUMPI INVALID JUMPDEST SWAP1 MSTORE POP PUSH1 0x0 SWAP1 POP DUP2 PUSH1 0x20 ADD MLOAD PUSH1 0x3 DUP2 GT ISZERO PUSH2 0x2A07 JUMPI INVALID JUMPDEST EQ PUSH2 0x2A24 JUMPI PUSH1 0x40 MLOAD PUSH3 0x461BCD PUSH1 0xE5 SHL DUP2 MSTORE PUSH1 0x4 ADD PUSH2 0x6C4 SWAP1 PUSH2 0x3E2E JUMP JUMPDEST PUSH1 0x80 DUP2 ADD MLOAD PUSH1 0xA SSTORE PUSH1 0xA0 DUP2 ADD MLOAD PUSH1 0x1 PUSH1 0x1 PUSH1 0xA0 SHL SUB DUP7 AND PUSH1 0x0 SWAP1 DUP2 MSTORE PUSH1 0xC PUSH1 0x20 MSTORE PUSH1 0x40 SWAP1 DUP2 SWAP1 KECCAK256 SWAP2 SWAP1 SWAP2 SSTORE PUSH1 0xC0 DUP3 ADD MLOAD PUSH1 0x60 DUP4 ADD MLOAD SWAP2 MLOAD PUSH32 0x4C209B5FC8AD50758F13E2E1088BA56A560DFF690A1C6FEF26394F4C03821C4F SWAP3 PUSH2 0x2A8B SWAP3 DUP10 SWAP3 SWAP1 SWAP2 SWAP1 PUSH2 0x3AC0 JUMP JUMPDEST PUSH1 0x40 MLOAD DUP1 SWAP2 SUB SWAP1 LOG1 DUP5 PUSH1 0x1 PUSH1 0x1 PUSH1 0xA0 SHL SUB AND ADDRESS PUSH1 0x1 PUSH1 0x1 PUSH1 0xA0 SHL SUB AND PUSH32 0xDDF252AD1BE2C89B69C2B068FC378DAA952BA7F163C4A11628F55A4DF523B3EF DUP4 PUSH1 0x60 ADD MLOAD PUSH1 0x40 MLOAD PUSH2 0x2ADA SWAP2 SWAP1 PUSH2 0x42A1 JUMP JUMPDEST PUSH1 0x40 MLOAD DUP1 SWAP2 SUB SWAP1 LOG3 PUSH1 0xC0 ADD MLOAD PUSH1 0x0 SWAP6 SWAP1 SWAP5 POP SWAP3 POP POP POP JUMP JUMPDEST NUMBER SWAP1 JUMP JUMPDEST PUSH1 0x0 DUP1 DUP4 DUP4 GT PUSH2 0x2B0D JUMPI POP PUSH1 0x0 SWAP1 POP DUP2 DUP4 SUB PUSH2 0x1F10 JUMP JUMPDEST POP PUSH1 0x3 SWAP1 POP PUSH1 0x0 PUSH2 0x1F10 JUMP JUMPDEST PUSH1 0x0 PUSH2 0x2B23 PUSH2 0x378A JUMP JUMPDEST PUSH1 0x0 DUP1 PUSH2 0x2B34 DUP7 PUSH1 0x0 ADD MLOAD DUP7 PUSH2 0x36B3 JUMP JUMPDEST SWAP1 SWAP3 POP SWAP1 POP PUSH1 0x0 DUP3 PUSH1 0x3 DUP2 GT ISZERO PUSH2 0x2B47 JUMPI INVALID JUMPDEST EQ PUSH2 0x2B66 JUMPI POP PUSH1 0x40 DUP1 MLOAD PUSH1 0x20 DUP2 ADD SWAP1 SWAP2 MSTORE PUSH1 0x0 DUP2 MSTORE SWAP1 SWAP3 POP SWAP1 POP PUSH2 0x1F10 JUMP JUMPDEST PUSH1 0x40 DUP1 MLOAD PUSH1 0x20 DUP2 ADD SWAP1 SWAP2 MSTORE SWAP1 DUP2 MSTORE PUSH1 0x0 SWAP7 SWAP1 SWAP6 POP SWAP4 POP POP POP POP JUMP JUMPDEST PUSH1 0x0 PUSH32 0x45B96FE442630264581B197E84BBADA861235052C5A1AADFFF9EA4E40A969AA0 DUP5 PUSH1 0x9 DUP2 GT ISZERO PUSH2 0x2BB0 JUMPI INVALID JUMPDEST DUP5 PUSH1 0x27 DUP2 GT ISZERO PUSH2 0x2BBC JUMPI INVALID JUMPDEST DUP5 PUSH1 0x40 MLOAD PUSH2 0x2BCC SWAP4 SWAP3 SWAP2 SWAP1 PUSH2 0x42B8 JUMP JUMPDEST PUSH1 0x40 MLOAD DUP1 SWAP2 SUB SWAP1 LOG1 DUP4 PUSH1 0x9 DUP2 GT ISZERO PUSH2 0xAF4 JUMPI INVALID JUMPDEST PUSH1 0x0 DUP1 DUP4 DUP4 ADD DUP5 DUP2 LT PUSH2 0x2BF8 JUMPI PUSH1 0x0 SWAP3 POP SWAP1 POP PUSH2 0x1F10 JUMP JUMPDEST PUSH1 0x2 PUSH1 0x0 SWAP3 POP SWAP3 POP POP PUSH2 0x1F10 JUMP JUMPDEST PUSH1 0x0 DUP1 PUSH1 0x0 DUP1 PUSH2 0x2C16 DUP8 DUP8 PUSH2 0x2B19 JUMP JUMPDEST SWAP1 SWAP3 POP SWAP1 POP PUSH1 0x0 DUP3 PUSH1 0x3 DUP2 GT ISZERO PUSH2 0x2C29 JUMPI INVALID JUMPDEST EQ PUSH2 0x2C3A JUMPI POP SWAP2 POP PUSH1 0x0 SWAP1 POP PUSH2 0x19D4 JUMP JUMPDEST PUSH2 0x2C4C PUSH2 0x2C46 DUP3 PUSH2 0x35DF JUMP JUMPDEST DUP7 PUSH2 0x2BE0 JUMP JUMPDEST SWAP4 POP SWAP4 POP POP POP SWAP4 POP SWAP4 SWAP2 POP POP JUMP JUMPDEST PUSH1 0x0 PUSH2 0x2C64 PUSH2 0x381B JUMP JUMPDEST PUSH2 0x2C6D DUP5 PUSH2 0x2437 JUMP JUMPDEST PUSH1 0x60 DUP4 ADD DUP2 SWAP1 MSTORE PUSH1 0x20 DUP4 ADD DUP3 PUSH1 0x3 DUP2 GT ISZERO PUSH2 0x2C84 JUMPI INVALID JUMPDEST PUSH1 0x3 DUP2 GT ISZERO PUSH2 0x2C8F JUMPI INVALID JUMPDEST SWAP1 MSTORE POP PUSH1 0x0 SWAP1 POP DUP2 PUSH1 0x20 ADD MLOAD PUSH1 0x3 DUP2 GT ISZERO PUSH2 0x2CA6 JUMPI INVALID JUMPDEST EQ PUSH2 0x2CC2 JUMPI PUSH2 0x1AAD PUSH1 0x4 PUSH1 0x1D DUP4 PUSH1 0x20 ADD MLOAD PUSH1 0x3 DUP2 GT ISZERO PUSH2 0xF9C JUMPI INVALID JUMPDEST PUSH1 0x1 PUSH1 0x1 PUSH1 0xA0 SHL SUB DUP5 AND PUSH1 0x0 SWAP1 DUP2 MSTORE PUSH1 0x10 PUSH1 0x20 MSTORE PUSH1 0x40 SWAP1 KECCAK256 SLOAD PUSH1 0x80 DUP3 ADD MSTORE PUSH1 0x0 NOT DUP4 EQ ISZERO PUSH2 0x2D17 JUMPI DUP1 PUSH1 0x60 ADD MLOAD DUP2 PUSH1 0x80 ADD MLOAD LT ISZERO PUSH2 0x2D01 JUMPI PUSH1 0x0 PUSH2 0x2D0D JUMP JUMPDEST DUP1 PUSH1 0x60 ADD MLOAD DUP2 PUSH1 0x80 ADD MLOAD SUB JUMPDEST PUSH1 0x40 DUP3 ADD MSTORE PUSH2 0x2D1F JUMP JUMPDEST PUSH1 0x40 DUP2 ADD DUP4 SWAP1 MSTORE JUMPDEST PUSH1 0x1 PUSH1 0x1 PUSH1 0xA0 SHL SUB DUP5 AND PUSH1 0x0 SWAP1 DUP2 MSTORE PUSH1 0x10 PUSH1 0x20 MSTORE PUSH1 0x40 SWAP1 DUP2 SWAP1 KECCAK256 SLOAD SWAP1 DUP3 ADD MLOAD PUSH2 0x2D48 SWAP2 SWAP1 PUSH2 0x2AF6 JUMP JUMPDEST PUSH1 0xA0 DUP4 ADD DUP2 SWAP1 MSTORE PUSH1 0x20 DUP4 ADD DUP3 PUSH1 0x3 DUP2 GT ISZERO PUSH2 0x2D5F JUMPI INVALID JUMPDEST PUSH1 0x3 DUP2 GT ISZERO PUSH2 0x2D6A JUMPI INVALID JUMPDEST SWAP1 MSTORE POP PUSH1 0x0 SWAP1 POP DUP2 PUSH1 0x20 ADD MLOAD PUSH1 0x3 DUP2 GT ISZERO PUSH2 0x2D81 JUMPI INVALID JUMPDEST EQ PUSH2 0x2D9D JUMPI PUSH2 0x1AAD PUSH1 0x4 PUSH1 0x1E DUP4 PUSH1 0x20 ADD MLOAD PUSH1 0x3 DUP2 GT ISZERO PUSH2 0xF9C JUMPI INVALID JUMPDEST DUP1 PUSH1 0x60 ADD MLOAD DUP2 PUSH1 0xA0 ADD MLOAD LT ISZERO PUSH2 0x2DB9 JUMPI PUSH2 0x1AAD PUSH1 0x9 PUSH1 0x1F PUSH2 0x1744 JUMP JUMPDEST PUSH2 0x2DC9 PUSH1 0xF SLOAD DUP3 PUSH1 0x40 ADD MLOAD PUSH2 0x2AF6 JUMP JUMPDEST PUSH1 0xC0 DUP4 ADD DUP2 SWAP1 MSTORE PUSH1 0x20 DUP4 ADD DUP3 PUSH1 0x3 DUP2 GT ISZERO PUSH2 0x2DE0 JUMPI INVALID JUMPDEST PUSH1 0x3 DUP2 GT ISZERO PUSH2 0x2DEB JUMPI INVALID JUMPDEST SWAP1 MSTORE POP PUSH1 0x0 SWAP1 POP DUP2 PUSH1 0x20 ADD MLOAD PUSH1 0x3 DUP2 GT ISZERO PUSH2 0x2E02 JUMPI INVALID JUMPDEST EQ PUSH2 0x2E1F JUMPI PUSH1 0x40 MLOAD PUSH3 0x461BCD PUSH1 0xE5 SHL DUP2 MSTORE PUSH1 0x4 ADD PUSH2 0x6C4 SWAP1 PUSH2 0x3B89 JUMP JUMPDEST PUSH1 0xC0 DUP2 ADD MLOAD PUSH1 0xF SSTORE PUSH1 0xA0 DUP2 ADD MLOAD PUSH1 0x1 PUSH1 0x1 PUSH1 0xA0 SHL SUB DUP6 AND PUSH1 0x0 SWAP1 DUP2 MSTORE PUSH1 0x10 PUSH1 0x20 MSTORE PUSH1 0x40 SWAP1 DUP2 SWAP1 KECCAK256 SWAP2 SWAP1 SWAP2 SSTORE DUP1 DUP3 ADD MLOAD SWAP1 MLOAD PUSH32 0x925B1ADD21F66E1E2C8C9E9FFFB3E0F4105DF02DBD05C280F2FE4D19F5C50BE5 SWAP2 PUSH2 0x1BF4 SWAP2 DUP8 SWAP2 SWAP1 PUSH2 0x3AA7 JUMP JUMPDEST PUSH1 0xB SLOAD PUSH1 0x0 SWAP1 PUSH2 0x100 SWAP1 DIV PUSH1 0xFF AND PUSH2 0x2E9C JUMPI PUSH2 0x1A2A PUSH1 0x3 PUSH1 0xC PUSH2 0x1744 JUMP JUMPDEST PUSH2 0x2EA4 PUSH2 0x3889 JUMP JUMPDEST PUSH2 0x2EAD DUP5 PUSH2 0x2437 JUMP JUMPDEST PUSH1 0x40 DUP4 ADD DUP2 SWAP1 MSTORE DUP3 DUP3 PUSH1 0x3 DUP2 GT ISZERO PUSH2 0x2EC1 JUMPI INVALID JUMPDEST PUSH1 0x3 DUP2 GT ISZERO PUSH2 0x2ECC JUMPI INVALID JUMPDEST SWAP1 MSTORE POP PUSH1 0x0 SWAP1 POP DUP2 MLOAD PUSH1 0x3 DUP2 GT ISZERO PUSH2 0x2EE0 JUMPI INVALID JUMPDEST EQ PUSH2 0x2EFC JUMPI PUSH2 0x1AAD PUSH1 0x4 PUSH1 0x8 DUP4 PUSH1 0x0 ADD MLOAD PUSH1 0x3 DUP2 GT ISZERO PUSH2 0xF9C JUMPI INVALID JUMPDEST PUSH1 0x0 NOT DUP4 EQ ISZERO PUSH2 0x2F5C JUMPI PUSH1 0x40 DUP1 DUP3 ADD MLOAD PUSH1 0x1 PUSH1 0x1 PUSH1 0xA0 SHL SUB DUP7 AND PUSH1 0x0 SWAP1 DUP2 MSTORE PUSH1 0x10 PUSH1 0x20 MSTORE SWAP2 SWAP1 SWAP2 KECCAK256 SLOAD GT PUSH2 0x2F31 JUMPI PUSH1 0x0 PUSH2 0x2F52 JUMP JUMPDEST PUSH1 0x40 DUP1 DUP3 ADD MLOAD PUSH1 0x1 PUSH1 0x1 PUSH1 0xA0 SHL SUB DUP7 AND PUSH1 0x0 SWAP1 DUP2 MSTORE PUSH1 0x10 PUSH1 0x20 MSTORE SWAP2 SWAP1 SWAP2 KECCAK256 SLOAD SUB JUMPDEST PUSH1 0x20 DUP3 ADD MSTORE PUSH2 0x2F64 JUMP JUMPDEST PUSH1 0x20 DUP2 ADD DUP4 SWAP1 MSTORE JUMPDEST DUP1 PUSH1 0x20 ADD MLOAD PUSH2 0x2F71 PUSH2 0x1F17 JUMP JUMPDEST LT ISZERO PUSH2 0x2F83 JUMPI PUSH2 0x1AAD PUSH1 0x6 PUSH1 0x9 PUSH2 0x1744 JUMP JUMPDEST PUSH2 0x2F95 DUP2 PUSH1 0x40 ADD MLOAD DUP3 PUSH1 0x20 ADD MLOAD PUSH2 0x2BE0 JUMP JUMPDEST PUSH1 0x60 DUP4 ADD DUP2 SWAP1 MSTORE DUP3 DUP3 PUSH1 0x3 DUP2 GT ISZERO PUSH2 0x2FA9 JUMPI INVALID JUMPDEST PUSH1 0x3 DUP2 GT ISZERO PUSH2 0x2FB4 JUMPI INVALID JUMPDEST SWAP1 MSTORE POP PUSH1 0x0 SWAP1 POP DUP2 MLOAD PUSH1 0x3 DUP2 GT ISZERO PUSH2 0x2FC8 JUMPI INVALID JUMPDEST EQ PUSH2 0x2FE4 JUMPI PUSH2 0x1AAD PUSH1 0x4 PUSH1 0xB DUP4 PUSH1 0x0 ADD MLOAD PUSH1 0x3 DUP2 GT ISZERO PUSH2 0xF9C JUMPI INVALID JUMPDEST PUSH1 0x60 DUP2 ADD MLOAD PUSH1 0x1 PUSH1 0x1 PUSH1 0xA0 SHL SUB DUP6 AND PUSH1 0x0 SWAP1 DUP2 MSTORE PUSH1 0x10 PUSH1 0x20 MSTORE PUSH1 0x40 SWAP1 KECCAK256 SLOAD LT ISZERO PUSH2 0x3014 JUMPI PUSH2 0x1AAD PUSH1 0x9 PUSH1 0xD PUSH2 0x1744 JUMP JUMPDEST PUSH2 0x3024 PUSH1 0x8 SLOAD DUP3 PUSH1 0x20 ADD MLOAD PUSH2 0x2BE0 JUMP JUMPDEST PUSH1 0x80 DUP4 ADD DUP2 SWAP1 MSTORE DUP3 DUP3 PUSH1 0x3 DUP2 GT ISZERO PUSH2 0x3038 JUMPI INVALID JUMPDEST PUSH1 0x3 DUP2 GT ISZERO PUSH2 0x3043 JUMPI INVALID JUMPDEST SWAP1 MSTORE POP PUSH1 0x0 SWAP1 POP DUP2 MLOAD PUSH1 0x3 DUP2 GT ISZERO PUSH2 0x3057 JUMPI INVALID JUMPDEST EQ PUSH2 0x3073 JUMPI PUSH2 0x1AAD PUSH1 0x4 PUSH1 0xA DUP4 PUSH1 0x0 ADD MLOAD PUSH1 0x3 DUP2 GT ISZERO PUSH2 0xF9C JUMPI INVALID JUMPDEST PUSH1 0x1 SLOAD PUSH1 0x20 DUP3 ADD MLOAD PUSH2 0x3090 SWAP2 PUSH1 0x1 PUSH1 0x1 PUSH1 0xA0 SHL SUB AND SWAP1 DUP7 SWAP1 PUSH2 0x35FE JUMP JUMPDEST PUSH1 0x60 DUP2 ADD DUP1 MLOAD PUSH1 0x1 PUSH1 0x1 PUSH1 0xA0 SHL SUB DUP7 AND PUSH1 0x0 SWAP1 DUP2 MSTORE PUSH1 0xE PUSH1 0x20 SWAP1 DUP2 MSTORE PUSH1 0x40 SWAP2 DUP3 SWAP1 KECCAK256 SWAP3 DUP4 SSTORE PUSH1 0x7 SLOAD PUSH1 0x1 SWAP1 SWAP4 ADD SWAP3 SWAP1 SWAP3 SSTORE PUSH1 0x80 DUP5 ADD MLOAD PUSH1 0x8 DUP2 SWAP1 SSTORE SWAP2 DUP5 ADD MLOAD SWAP3 MLOAD SWAP1 MLOAD PUSH32 0x13ED6866D4E1EE6DA46F845C46D7E54120883D75C5EA9A2DACC1C4CA8984AB80 SWAP4 PUSH2 0x1BF4 SWAP4 DUP10 SWAP4 SWAP2 SWAP3 PUSH2 0x3AE1 JUMP JUMPDEST PUSH1 0x2 SLOAD PUSH1 0x0 SWAP1 PUSH1 0x1 PUSH1 0x1 PUSH1 0xA0 SHL SUB AND CALLER EQ PUSH2 0x3123 JUMPI PUSH2 0x896 PUSH1 0x1 PUSH1 0x0 PUSH2 0x1744 JUMP JUMPDEST PUSH8 0xDE0B6B3A7640000 DUP3 LT ISZERO PUSH2 0x313F JUMPI PUSH2 0x896 PUSH1 0x2 PUSH1 0x24 PUSH2 0x1744 JUMP JUMPDEST PUSH1 0x11 DUP1 SLOAD SWAP1 DUP4 SWAP1 SSTORE PUSH1 0x40 MLOAD PUSH32 0x389CE8CC8E8243C4EE80C30E284539A8F6FA01C546C8F3F3D76093AACE77367E SWAP1 PUSH2 0x1264 SWAP1 DUP4 SWAP1 DUP7 SWAP1 PUSH2 0x42AA JUMP JUMPDEST PUSH1 0x2 SLOAD PUSH1 0x0 SWAP1 DUP2 SWAP1 PUSH1 0x1 PUSH1 0x1 PUSH1 0xA0 SHL SUB AND CALLER EQ PUSH2 0x31A4 JUMPI PUSH2 0x319C PUSH1 0x1 PUSH1 0x0 PUSH2 0x1744 JUMP JUMPDEST SWAP2 POP POP PUSH2 0x6D1 JUMP JUMPDEST PUSH1 0x4 PUSH1 0x0 SWAP1 SLOAD SWAP1 PUSH2 0x100 EXP SWAP1 DIV PUSH1 0x1 PUSH1 0x1 PUSH1 0xA0 SHL SUB AND SWAP1 POP DUP3 PUSH1 0x1 PUSH1 0x1 PUSH1 0xA0 SHL SUB AND PUSH4 0x2191F92A PUSH1 0x40 MLOAD DUP2 PUSH4 0xFFFFFFFF AND PUSH1 0xE0 SHL DUP2 MSTORE PUSH1 0x4 ADD PUSH1 0x20 PUSH1 0x40 MLOAD DUP1 DUP4 SUB DUP2 DUP7 DUP1 EXTCODESIZE ISZERO DUP1 ISZERO PUSH2 0x31F5 JUMPI PUSH1 0x0 DUP1 REVERT JUMPDEST POP GAS STATICCALL ISZERO DUP1 ISZERO PUSH2 0x3209 JUMPI RETURNDATASIZE PUSH1 0x0 DUP1 RETURNDATACOPY RETURNDATASIZE PUSH1 0x0 REVERT JUMPDEST POP POP POP POP PUSH1 0x40 MLOAD RETURNDATASIZE PUSH1 0x1F NOT PUSH1 0x1F DUP3 ADD AND DUP3 ADD DUP1 PUSH1 0x40 MSTORE POP DUP2 ADD SWAP1 PUSH2 0x322D SWAP2 SWAP1 PUSH2 0x3993 JUMP JUMPDEST PUSH2 0x3249 JUMPI PUSH1 0x40 MLOAD PUSH3 0x461BCD PUSH1 0xE5 SHL DUP2 MSTORE PUSH1 0x4 ADD PUSH2 0x6C4 SWAP1 PUSH2 0x3DF7 JUMP JUMPDEST PUSH1 0x4 DUP1 SLOAD PUSH1 0x1 PUSH1 0x1 PUSH1 0xA0 SHL SUB NOT AND PUSH1 0x1 PUSH1 0x1 PUSH1 0xA0 SHL SUB DUP6 AND OR SWAP1 SSTORE PUSH1 0x40 MLOAD PUSH32 0xEB5CC99F497DC2D7106563BB080E06C9B09E3D81A38623AC4D0839575658D1FA SWAP1 PUSH2 0x1264 SWAP1 DUP4 SWAP1 DUP7 SWAP1 PUSH2 0x3A0F JUMP JUMPDEST PUSH1 0x2 SLOAD PUSH1 0x0 SWAP1 PUSH1 0x1 PUSH1 0x1 PUSH1 0xA0 SHL SUB AND CALLER EQ PUSH2 0x32B7 JUMPI PUSH2 0x896 PUSH1 0x1 PUSH1 0x0 PUSH2 0x1744 JUMP JUMPDEST PUSH8 0xDE0B6B3A7640000 DUP3 GT ISZERO PUSH2 0x32D3 JUMPI PUSH2 0x896 PUSH1 0x2 PUSH1 0x23 PUSH2 0x1744 JUMP JUMPDEST PUSH1 0x5 DUP1 SLOAD SWAP1 DUP4 SWAP1 SSTORE PUSH1 0x40 MLOAD PUSH32 0xAAA68312E2EA9D50E16AF5068410AB56E1A1FD06037B1A35664812C30F821460 SWAP1 PUSH2 0x1264 SWAP1 DUP4 SWAP1 DUP7 SWAP1 PUSH2 0x42AA JUMP JUMPDEST PUSH1 0x0 PUSH2 0x3317 PUSH2 0x378A JUMP JUMPDEST PUSH1 0x0 DUP1 PUSH2 0x332C DUP7 PUSH8 0xDE0B6B3A7640000 PUSH2 0x36B3 JUMP JUMPDEST SWAP1 SWAP3 POP SWAP1 POP PUSH1 0x0 DUP3 PUSH1 0x3 DUP2 GT ISZERO PUSH2 0x333F JUMPI INVALID JUMPDEST EQ PUSH2 0x335E JUMPI POP PUSH1 0x40 DUP1 MLOAD PUSH1 0x20 DUP2 ADD SWAP1 SWAP2 MSTORE PUSH1 0x0 DUP2 MSTORE SWAP1 SWAP3 POP SWAP1 POP PUSH2 0x1F10 JUMP JUMPDEST PUSH1 0x0 DUP1 PUSH2 0x336B DUP4 DUP9 PUSH2 0x36F2 JUMP JUMPDEST SWAP1 SWAP3 POP SWAP1 POP PUSH1 0x0 DUP3 PUSH1 0x3 DUP2 GT ISZERO PUSH2 0x337E JUMPI INVALID JUMPDEST EQ PUSH2 0x33A1 JUMPI DUP2 PUSH1 0x40 MLOAD DUP1 PUSH1 0x20 ADD PUSH1 0x40 MSTORE DUP1 PUSH1 0x0 DUP2 MSTORE POP SWAP6 POP SWAP6 POP POP POP POP POP PUSH2 0x1F10 JUMP JUMPDEST PUSH1 0x40 DUP1 MLOAD PUSH1 0x20 DUP2 ADD SWAP1 SWAP2 MSTORE SWAP1 DUP2 MSTORE PUSH1 0x0 SWAP9 SWAP1 SWAP8 POP SWAP6 POP POP POP POP POP POP JUMP JUMPDEST PUSH1 0x40 MLOAD PUSH4 0x70A08231 PUSH1 0xE0 SHL DUP2 MSTORE PUSH1 0x0 SWAP1 DUP5 SWAP1 DUP3 SWAP1 PUSH1 0x1 PUSH1 0x1 PUSH1 0xA0 SHL SUB DUP4 AND SWAP1 PUSH4 0x70A08231 SWAP1 PUSH2 0x33F1 SWAP1 ADDRESS SWAP1 PUSH1 0x4 ADD PUSH2 0x39FB JUMP JUMPDEST PUSH1 0x20 PUSH1 0x40 MLOAD DUP1 DUP4 SUB DUP2 DUP7 DUP1 EXTCODESIZE ISZERO DUP1 ISZERO PUSH2 0x3409 JUMPI PUSH1 0x0 DUP1 REVERT JUMPDEST POP GAS STATICCALL ISZERO DUP1 ISZERO PUSH2 0x341D JUMPI RETURNDATASIZE PUSH1 0x0 DUP1 RETURNDATACOPY RETURNDATASIZE PUSH1 0x0 REVERT JUMPDEST POP POP POP POP PUSH1 0x40 MLOAD RETURNDATASIZE PUSH1 0x1F NOT PUSH1 0x1F DUP3 ADD AND DUP3 ADD DUP1 PUSH1 0x40 MSTORE POP DUP2 ADD SWAP1 PUSH2 0x3441 SWAP2 SWAP1 PUSH2 0x39C7 JUMP JUMPDEST PUSH1 0x40 MLOAD PUSH4 0x23B872DD PUSH1 0xE0 SHL DUP2 MSTORE SWAP1 SWAP2 POP PUSH1 0x1 PUSH1 0x1 PUSH1 0xA0 SHL SUB DUP4 AND SWAP1 PUSH4 0x23B872DD SWAP1 PUSH2 0x3474 SWAP1 DUP9 SWAP1 ADDRESS SWAP1 DUP10 SWAP1 PUSH1 0x4 ADD PUSH2 0x3A29 JUMP JUMPDEST PUSH1 0x0 PUSH1 0x40 MLOAD DUP1 DUP4 SUB DUP2 PUSH1 0x0 DUP8 DUP1 EXTCODESIZE ISZERO DUP1 ISZERO PUSH2 0x348E JUMPI PUSH1 0x0 DUP1 REVERT JUMPDEST POP GAS CALL ISZERO DUP1 ISZERO PUSH2 0x34A2 JUMPI RETURNDATASIZE PUSH1 0x0 DUP1 RETURNDATACOPY RETURNDATASIZE PUSH1 0x0 REVERT JUMPDEST POP POP POP POP PUSH1 0x0 RETURNDATASIZE PUSH1 0x0 DUP2 EQ PUSH2 0x34BE JUMPI PUSH1 0x20 DUP2 EQ PUSH2 0x34C8 JUMPI PUSH1 0x0 DUP1 REVERT JUMPDEST PUSH1 0x0 NOT SWAP2 POP PUSH2 0x34D4 JUMP JUMPDEST PUSH1 0x20 PUSH1 0x0 DUP1 RETURNDATACOPY PUSH1 0x0 MLOAD SWAP2 POP JUMPDEST POP DUP1 PUSH2 0x34F2 JUMPI PUSH1 0x40 MLOAD PUSH3 0x461BCD PUSH1 0xE5 SHL DUP2 MSTORE PUSH1 0x4 ADD PUSH2 0x6C4 SWAP1 PUSH2 0x3C16 JUMP JUMPDEST PUSH1 0x40 MLOAD PUSH4 0x70A08231 PUSH1 0xE0 SHL DUP2 MSTORE PUSH1 0x0 SWAP1 PUSH1 0x1 PUSH1 0x1 PUSH1 0xA0 SHL SUB DUP10 AND SWAP1 PUSH4 0x70A08231 SWAP1 PUSH2 0x3521 SWAP1 ADDRESS SWAP1 PUSH1 0x4 ADD PUSH2 0x39FB JUMP JUMPDEST PUSH1 0x20 PUSH1 0x40 MLOAD DUP1 DUP4 SUB DUP2 DUP7 DUP1 EXTCODESIZE ISZERO DUP1 ISZERO PUSH2 0x3539 JUMPI PUSH1 0x0 DUP1 REVERT JUMPDEST POP GAS STATICCALL ISZERO DUP1 ISZERO PUSH2 0x354D JUMPI RETURNDATASIZE PUSH1 0x0 DUP1 RETURNDATACOPY RETURNDATASIZE PUSH1 0x0 REVERT JUMPDEST POP POP POP POP PUSH1 0x40 MLOAD RETURNDATASIZE PUSH1 0x1F NOT PUSH1 0x1F DUP3 ADD AND DUP3 ADD DUP1 PUSH1 0x40 MSTORE POP DUP2 ADD SWAP1 PUSH2 0x3571 SWAP2 SWAP1 PUSH2 0x39C7 JUMP JUMPDEST SWAP1 POP DUP3 DUP2 LT ISZERO PUSH2 0x3593 JUMPI PUSH1 0x40 MLOAD PUSH3 0x461BCD PUSH1 0xE5 SHL DUP2 MSTORE PUSH1 0x4 ADD PUSH2 0x6C4 SWAP1 PUSH2 0x3CAB JUMP JUMPDEST SWAP2 SWAP1 SWAP2 SUB SWAP7 SWAP6 POP POP POP POP POP POP JUMP JUMPDEST PUSH1 0x0 DUP1 PUSH1 0x0 DUP1 PUSH2 0x35B1 DUP8 DUP8 PUSH2 0x2BE0 JUMP JUMPDEST SWAP1 SWAP3 POP SWAP1 POP PUSH1 0x0 DUP3 PUSH1 0x3 DUP2 GT ISZERO PUSH2 0x35C4 JUMPI INVALID JUMPDEST EQ PUSH2 0x35D5 JUMPI POP SWAP2 POP PUSH1 0x0 SWAP1 POP PUSH2 0x19D4 JUMP JUMPDEST PUSH2 0x2C4C DUP2 DUP7 PUSH2 0x2AF6 JUMP JUMPDEST MLOAD PUSH8 0xDE0B6B3A7640000 SWAP1 DIV SWAP1 JUMP JUMPDEST PUSH1 0x0 DUP1 PUSH1 0x0 DUP1 PUSH2 0x1EDA DUP7 DUP7 PUSH2 0x372B JUMP JUMPDEST PUSH1 0x40 MLOAD PUSH4 0xA9059CBB PUSH1 0xE0 SHL DUP2 MSTORE DUP4 SWAP1 PUSH1 0x1 PUSH1 0x1 PUSH1 0xA0 SHL SUB DUP3 AND SWAP1 PUSH4 0xA9059CBB SWAP1 PUSH2 0x362E SWAP1 DUP7 SWAP1 DUP7 SWAP1 PUSH1 0x4 ADD PUSH2 0x3AA7 JUMP JUMPDEST PUSH1 0x0 PUSH1 0x40 MLOAD DUP1 DUP4 SUB DUP2 PUSH1 0x0 DUP8 DUP1 EXTCODESIZE ISZERO DUP1 ISZERO PUSH2 0x3648 JUMPI PUSH1 0x0 DUP1 REVERT JUMPDEST POP GAS CALL ISZERO DUP1 ISZERO PUSH2 0x365C JUMPI RETURNDATASIZE PUSH1 0x0 DUP1 RETURNDATACOPY RETURNDATASIZE PUSH1 0x0 REVERT JUMPDEST POP POP POP POP PUSH1 0x0 RETURNDATASIZE PUSH1 0x0 DUP2 EQ PUSH2 0x3678 JUMPI PUSH1 0x20 DUP2 EQ PUSH2 0x3682 JUMPI PUSH1 0x0 DUP1 REVERT JUMPDEST PUSH1 0x0 NOT SWAP2 POP PUSH2 0x368E JUMP JUMPDEST PUSH1 0x20 PUSH1 0x0 DUP1 RETURNDATACOPY PUSH1 0x0 MLOAD SWAP2 POP JUMPDEST POP DUP1 PUSH2 0x36AC JUMPI PUSH1 0x40 MLOAD PUSH3 0x461BCD PUSH1 0xE5 SHL DUP2 MSTORE PUSH1 0x4 ADD PUSH2 0x6C4 SWAP1 PUSH2 0x3CE2 JUMP JUMPDEST POP POP POP POP POP JUMP JUMPDEST PUSH1 0x0 DUP1 DUP4 PUSH2 0x36C6 JUMPI POP PUSH1 0x0 SWAP1 POP DUP1 PUSH2 0x1F10 JUMP JUMPDEST DUP4 DUP4 MUL DUP4 DUP6 DUP3 DUP2 PUSH2 0x36D3 JUMPI INVALID JUMPDEST DIV EQ PUSH2 0x36E7 JUMPI PUSH1 0x2 PUSH1 0x0 SWAP3 POP SWAP3 POP POP PUSH2 0x1F10 JUMP JUMPDEST PUSH1 0x0 SWAP3 POP SWAP1 POP PUSH2 0x1F10 JUMP JUMPDEST PUSH1 0x0 DUP1 DUP3 PUSH2 0x3706 JUMPI POP PUSH1 0x1 SWAP1 POP PUSH1 0x0 PUSH2 0x1F10 JUMP JUMPDEST PUSH1 0x0 DUP4 DUP6 DUP2 PUSH2 0x3711 JUMPI INVALID JUMPDEST DIV SWAP2 POP SWAP2 POP SWAP3 POP SWAP3 SWAP1 POP JUMP JUMPDEST POP PUSH9 0x56BC75E2D63100000 SWAP1 JUMP JUMPDEST PUSH1 0x0 PUSH2 0x3735 PUSH2 0x378A JUMP JUMPDEST PUSH1 0x0 DUP1 PUSH2 0x374A PUSH8 0xDE0B6B3A7640000 DUP8 PUSH2 0x36B3 JUMP JUMPDEST SWAP1 SWAP3 POP SWAP1 POP PUSH1 0x0 DUP3 PUSH1 0x3 DUP2 GT ISZERO PUSH2 0x375D JUMPI INVALID JUMPDEST EQ PUSH2 0x377C JUMPI POP PUSH1 0x40 DUP1 MLOAD PUSH1 0x20 DUP2 ADD SWAP1 SWAP2 MSTORE PUSH1 0x0 DUP2 MSTORE SWAP1 SWAP3 POP SWAP1 POP PUSH2 0x1F10 JUMP JUMPDEST PUSH2 0x1F09 DUP2 DUP7 PUSH1 0x0 ADD MLOAD PUSH2 0x330D JUMP JUMPDEST PUSH1 0x40 MLOAD DUP1 PUSH1 0x20 ADD PUSH1 0x40 MSTORE DUP1 PUSH1 0x0 DUP2 MSTORE POP SWAP1 JUMP JUMPDEST PUSH1 0x40 DUP1 MLOAD PUSH2 0x100 DUP2 ADD SWAP1 SWAP2 MSTORE DUP1 PUSH1 0x0 DUP2 MSTORE PUSH1 0x20 ADD PUSH1 0x0 DUP2 MSTORE PUSH1 0x20 ADD PUSH1 0x0 DUP2 MSTORE PUSH1 0x20 ADD PUSH1 0x0 DUP2 MSTORE PUSH1 0x20 ADD PUSH1 0x0 DUP2 MSTORE PUSH1 0x20 ADD PUSH1 0x0 DUP2 MSTORE PUSH1 0x20 ADD PUSH1 0x0 DUP2 MSTORE PUSH1 0x20 ADD PUSH1 0x0 DUP2 MSTORE POP SWAP1 JUMP JUMPDEST PUSH1 0x40 DUP1 MLOAD PUSH1 0xC0 DUP2 ADD SWAP1 SWAP2 MSTORE DUP1 PUSH1 0x0 DUP2 MSTORE PUSH1 0x20 ADD PUSH1 0x0 JUMPDEST DUP2 MSTORE PUSH1 0x20 ADD PUSH1 0x0 DUP2 MSTORE PUSH1 0x20 ADD PUSH1 0x0 DUP2 MSTORE PUSH1 0x20 ADD PUSH1 0x0 DUP2 MSTORE PUSH1 0x20 ADD PUSH1 0x0 DUP2 MSTORE POP SWAP1 JUMP JUMPDEST PUSH1 0x40 DUP1 MLOAD PUSH1 0xE0 DUP2 ADD SWAP1 SWAP2 MSTORE DUP1 PUSH1 0x0 DUP2 MSTORE PUSH1 0x20 ADD PUSH1 0x0 DUP2 MSTORE PUSH1 0x20 ADD PUSH1 0x0 DUP2 MSTORE PUSH1 0x20 ADD PUSH1 0x0 DUP2 MSTORE PUSH1 0x20 ADD PUSH1 0x0 DUP2 MSTORE PUSH1 0x20 ADD PUSH1 0x0 DUP2 MSTORE PUSH1 0x20 ADD PUSH1 0x0 DUP2 MSTORE POP SWAP1 JUMP JUMPDEST PUSH1 0x40 DUP1 MLOAD PUSH1 0xA0 DUP2 ADD SWAP1 SWAP2 MSTORE DUP1 PUSH1 0x0 DUP2 MSTORE PUSH1 0x20 ADD PUSH1 0x0 DUP2 MSTORE PUSH1 0x20 ADD PUSH1 0x0 DUP2 MSTORE PUSH1 0x20 ADD PUSH1 0x0 DUP2 MSTORE PUSH1 0x20 ADD PUSH1 0x0 DUP2 MSTORE POP SWAP1 JUMP JUMPDEST PUSH1 0x40 DUP1 MLOAD PUSH1 0xA0 DUP2 ADD SWAP1 SWAP2 MSTORE DUP1 PUSH1 0x0 PUSH2 0x37F9 JUMP JUMPDEST PUSH1 0x0 PUSH1 0x20 DUP3 DUP5 SUB SLT ISZERO PUSH2 0x38AD JUMPI DUP1 DUP2 REVERT JUMPDEST DUP2 CALLDATALOAD PUSH2 0x17A4 DUP2 PUSH2 0x4323 JUMP JUMPDEST PUSH1 0x0 PUSH1 0x20 DUP3 DUP5 SUB SLT ISZERO PUSH2 0x38C9 JUMPI DUP1 DUP2 REVERT JUMPDEST DUP2 MLOAD PUSH2 0x17A4 DUP2 PUSH2 0x4323 JUMP JUMPDEST PUSH1 0x0 DUP1 PUSH1 0x40 DUP4 DUP6 SUB SLT ISZERO PUSH2 0x38E6 JUMPI DUP1 DUP2 REVERT JUMPDEST DUP3 CALLDATALOAD PUSH2 0x38F1 DUP2 PUSH2 0x4323 JUMP JUMPDEST SWAP2 POP PUSH1 0x20 DUP4 ADD CALLDATALOAD PUSH2 0x3901 DUP2 PUSH2 0x4323 JUMP JUMPDEST DUP1 SWAP2 POP POP SWAP3 POP SWAP3 SWAP1 POP JUMP JUMPDEST PUSH1 0x0 DUP1 PUSH1 0x0 PUSH1 0x60 DUP5 DUP7 SUB SLT ISZERO PUSH2 0x3920 JUMPI DUP1 DUP2 REVERT JUMPDEST DUP4 CALLDATALOAD PUSH2 0x392B DUP2 PUSH2 0x4323 JUMP JUMPDEST SWAP3 POP PUSH1 0x20 DUP5 ADD CALLDATALOAD PUSH2 0x393B DUP2 PUSH2 0x4323 JUMP JUMPDEST SWAP3 SWAP6 SWAP3 SWAP5 POP POP POP PUSH1 0x40 SWAP2 SWAP1 SWAP2 ADD CALLDATALOAD SWAP1 JUMP JUMPDEST PUSH1 0x0 DUP1 PUSH1 0x40 DUP4 DUP6 SUB SLT ISZERO PUSH2 0x395E JUMPI DUP2 DUP3 REVERT JUMPDEST DUP3 CALLDATALOAD PUSH2 0x3969 DUP2 PUSH2 0x4323 JUMP JUMPDEST SWAP5 PUSH1 0x20 SWAP4 SWAP1 SWAP4 ADD CALLDATALOAD SWAP4 POP POP POP JUMP JUMPDEST PUSH1 0x0 PUSH1 0x20 DUP3 DUP5 SUB SLT ISZERO PUSH2 0x3988 JUMPI DUP1 DUP2 REVERT JUMPDEST DUP2 CALLDATALOAD PUSH2 0x17A4 DUP2 PUSH2 0x4338 JUMP JUMPDEST PUSH1 0x0 PUSH1 0x20 DUP3 DUP5 SUB SLT ISZERO PUSH2 0x39A4 JUMPI DUP1 DUP2 REVERT JUMPDEST DUP2 MLOAD PUSH2 0x17A4 DUP2 PUSH2 0x4338 JUMP JUMPDEST PUSH1 0x0 PUSH1 0x20 DUP3 DUP5 SUB SLT ISZERO PUSH2 0x39C0 JUMPI DUP1 DUP2 REVERT JUMPDEST POP CALLDATALOAD SWAP2 SWAP1 POP JUMP JUMPDEST PUSH1 0x0 PUSH1 0x20 DUP3 DUP5 SUB SLT ISZERO PUSH2 0x39D8 JUMPI DUP1 DUP2 REVERT JUMPDEST POP MLOAD SWAP2 SWAP1 POP JUMP JUMPDEST PUSH1 0x0 DUP3 MLOAD PUSH2 0x39F1 DUP2 DUP5 PUSH1 0x20 DUP8 ADD PUSH2 0x42F7 JUMP JUMPDEST SWAP2 SWAP1 SWAP2 ADD SWAP3 SWAP2 POP POP JUMP JUMPDEST PUSH1 0x1 PUSH1 0x1 PUSH1 0xA0 SHL SUB SWAP2 SWAP1 SWAP2 AND DUP2 MSTORE PUSH1 0x20 ADD SWAP1 JUMP JUMPDEST PUSH1 0x1 PUSH1 0x1 PUSH1 0xA0 SHL SUB SWAP3 DUP4 AND DUP2 MSTORE SWAP2 AND PUSH1 0x20 DUP3 ADD MSTORE PUSH1 0x40 ADD SWAP1 JUMP JUMPDEST PUSH1 0x1 PUSH1 0x1 PUSH1 0xA0 SHL SUB SWAP4 DUP5 AND DUP2 MSTORE SWAP2 SWAP1 SWAP3 AND PUSH1 0x20 DUP3 ADD MSTORE PUSH1 0x40 DUP2 ADD SWAP2 SWAP1 SWAP2 MSTORE PUSH1 0x60 ADD SWAP1 JUMP JUMPDEST PUSH1 0x1 PUSH1 0x1 PUSH1 0xA0 SHL SUB SWAP5 DUP6 AND DUP2 MSTORE SWAP3 SWAP1 SWAP4 AND PUSH1 0x20 DUP4 ADD MSTORE PUSH1 0x40 DUP3 ADD MSTORE PUSH1 0x60 DUP2 ADD SWAP2 SWAP1 SWAP2 MSTORE PUSH1 0x80 ADD SWAP1 JUMP JUMPDEST PUSH1 0x1 PUSH1 0x1 PUSH1 0xA0 SHL SUB SWAP6 DUP7 AND DUP2 MSTORE SWAP4 SWAP1 SWAP5 AND PUSH1 0x20 DUP5 ADD MSTORE PUSH1 0x40 DUP4 ADD SWAP2 SWAP1 SWAP2 MSTORE PUSH1 0x60 DUP3 ADD MSTORE PUSH1 0x80 DUP2 ADD SWAP2 SWAP1 SWAP2 MSTORE PUSH1 0xA0 ADD SWAP1 JUMP JUMPDEST PUSH1 0x1 PUSH1 0x1 PUSH1 0xA0 SHL SUB SWAP3 SWAP1 SWAP3 AND DUP3 MSTORE PUSH1 0x20 DUP3 ADD MSTORE PUSH1 0x40 ADD SWAP1 JUMP JUMPDEST PUSH1 0x1 PUSH1 0x1 PUSH1 0xA0 SHL SUB SWAP4 SWAP1 SWAP4 AND DUP4 MSTORE PUSH1 0x20 DUP4 ADD SWAP2 SWAP1 SWAP2 MSTORE PUSH1 0x40 DUP3 ADD MSTORE PUSH1 0x60 ADD SWAP1 JUMP JUMPDEST PUSH1 0x1 PUSH1 0x1 PUSH1 0xA0 SHL SUB SWAP5 SWAP1 SWAP5 AND DUP5 MSTORE PUSH1 0x20 DUP5 ADD SWAP3 SWAP1 SWAP3 MSTORE PUSH1 0x40 DUP4 ADD MSTORE PUSH1 0x60 DUP3 ADD MSTORE PUSH1 0x80 ADD SWAP1 JUMP JUMPDEST PUSH1 0x20 DUP1 DUP3 MSTORE DUP3 MLOAD DUP3 DUP3 ADD DUP2 SWAP1 MSTORE PUSH1 0x0 SWAP2 SWAP1 DUP5 DUP3 ADD SWAP1 PUSH1 0x40 DUP6 ADD SWAP1 DUP5 JUMPDEST DUP2 DUP2 LT ISZERO PUSH2 0x3B3F JUMPI DUP4 MLOAD DUP4 MSTORE SWAP3 DUP5 ADD SWAP3 SWAP2 DUP5 ADD SWAP2 PUSH1 0x1 ADD PUSH2 0x3B23 JUMP JUMPDEST POP SWAP1 SWAP7 SWAP6 POP POP POP POP POP POP JUMP JUMPDEST SWAP1 ISZERO ISZERO DUP2 MSTORE PUSH1 0x20 ADD SWAP1 JUMP JUMPDEST PUSH1 0x0 PUSH1 0x20 DUP3 MSTORE DUP3 MLOAD DUP1 PUSH1 0x20 DUP5 ADD MSTORE PUSH2 0x3B75 DUP2 PUSH1 0x40 DUP6 ADD PUSH1 0x20 DUP8 ADD PUSH2 0x42F7 JUMP JUMPDEST PUSH1 0x1F ADD PUSH1 0x1F NOT AND SWAP2 SWAP1 SWAP2 ADD PUSH1 0x40 ADD SWAP3 SWAP2 POP POP JUMP JUMPDEST PUSH1 0x20 DUP1 DUP3 MSTORE PUSH1 0x3B SWAP1 DUP3 ADD MSTORE PUSH32 0x52454445454D5F434F4C4C41544552414C535F4E45575F544F54414C5F434F4C PUSH1 0x40 DUP3 ADD MSTORE PUSH32 0x4C41544552414C535F43414C43554C4154494F4E5F4641494C45440000000000 PUSH1 0x60 DUP3 ADD MSTORE PUSH1 0x80 ADD SWAP1 JUMP JUMPDEST PUSH1 0x20 DUP1 DUP3 MSTORE PUSH1 0x16 SWAP1 DUP3 ADD MSTORE PUSH22 0x1858D8DC9D59481A5B9D195C995CDD0819985A5B1959 PUSH1 0x52 SHL PUSH1 0x40 DUP3 ADD MSTORE PUSH1 0x60 ADD SWAP1 JUMP JUMPDEST PUSH1 0x20 DUP1 DUP3 MSTORE PUSH1 0x18 SWAP1 DUP3 ADD MSTORE PUSH32 0x544F4B454E5F5452414E534645525F494E5F4641494C45440000000000000000 PUSH1 0x40 DUP3 ADD MSTORE PUSH1 0x60 ADD SWAP1 JUMP JUMPDEST PUSH1 0x20 DUP1 DUP3 MSTORE PUSH1 0x1F SWAP1 DUP3 ADD MSTORE PUSH32 0x62616C616E636520636F756C64206E6F742062652063616C63756C6174656400 PUSH1 0x40 DUP3 ADD MSTORE PUSH1 0x60 ADD SWAP1 JUMP JUMPDEST PUSH1 0x20 DUP1 DUP3 MSTORE PUSH1 0xD SWAP1 DUP3 ADD MSTORE PUSH13 0x36BAB9BA1031329037B73BB2B9 PUSH1 0x99 SHL PUSH1 0x40 DUP3 ADD MSTORE PUSH1 0x60 ADD SWAP1 JUMP JUMPDEST PUSH1 0x20 DUP1 DUP3 MSTORE PUSH1 0x1A SWAP1 DUP3 ADD MSTORE PUSH32 0x544F4B454E5F5452414E534645525F494E5F4F564552464C4F57000000000000 PUSH1 0x40 DUP3 ADD MSTORE PUSH1 0x60 ADD SWAP1 JUMP JUMPDEST PUSH1 0x20 DUP1 DUP3 MSTORE PUSH1 0x19 SWAP1 DUP3 ADD MSTORE PUSH32 0x544F4B454E5F5452414E534645525F4F55545F4641494C454400000000000000 PUSH1 0x40 DUP3 ADD MSTORE PUSH1 0x60 ADD SWAP1 JUMP JUMPDEST PUSH1 0x20 DUP1 DUP3 MSTORE PUSH1 0x34 SWAP1 DUP3 ADD MSTORE PUSH32 0x434F4C4C41544552414C495A455F4E45575F4143434F554E545F42414C414E43 PUSH1 0x40 DUP3 ADD MSTORE PUSH20 0x1157D0D05310D55310551253D397D19052531151 PUSH1 0x62 SHL PUSH1 0x60 DUP3 ADD MSTORE PUSH1 0x80 ADD SWAP1 JUMP JUMPDEST PUSH1 0x20 DUP1 DUP3 MSTORE PUSH1 0x1D SWAP1 DUP3 ADD MSTORE PUSH32 0x4E46544F776E6572736869703A205452414E534645525F4641494C4544000000 PUSH1 0x40 DUP3 ADD MSTORE PUSH1 0x60 ADD SWAP1 JUMP JUMPDEST PUSH1 0x20 DUP1 DUP3 MSTORE PUSH1 0x33 SWAP1 DUP3 ADD MSTORE PUSH32 0x636F6C6C61746572616C5261746553746F7265643A20636F6C6C61746572616C PUSH1 0x40 DUP3 ADD MSTORE PUSH19 0x14985D19525B9D195C9B985B0819985A5B1959 PUSH1 0x6A SHL PUSH1 0x60 DUP3 ADD MSTORE PUSH1 0x80 ADD SWAP1 JUMP JUMPDEST PUSH1 0x20 DUP1 DUP3 MSTORE PUSH1 0x1C SWAP1 DUP3 ADD MSTORE PUSH32 0x6D61726B6572206D6574686F642072657475726E65642066616C736500000000 PUSH1 0x40 DUP3 ADD MSTORE PUSH1 0x60 ADD SWAP1 JUMP JUMPDEST PUSH1 0x20 DUP1 DUP3 MSTORE PUSH1 0x2B SWAP1 DUP3 ADD MSTORE PUSH32 0x4D494E545F4E45575F4143434F554E545F42414C414E43455F43414C43554C41 PUSH1 0x40 DUP3 ADD MSTORE PUSH11 0x151253D397D19052531151 PUSH1 0xAA SHL PUSH1 0x60 DUP3 ADD MSTORE PUSH1 0x80 ADD SWAP1 JUMP JUMPDEST PUSH1 0x20 DUP1 DUP3 MSTORE PUSH1 0x37 SWAP1 DUP3 ADD MSTORE PUSH32 0x626F72726F7742616C616E636553746F7265643A20626F72726F7742616C616E PUSH1 0x40 DUP3 ADD MSTORE PUSH32 0x636553746F726564496E7465726E616C206661696C6564000000000000000000 PUSH1 0x60 DUP3 ADD MSTORE PUSH1 0x80 ADD SWAP1 JUMP JUMPDEST PUSH1 0x20 DUP1 DUP3 MSTORE PUSH1 0x22 SWAP1 DUP3 ADD MSTORE PUSH32 0x63616E6E6F7420617070726F766520746F20746865207A65726F206164647265 PUSH1 0x40 DUP3 ADD MSTORE PUSH2 0x7373 PUSH1 0xF0 SHL PUSH1 0x60 DUP3 ADD MSTORE PUSH1 0x80 ADD SWAP1 JUMP JUMPDEST PUSH1 0x20 DUP1 DUP3 MSTORE PUSH1 0x35 SWAP1 DUP3 ADD MSTORE PUSH32 0x4C49515549444154455F424F52524F575F4E45575F544F54414C5F424F52524F PUSH1 0x40 DUP3 ADD MSTORE PUSH21 0x15D4D7D0D05310D55310551253D397D19052531151 PUSH1 0x5A SHL PUSH1 0x60 DUP3 ADD MSTORE PUSH1 0x80 ADD SWAP1 JUMP JUMPDEST PUSH1 0x20 DUP1 DUP3 MSTORE PUSH1 0x3A SWAP1 DUP3 ADD MSTORE PUSH32 0x52455041595F424F52524F575F4E45575F4143434F554E545F424F52524F575F PUSH1 0x40 DUP3 ADD MSTORE PUSH32 0x42414C414E43455F43414C43554C4154494F4E5F4641494C4544000000000000 PUSH1 0x60 DUP3 ADD MSTORE PUSH1 0x80 ADD SWAP1 JUMP JUMPDEST PUSH1 0x20 DUP1 DUP3 MSTORE PUSH1 0x23 SWAP1 DUP3 ADD MSTORE PUSH32 0x4C49515549444154455F424F52524F575F5452414E534645525F494E5F464149 PUSH1 0x40 DUP3 ADD MSTORE PUSH3 0x131151 PUSH1 0xEA SHL PUSH1 0x60 DUP3 ADD MSTORE PUSH1 0x80 ADD SWAP1 JUMP JUMPDEST PUSH1 0x20 DUP1 DUP3 MSTORE PUSH1 0x1F SWAP1 DUP3 ADD MSTORE PUSH32 0x636F756C64206E6F742063616C63756C61746520626C6F636B2064656C746100 PUSH1 0x40 DUP3 ADD MSTORE PUSH1 0x60 ADD SWAP1 JUMP JUMPDEST PUSH1 0x20 DUP1 DUP3 MSTORE PUSH1 0x31 SWAP1 DUP3 ADD MSTORE PUSH32 0x52455041595F424F52524F575F4E45575F544F54414C5F42414C414E43455F43 PUSH1 0x40 DUP3 ADD MSTORE PUSH17 0x105310D55310551253D397D19052531151 PUSH1 0x7A SHL PUSH1 0x60 DUP3 ADD MSTORE PUSH1 0x80 ADD SWAP1 JUMP JUMPDEST PUSH1 0x20 DUP1 DUP3 MSTORE PUSH1 0x14 SWAP1 DUP3 ADD MSTORE PUSH20 0x616464726573732063616E74206265207A65726F PUSH1 0x60 SHL PUSH1 0x40 DUP3 ADD MSTORE PUSH1 0x60 ADD SWAP1 JUMP JUMPDEST PUSH1 0x20 DUP1 DUP3 MSTORE DUP2 DUP2 ADD MSTORE PUSH32 0x4D494E545F45584348414E47455F43414C43554C4154494F4E5F4641494C4544 PUSH1 0x40 DUP3 ADD MSTORE PUSH1 0x60 ADD SWAP1 JUMP JUMPDEST PUSH1 0x20 DUP1 DUP3 MSTORE PUSH1 0x11 SWAP1 DUP3 ADD MSTORE PUSH17 0x1B999D0E881B9BDD081D985A5B19081A59 PUSH1 0x7A SHL PUSH1 0x40 DUP3 ADD MSTORE PUSH1 0x60 ADD SWAP1 JUMP JUMPDEST PUSH1 0x20 DUP1 DUP3 MSTORE PUSH1 0x35 SWAP1 DUP3 ADD MSTORE PUSH32 0x65786368616E67655261746553746F7265643A2065786368616E676552617465 PUSH1 0x40 DUP3 ADD MSTORE PUSH21 0x14DD1BDC9959125B9D195C9B985B0819985A5B1959 PUSH1 0x5A SHL PUSH1 0x60 DUP3 ADD MSTORE PUSH1 0x80 ADD SWAP1 JUMP JUMPDEST PUSH1 0x20 DUP1 DUP3 MSTORE PUSH1 0x28 SWAP1 DUP3 ADD MSTORE PUSH32 0x4D494E545F4E45575F544F54414C5F535550504C595F43414C43554C4154494F PUSH1 0x40 DUP3 ADD MSTORE PUSH8 0x1397D19052531151 PUSH1 0xC2 SHL PUSH1 0x60 DUP3 ADD MSTORE PUSH1 0x80 ADD SWAP1 JUMP JUMPDEST PUSH1 0x20 DUP1 DUP3 MSTORE PUSH1 0x34 SWAP1 DUP3 ADD MSTORE PUSH32 0x6F6E65206F662072656465656D546F6B656E73496E206F722072656465656D41 PUSH1 0x40 DUP3 ADD MSTORE PUSH20 0x6D6F756E74496E206D757374206265207A65726F PUSH1 0x60 SHL PUSH1 0x60 DUP3 ADD MSTORE PUSH1 0x80 ADD SWAP1 JUMP JUMPDEST PUSH1 0x20 DUP1 DUP3 MSTORE PUSH1 0x1F SWAP1 DUP3 ADD MSTORE PUSH32 0x5265656E7472616E637947756172643A207265656E7472616E742063616C6C00 PUSH1 0x40 DUP3 ADD MSTORE PUSH1 0x60 ADD SWAP1 JUMP JUMPDEST PUSH1 0x20 DUP1 DUP3 MSTORE PUSH1 0x36 SWAP1 DUP3 ADD MSTORE PUSH32 0x434F4C4C41544552414C495A455F4E45575F544F54414C5F434F4C4C41544552 PUSH1 0x40 DUP3 ADD MSTORE PUSH22 0x105314D7D0D05310D55310551253D397D19052531151 PUSH1 0x52 SHL PUSH1 0x60 DUP3 ADD MSTORE PUSH1 0x80 ADD SWAP1 JUMP JUMPDEST SWAP1 DUP2 MSTORE PUSH1 0x20 ADD SWAP1 JUMP JUMPDEST SWAP2 DUP3 MSTORE PUSH1 0x20 DUP3 ADD MSTORE PUSH1 0x40 ADD SWAP1 JUMP JUMPDEST SWAP3 DUP4 MSTORE PUSH1 0x20 DUP4 ADD SWAP2 SWAP1 SWAP2 MSTORE PUSH1 0x40 DUP3 ADD MSTORE PUSH1 0x60 ADD SWAP1 JUMP JUMPDEST SWAP4 DUP5 MSTORE PUSH1 0x20 DUP5 ADD SWAP3 SWAP1 SWAP3 MSTORE PUSH1 0x40 DUP4 ADD MSTORE PUSH1 0x60 DUP3 ADD MSTORE PUSH1 0x80 ADD SWAP1 JUMP JUMPDEST PUSH1 0xFF SWAP2 SWAP1 SWAP2 AND DUP2 MSTORE PUSH1 0x20 ADD SWAP1 JUMP JUMPDEST PUSH1 0x0 JUMPDEST DUP4 DUP2 LT ISZERO PUSH2 0x4312 JUMPI DUP2 DUP2 ADD MLOAD DUP4 DUP3 ADD MSTORE PUSH1 0x20 ADD PUSH2 0x42FA JUMP JUMPDEST DUP4 DUP2 GT ISZERO PUSH2 0x2431 JUMPI POP POP PUSH1 0x0 SWAP2 ADD MSTORE JUMP JUMPDEST PUSH1 0x1 PUSH1 0x1 PUSH1 0xA0 SHL SUB DUP2 AND DUP2 EQ PUSH2 0xCAB JUMPI PUSH1 0x0 DUP1 REVERT JUMPDEST DUP1 ISZERO ISZERO DUP2 EQ PUSH2 0xCAB JUMPI PUSH1 0x0 DUP1 REVERT INVALID LOG2 PUSH5 0x6970667358 0x22 SLT KECCAK256 GAS 0x27 0xE4 DUP6 SWAP11 LOG2 0xCB PUSH6 0x63A7E1B6AB38 0xAD GAS PUSH9 0xF06E442E1A654F7F9F MSTORE PUSH10 0x302E73CD64736F6C6343 STOP SMOD MOD STOP CALLER "
		},
		"gasEstimates": {
			"creation": {
				"codeDepositCost": "3455200",
				"executionCost": "infinite",
				"totalCost": "infinite"
			},
			"external": {
				"_acceptAdmin()": "infinite",
				"_setBorrowAllowed(bool)": "infinite",
				"_setInterestRateModel(address)": "infinite",
				"_setLiquidateFactor(uint256)": "infinite",
				"_setMintAllowed(bool)": "infinite",
				"_setPendingAdmin(address)": "infinite",
				"_setReserveFactor(uint256)": "infinite",
				"accrualBlockNumber()": "1118",
				"accrueInterest()": "infinite",
				"admin()": "1158",
				"allowance(address,address)": "infinite",
				"approve(address,uint256)": "22567",
				"balanceOf(address)": "1376",
				"balanceOfUnderlying(address)": "infinite",
				"borrow(uint256)": "infinite",
				"borrowAllowed()": "1185",
				"borrowBalanceCurrent(address)": "infinite",
				"borrowBalanceStored(address)": "3404",
				"borrowIndex()": "1095",
				"borrowRatePerBlock()": "infinite",
				"collateralRateCurrent(address)": "infinite",
				"collateralRateStored(address)": "3636",
				"collateralize(uint256)": "infinite",
				"decimals()": "331",
				"eFILAddress()": "1181",
				"exchangeRateCurrent()": "infinite",
				"exchangeRateStored()": "infinite",
				"getAccountCollateralsInfo(address)": "infinite",
				"getCash()": "infinite",
				"getCollateral(address)": "1376",
				"interestRateModel()": "1136",
				"liquidateBorrow(address)": "infinite",
				"liquidateFactorMantissa()": "1096",
				"mint(uint256)": "infinite",
				"mintAllowed()": "1152",
				"name()": "infinite",
				"nftAddress()": "1138",
				"nftSafeTransfer(uint256)": "infinite",
				"pendingAdmin()": "1204",
				"redeem(uint256)": "infinite",
				"redeemCollateral(uint256)": "infinite",
				"redeemUnderlying(uint256)": "infinite",
				"repayBorrow(uint256)": "infinite",
				"repayBorrowBehalf(address,uint256)": "infinite",
				"reserveFactorMantissa()": "1185",
				"supplyRatePerBlock()": "infinite",
				"symbol()": "infinite",
				"totalBorrows()": "1118",
				"totalBorrowsCurrent()": "infinite",
				"totalCollaterals()": "1097",
				"totalReserves()": "1161",
				"totalSupply()": "1141",
				"transfer(address,uint256)": "infinite",
				"transferFrom(address,address,uint256)": "infinite"
			},
			"internal": {
				"_nftSafeTransfer(address,uint256)": "infinite",
				"_setInterestRateModelFresh(contract InterestRateModel)": "infinite",
				"_setLiquidateFactorFresh(uint256)": "infinite",
				"_setReserveFactorFresh(uint256)": "infinite",
				"borrowBalanceStoredInternal(address)": "2811",
				"borrowFresh(address,uint256)": "infinite",
				"collateralRateInternal(address)": "infinite",
				"collateralizeFresh(address,uint256)": "infinite",
				"doTransferIn(address,address,uint256)": "infinite",
				"doTransferOut(address,address,uint256)": "infinite",
				"exchangeRateStoredInternal()": "infinite",
				"getBlockNumber()": "14",
				"getCashPrior()": "infinite",
				"getNftValue(uint256)": "17",
				"getNftownerOf(uint256)": "infinite",
				"liquidateBorrowFresh(address,address)": "infinite",
				"mintFresh(address,uint256)": "infinite",
				"redeemCollateralFresh(address,uint256)": "infinite",
				"redeemFresh(address,uint256,uint256)": "infinite",
				"repayBorrowFresh(address,address,uint256)": "infinite",
				"transferTokens(address,address,address,uint256)": "infinite"
			}
		},
		"methodIdentifiers": {
			"_acceptAdmin()": "e9c714f2",
			"_setBorrowAllowed(bool)": "17539b1e",
			"_setInterestRateModel(address)": "f2b3abbd",
			"_setLiquidateFactor(uint256)": "c95de7cf",
			"_setMintAllowed(bool)": "d8e94ea9",
			"_setPendingAdmin(address)": "b71d1a0c",
			"_setReserveFactor(uint256)": "fca7820b",
			"accrualBlockNumber()": "6c540baf",
			"accrueInterest()": "a6afed95",
			"admin()": "f851a440",
			"allowance(address,address)": "dd62ed3e",
			"approve(address,uint256)": "095ea7b3",
			"balanceOf(address)": "70a08231",
			"balanceOfUnderlying(address)": "3af9e669",
			"borrow(uint256)": "c5ebeaec",
			"borrowAllowed()": "5bb31693",
			"borrowBalanceCurrent(address)": "17bfdfbc",
			"borrowBalanceStored(address)": "95dd9193",
			"borrowIndex()": "aa5af0fd",
			"borrowRatePerBlock()": "f8f9da28",
			"collateralRateCurrent(address)": "9937edfe",
			"collateralRateStored(address)": "00517f62",
			"collateralize(uint256)": "9f06aa08",
			"decimals()": "313ce567",
			"eFILAddress()": "b2879ee4",
			"exchangeRateCurrent()": "bd6d894d",
			"exchangeRateStored()": "182df0f5",
			"getAccountCollateralsInfo(address)": "590e3f60",
			"getCash()": "3b1d21a2",
			"getCollateral(address)": "9b56d6c9",
			"interestRateModel()": "f3fdb15a",
			"liquidateBorrow(address)": "12f0dea7",
			"liquidateFactorMantissa()": "a2e354c8",
			"mint(uint256)": "a0712d68",
			"mintAllowed()": "c467201e",
			"name()": "06fdde03",
			"nftAddress()": "5bf8633a",
			"nftSafeTransfer(uint256)": "883747c4",
			"pendingAdmin()": "26782247",
			"redeem(uint256)": "db006a75",
			"redeemCollateral(uint256)": "bd37b775",
			"redeemUnderlying(uint256)": "852a12e3",
			"repayBorrow(uint256)": "0e752702",
			"repayBorrowBehalf(address,uint256)": "2608f818",
			"reserveFactorMantissa()": "173b9904",
			"supplyRatePerBlock()": "ae9d70b0",
			"symbol()": "95d89b41",
			"totalBorrows()": "47bd3718",
			"totalBorrowsCurrent()": "73acee98",
			"totalCollaterals()": "30504b6f",
			"totalReserves()": "8f840ddd",
			"totalSupply()": "18160ddd",
			"transfer(address,uint256)": "a9059cbb",
			"transferFrom(address,address,uint256)": "23b872dd"
		}
	},
	"abi": [
		{
			"inputs": [
				{
					"internalType": "address",
					"name": "interestRateModelAddress",
					"type": "address"
				},
				{
					"internalType": "address",
					"name": "nftAddress_",
					"type": "address"
				},
				{
					"internalType": "address",
					"name": "eFILAddress_",
					"type": "address"
				}
			],
			"stateMutability": "nonpayable",
			"type": "constructor"
		},
		{
			"anonymous": false,
			"inputs": [
				{
					"indexed": false,
					"internalType": "uint256",
					"name": "cashPrior",
					"type": "uint256"
				},
				{
					"indexed": false,
					"internalType": "uint256",
					"name": "interestAccumulated",
					"type": "uint256"
				},
				{
					"indexed": false,
					"internalType": "uint256",
					"name": "borrowIndex",
					"type": "uint256"
				},
				{
					"indexed": false,
					"internalType": "uint256",
					"name": "totalBorrows",
					"type": "uint256"
				}
			],
			"name": "AccrueInterest",
			"type": "event"
		},
		{
			"anonymous": false,
			"inputs": [
				{
					"indexed": true,
					"internalType": "address",
					"name": "owner",
					"type": "address"
				},
				{
					"indexed": true,
					"internalType": "address",
					"name": "spender",
					"type": "address"
				},
				{
					"indexed": false,
					"internalType": "uint256",
					"name": "amount",
					"type": "uint256"
				}
			],
			"name": "Approval",
			"type": "event"
		},
		{
			"anonymous": false,
			"inputs": [
				{
					"indexed": false,
					"internalType": "address",
					"name": "borrower",
					"type": "address"
				},
				{
					"indexed": false,
					"internalType": "uint256",
					"name": "borrowAmount",
					"type": "uint256"
				},
				{
					"indexed": false,
					"internalType": "uint256",
					"name": "accountBorrows",
					"type": "uint256"
				},
				{
					"indexed": false,
					"internalType": "uint256",
					"name": "totalBorrows",
					"type": "uint256"
				}
			],
			"name": "Borrow",
			"type": "event"
		},
		{
			"anonymous": false,
			"inputs": [
				{
					"indexed": false,
					"internalType": "bool",
					"name": "borrowAllowed",
					"type": "bool"
				}
			],
			"name": "BorrowAllowed",
			"type": "event"
		},
		{
			"anonymous": false,
			"inputs": [
				{
					"indexed": false,
					"internalType": "address",
					"name": "collateralizer",
					"type": "address"
				},
				{
					"indexed": false,
					"internalType": "uint256",
					"name": "collateralizeAmount",
					"type": "uint256"
				}
			],
			"name": "Collateralize",
			"type": "event"
		},
		{
			"anonymous": false,
			"inputs": [
				{
					"indexed": false,
					"internalType": "address",
					"name": "supplier",
					"type": "address"
				},
				{
					"indexed": false,
					"internalType": "uint256",
					"name": "supplierDelta",
					"type": "uint256"
				}
			],
			"name": "DistributedDFL",
			"type": "event"
		},
		{
			"anonymous": false,
			"inputs": [
				{
					"indexed": false,
					"internalType": "uint256",
					"name": "error",
					"type": "uint256"
				},
				{
					"indexed": false,
					"internalType": "uint256",
					"name": "info",
					"type": "uint256"
				},
				{
					"indexed": false,
					"internalType": "uint256",
					"name": "detail",
					"type": "uint256"
				}
			],
			"name": "Failure",
			"type": "event"
		},
		{
			"anonymous": false,
			"inputs": [
				{
					"indexed": false,
					"internalType": "address",
					"name": "liquidator",
					"type": "address"
				},
				{
					"indexed": false,
					"internalType": "address",
					"name": "borrower",
					"type": "address"
				},
				{
					"indexed": false,
					"internalType": "uint256",
					"name": "accountBorrows",
					"type": "uint256"
				},
				{
					"indexed": false,
					"internalType": "uint256",
					"name": "accountCollaterals",
					"type": "uint256"
				}
			],
			"name": "LiquidateBorrow",
			"type": "event"
		},
		{
			"anonymous": false,
			"inputs": [
				{
					"indexed": false,
					"internalType": "address",
					"name": "oldAddress",
					"type": "address"
				},
				{
					"indexed": false,
					"internalType": "address",
					"name": "newAddress",
					"type": "address"
				}
			],
			"name": "MinerLeagueAddressChanged",
			"type": "event"
		},
		{
			"anonymous": false,
			"inputs": [
				{
					"indexed": false,
					"internalType": "address",
					"name": "minter",
					"type": "address"
				},
				{
					"indexed": false,
					"internalType": "uint256",
					"name": "mintAmount",
					"type": "uint256"
				},
				{
					"indexed": false,
					"internalType": "uint256",
					"name": "mintTokens",
					"type": "uint256"
				}
			],
			"name": "Mint",
			"type": "event"
		},
		{
			"anonymous": false,
			"inputs": [
				{
					"indexed": false,
					"internalType": "bool",
					"name": "mintAllowed",
					"type": "bool"
				}
			],
			"name": "MintAllowed",
			"type": "event"
		},
		{
			"anonymous": false,
			"inputs": [
				{
					"indexed": false,
					"internalType": "address",
					"name": "oldAdmin",
					"type": "address"
				},
				{
					"indexed": false,
					"internalType": "address",
					"name": "newAdmin",
					"type": "address"
				}
			],
			"name": "NewAdmin",
			"type": "event"
		},
		{
			"anonymous": false,
			"inputs": [
				{
					"indexed": false,
					"internalType": "contract InterestRateModel",
					"name": "oldInterestRateModel",
					"type": "address"
				},
				{
					"indexed": false,
					"internalType": "contract InterestRateModel",
					"name": "newInterestRateModel",
					"type": "address"
				}
			],
			"name": "NewInterestRateModel",
			"type": "event"
		},
		{
			"anonymous": false,
			"inputs": [
				{
					"indexed": false,
					"internalType": "uint256",
					"name": "oldLiquidateFactorMantissa",
					"type": "uint256"
				},
				{
					"indexed": false,
					"internalType": "uint256",
					"name": "newLiquidateFactorMantissa",
					"type": "uint256"
				}
			],
			"name": "NewLiquidateFactor",
			"type": "event"
		},
		{
			"anonymous": false,
			"inputs": [
				{
					"indexed": false,
					"internalType": "address",
					"name": "oldPendingAdmin",
					"type": "address"
				},
				{
					"indexed": false,
					"internalType": "address",
					"name": "newPendingAdmin",
					"type": "address"
				}
			],
			"name": "NewPendingAdmin",
			"type": "event"
		},
		{
			"anonymous": false,
			"inputs": [
				{
					"indexed": false,
					"internalType": "uint256",
					"name": "oldReserveFactorMantissa",
					"type": "uint256"
				},
				{
					"indexed": false,
					"internalType": "uint256",
					"name": "newReserveFactorMantissa",
					"type": "uint256"
				}
			],
			"name": "NewReserveFactor",
			"type": "event"
		},
		{
			"anonymous": false,
			"inputs": [
				{
					"indexed": false,
					"internalType": "address",
					"name": "oldAddress",
					"type": "address"
				},
				{
					"indexed": false,
					"internalType": "address",
					"name": "newAddress",
					"type": "address"
				}
			],
			"name": "OperatorAddressChanged",
			"type": "event"
		},
		{
			"anonymous": false,
			"inputs": [
				{
					"indexed": false,
					"internalType": "uint256",
					"name": "uniswapPercentage",
					"type": "uint256"
				},
				{
					"indexed": false,
					"internalType": "uint256",
					"name": "minerLeaguePercentage",
					"type": "uint256"
				},
				{
					"indexed": false,
					"internalType": "uint256",
					"name": "operatorPercentage",
					"type": "uint256"
				}
			],
			"name": "PercentagesChanged",
			"type": "event"
		},
		{
			"anonymous": false,
			"inputs": [
				{
					"indexed": false,
					"internalType": "address",
					"name": "redeemer",
					"type": "address"
				},
				{
					"indexed": false,
					"internalType": "uint256",
					"name": "redeemAmount",
					"type": "uint256"
				},
				{
					"indexed": false,
					"internalType": "uint256",
					"name": "redeemTokens",
					"type": "uint256"
				}
			],
			"name": "Redeem",
			"type": "event"
		},
		{
			"anonymous": false,
			"inputs": [
				{
					"indexed": false,
					"internalType": "address",
					"name": "redeemer",
					"type": "address"
				},
				{
					"indexed": false,
					"internalType": "uint256",
					"name": "redeemAmount",
					"type": "uint256"
				}
			],
			"name": "RedeemCollateral",
			"type": "event"
		},
		{
			"anonymous": false,
			"inputs": [
				{
					"indexed": false,
					"internalType": "address",
					"name": "payer",
					"type": "address"
				},
				{
					"indexed": false,
					"internalType": "address",
					"name": "borrower",
					"type": "address"
				},
				{
					"indexed": false,
					"internalType": "uint256",
					"name": "repayAmount",
					"type": "uint256"
				},
				{
					"indexed": false,
					"internalType": "uint256",
					"name": "accountBorrows",
					"type": "uint256"
				},
				{
					"indexed": false,
					"internalType": "uint256",
					"name": "totalBorrows",
					"type": "uint256"
				}
			],
			"name": "RepayBorrow",
			"type": "event"
		},
		{
			"anonymous": false,
			"inputs": [
				{
					"indexed": false,
					"internalType": "address",
					"name": "oldAddress",
					"type": "address"
				},
				{
					"indexed": false,
					"internalType": "address",
					"name": "newAddress",
					"type": "address"
				}
			],
			"name": "ReservesOwnerChanged",
			"type": "event"
		},
		{
			"anonymous": false,
			"inputs": [
				{
					"indexed": false,
					"internalType": "address",
					"name": "toTho",
					"type": "address"
				},
				{
					"indexed": false,
					"internalType": "uint256",
					"name": "amount",
					"type": "uint256"
				}
			],
			"name": "ReservesReduced",
			"type": "event"
		},
		{
			"anonymous": false,
			"inputs": [
				{
					"indexed": false,
					"internalType": "address",
					"name": "oldAddress",
					"type": "address"
				},
				{
					"indexed": false,
					"internalType": "address",
					"name": "newAddress",
					"type": "address"
				}
			],
			"name": "TechnicalAddressChanged",
			"type": "event"
		},
		{
			"anonymous": false,
			"inputs": [
				{
					"indexed": true,
					"internalType": "address",
					"name": "from",
					"type": "address"
				},
				{
					"indexed": true,
					"internalType": "address",
					"name": "to",
					"type": "address"
				},
				{
					"indexed": false,
					"internalType": "uint256",
					"name": "amount",
					"type": "uint256"
				}
			],
			"name": "Transfer",
			"type": "event"
		},
		{
			"anonymous": false,
			"inputs": [
				{
					"indexed": false,
					"internalType": "address",
					"name": "oldAddress",
					"type": "address"
				},
				{
					"indexed": false,
					"internalType": "address",
					"name": "newAddress",
					"type": "address"
				}
			],
			"name": "UndistributedAddressChanged",
			"type": "event"
		},
		{
			"anonymous": false,
			"inputs": [
				{
					"indexed": false,
					"internalType": "address",
					"name": "oldAddress",
					"type": "address"
				},
				{
					"indexed": false,
					"internalType": "address",
					"name": "newAddress",
					"type": "address"
				}
			],
			"name": "UniswapAddressChanged",
			"type": "event"
		},
		{
			"inputs": [],
			"name": "_acceptAdmin",
			"outputs": [
				{
					"internalType": "uint256",
					"name": "",
					"type": "uint256"
				}
			],
			"stateMutability": "nonpayable",
			"type": "function"
		},
		{
			"inputs": [
				{
					"internalType": "bool",
					"name": "borrowAllowed_",
					"type": "bool"
				}
			],
			"name": "_setBorrowAllowed",
			"outputs": [
				{
					"internalType": "uint256",
					"name": "",
					"type": "uint256"
				}
			],
			"stateMutability": "nonpayable",
			"type": "function"
		},
		{
			"inputs": [
				{
					"internalType": "contract InterestRateModel",
					"name": "newInterestRateModel",
					"type": "address"
				}
			],
			"name": "_setInterestRateModel",
			"outputs": [
				{
					"internalType": "uint256",
					"name": "",
					"type": "uint256"
				}
			],
			"stateMutability": "nonpayable",
			"type": "function"
		},
		{
			"inputs": [
				{
					"internalType": "uint256",
					"name": "newLiquidateFactorMantissa",
					"type": "uint256"
				}
			],
			"name": "_setLiquidateFactor",
			"outputs": [
				{
					"internalType": "uint256",
					"name": "",
					"type": "uint256"
				}
			],
			"stateMutability": "nonpayable",
			"type": "function"
		},
		{
			"inputs": [
				{
					"internalType": "bool",
					"name": "mintAllowed_",
					"type": "bool"
				}
			],
			"name": "_setMintAllowed",
			"outputs": [
				{
					"internalType": "uint256",
					"name": "",
					"type": "uint256"
				}
			],
			"stateMutability": "nonpayable",
			"type": "function"
		},
		{
			"inputs": [
				{
					"internalType": "address",
					"name": "newPendingAdmin",
					"type": "address"
				}
			],
			"name": "_setPendingAdmin",
			"outputs": [
				{
					"internalType": "uint256",
					"name": "",
					"type": "uint256"
				}
			],
			"stateMutability": "nonpayable",
			"type": "function"
		},
		{
			"inputs": [
				{
					"internalType": "uint256",
					"name": "newReserveFactorMantissa",
					"type": "uint256"
				}
			],
			"name": "_setReserveFactor",
			"outputs": [
				{
					"internalType": "uint256",
					"name": "",
					"type": "uint256"
				}
			],
			"stateMutability": "nonpayable",
			"type": "function"
		},
		{
			"inputs": [],
			"name": "accrualBlockNumber",
			"outputs": [
				{
					"internalType": "uint256",
					"name": "",
					"type": "uint256"
				}
			],
			"stateMutability": "view",
			"type": "function"
		},
		{
			"inputs": [],
			"name": "accrueInterest",
			"outputs": [
				{
					"internalType": "uint256",
					"name": "",
					"type": "uint256"
				}
			],
			"stateMutability": "nonpayable",
			"type": "function"
		},
		{
			"inputs": [],
			"name": "admin",
			"outputs": [
				{
					"internalType": "address",
					"name": "",
					"type": "address"
				}
			],
			"stateMutability": "view",
			"type": "function"
		},
		{
			"inputs": [
				{
					"internalType": "address",
					"name": "owner",
					"type": "address"
				},
				{
					"internalType": "address",
					"name": "spender",
					"type": "address"
				}
			],
			"name": "allowance",
			"outputs": [
				{
					"internalType": "uint256",
					"name": "",
					"type": "uint256"
				}
			],
			"stateMutability": "view",
			"type": "function"
		},
		{
			"inputs": [
				{
					"internalType": "address",
					"name": "spender",
					"type": "address"
				},
				{
					"internalType": "uint256",
					"name": "amount",
					"type": "uint256"
				}
			],
			"name": "approve",
			"outputs": [
				{
					"internalType": "bool",
					"name": "",
					"type": "bool"
				}
			],
			"stateMutability": "nonpayable",
			"type": "function"
		},
		{
			"inputs": [
				{
					"internalType": "address",
					"name": "owner",
					"type": "address"
				}
			],
			"name": "balanceOf",
			"outputs": [
				{
					"internalType": "uint256",
					"name": "",
					"type": "uint256"
				}
			],
			"stateMutability": "view",
			"type": "function"
		},
		{
			"inputs": [
				{
					"internalType": "address",
					"name": "owner",
					"type": "address"
				}
			],
			"name": "balanceOfUnderlying",
			"outputs": [
				{
					"internalType": "uint256",
					"name": "",
					"type": "uint256"
				}
			],
			"stateMutability": "nonpayable",
			"type": "function"
		},
		{
			"inputs": [
				{
					"internalType": "uint256",
					"name": "borrowAmount",
					"type": "uint256"
				}
			],
			"name": "borrow",
			"outputs": [
				{
					"internalType": "uint256",
					"name": "",
					"type": "uint256"
				}
			],
			"stateMutability": "nonpayable",
			"type": "function"
		},
		{
			"inputs": [],
			"name": "borrowAllowed",
			"outputs": [
				{
					"internalType": "bool",
					"name": "",
					"type": "bool"
				}
			],
			"stateMutability": "view",
			"type": "function"
		},
		{
			"inputs": [
				{
					"internalType": "address",
					"name": "account",
					"type": "address"
				}
			],
			"name": "borrowBalanceCurrent",
			"outputs": [
				{
					"internalType": "uint256",
					"name": "",
					"type": "uint256"
				}
			],
			"stateMutability": "nonpayable",
			"type": "function"
		},
		{
			"inputs": [
				{
					"internalType": "address",
					"name": "account",
					"type": "address"
				}
			],
			"name": "borrowBalanceStored",
			"outputs": [
				{
					"internalType": "uint256",
					"name": "",
					"type": "uint256"
				}
			],
			"stateMutability": "view",
			"type": "function"
		},
		{
			"inputs": [],
			"name": "borrowIndex",
			"outputs": [
				{
					"internalType": "uint256",
					"name": "",
					"type": "uint256"
				}
			],
			"stateMutability": "view",
			"type": "function"
		},
		{
			"inputs": [],
			"name": "borrowRatePerBlock",
			"outputs": [
				{
					"internalType": "uint256",
					"name": "",
					"type": "uint256"
				}
			],
			"stateMutability": "view",
			"type": "function"
		},
		{
			"inputs": [
				{
					"internalType": "address",
					"name": "borrower",
					"type": "address"
				}
			],
			"name": "collateralRateCurrent",
			"outputs": [
				{
					"internalType": "uint256",
					"name": "",
					"type": "uint256"
				}
			],
			"stateMutability": "nonpayable",
			"type": "function"
		},
		{
			"inputs": [
				{
					"internalType": "address",
					"name": "borrower",
					"type": "address"
				}
			],
			"name": "collateralRateStored",
			"outputs": [
				{
					"internalType": "uint256",
					"name": "",
					"type": "uint256"
				}
			],
			"stateMutability": "view",
			"type": "function"
		},
		{
			"inputs": [
				{
					"internalType": "uint256",
					"name": "nftMachineId",
					"type": "uint256"
				}
			],
			"name": "collateralize",
			"outputs": [
				{
					"internalType": "uint256",
					"name": "",
					"type": "uint256"
				}
			],
			"stateMutability": "nonpayable",
			"type": "function"
		},
		{
			"inputs": [],
			"name": "decimals",
			"outputs": [
				{
					"internalType": "uint8",
					"name": "",
					"type": "uint8"
				}
			],
			"stateMutability": "view",
			"type": "function"
		},
		{
			"inputs": [],
			"name": "eFILAddress",
			"outputs": [
				{
					"internalType": "address",
					"name": "",
					"type": "address"
				}
			],
			"stateMutability": "view",
			"type": "function"
		},
		{
			"inputs": [],
			"name": "exchangeRateCurrent",
			"outputs": [
				{
					"internalType": "uint256",
					"name": "",
					"type": "uint256"
				}
			],
			"stateMutability": "nonpayable",
			"type": "function"
		},
		{
			"inputs": [],
			"name": "exchangeRateStored",
			"outputs": [
				{
					"internalType": "uint256",
					"name": "",
					"type": "uint256"
				}
			],
			"stateMutability": "view",
			"type": "function"
		},
		{
			"inputs": [
				{
					"internalType": "address",
					"name": "_adds",
					"type": "address"
				}
			],
			"name": "getAccountCollateralsInfo",
			"outputs": [
				{
					"internalType": "uint256[]",
					"name": "",
					"type": "uint256[]"
				}
			],
			"stateMutability": "view",
			"type": "function"
		},
		{
			"inputs": [],
			"name": "getCash",
			"outputs": [
				{
					"internalType": "uint256",
					"name": "",
					"type": "uint256"
				}
			],
			"stateMutability": "view",
			"type": "function"
		},
		{
			"inputs": [
				{
					"internalType": "address",
					"name": "account",
					"type": "address"
				}
			],
			"name": "getCollateral",
			"outputs": [
				{
					"internalType": "uint256",
					"name": "",
					"type": "uint256"
				}
			],
			"stateMutability": "view",
			"type": "function"
		},
		{
			"inputs": [],
			"name": "interestRateModel",
			"outputs": [
				{
					"internalType": "contract InterestRateModel",
					"name": "",
					"type": "address"
				}
			],
			"stateMutability": "view",
			"type": "function"
		},
		{
			"inputs": [
				{
					"internalType": "address",
					"name": "borrower",
					"type": "address"
				}
			],
			"name": "liquidateBorrow",
			"outputs": [
				{
					"internalType": "uint256",
					"name": "",
					"type": "uint256"
				}
			],
			"stateMutability": "nonpayable",
			"type": "function"
		},
		{
			"inputs": [],
			"name": "liquidateFactorMantissa",
			"outputs": [
				{
					"internalType": "uint256",
					"name": "",
					"type": "uint256"
				}
			],
			"stateMutability": "view",
			"type": "function"
		},
		{
			"inputs": [
				{
					"internalType": "uint256",
					"name": "mintAmount",
					"type": "uint256"
				}
			],
			"name": "mint",
			"outputs": [
				{
					"internalType": "uint256",
					"name": "",
					"type": "uint256"
				}
			],
			"stateMutability": "nonpayable",
			"type": "function"
		},
		{
			"inputs": [],
			"name": "mintAllowed",
			"outputs": [
				{
					"internalType": "bool",
					"name": "",
					"type": "bool"
				}
			],
			"stateMutability": "view",
			"type": "function"
		},
		{
			"inputs": [],
			"name": "name",
			"outputs": [
				{
					"internalType": "string",
					"name": "",
					"type": "string"
				}
			],
			"stateMutability": "view",
			"type": "function"
		},
		{
			"inputs": [],
			"name": "nftAddress",
			"outputs": [
				{
					"internalType": "address",
					"name": "",
					"type": "address"
				}
			],
			"stateMutability": "view",
			"type": "function"
		},
		{
			"inputs": [
				{
					"internalType": "uint256",
					"name": "_id",
					"type": "uint256"
				}
			],
			"name": "nftSafeTransfer",
			"outputs": [],
			"stateMutability": "nonpayable",
			"type": "function"
		},
		{
			"inputs": [],
			"name": "pendingAdmin",
			"outputs": [
				{
					"internalType": "address",
					"name": "",
					"type": "address"
				}
			],
			"stateMutability": "view",
			"type": "function"
		},
		{
			"inputs": [
				{
					"internalType": "uint256",
					"name": "redeemTokens",
					"type": "uint256"
				}
			],
			"name": "redeem",
			"outputs": [
				{
					"internalType": "uint256",
					"name": "",
					"type": "uint256"
				}
			],
			"stateMutability": "nonpayable",
			"type": "function"
		},
		{
			"inputs": [
				{
					"internalType": "uint256",
					"name": "redeemAmount",
					"type": "uint256"
				}
			],
			"name": "redeemCollateral",
			"outputs": [
				{
					"internalType": "uint256",
					"name": "",
					"type": "uint256"
				}
			],
			"stateMutability": "nonpayable",
			"type": "function"
		},
		{
			"inputs": [
				{
					"internalType": "uint256",
					"name": "redeemAmount",
					"type": "uint256"
				}
			],
			"name": "redeemUnderlying",
			"outputs": [
				{
					"internalType": "uint256",
					"name": "",
					"type": "uint256"
				}
			],
			"stateMutability": "nonpayable",
			"type": "function"
		},
		{
			"inputs": [
				{
					"internalType": "uint256",
					"name": "repayAmount",
					"type": "uint256"
				}
			],
			"name": "repayBorrow",
			"outputs": [
				{
					"internalType": "uint256",
					"name": "",
					"type": "uint256"
				}
			],
			"stateMutability": "nonpayable",
			"type": "function"
		},
		{
			"inputs": [
				{
					"internalType": "address",
					"name": "borrower",
					"type": "address"
				},
				{
					"internalType": "uint256",
					"name": "repayAmount",
					"type": "uint256"
				}
			],
			"name": "repayBorrowBehalf",
			"outputs": [
				{
					"internalType": "uint256",
					"name": "",
					"type": "uint256"
				}
			],
			"stateMutability": "nonpayable",
			"type": "function"
		},
		{
			"inputs": [],
			"name": "reserveFactorMantissa",
			"outputs": [
				{
					"internalType": "uint256",
					"name": "",
					"type": "uint256"
				}
			],
			"stateMutability": "view",
			"type": "function"
		},
		{
			"inputs": [],
			"name": "supplyRatePerBlock",
			"outputs": [
				{
					"internalType": "uint256",
					"name": "",
					"type": "uint256"
				}
			],
			"stateMutability": "view",
			"type": "function"
		},
		{
			"inputs": [],
			"name": "symbol",
			"outputs": [
				{
					"internalType": "string",
					"name": "",
					"type": "string"
				}
			],
			"stateMutability": "view",
			"type": "function"
		},
		{
			"inputs": [],
			"name": "totalBorrows",
			"outputs": [
				{
					"internalType": "uint256",
					"name": "",
					"type": "uint256"
				}
			],
			"stateMutability": "view",
			"type": "function"
		},
		{
			"inputs": [],
			"name": "totalBorrowsCurrent",
			"outputs": [
				{
					"internalType": "uint256",
					"name": "",
					"type": "uint256"
				}
			],
			"stateMutability": "nonpayable",
			"type": "function"
		},
		{
			"inputs": [],
			"name": "totalCollaterals",
			"outputs": [
				{
					"internalType": "uint256",
					"name": "",
					"type": "uint256"
				}
			],
			"stateMutability": "view",
			"type": "function"
		},
		{
			"inputs": [],
			"name": "totalReserves",
			"outputs": [
				{
					"internalType": "uint256",
					"name": "",
					"type": "uint256"
				}
			],
			"stateMutability": "view",
			"type": "function"
		},
		{
			"inputs": [],
			"name": "totalSupply",
			"outputs": [
				{
					"internalType": "uint256",
					"name": "",
					"type": "uint256"
				}
			],
			"stateMutability": "view",
			"type": "function"
		},
		{
			"inputs": [
				{
					"internalType": "address",
					"name": "dst",
					"type": "address"
				},
				{
					"internalType": "uint256",
					"name": "amount",
					"type": "uint256"
				}
			],
			"name": "transfer",
			"outputs": [
				{
					"internalType": "bool",
					"name": "",
					"type": "bool"
				}
			],
			"stateMutability": "nonpayable",
			"type": "function"
		},
		{
			"inputs": [
				{
					"internalType": "address",
					"name": "src",
					"type": "address"
				},
				{
					"internalType": "address",
					"name": "dst",
					"type": "address"
				},
				{
					"internalType": "uint256",
					"name": "amount",
					"type": "uint256"
				}
			],
			"name": "transferFrom",
			"outputs": [
				{
					"internalType": "bool",
					"name": "",
					"type": "bool"
				}
			],
			"stateMutability": "nonpayable",
			"type": "function"
		}
	]
}