{
	"data": {
		"bytecode": {
			"linkReferences": {},
			"object": "60806040523480156200001157600080fd5b5060405162007fca38038062007fca8339818101604052810190620000379190620007a8565b600160008190555033600260006101000a81548173ffffffffffffffffffffffffffffffffffffffff021916908373ffffffffffffffffffffffffffffffffffffffff160217905550620000906200031160201b60201c565b600681905550670de0b6b3a76400006007819055506000620000c06706f05b59d3b200006200031960201b60201c565b905060006009811115620000d057fe5b811462000114576040517f08c379a00000000000000000000000000000000000000000000000000000000081526004016200010b9062000a19565b60405180910390fd5b6200012d671bc16d674ec800006200041a60201b60201c565b9050600060098111156200013d57fe5b811462000181576040517f08c379a0000000000000000000000000000000000000000000000000000000008152600401620001789062000a3b565b60405180910390fd5b62000192846200051b60201b60201c565b905060006009811115620001a257fe5b8114620001e6576040517f08c379a0000000000000000000000000000000000000000000000000000000008152600401620001dd90620009d5565b60405180910390fd5b6001600b60006101000a81548160ff0219169083151502179055506001600b60016101000a81548160ff02191690831515021790555081600160006101000a81548173ffffffffffffffffffffffffffffffffffffffff021916908373ffffffffffffffffffffffffffffffffffffffff16021790555082601360006101000a81548173ffffffffffffffffffffffffffffffffffffffff021916908373ffffffffffffffffffffffffffffffffffffffff1602179055503073ffffffffffffffffffffffffffffffffffffffff16600073ffffffffffffffffffffffffffffffffffffffff167fddf252ad1be2c89b69c2b068fc378daa952ba7f163c4a11628f55a4df523b3ef6000604051620002ff9190620009b8565b60405180910390a35050505062000b92565b600043905090565b6000600260009054906101000a900473ffffffffffffffffffffffffffffffffffffffff1673ffffffffffffffffffffffffffffffffffffffff163373ffffffffffffffffffffffffffffffffffffffff16146200038d5762000385600160006200070d60201b60201c565b905062000415565b670de0b6b3a7640000821115620003ba57620003b2600260236200070d60201b60201c565b905062000415565b60006005549050826005819055507faaa68312e2ea9d50e16af5068410ab56e1a1fd06037b1a35664812c30f8214608184604051620003fb92919062000a5d565b60405180910390a1600060098111156200041157fe5b9150505b919050565b6000600260009054906101000a900473ffffffffffffffffffffffffffffffffffffffff1673ffffffffffffffffffffffffffffffffffffffff163373ffffffffffffffffffffffffffffffffffffffff16146200048e5762000486600160006200070d60201b60201c565b905062000516565b670de0b6b3a7640000821015620004bb57620004b3600260246200070d60201b60201c565b905062000516565b60006011549050826011819055507f389ce8cc8e8243c4ee80c30e284539a8f6fa01c546c8f3f3d76093aace77367e8184604051620004fc92919062000a5d565b60405180910390a1600060098111156200051257fe5b9150505b919050565b600080600260009054906101000a900473ffffffffffffffffffffffffffffffffffffffff1673ffffffffffffffffffffffffffffffffffffffff163373ffffffffffffffffffffffffffffffffffffffff1614620005915762000588600160006200070d60201b60201c565b91505062000708565b600460009054906101000a900473ffffffffffffffffffffffffffffffffffffffff1690508273ffffffffffffffffffffffffffffffffffffffff16632191f92a6040518163ffffffff1660e01b815260040160206040518083038186803b158015620005fd57600080fd5b505afa15801562000612573d6000803e3d6000fd5b505050506040513d601f19601f82011682018060405250810190620006389190620007fe565b6200067a576040517f08c379a00000000000000000000000000000000000000000000000000000000081526004016200067190620009f7565b60405180910390fd5b82600460006101000a81548173ffffffffffffffffffffffffffffffffffffffff021916908373ffffffffffffffffffffffffffffffffffffffff1602179055507feb5cc99f497dc2d7106563bb080e06c9b09e3d81a38623ac4d0839575658d1fa8184604051620006ee9291906200098b565b60405180910390a1600060098111156200070457fe5b9150505b919050565b60007f45b96fe442630264581b197e84bbada861235052c5a1aadfff9ea4e40a969aa08360098111156200073d57fe5b8360278111156200074a57fe5b60006040516200075d9392919062000a8a565b60405180910390a18260098111156200077257fe5b905092915050565b6000815190506200078b8162000b5e565b92915050565b600081519050620007a28162000b78565b92915050565b600080600060608486031215620007be57600080fd5b6000620007ce868287016200077a565b9350506020620007e1868287016200077a565b9250506040620007f4868287016200077a565b9150509250925092565b6000602082840312156200081157600080fd5b6000620008218482850162000791565b91505092915050565b620008358162000b22565b82525050565b620008468162000b4a565b82525050565b60006200085b60228362000ac7565b91507f73657474696e6720696e7465726573742072617465206d6f64656c206661696c60008301527f65640000000000000000000000000000000000000000000000000000000000006020830152604082019050919050565b6000620008c3601c8362000ac7565b91507f6d61726b6572206d6574686f642072657475726e65642066616c7365000000006000830152602082019050919050565b600062000905601d8362000ac7565b91507f73657474696e67207265736572766520666163746f72206661696c65640000006000830152602082019050919050565b600062000947601f8362000ac7565b91507f73657474696e67206c697175696461746520666163746f72206661696c6564006000830152602082019050919050565b620009858162000b18565b82525050565b6000604082019050620009a260008301856200082a565b620009b160208301846200082a565b9392505050565b6000602082019050620009cf60008301846200083b565b92915050565b60006020820190508181036000830152620009f0816200084c565b9050919050565b6000602082019050818103600083015262000a1281620008b4565b9050919050565b6000602082019050818103600083015262000a3481620008f6565b9050919050565b6000602082019050818103600083015262000a568162000938565b9050919050565b600060408201905062000a7460008301856200097a565b62000a8360208301846200097a565b9392505050565b600060608201905062000aa160008301866200097a565b62000ab060208301856200097a565b62000abf60408301846200083b565b949350505050565b600082825260208201905092915050565b600062000ae58262000af8565b9050919050565b60008115159050919050565b600073ffffffffffffffffffffffffffffffffffffffff82169050919050565b6000819050919050565b600062000b2f8262000b36565b9050919050565b600062000b438262000af8565b9050919050565b600062000b578262000b18565b9050919050565b62000b698162000ad8565b811462000b7557600080fd5b50565b62000b838162000aec565b811462000b8f57600080fd5b50565b6174288062000ba26000396000f3fe608060405234801561001057600080fd5b50600436106103415760003560e01c806395d89b41116101b8578063bd37b77511610104578063dd62ed3e116100a2578063f3fdb15a1161007c578063f3fdb15a14610af4578063f851a44014610b12578063f8f9da2814610b30578063fca7820b14610b4e57610341565b8063dd62ed3e14610a76578063e9c714f214610aa6578063f2b3abbd14610ac457610341565b8063c5ebeaec116100de578063c5ebeaec146109b6578063c95de7cf146109e6578063d8e94ea914610a16578063db006a7514610a4657610341565b8063bd37b7751461094a578063bd6d894d1461097a578063c467201e1461099857610341565b8063a2e354c811610171578063aa5af0fd1161014b578063aa5af0fd146108c0578063ae9d70b0146108de578063b2879ee4146108fc578063b71d1a0c1461091a57610341565b8063a2e354c814610854578063a6afed9514610872578063a9059cbb1461089057610341565b806395d89b411461074657806395dd9193146107645780639937edfe146107945780639b56d6c9146107c45780639f06aa08146107f4578063a0712d681461082457610341565b806330504b6f116102925780635bf8633a1161023057806373acee981161020a57806373acee98146106be578063852a12e3146106dc578063883747c41461070c5780638f840ddd1461072857610341565b80635bf8633a146106525780636c540baf1461067057806370a082311461068e57610341565b80633b1d21a21161026c5780633b1d21a2146105c857806347bd3718146105e6578063590e3f60146106045780635bb316931461063457610341565b806330504b6f1461055c578063313ce5671461057a5780633af9e6691461059857610341565b806317539b1e116102ff578063182df0f5116102d9578063182df0f5146104c057806323b872dd146104de5780632608f8181461050e578063267822471461053e57610341565b806317539b1e1461044257806317bfdfbc1461047257806318160ddd146104a257610341565b8062517f621461034657806306fdde0314610376578063095ea7b3146103945780630e752702146103c457806312f0dea7146103f4578063173b990414610424575b600080fd5b610360600480360381019061035b9190615eda565b610b7e565b60405161036d919061710f565b60405180910390f35b61037e610bf5565b60405161038b9190616d6d565b60405180910390f35b6103ae60048036038101906103a99190615fb7565b610c2e565b6040516103bb9190616d0e565b60405180910390f35b6103de60048036038101906103d9919061606e565b610d95565b6040516103eb919061710f565b60405180910390f35b61040e60048036038101906104099190615eda565b610e44565b60405161041b919061710f565b60405180910390f35b61042c610eec565b604051610439919061710f565b60405180910390f35b61045c60048036038101906104579190615ff3565b610ef2565b604051610469919061710f565b60405180910390f35b61048c60048036038101906104879190615eda565b610fdd565b604051610499919061710f565b60405180910390f35b6104aa61109a565b6040516104b7919061710f565b60405180910390f35b6104c86110a0565b6040516104d5919061710f565b60405180910390f35b6104f860048036038101906104f39190615f68565b611112565b6040516105059190616d0e565b60405180910390f35b61052860048036038101906105239190615fb7565b61118d565b604051610535919061710f565b60405180910390f35b61054661123d565b6040516105539190616b34565b60405180910390f35b610564611263565b604051610571919061710f565b60405180910390f35b610582611269565b60405161058f9190617206565b60405180910390f35b6105b260048036038101906105ad9190615eda565b61126e565b6040516105bf919061710f565b60405180910390f35b6105d061133d565b6040516105dd919061710f565b60405180910390f35b6105ee61134c565b6040516105fb919061710f565b60405180910390f35b61061e60048036038101906106199190615eda565b611352565b60405161062b9190616cec565b60405180910390f35b61063c611459565b6040516106499190616d0e565b60405180910390f35b61065a61146c565b6040516106679190616b34565b60405180910390f35b610678611492565b604051610685919061710f565b60405180910390f35b6106a860048036038101906106a39190615eda565b611498565b6040516106b5919061710f565b60405180910390f35b6106c66114e1565b6040516106d3919061710f565b60405180910390f35b6106f660048036038101906106f1919061606e565b611596565b604051610703919061710f565b60405180910390f35b6107266004803603810190610721919061606e565b611640565b005b61073061166f565b60405161073d919061710f565b60405180910390f35b61074e611675565b60405161075b9190616d6d565b60405180910390f35b61077e60048036038101906107799190615eda565b6116ae565b60405161078b919061710f565b60405180910390f35b6107ae60048036038101906107a99190615eda565b611723565b6040516107bb919061710f565b60405180910390f35b6107de60048036038101906107d99190615eda565b611789565b6040516107eb919061710f565b60405180910390f35b61080e6004803603810190610809919061606e565b6117d2565b60405161081b919061710f565b60405180910390f35b61083e6004803603810190610839919061606e565b6118f6565b60405161084b919061710f565b60405180910390f35b61085c6119a4565b604051610869919061710f565b60405180910390f35b61087a6119aa565b604051610887919061710f565b60405180910390f35b6108aa60048036038101906108a59190615fb7565b611d92565b6040516108b79190616d0e565b60405180910390f35b6108c8611e0c565b6040516108d5919061710f565b60405180910390f35b6108e6611e12565b6040516108f3919061710f565b60405180910390f35b610904611ed7565b6040516109119190616b34565b60405180910390f35b610934600480360381019061092f9190615eda565b611efd565b604051610941919061710f565b60405180910390f35b610964600480360381019061095f919061606e565b61201e565b604051610971919061710f565b60405180910390f35b6109826120c6565b60405161098f919061710f565b60405180910390f35b6109a0612129565b6040516109ad9190616d0e565b60405180910390f35b6109d060048036038101906109cb919061606e565b61213c565b6040516109dd919061710f565b60405180910390f35b610a0060048036038101906109fb919061606e565b6121e4565b604051610a0d919061710f565b60405180910390f35b610a306004803603810190610a2b9190615ff3565b61228b565b604051610a3d919061710f565b60405180910390f35b610a606004803603810190610a5b919061606e565b612376565b604051610a6d919061710f565b60405180910390f35b610a906004803603810190610a8b9190615f2c565b612420565b604051610a9d919061710f565b60405180910390f35b610aae6124a7565b604051610abb919061710f565b60405180910390f35b610ade6004803603810190610ad99190616045565b612708565b604051610aeb919061710f565b60405180910390f35b610afc6127af565b604051610b099190616d29565b60405180910390f35b610b1a6127d5565b604051610b279190616b34565b60405180910390f35b610b386127fb565b604051610b45919061710f565b60405180910390f35b610b686004803603810190610b63919061606e565b6128bc565b604051610b75919061710f565b60405180910390f35b6000806000610b8c84612963565b50509150915060006003811115610b9f57fe5b826003811115610bab57fe5b14610beb576040517f08c379a0000000000000000000000000000000000000000000000000000000008152600401610be290616eaf565b60405180910390fd5b8092505050919050565b6040518060400160405280601381526020017f4365727469666963617465206f66206546494c0000000000000000000000000081525081565b60008073ffffffffffffffffffffffffffffffffffffffff168373ffffffffffffffffffffffffffffffffffffffff161415610c9f576040517f08c379a0000000000000000000000000000000000000000000000000000000008152600401610c9690616f2f565b60405180910390fd5b600033905082600d60008373ffffffffffffffffffffffffffffffffffffffff1673ffffffffffffffffffffffffffffffffffffffff16815260200190815260200160002060008673ffffffffffffffffffffffffffffffffffffffff1673ffffffffffffffffffffffffffffffffffffffff168152602001908152602001600020819055508373ffffffffffffffffffffffffffffffffffffffff168173ffffffffffffffffffffffffffffffffffffffff167f8c5be1e5ebec7d5bd14f71427d1e84f3dd0314c0f7b2291e5b200ac8c7c3b92585604051610d82919061710f565b60405180910390a3600191505092915050565b600060026000541415610ddd576040517f08c379a0000000000000000000000000000000000000000000000000000000008152600401610dd4906170cf565b60405180910390fd5b60026000819055506000610def6119aa565b905060006009811115610dfe57fe5b8114610e2257610e1a816009811115610e1357fe5b6002612a62565b915050610e37565b610e2d333385612aca565b5080915050809150505b6001600081905550919050565b600060026000541415610e8c576040517f08c379a0000000000000000000000000000000000000000000000000000000008152600401610e83906170cf565b60405180910390fd5b60026000819055506000610e9e6119aa565b905060006009811115610ead57fe5b8114610ed157610ec9816009811115610ec257fe5b6002612a62565b915050610edf565b610edb3384612e52565b9150505b6001600081905550919050565b60055481565b6000600260009054906101000a900473ffffffffffffffffffffffffffffffffffffffff1673ffffffffffffffffffffffffffffffffffffffff163373ffffffffffffffffffffffffffffffffffffffff1614610f5c57610f5560016000612a62565b9050610fd8565b811515600b60019054906101000a900460ff16151514610fc85781600b60016101000a81548160ff0219169083151502179055507f1717b5ea3deee7263023836cdd49998ac11579e79797df6028a834abad3619a282604051610fbf9190616d0e565b60405180910390a15b60006009811115610fd557fe5b90505b919050565b600060026000541415611025576040517f08c379a000000000000000000000000000000000000000000000000000000000815260040161101c906170cf565b60405180910390fd5b60026000819055506000600981111561103a57fe5b6110426119aa565b14611082576040517f08c379a000000000000000000000000000000000000000000000000000000000815260040161107990616daf565b60405180910390fd5b61108b826116ae565b90506001600081905550919050565b600a5481565b60008060006110ad61323d565b91509150600060038111156110be57fe5b8260038111156110ca57fe5b1461110a576040517f08c379a00000000000000000000000000000000000000000000000000000000081526004016111019061706f565b60405180910390fd5b809250505090565b60006002600054141561115a576040517f08c379a0000000000000000000000000000000000000000000000000000000008152600401611151906170cf565b60405180910390fd5b60026000819055506000600981111561116f57fe5b61117b33868686613318565b14905060016000819055509392505050565b6000600260005414156111d5576040517f08c379a00000000000000000000000000000000000000000000000000000000081526004016111cc906170cf565b60405180910390fd5b600260008190555060006111e76119aa565b9050600060098111156111f657fe5b811461121a5761121281600981111561120b57fe5b6002612a62565b91505061122f565b611225338585612aca565b5080915050809150505b600160008190555092915050565b600360009054906101000a900473ffffffffffffffffffffffffffffffffffffffff1681565b600f5481565b601281565b60008060405180602001604052806112846120c6565b81525090506000806112d583600c60008873ffffffffffffffffffffffffffffffffffffffff1673ffffffffffffffffffffffffffffffffffffffff16815260200190815260200160002054613785565b91509150600060038111156112e657fe5b8260038111156112f257fe5b14611332576040517f08c379a000000000000000000000000000000000000000000000000000000000815260040161132990616def565b60405180910390fd5b809350505050919050565b60006113476137de565b905090565b60085481565b6060600073ffffffffffffffffffffffffffffffffffffffff168273ffffffffffffffffffffffffffffffffffffffff1614156113c4576040517f08c379a00000000000000000000000000000000000000000000000000000000081526004016113bb90616fef565b60405180910390fd5b601260008373ffffffffffffffffffffffffffffffffffffffff1673ffffffffffffffffffffffffffffffffffffffff16815260200190815260200160002080548060200260200160405190810160405280929190818152602001828054801561144d57602002820191906000526020600020905b815481526020019060010190808311611439575b50505050509050919050565b600b60019054906101000a900460ff1681565b601360009054906101000a900473ffffffffffffffffffffffffffffffffffffffff1681565b60065481565b6000600c60008373ffffffffffffffffffffffffffffffffffffffff1673ffffffffffffffffffffffffffffffffffffffff168152602001908152602001600020549050919050565b600060026000541415611529576040517f08c379a0000000000000000000000000000000000000000000000000000000008152600401611520906170cf565b60405180910390fd5b60026000819055506000600981111561153e57fe5b6115466119aa565b14611586576040517f08c379a000000000000000000000000000000000000000000000000000000000815260040161157d90616daf565b60405180910390fd5b6008549050600160008190555090565b6000600260005414156115de576040517f08c379a00000000000000000000000000000000000000000000000000000000081526004016115d5906170cf565b60405180910390fd5b600260008190555060006115f06119aa565b9050600060098111156115ff57fe5b81146116235761161b81600981111561161457fe5b6002612a62565b915050611633565b61162f33600085613895565b9150505b6001600081905550919050565b61166c601360009054906101000a900473ffffffffffffffffffffffffffffffffffffffff1682613d41565b50565b60095481565b6040518060400160405280600581526020017f636546494c00000000000000000000000000000000000000000000000000000081525081565b60008060006116bc84613ec8565b91509150600060038111156116cd57fe5b8260038111156116d957fe5b14611719576040517f08c379a000000000000000000000000000000000000000000000000000000000815260040161171090616f0f565b60405180910390fd5b8092505050919050565b600080600981111561173157fe5b6117396119aa565b14611779576040517f08c379a000000000000000000000000000000000000000000000000000000000815260040161177090616daf565b60405180910390fd5b61178282610b7e565b9050919050565b6000601060008373ffffffffffffffffffffffffffffffffffffffff1673ffffffffffffffffffffffffffffffffffffffff168152602001908152602001600020549050919050565b60006002600054141561181a576040517f08c379a0000000000000000000000000000000000000000000000000000000008152600401611811906170cf565b60405180910390fd5b600260008190555061182b82613fca565b73ffffffffffffffffffffffffffffffffffffffff163373ffffffffffffffffffffffffffffffffffffffff1614611898576040517f08c379a000000000000000000000000000000000000000000000000000000000815260040161188f90616e0f565b60405180910390fd5b60006118a26119aa565b9050600060098111156118b157fe5b81146118d5576118cd8160098111156118c657fe5b6002612a62565b9150506118e9565b6118df33846141a3565b5080915050809150505b6001600081905550919050565b60006002600054141561193e576040517f08c379a0000000000000000000000000000000000000000000000000000000008152600401611935906170cf565b60405180910390fd5b600260008190555060006119506119aa565b90506000600981111561195f57fe5b81146119835761197b81600981111561197457fe5b6002612a62565b915050611997565b61198d33846144c6565b5080915050809150505b6001600081905550919050565b60115481565b6000806119b5614923565b905060006006549050818114156119dc57600060098111156119d357fe5b92505050611d8f565b60006119e66137de565b90506000600854905060006009549050600060075490506000600460009054906101000a900473ffffffffffffffffffffffffffffffffffffffff1673ffffffffffffffffffffffffffffffffffffffff166315f240538686866040518463ffffffff1660e01b8152600401611a5e9392919061718a565b60206040518083038186803b158015611a7657600080fd5b505afa158015611a8a573d6000803e3d6000fd5b505050506040513d601f19601f82011682018060405250810190611aae9190616097565b9050600080611abd898961492b565b9150915060006003811115611ace57fe5b826003811115611ada57fe5b14611b1a576040517f08c379a0000000000000000000000000000000000000000000000000000000008152600401611b1190616faf565b60405180910390fd5b611b22615c15565b600080600080611b4060405180602001604052808a81525087614953565b809650819850505060006003811115611b5557fe5b876003811115611b6157fe5b14611b9357611b7e60046007896003811115611b7957fe5b6149cb565b9e505050505050505050505050505050611d8f565b611b9d858c613785565b809550819850505060006003811115611bb257fe5b876003811115611bbe57fe5b14611bf057611bdb60046003896003811115611bd657fe5b6149cb565b9e505050505050505050505050505050611d8f565b611bfa848c614a33565b809450819850505060006003811115611c0f57fe5b876003811115611c1b57fe5b14611c4d57611c3860046005896003811115611c3357fe5b6149cb565b9e505050505050505050505050505050611d8f565b611c686040518060200160405280600554815250858c614a62565b809350819850505060006003811115611c7d57fe5b876003811115611c8957fe5b14611cbb57611ca660046006896003811115611ca157fe5b6149cb565b9e505050505050505050505050505050611d8f565b611cc6858a8b614a62565b809250819850505060006003811115611cdb57fe5b876003811115611ce757fe5b14611d1857611d03600480896003811115611cfe57fe5b6149cb565b9e505050505050505050505050505050611d8f565b8d6006819055508060078190555082600881905550816009819055507f4dec04e750ca11537cabcd8a9eab06494de08da3735bc8871cd41250e190bc048c858386604051611d6994939291906171c1565b60405180910390a160006009811115611d7e57fe5b9e5050505050505050505050505050505b90565b600060026000541415611dda576040517f08c379a0000000000000000000000000000000000000000000000000000000008152600401611dd1906170cf565b60405180910390fd5b600260008190555060006009811115611def57fe5b611dfb33338686613318565b149050600160008190555092915050565b60075481565b6000600460009054906101000a900473ffffffffffffffffffffffffffffffffffffffff1673ffffffffffffffffffffffffffffffffffffffff1663b8168816611e5a6137de565b6008546009546005546040518563ffffffff1660e01b8152600401611e8294939291906171c1565b60206040518083038186803b158015611e9a57600080fd5b505afa158015611eae573d6000803e3d6000fd5b505050506040513d601f19601f82011682018060405250810190611ed29190616097565b905090565b600160009054906101000a900473ffffffffffffffffffffffffffffffffffffffff1681565b6000600260009054906101000a900473ffffffffffffffffffffffffffffffffffffffff1673ffffffffffffffffffffffffffffffffffffffff163373ffffffffffffffffffffffffffffffffffffffff1614611f6757611f6060016000612a62565b9050612019565b6000600360009054906101000a900473ffffffffffffffffffffffffffffffffffffffff16905082600360006101000a81548173ffffffffffffffffffffffffffffffffffffffff021916908373ffffffffffffffffffffffffffffffffffffffff1602179055507fca4f2f25d0898edd99413412fb94012f9e54ec8142f9b093e7720646a95b16a98184604051612000929190616b4f565b60405180910390a16000600981111561201557fe5b9150505b919050565b600060026000541415612066576040517f08c379a000000000000000000000000000000000000000000000000000000000815260040161205d906170cf565b60405180910390fd5b600260008190555060006120786119aa565b90506000600981111561208757fe5b81146120ab576120a381600981111561209c57fe5b6002612a62565b9150506120b9565b6120b53384614ac3565b9150505b6001600081905550919050565b60008060098111156120d457fe5b6120dc6119aa565b1461211c576040517f08c379a000000000000000000000000000000000000000000000000000000000815260040161211390616daf565b60405180910390fd5b6121246110a0565b905090565b600b60009054906101000a900460ff1681565b600060026000541415612184576040517f08c379a000000000000000000000000000000000000000000000000000000000815260040161217b906170cf565b60405180910390fd5b600260008190555060006121966119aa565b9050600060098111156121a557fe5b81146121c9576121c18160098111156121ba57fe5b6002612a62565b9150506121d7565b6121d33384614e0c565b9150505b6001600081905550919050565b60006002600054141561222c576040517f08c379a0000000000000000000000000000000000000000000000000000000008152600401612223906170cf565b60405180910390fd5b6002600081905550600061223e6119aa565b90506000600981111561224d57fe5b81146122715761226981600981111561226257fe5b6002612a62565b91505061227e565b61227a83615241565b9150505b6001600081905550919050565b6000600260009054906101000a900473ffffffffffffffffffffffffffffffffffffffff1673ffffffffffffffffffffffffffffffffffffffff163373ffffffffffffffffffffffffffffffffffffffff16146122f5576122ee60016000612a62565b9050612371565b811515600b60009054906101000a900460ff161515146123615781600b60006101000a81548160ff0219169083151502179055507f7c11d7b79bdcc9099218ef3518d3a3202389ab06e9690c937f724618b9e0c46f826040516123589190616d0e565b60405180910390a15b6000600981111561236e57fe5b90505b919050565b6000600260005414156123be576040517f08c379a00000000000000000000000000000000000000000000000000000000081526004016123b5906170cf565b60405180910390fd5b600260008190555060006123d06119aa565b9050600060098111156123df57fe5b8114612403576123fb8160098111156123f457fe5b6002612a62565b915050612413565b61240f33846000613895565b9150505b6001600081905550919050565b6000600d60008473ffffffffffffffffffffffffffffffffffffffff1673ffffffffffffffffffffffffffffffffffffffff16815260200190815260200160002060008373ffffffffffffffffffffffffffffffffffffffff1673ffffffffffffffffffffffffffffffffffffffff16815260200190815260200160002054905092915050565b6000600360009054906101000a900473ffffffffffffffffffffffffffffffffffffffff1673ffffffffffffffffffffffffffffffffffffffff163373ffffffffffffffffffffffffffffffffffffffff161415806125325750600073ffffffffffffffffffffffffffffffffffffffff163373ffffffffffffffffffffffffffffffffffffffff16145b1561254a5761254360016000612a62565b9050612705565b6000600260009054906101000a900473ffffffffffffffffffffffffffffffffffffffff1690506000600360009054906101000a900473ffffffffffffffffffffffffffffffffffffffff169050600360009054906101000a900473ffffffffffffffffffffffffffffffffffffffff16600260006101000a81548173ffffffffffffffffffffffffffffffffffffffff021916908373ffffffffffffffffffffffffffffffffffffffff1602179055506000600360006101000a81548173ffffffffffffffffffffffffffffffffffffffff021916908373ffffffffffffffffffffffffffffffffffffffff1602179055507ff9ffabca9c8276e99321725bcb43fb076a6c66a54b7f21c4e8146d8519b417dc82600260009054906101000a900473ffffffffffffffffffffffffffffffffffffffff16604051612690929190616b4f565b60405180910390a17fca4f2f25d0898edd99413412fb94012f9e54ec8142f9b093e7720646a95b16a981600360009054906101000a900473ffffffffffffffffffffffffffffffffffffffff166040516126eb929190616b4f565b60405180910390a16000600981111561270057fe5b925050505b90565b600060026000541415612750576040517f08c379a0000000000000000000000000000000000000000000000000000000008152600401612747906170cf565b60405180910390fd5b600260008190555060006127626119aa565b90506000600981111561277157fe5b81146127955761278d81600981111561278657fe5b6002612a62565b9150506127a2565b61279e8361532b565b9150505b6001600081905550919050565b600460009054906101000a900473ffffffffffffffffffffffffffffffffffffffff1681565b600260009054906101000a900473ffffffffffffffffffffffffffffffffffffffff1681565b6000600460009054906101000a900473ffffffffffffffffffffffffffffffffffffffff1673ffffffffffffffffffffffffffffffffffffffff166315f240536128436137de565b6008546009546040518463ffffffff1660e01b81526004016128679392919061718a565b60206040518083038186803b15801561287f57600080fd5b505afa158015612893573d6000803e3d6000fd5b505050506040513d601f19601f820116820180604052508101906128b79190616097565b905090565b600060026000541415612904576040517f08c379a00000000000000000000000000000000000000000000000000000000081526004016128fb906170cf565b60405180910390fd5b600260008190555060006129166119aa565b90506000600981111561292557fe5b81146129495761294181600981111561293a57fe5b6002612a62565b915050612956565b61295283615509565b9150505b6001600081905550919050565b6000806000806000806000612976615c15565b61297f89613ec8565b80945081955050506000600381111561299457fe5b8460038111156129a057fe5b146129bc57836000806000975097509750975050505050612a5b565b601060008a73ffffffffffffffffffffffffffffffffffffffff1673ffffffffffffffffffffffffffffffffffffffff168152602001908152602001600020549150612a0883836155f3565b809250819550505060006003811115612a1d57fe5b846003811115612a2957fe5b14612a4557836000806000975097509750975050505050612a5b565b6000816000015184849750975097509750505050505b9193509193565b60007f45b96fe442630264581b197e84bbada861235052c5a1aadfff9ea4e40a969aa0836009811115612a9157fe5b836027811115612a9d57fe5b6000604051612aae93929190617153565b60405180910390a1826009811115612ac257fe5b905092915050565b600080612ad5615c28565b600e60008673ffffffffffffffffffffffffffffffffffffffff1673ffffffffffffffffffffffffffffffffffffffff16815260200190815260200160002060010154816060018181525050612b2a85613ec8565b826020018360800182815250826003811115612b4257fe5b6003811115612b4d57fe5b815250505060006003811115612b5f57fe5b81602001516003811115612b6f57fe5b14612b9c57612b906004601983602001516003811115612b8b57fe5b6149cb565b60009250925050612e4a565b7fffffffffffffffffffffffffffffffffffffffffffffffffffffffffffffffff841415612bd7578060800151816040018181525050612be2565b838160400181815250505b612c13600160009054906101000a900473ffffffffffffffffffffffffffffffffffffffff168783604001516156be565b8160e0018181525050612c2e81608001518260e0015161492b565b826020018360a00182815250826003811115612c4657fe5b6003811115612c5157fe5b815250505060006003811115612c6357fe5b81602001516003811115612c7357fe5b14612cb3576040517f08c379a0000000000000000000000000000000000000000000000000000000008152600401612caa90616f6f565b60405180910390fd5b612cc36008548260e0015161492b565b826020018360c00182815250826003811115612cdb57fe5b6003811115612ce657fe5b815250505060006003811115612cf857fe5b81602001516003811115612d0857fe5b14612d48576040517f08c379a0000000000000000000000000000000000000000000000000000000008152600401612d3f90616fcf565b60405180910390fd5b8060a00151600e60008773ffffffffffffffffffffffffffffffffffffffff1673ffffffffffffffffffffffffffffffffffffffff16815260200190815260200160002060000181905550600754600e60008773ffffffffffffffffffffffffffffffffffffffff1673ffffffffffffffffffffffffffffffffffffffff168152602001908152602001600020600101819055508060c001516008819055507f1a2a22cb034d26d1854bdc6666a5b91fe25efbbb5dcad3b0355478d6f5c362a186868360e001518460a001518560c00151604051612e2a959493929190616bf4565b60405180910390a160006009811115612e3f57fe5b8160e0015192509250505b935093915050565b600080601060008573ffffffffffffffffffffffffffffffffffffffff1673ffffffffffffffffffffffffffffffffffffffff16815260200190815260200160002054141580612ee257506000600c60008573ffffffffffffffffffffffffffffffffffffffff1673ffffffffffffffffffffffffffffffffffffffff1681526020019081526020016000205414155b15612efa57612ef360036020612a62565b9050613237565b612f02615c83565b612f0b83612963565b84602001856080018660400187606001848152508481525084815250846003811115612f3357fe5b6003811115612f3e57fe5b8152505050505060006003811115612f5257fe5b81602001516003811115612f6257fe5b14612f8b57612f836004602183602001516003811115612f7e57fe5b6149cb565b915050613237565b60115481608001511015612fad57612fa560036022612a62565b915050613237565b8060400151612fe3600160009054906101000a900473ffffffffffffffffffffffffffffffffffffffff168684604001516156be565b14613023576040517f08c379a000000000000000000000000000000000000000000000000000000000815260040161301a90616f8f565b60405180910390fd5b613033600854826040015161492b565b826020018360a0018281525082600381111561304b57fe5b600381111561305657fe5b81525050506000600381111561306857fe5b8160200151600381111561307857fe5b146130b8576040517f08c379a00000000000000000000000000000000000000000000000000000000081526004016130af90616f4f565b60405180910390fd5b6000600e60008573ffffffffffffffffffffffffffffffffffffffff1673ffffffffffffffffffffffffffffffffffffffff16815260200190815260200160002060000181905550600754600e60008573ffffffffffffffffffffffffffffffffffffffff1673ffffffffffffffffffffffffffffffffffffffff168152602001908152602001600020600101819055508060a001516008819055506000601060008573ffffffffffffffffffffffffffffffffffffffff1673ffffffffffffffffffffffffffffffffffffffff168152602001908152602001600020819055508060600151601060008673ffffffffffffffffffffffffffffffffffffffff1673ffffffffffffffffffffffffffffffffffffffff168152602001908152602001600020819055507f08b197b6ae66d18ee6fa20a826a84579a925b9e646a3bf19e96f59ed568c268884848360400151846060015160405161321e9493929190616baf565b60405180910390a16000600981111561323357fe5b9150505b92915050565b6000806000600a549050600081141561326457600066071afd498d00009250925050613314565b600061326e6137de565b9050600061327a615c15565b600061328b8460085460095461590f565b8094508192505050600060038111156132a057fe5b8160038111156132ac57fe5b146132c257806000965096505050505050613314565b6132cc83866155f3565b8093508192505050600060038111156132e157fe5b8160038111156132ed57fe5b1461330357806000965096505050505050613314565b600082600001519650965050505050505b9091565b60008273ffffffffffffffffffffffffffffffffffffffff168473ffffffffffffffffffffffffffffffffffffffff1614806133805750600073ffffffffffffffffffffffffffffffffffffffff168373ffffffffffffffffffffffffffffffffffffffff16145b156133985761339160026025612a62565b905061377d565b60008473ffffffffffffffffffffffffffffffffffffffff168673ffffffffffffffffffffffffffffffffffffffff1614156133f6577fffffffffffffffffffffffffffffffffffffffffffffffffffffffffffffffff9050613476565b600d60008673ffffffffffffffffffffffffffffffffffffffff1673ffffffffffffffffffffffffffffffffffffffff16815260200190815260200160002060008773ffffffffffffffffffffffffffffffffffffffff1673ffffffffffffffffffffffffffffffffffffffff1681526020019081526020016000205490505b600080600080613486858861492b565b80945081955050506000600381111561349b57fe5b8460038111156134a757fe5b146134c4576134b860046025612a62565b9550505050505061377d565b61350d600c60008b73ffffffffffffffffffffffffffffffffffffffff1673ffffffffffffffffffffffffffffffffffffffff168152602001908152602001600020548861492b565b80935081955050506000600381111561352257fe5b84600381111561352e57fe5b1461354b5761353f60046026612a62565b9550505050505061377d565b613594600c60008a73ffffffffffffffffffffffffffffffffffffffff1673ffffffffffffffffffffffffffffffffffffffff1681526020019081526020016000205488614a33565b8092508195505050600060038111156135a957fe5b8460038111156135b557fe5b146135d2576135c660046027612a62565b9550505050505061377d565b81600c60008b73ffffffffffffffffffffffffffffffffffffffff1673ffffffffffffffffffffffffffffffffffffffff1681526020019081526020016000208190555080600c60008a73ffffffffffffffffffffffffffffffffffffffff1673ffffffffffffffffffffffffffffffffffffffff168152602001908152602001600020819055507fffffffffffffffffffffffffffffffffffffffffffffffffffffffffffffffff85146137035782600d60008b73ffffffffffffffffffffffffffffffffffffffff1673ffffffffffffffffffffffffffffffffffffffff16815260200190815260200160002060008c73ffffffffffffffffffffffffffffffffffffffff1673ffffffffffffffffffffffffffffffffffffffff168152602001908152602001600020819055505b8773ffffffffffffffffffffffffffffffffffffffff168973ffffffffffffffffffffffffffffffffffffffff167fddf252ad1be2c89b69c2b068fc378daa952ba7f163c4a11628f55a4df523b3ef89604051613760919061710f565b60405180910390a36000600981111561377557fe5b955050505050505b949350505050565b6000806000806137958686614953565b91509150600060038111156137a657fe5b8260038111156137b257fe5b146137c5578160009350935050506137d7565b60006137d082615968565b9350935050505b9250929050565b600080600160009054906101000a900473ffffffffffffffffffffffffffffffffffffffff1690508073ffffffffffffffffffffffffffffffffffffffff166370a08231306040518263ffffffff1660e01b815260040161383f9190616b34565b60206040518083038186803b15801561385757600080fd5b505afa15801561386b573d6000803e3d6000fd5b505050506040513d601f19601f8201168201806040525081019061388f9190616097565b91505090565b6000808314806138a55750600082145b6138e4576040517f08c379a00000000000000000000000000000000000000000000000000000000081526004016138db906170af565b60405180910390fd5b6138ec615ccf565b6138f461323d565b82602001836040018281525082600381111561390c57fe5b600381111561391757fe5b81525050506000600381111561392957fe5b8160200151600381111561393957fe5b146139625761395a600460158360200151600381111561395557fe5b6149cb565b915050613d3a565b6000841115613a0457838160600181815250506139916040518060200160405280836040015181525085613785565b8260200183608001828152508260038111156139a957fe5b60038111156139b457fe5b8152505050600060038111156139c657fe5b816020015160038111156139d657fe5b146139ff576139f760046013836020015160038111156139f257fe5b6149cb565b915050613d3a565b613a99565b613a208360405180602001604052808460400151815250615987565b826020018360600182815250826003811115613a3857fe5b6003811115613a4357fe5b815250505060006003811115613a5557fe5b81602001516003811115613a6557fe5b14613a8e57613a866004601483602001516003811115613a8157fe5b6149cb565b915050613d3a565b828160800181815250505b613aa9600a54826060015161492b565b826020018360a00182815250826003811115613ac157fe5b6003811115613acc57fe5b815250505060006003811115613ade57fe5b81602001516003811115613aee57fe5b14613b1757613b0f6004601783602001516003811115613b0a57fe5b6149cb565b915050613d3a565b613b64600c60008773ffffffffffffffffffffffffffffffffffffffff1673ffffffffffffffffffffffffffffffffffffffff16815260200190815260200160002054826060015161492b565b826020018360c00182815250826003811115613b7c57fe5b6003811115613b8757fe5b815250505060006003811115613b9957fe5b81602001516003811115613ba957fe5b14613bd257613bca6004601683602001516003811115613bc557fe5b6149cb565b915050613d3a565b8060800151613bdf6137de565b1015613bf957613bf160066018612a62565b915050613d3a565b613c2a600160009054906101000a900473ffffffffffffffffffffffffffffffffffffffff168683608001516159e0565b8060a00151600a819055508060c00151600c60008773ffffffffffffffffffffffffffffffffffffffff1673ffffffffffffffffffffffffffffffffffffffff168152602001908152602001600020819055503073ffffffffffffffffffffffffffffffffffffffff168573ffffffffffffffffffffffffffffffffffffffff167fddf252ad1be2c89b69c2b068fc378daa952ba7f163c4a11628f55a4df523b3ef8360600151604051613cde919061710f565b60405180910390a37fe5b754fb1abb7f01b499791d0b820ae3b6af3424ac1c59768edb53f4ec31a9298582608001518360600151604051613d2193929190616c70565b60405180910390a160006009811115613d3657fe5b9150505b9392505050565b6000808373ffffffffffffffffffffffffffffffffffffffff166040518060400160405280601681526020017f74616b654f776e6572736869702875696e7432353629000000000000000000008152508051906020012084604051602401613da9919061710f565b604051602081830303815290604052907bffffffffffffffffffffffffffffffffffffffffffffffffffffffff19166020820180517bffffffffffffffffffffffffffffffffffffffffffffffffffffffff8381831617835250505050604051613e139190616b1d565b6000604051808303816000865af19150503d8060008114613e50576040519150601f19603f3d011682016040523d82523d6000602084013e613e55565b606091505b5091509150818015613e835750600081511480613e82575080806020019051810190613e81919061601c565b5b5b613ec2576040517f08c379a0000000000000000000000000000000000000000000000000000000008152600401613eb990616e8f565b60405180910390fd5b50505050565b600080600080600080600e60008873ffffffffffffffffffffffffffffffffffffffff1673ffffffffffffffffffffffffffffffffffffffff1681526020019081526020016000209050600081600001541415613f2f576000809550955050505050613fc5565b613f3f8160000154600754615ac8565b809450819550505060006003811115613f5457fe5b846003811115613f6057fe5b14613f75578360009550955050505050613fc5565b613f83838260010154615b15565b809350819550505060006003811115613f9857fe5b846003811115613fa457fe5b14613fb9578360009550955050505050613fc5565b60008295509550505050505b915091565b6000806000601360009054906101000a900473ffffffffffffffffffffffffffffffffffffffff1673ffffffffffffffffffffffffffffffffffffffff166040518060400160405280601081526020017f6f776e65724f662875696e7432353629000000000000000000000000000000008152508051906020012085604051602401614056919061710f565b604051602081830303815290604052907bffffffffffffffffffffffffffffffffffffffffffffffffffffffff19166020820180517bffffffffffffffffffffffffffffffffffffffffffffffffffffffff83818316178352505050506040516140c09190616b1d565b6000604051808303816000865af19150503d80600081146140fd576040519150601f19603f3d011682016040523d82523d6000602084013e614102565b606091505b509150915060008180602001905181019061411d9190615f03565b90508280156141595750600073ffffffffffffffffffffffffffffffffffffffff168173ffffffffffffffffffffffffffffffffffffffff1614155b614198576040517f08c379a000000000000000000000000000000000000000000000000000000000815260040161418f9061704f565b60405180910390fd5b809350505050919050565b6000806000600c60008673ffffffffffffffffffffffffffffffffffffffff1673ffffffffffffffffffffffffffffffffffffffff1681526020019081526020016000205414614204576141f96003601c612a62565b6000915091506144bf565b61420c615d22565b61421584615b46565b816080018181525050601260008673ffffffffffffffffffffffffffffffffffffffff1673ffffffffffffffffffffffffffffffffffffffff1681526020019081526020016000208490806001815401808255809150506001900390600052602060002001600090919091909150556142b0601360009054906101000a900473ffffffffffffffffffffffffffffffffffffffff1685613d41565b6142c0600f548260800151614a33565b8260200183604001828152508260038111156142d857fe5b60038111156142e357fe5b8152505050600060038111156142f557fe5b8160200151600381111561430557fe5b14614345576040517f08c379a000000000000000000000000000000000000000000000000000000000815260040161433c906170ef565b60405180910390fd5b614392601060008773ffffffffffffffffffffffffffffffffffffffff1673ffffffffffffffffffffffffffffffffffffffff168152602001908152602001600020548260800151614a33565b8260200183606001828152508260038111156143aa57fe5b60038111156143b557fe5b8152505050600060038111156143c757fe5b816020015160038111156143d757fe5b14614417576040517f08c379a000000000000000000000000000000000000000000000000000000000815260040161440e90616e6f565b60405180910390fd5b8060400151600f819055508060600151601060008773ffffffffffffffffffffffffffffffffffffffff1673ffffffffffffffffffffffffffffffffffffffff168152602001908152602001600020819055507f94c9d5464fed48366596c718219e5fbd3c0c61c1a21391bf239075e9de5a727a85826080015160405161449f929190616c47565b60405180910390a1600060098111156144b457fe5b816080015192509250505b9250929050565b600080600b60009054906101000a900460ff16158061452557506000601060008673ffffffffffffffffffffffffffffffffffffffff1673ffffffffffffffffffffffffffffffffffffffff1681526020019081526020016000205414155b15614541576145366003600e612a62565b60009150915061491c565b614549615d67565b61455161323d565b82602001836040018281525082600381111561456957fe5b600381111561457457fe5b81525050506000600381111561458657fe5b8160200151600381111561459657fe5b146145c3576145b760046010836020015160038111156145b257fe5b6149cb565b6000925092505061491c565b6145f0600160009054906101000a900473ffffffffffffffffffffffffffffffffffffffff1686866156be565b8160c00181815250506146198160c0015160405180602001604052808460400151815250615987565b82602001836060018281525082600381111561463157fe5b600381111561463c57fe5b81525050506000600381111561464e57fe5b8160200151600381111561465e57fe5b1461469e576040517f08c379a00000000000000000000000000000000000000000000000000000000081526004016146959061702f565b60405180910390fd5b6146ae600a548260600151614a33565b8260200183608001828152508260038111156146c657fe5b60038111156146d157fe5b8152505050600060038111156146e357fe5b816020015160038111156146f357fe5b14614733576040517f08c379a000000000000000000000000000000000000000000000000000000000815260040161472a9061708f565b60405180910390fd5b614780600c60008773ffffffffffffffffffffffffffffffffffffffff1673ffffffffffffffffffffffffffffffffffffffff168152602001908152602001600020548260600151614a33565b826020018360a0018281525082600381111561479857fe5b60038111156147a357fe5b8152505050600060038111156147b557fe5b816020015160038111156147c557fe5b14614805576040517f08c379a00000000000000000000000000000000000000000000000000000000081526004016147fc90616eef565b60405180910390fd5b8060800151600a819055508060a00151600c60008773ffffffffffffffffffffffffffffffffffffffff1673ffffffffffffffffffffffffffffffffffffffff168152602001908152602001600020819055507f4c209b5fc8ad50758f13e2e1088ba56a560dff690a1c6fef26394f4c03821c4f858260c00151836060015160405161489393929190616c70565b60405180910390a18473ffffffffffffffffffffffffffffffffffffffff163073ffffffffffffffffffffffffffffffffffffffff167fddf252ad1be2c89b69c2b068fc378daa952ba7f163c4a11628f55a4df523b3ef83606001516040516148fc919061710f565b60405180910390a36000600981111561491157fe5b8160c0015192509250505b9250929050565b600043905090565b6000808383116149435760008385039150915061494c565b60036000915091505b9250929050565b600061495d615c15565b60008061496e866000015186615ac8565b915091506000600381111561497f57fe5b82600381111561498b57fe5b146149ac5781604051806020016040528060008152509350935050506149c4565b60006040518060200160405280838152509350935050505b9250929050565b60007f45b96fe442630264581b197e84bbada861235052c5a1aadfff9ea4e40a969aa08460098111156149fa57fe5b846027811115614a0657fe5b84604051614a169392919061718a565b60405180910390a1836009811115614a2a57fe5b90509392505050565b60008060008385019050848110614a51576000819250925050614a5b565b6002600092509250505b9250929050565b600080600080614a728787614953565b9150915060006003811115614a8357fe5b826003811115614a8f57fe5b14614aa257816000935093505050614abb565b614ab4614aae82615968565b86614a33565b9350935050505b935093915050565b6000614acd615dba565b614ad684613ec8565b826020018360600182815250826003811115614aee57fe5b6003811115614af957fe5b815250505060006003811115614b0b57fe5b81602001516003811115614b1b57fe5b14614b4457614b3c6004601d83602001516003811115614b3757fe5b6149cb565b915050614e06565b601060008573ffffffffffffffffffffffffffffffffffffffff1673ffffffffffffffffffffffffffffffffffffffff168152602001908152602001600020548160800181815250507fffffffffffffffffffffffffffffffffffffffffffffffffffffffffffffffff831415614be657806060015181608001511015614bcc576000614bd8565b80606001518160800151035b816040018181525050614bf1565b828160400181815250505b614c3e601060008673ffffffffffffffffffffffffffffffffffffffff1673ffffffffffffffffffffffffffffffffffffffff16815260200190815260200160002054826040015161492b565b826020018360a00182815250826003811115614c5657fe5b6003811115614c6157fe5b815250505060006003811115614c7357fe5b81602001516003811115614c8357fe5b14614cac57614ca46004601e83602001516003811115614c9f57fe5b6149cb565b915050614e06565b80606001518160a001511015614cd057614cc86009601f612a62565b915050614e06565b614ce0600f54826040015161492b565b826020018360c00182815250826003811115614cf857fe5b6003811115614d0357fe5b815250505060006003811115614d1557fe5b81602001516003811115614d2557fe5b14614d65576040517f08c379a0000000000000000000000000000000000000000000000000000000008152600401614d5c90616d8f565b60405180910390fd5b8060c00151600f819055508060a00151601060008673ffffffffffffffffffffffffffffffffffffffff1673ffffffffffffffffffffffffffffffffffffffff168152602001908152602001600020819055507f925b1add21f66e1e2c8c9e9fffb3e0f4105df02dbd05c280f2fe4d19f5c50be5848260400151604051614ded929190616c47565b60405180910390a160006009811115614e0257fe5b9150505b92915050565b6000600b60019054906101000a900460ff16614e3557614e2e6003600c612a62565b905061523b565b614e3d615e0d565b614e4684613ec8565b826000018360400182815250826003811115614e5e57fe5b6003811115614e6957fe5b815250505060006003811115614e7b57fe5b81600001516003811115614e8b57fe5b14614eb457614eac6004600883600001516003811115614ea757fe5b6149cb565b91505061523b565b7fffffffffffffffffffffffffffffffffffffffffffffffffffffffffffffffff831415614f82578060400151601060008673ffffffffffffffffffffffffffffffffffffffff1673ffffffffffffffffffffffffffffffffffffffff1681526020019081526020016000205411614f2d576000614f74565b8060400151601060008673ffffffffffffffffffffffffffffffffffffffff1673ffffffffffffffffffffffffffffffffffffffff16815260200190815260200160002054035b816020018181525050614f8d565b828160200181815250505b8060200151614f9a6137de565b1015614fb457614fac60066009612a62565b91505061523b565b614fc681604001518260200151614a33565b826000018360600182815250826003811115614fde57fe5b6003811115614fe957fe5b815250505060006003811115614ffb57fe5b8160000151600381111561500b57fe5b146150345761502c6004600b8360000151600381111561502757fe5b6149cb565b91505061523b565b8060600151601060008673ffffffffffffffffffffffffffffffffffffffff1673ffffffffffffffffffffffffffffffffffffffff1681526020019081526020016000205410156150935761508b6009600d612a62565b91505061523b565b6150a36008548260200151614a33565b8260000183608001828152508260038111156150bb57fe5b60038111156150c657fe5b8152505050600060038111156150d857fe5b816000015160038111156150e857fe5b14615111576151096004600a8360000151600381111561510457fe5b6149cb565b91505061523b565b615142600160009054906101000a900473ffffffffffffffffffffffffffffffffffffffff168583602001516159e0565b8060600151600e60008673ffffffffffffffffffffffffffffffffffffffff1673ffffffffffffffffffffffffffffffffffffffff16815260200190815260200160002060000181905550600754600e60008673ffffffffffffffffffffffffffffffffffffffff1673ffffffffffffffffffffffffffffffffffffffff1681526020019081526020016000206001018190555080608001516008819055507f13ed6866d4e1ee6da46f845c46d7e54120883d75c5ea9a2dacc1c4ca8984ab80848260200151836060015184608001516040516152229493929190616ca7565b60405180910390a16000600981111561523757fe5b9150505b92915050565b6000600260009054906101000a900473ffffffffffffffffffffffffffffffffffffffff1673ffffffffffffffffffffffffffffffffffffffff163373ffffffffffffffffffffffffffffffffffffffff16146152ab576152a460016000612a62565b9050615326565b670de0b6b3a76400008210156152ce576152c760026024612a62565b9050615326565b60006011549050826011819055507f389ce8cc8e8243c4ee80c30e284539a8f6fa01c546c8f3f3d76093aace77367e818460405161530d92919061712a565b60405180910390a16000600981111561532257fe5b9150505b919050565b600080600260009054906101000a900473ffffffffffffffffffffffffffffffffffffffff1673ffffffffffffffffffffffffffffffffffffffff163373ffffffffffffffffffffffffffffffffffffffff16146153975761538f60016000612a62565b915050615504565b600460009054906101000a900473ffffffffffffffffffffffffffffffffffffffff1690508273ffffffffffffffffffffffffffffffffffffffff16632191f92a6040518163ffffffff1660e01b815260040160206040518083038186803b15801561540257600080fd5b505afa158015615416573d6000803e3d6000fd5b505050506040513d601f19601f8201168201806040525081019061543a919061601c565b615479576040517f08c379a000000000000000000000000000000000000000000000000000000000815260040161547090616ecf565b60405180910390fd5b82600460006101000a81548173ffffffffffffffffffffffffffffffffffffffff021916908373ffffffffffffffffffffffffffffffffffffffff1602179055507feb5cc99f497dc2d7106563bb080e06c9b09e3d81a38623ac4d0839575658d1fa81846040516154eb929190616d44565b60405180910390a16000600981111561550057fe5b9150505b919050565b6000600260009054906101000a900473ffffffffffffffffffffffffffffffffffffffff1673ffffffffffffffffffffffffffffffffffffffff163373ffffffffffffffffffffffffffffffffffffffff16146155735761556c60016000612a62565b90506155ee565b670de0b6b3a76400008211156155965761558f60026023612a62565b90506155ee565b60006005549050826005819055507faaa68312e2ea9d50e16af5068410ab56e1a1fd06037b1a35664812c30f82146081846040516155d592919061712a565b60405180910390a1600060098111156155ea57fe5b9150505b919050565b60006155fd615c15565b60008061561286670de0b6b3a7640000615ac8565b915091506000600381111561562357fe5b82600381111561562f57fe5b146156505781604051806020016040528060008152509350935050506156b7565b60008061565d8388615b15565b915091506000600381111561566e57fe5b82600381111561567a57fe5b1461569d57816040518060200160405280600081525095509550505050506156b7565b600060405180602001604052808381525095509550505050505b9250929050565b60008084905060008573ffffffffffffffffffffffffffffffffffffffff166370a08231306040518263ffffffff1660e01b81526004016156ff9190616b34565b60206040518083038186803b15801561571757600080fd5b505afa15801561572b573d6000803e3d6000fd5b505050506040513d601f19601f8201168201806040525081019061574f9190616097565b90508173ffffffffffffffffffffffffffffffffffffffff166323b872dd8630876040518463ffffffff1660e01b815260040161578e93929190616b78565b600060405180830381600087803b1580156157a857600080fd5b505af11580156157bc573d6000803e3d6000fd5b5050505060003d600081146157d857602081146157e257600080fd5b60001991506157ee565b60206000803e60005191505b508061582f576040517f08c379a000000000000000000000000000000000000000000000000000000000815260040161582690616dcf565b60405180910390fd5b60008773ffffffffffffffffffffffffffffffffffffffff166370a08231306040518263ffffffff1660e01b815260040161586a9190616b34565b60206040518083038186803b15801561588257600080fd5b505afa158015615896573d6000803e3d6000fd5b505050506040513d601f19601f820116820180604052508101906158ba9190616097565b9050828110156158ff576040517f08c379a00000000000000000000000000000000000000000000000000000000081526004016158f690616e2f565b60405180910390fd5b8281039450505050509392505050565b60008060008061591f8787614a33565b915091506000600381111561593057fe5b82600381111561593c57fe5b1461594f57816000935093505050615960565b615959818661492b565b9350935050505b935093915050565b6000670de0b6b3a764000082600001518161597f57fe5b049050919050565b6000806000806159978686615b9c565b91509150600060038111156159a857fe5b8260038111156159b457fe5b146159c7578160009350935050506159d9565b60006159d282615968565b9350935050505b9250929050565b60008390508073ffffffffffffffffffffffffffffffffffffffff1663a9059cbb84846040518363ffffffff1660e01b8152600401615a20929190616c47565b600060405180830381600087803b158015615a3a57600080fd5b505af1158015615a4e573d6000803e3d6000fd5b5050505060003d60008114615a6a5760208114615a7457600080fd5b6000199150615a80565b60206000803e60005191505b5080615ac1576040517f08c379a0000000000000000000000000000000000000000000000000000000008152600401615ab890616e4f565b60405180910390fd5b5050505050565b6000806000841415615ae05760008091509150615b0e565b6000838502905083858281615af157fe5b0414615b0557600260009250925050615b0e565b60008192509250505b9250929050565b6000806000831415615b2e576001600091509150615b3f565b6000838581615b3957fe5b04915091505b9250929050565b600080821015615b8b576040517f08c379a0000000000000000000000000000000000000000000000000000000008152600401615b829061700f565b60405180910390fd5b68056bc75e2d631000009050919050565b6000615ba6615c15565b600080615bbb670de0b6b3a764000087615ac8565b9150915060006003811115615bcc57fe5b826003811115615bd857fe5b14615bf9578160405180602001604052806000815250935093505050615c0e565b615c078186600001516155f3565b9350935050505b9250929050565b6040518060200160405280600081525090565b60405180610100016040528060006009811115615c4157fe5b815260200160006003811115615c5357fe5b81526020016000815260200160008152602001600081526020016000815260200160008152602001600081525090565b6040518060c0016040528060006009811115615c9b57fe5b815260200160006003811115615cad57fe5b8152602001600081526020016000815260200160008152602001600081525090565b6040518060e0016040528060006009811115615ce757fe5b815260200160006003811115615cf957fe5b815260200160008152602001600081526020016000815260200160008152602001600081525090565b6040518060a0016040528060006009811115615d3a57fe5b815260200160006003811115615d4c57fe5b81526020016000815260200160008152602001600081525090565b6040518060e0016040528060006009811115615d7f57fe5b815260200160006003811115615d9157fe5b815260200160008152602001600081526020016000815260200160008152602001600081525090565b6040518060e0016040528060006009811115615dd257fe5b815260200160006003811115615de457fe5b815260200160008152602001600081526020016000815260200160008152602001600081525090565b6040518060a0016040528060006003811115615e2557fe5b8152602001600081526020016000815260200160008152602001600081525090565b600081359050615e568161737f565b92915050565b600081519050615e6b81617396565b92915050565b600081359050615e80816173ad565b92915050565b600081519050615e95816173ad565b92915050565b600081359050615eaa816173c4565b92915050565b600081359050615ebf816173db565b92915050565b600081519050615ed4816173db565b92915050565b600060208284031215615eec57600080fd5b6000615efa84828501615e47565b91505092915050565b600060208284031215615f1557600080fd5b6000615f2384828501615e5c565b91505092915050565b60008060408385031215615f3f57600080fd5b6000615f4d85828601615e47565b9250506020615f5e85828601615e47565b9150509250929050565b600080600060608486031215615f7d57600080fd5b6000615f8b86828701615e47565b9350506020615f9c86828701615e47565b9250506040615fad86828701615eb0565b9150509250925092565b60008060408385031215615fca57600080fd5b6000615fd885828601615e47565b9250506020615fe985828601615eb0565b9150509250929050565b60006020828403121561600557600080fd5b600061601384828501615e71565b91505092915050565b60006020828403121561602e57600080fd5b600061603c84828501615e86565b91505092915050565b60006020828403121561605757600080fd5b600061606584828501615e9b565b91505092915050565b60006020828403121561608057600080fd5b600061608e84828501615eb0565b91505092915050565b6000602082840312156160a957600080fd5b60006160b784828501615ec5565b91505092915050565b60006160cc8383616af0565b60208301905092915050565b6160e18161728c565b82525050565b60006160f282617231565b6160fc818561725f565b935061610783617221565b8060005b8381101561613857815161611f88826160c0565b975061612a83617252565b92505060018101905061610b565b5085935050505092915050565b61614e816172b0565b82525050565b600061615f8261723c565b6161698185617270565b935061617981856020860161733b565b80840191505092915050565b61618e81617305565b82525050565b61619d81617329565b82525050565b60006161ae82617247565b6161b8818561727b565b93506161c881856020860161733b565b6161d18161736e565b840191505092915050565b60006161e9603b8361727b565b91507f52454445454d5f434f4c4c41544552414c535f4e45575f544f54414c5f434f4c60008301527f4c41544552414c535f43414c43554c4154494f4e5f4641494c454400000000006020830152604082019050919050565b600061624f60168361727b565b91507f61636372756520696e746572657374206661696c6564000000000000000000006000830152602082019050919050565b600061628f60188361727b565b91507f544f4b454e5f5452414e534645525f494e5f4641494c454400000000000000006000830152602082019050919050565b60006162cf601f8361727b565b91507f62616c616e636520636f756c64206e6f742062652063616c63756c61746564006000830152602082019050919050565b600061630f600d8361727b565b91507f6d757374206265206f6e776572000000000000000000000000000000000000006000830152602082019050919050565b600061634f601a8361727b565b91507f544f4b454e5f5452414e534645525f494e5f4f564552464c4f570000000000006000830152602082019050919050565b600061638f60198361727b565b91507f544f4b454e5f5452414e534645525f4f55545f4641494c4544000000000000006000830152602082019050919050565b60006163cf60348361727b565b91507f434f4c4c41544552414c495a455f4e45575f4143434f554e545f42414c414e4360008301527f455f43414c43554c4154494f4e5f4641494c45440000000000000000000000006020830152604082019050919050565b6000616435601d8361727b565b91507f4e46544f776e6572736869703a205452414e534645525f4641494c45440000006000830152602082019050919050565b600061647560338361727b565b91507f636f6c6c61746572616c5261746553746f7265643a20636f6c6c61746572616c60008301527f52617465496e7465726e616c206661696c6564000000000000000000000000006020830152604082019050919050565b60006164db601c8361727b565b91507f6d61726b6572206d6574686f642072657475726e65642066616c7365000000006000830152602082019050919050565b600061651b602b8361727b565b91507f4d494e545f4e45575f4143434f554e545f42414c414e43455f43414c43554c4160008301527f54494f4e5f4641494c45440000000000000000000000000000000000000000006020830152604082019050919050565b600061658160378361727b565b91507f626f72726f7742616c616e636553746f7265643a20626f72726f7742616c616e60008301527f636553746f726564496e7465726e616c206661696c65640000000000000000006020830152604082019050919050565b60006165e760228361727b565b91507f63616e6e6f7420617070726f766520746f20746865207a65726f20616464726560008301527f73730000000000000000000000000000000000000000000000000000000000006020830152604082019050919050565b600061664d60358361727b565b91507f4c49515549444154455f424f52524f575f4e45575f544f54414c5f424f52524f60008301527f57535f43414c43554c4154494f4e5f4641494c454400000000000000000000006020830152604082019050919050565b60006166b3603a8361727b565b91507f52455041595f424f52524f575f4e45575f4143434f554e545f424f52524f575f60008301527f42414c414e43455f43414c43554c4154494f4e5f4641494c45440000000000006020830152604082019050919050565b600061671960238361727b565b91507f4c49515549444154455f424f52524f575f5452414e534645525f494e5f46414960008301527f4c454400000000000000000000000000000000000000000000000000000000006020830152604082019050919050565b600061677f601f8361727b565b91507f636f756c64206e6f742063616c63756c61746520626c6f636b2064656c7461006000830152602082019050919050565b60006167bf60318361727b565b91507f52455041595f424f52524f575f4e45575f544f54414c5f42414c414e43455f4360008301527f414c43554c4154494f4e5f4641494c45440000000000000000000000000000006020830152604082019050919050565b600061682560148361727b565b91507f616464726573732063616e74206265207a65726f0000000000000000000000006000830152602082019050919050565b6000616865600e8361727b565b91507f6d757374206265206578697374730000000000000000000000000000000000006000830152602082019050919050565b60006168a560208361727b565b91507f4d494e545f45584348414e47455f43414c43554c4154494f4e5f4641494c45446000830152602082019050919050565b60006168e560118361727b565b91507f6e66743a206e6f74207661696c642069640000000000000000000000000000006000830152602082019050919050565b600061692560358361727b565b91507f65786368616e67655261746553746f7265643a2065786368616e67655261746560008301527f53746f726564496e7465726e616c206661696c656400000000000000000000006020830152604082019050919050565b600061698b60288361727b565b91507f4d494e545f4e45575f544f54414c5f535550504c595f43414c43554c4154494f60008301527f4e5f4641494c45440000000000000000000000000000000000000000000000006020830152604082019050919050565b60006169f160348361727b565b91507f6f6e65206f662072656465656d546f6b656e73496e206f722072656465656d4160008301527f6d6f756e74496e206d757374206265207a65726f0000000000000000000000006020830152604082019050919050565b6000616a57601f8361727b565b91507f5265656e7472616e637947756172643a207265656e7472616e742063616c6c006000830152602082019050919050565b6000616a9760368361727b565b91507f434f4c4c41544552414c495a455f4e45575f544f54414c5f434f4c4c4154455260008301527f414c535f43414c43554c4154494f4e5f4641494c4544000000000000000000006020830152604082019050919050565b616af9816172ee565b82525050565b616b08816172ee565b82525050565b616b17816172f8565b82525050565b6000616b298284616154565b915081905092915050565b6000602082019050616b4960008301846160d8565b92915050565b6000604082019050616b6460008301856160d8565b616b7160208301846160d8565b9392505050565b6000606082019050616b8d60008301866160d8565b616b9a60208301856160d8565b616ba76040830184616aff565b949350505050565b6000608082019050616bc460008301876160d8565b616bd160208301866160d8565b616bde6040830185616aff565b616beb6060830184616aff565b95945050505050565b600060a082019050616c0960008301886160d8565b616c1660208301876160d8565b616c236040830186616aff565b616c306060830185616aff565b616c3d6080830184616aff565b9695505050505050565b6000604082019050616c5c60008301856160d8565b616c696020830184616aff565b9392505050565b6000606082019050616c8560008301866160d8565b616c926020830185616aff565b616c9f6040830184616aff565b949350505050565b6000608082019050616cbc60008301876160d8565b616cc96020830186616aff565b616cd66040830185616aff565b616ce36060830184616aff565b95945050505050565b60006020820190508181036000830152616d0681846160e7565b905092915050565b6000602082019050616d236000830184616145565b92915050565b6000602082019050616d3e6000830184616185565b92915050565b6000604082019050616d596000830185616185565b616d666020830184616185565b9392505050565b60006020820190508181036000830152616d8781846161a3565b905092915050565b60006020820190508181036000830152616da8816161dc565b9050919050565b60006020820190508181036000830152616dc881616242565b9050919050565b60006020820190508181036000830152616de881616282565b9050919050565b60006020820190508181036000830152616e08816162c2565b9050919050565b60006020820190508181036000830152616e2881616302565b9050919050565b60006020820190508181036000830152616e4881616342565b9050919050565b60006020820190508181036000830152616e6881616382565b9050919050565b60006020820190508181036000830152616e88816163c2565b9050919050565b60006020820190508181036000830152616ea881616428565b9050919050565b60006020820190508181036000830152616ec881616468565b9050919050565b60006020820190508181036000830152616ee8816164ce565b9050919050565b60006020820190508181036000830152616f088161650e565b9050919050565b60006020820190508181036000830152616f2881616574565b9050919050565b60006020820190508181036000830152616f48816165da565b9050919050565b60006020820190508181036000830152616f6881616640565b9050919050565b60006020820190508181036000830152616f88816166a6565b9050919050565b60006020820190508181036000830152616fa88161670c565b9050919050565b60006020820190508181036000830152616fc881616772565b9050919050565b60006020820190508181036000830152616fe8816167b2565b9050919050565b6000602082019050818103600083015261700881616818565b9050919050565b6000602082019050818103600083015261702881616858565b9050919050565b6000602082019050818103600083015261704881616898565b9050919050565b60006020820190508181036000830152617068816168d8565b9050919050565b6000602082019050818103600083015261708881616918565b9050919050565b600060208201905081810360008301526170a88161697e565b9050919050565b600060208201905081810360008301526170c8816169e4565b9050919050565b600060208201905081810360008301526170e881616a4a565b9050919050565b6000602082019050818103600083015261710881616a8a565b9050919050565b60006020820190506171246000830184616aff565b92915050565b600060408201905061713f6000830185616aff565b61714c6020830184616aff565b9392505050565b60006060820190506171686000830186616aff565b6171756020830185616aff565b6171826040830184616194565b949350505050565b600060608201905061719f6000830186616aff565b6171ac6020830185616aff565b6171b96040830184616aff565b949350505050565b60006080820190506171d66000830187616aff565b6171e36020830186616aff565b6171f06040830185616aff565b6171fd6060830184616aff565b95945050505050565b600060208201905061721b6000830184616b0e565b92915050565b6000819050602082019050919050565b600081519050919050565b600081519050919050565b600081519050919050565b6000602082019050919050565b600082825260208201905092915050565b600081905092915050565b600082825260208201905092915050565b6000617297826172ce565b9050919050565b60006172a9826172ce565b9050919050565b60008115159050919050565b60006172c78261728c565b9050919050565b600073ffffffffffffffffffffffffffffffffffffffff82169050919050565b6000819050919050565b600060ff82169050919050565b600061731082617317565b9050919050565b6000617322826172ce565b9050919050565b6000617334826172ee565b9050919050565b60005b8381101561735957808201518184015260208101905061733e565b83811115617368576000848401525b50505050565b6000601f19601f8301169050919050565b6173888161728c565b811461739357600080fd5b50565b61739f8161729e565b81146173aa57600080fd5b50565b6173b6816172b0565b81146173c157600080fd5b50565b6173cd816172bc565b81146173d857600080fd5b50565b6173e4816172ee565b81146173ef57600080fd5b5056fea26469706673582212200fd74f1c525d0e0f5f89a21ed7efb0fa3bfdb0ac3b43833a1da55f4a882b001d64736f6c63430007060033",
			"opcodes": "PUSH1 0x80 PUSH1 0x40 MSTORE CALLVALUE DUP1 ISZERO PUSH3 0x11 JUMPI PUSH1 0x0 DUP1 REVERT JUMPDEST POP PUSH1 0x40 MLOAD PUSH3 0x7FCA CODESIZE SUB DUP1 PUSH3 0x7FCA DUP4 CODECOPY DUP2 DUP2 ADD PUSH1 0x40 MSTORE DUP2 ADD SWAP1 PUSH3 0x37 SWAP2 SWAP1 PUSH3 0x7A8 JUMP JUMPDEST PUSH1 0x1 PUSH1 0x0 DUP2 SWAP1 SSTORE POP CALLER PUSH1 0x2 PUSH1 0x0 PUSH2 0x100 EXP DUP2 SLOAD DUP2 PUSH20 0xFFFFFFFFFFFFFFFFFFFFFFFFFFFFFFFFFFFFFFFF MUL NOT AND SWAP1 DUP4 PUSH20 0xFFFFFFFFFFFFFFFFFFFFFFFFFFFFFFFFFFFFFFFF AND MUL OR SWAP1 SSTORE POP PUSH3 0x90 PUSH3 0x311 PUSH1 0x20 SHL PUSH1 0x20 SHR JUMP JUMPDEST PUSH1 0x6 DUP2 SWAP1 SSTORE POP PUSH8 0xDE0B6B3A7640000 PUSH1 0x7 DUP2 SWAP1 SSTORE POP PUSH1 0x0 PUSH3 0xC0 PUSH8 0x6F05B59D3B20000 PUSH3 0x319 PUSH1 0x20 SHL PUSH1 0x20 SHR JUMP JUMPDEST SWAP1 POP PUSH1 0x0 PUSH1 0x9 DUP2 GT ISZERO PUSH3 0xD0 JUMPI INVALID JUMPDEST DUP2 EQ PUSH3 0x114 JUMPI PUSH1 0x40 MLOAD PUSH32 0x8C379A000000000000000000000000000000000000000000000000000000000 DUP2 MSTORE PUSH1 0x4 ADD PUSH3 0x10B SWAP1 PUSH3 0xA19 JUMP JUMPDEST PUSH1 0x40 MLOAD DUP1 SWAP2 SUB SWAP1 REVERT JUMPDEST PUSH3 0x12D PUSH8 0x1BC16D674EC80000 PUSH3 0x41A PUSH1 0x20 SHL PUSH1 0x20 SHR JUMP JUMPDEST SWAP1 POP PUSH1 0x0 PUSH1 0x9 DUP2 GT ISZERO PUSH3 0x13D JUMPI INVALID JUMPDEST DUP2 EQ PUSH3 0x181 JUMPI PUSH1 0x40 MLOAD PUSH32 0x8C379A000000000000000000000000000000000000000000000000000000000 DUP2 MSTORE PUSH1 0x4 ADD PUSH3 0x178 SWAP1 PUSH3 0xA3B JUMP JUMPDEST PUSH1 0x40 MLOAD DUP1 SWAP2 SUB SWAP1 REVERT JUMPDEST PUSH3 0x192 DUP5 PUSH3 0x51B PUSH1 0x20 SHL PUSH1 0x20 SHR JUMP JUMPDEST SWAP1 POP PUSH1 0x0 PUSH1 0x9 DUP2 GT ISZERO PUSH3 0x1A2 JUMPI INVALID JUMPDEST DUP2 EQ PUSH3 0x1E6 JUMPI PUSH1 0x40 MLOAD PUSH32 0x8C379A000000000000000000000000000000000000000000000000000000000 DUP2 MSTORE PUSH1 0x4 ADD PUSH3 0x1DD SWAP1 PUSH3 0x9D5 JUMP JUMPDEST PUSH1 0x40 MLOAD DUP1 SWAP2 SUB SWAP1 REVERT JUMPDEST PUSH1 0x1 PUSH1 0xB PUSH1 0x0 PUSH2 0x100 EXP DUP2 SLOAD DUP2 PUSH1 0xFF MUL NOT AND SWAP1 DUP4 ISZERO ISZERO MUL OR SWAP1 SSTORE POP PUSH1 0x1 PUSH1 0xB PUSH1 0x1 PUSH2 0x100 EXP DUP2 SLOAD DUP2 PUSH1 0xFF MUL NOT AND SWAP1 DUP4 ISZERO ISZERO MUL OR SWAP1 SSTORE POP DUP2 PUSH1 0x1 PUSH1 0x0 PUSH2 0x100 EXP DUP2 SLOAD DUP2 PUSH20 0xFFFFFFFFFFFFFFFFFFFFFFFFFFFFFFFFFFFFFFFF MUL NOT AND SWAP1 DUP4 PUSH20 0xFFFFFFFFFFFFFFFFFFFFFFFFFFFFFFFFFFFFFFFF AND MUL OR SWAP1 SSTORE POP DUP3 PUSH1 0x13 PUSH1 0x0 PUSH2 0x100 EXP DUP2 SLOAD DUP2 PUSH20 0xFFFFFFFFFFFFFFFFFFFFFFFFFFFFFFFFFFFFFFFF MUL NOT AND SWAP1 DUP4 PUSH20 0xFFFFFFFFFFFFFFFFFFFFFFFFFFFFFFFFFFFFFFFF AND MUL OR SWAP1 SSTORE POP ADDRESS PUSH20 0xFFFFFFFFFFFFFFFFFFFFFFFFFFFFFFFFFFFFFFFF AND PUSH1 0x0 PUSH20 0xFFFFFFFFFFFFFFFFFFFFFFFFFFFFFFFFFFFFFFFF AND PUSH32 0xDDF252AD1BE2C89B69C2B068FC378DAA952BA7F163C4A11628F55A4DF523B3EF PUSH1 0x0 PUSH1 0x40 MLOAD PUSH3 0x2FF SWAP2 SWAP1 PUSH3 0x9B8 JUMP JUMPDEST PUSH1 0x40 MLOAD DUP1 SWAP2 SUB SWAP1 LOG3 POP POP POP POP PUSH3 0xB92 JUMP JUMPDEST PUSH1 0x0 NUMBER SWAP1 POP SWAP1 JUMP JUMPDEST PUSH1 0x0 PUSH1 0x2 PUSH1 0x0 SWAP1 SLOAD SWAP1 PUSH2 0x100 EXP SWAP1 DIV PUSH20 0xFFFFFFFFFFFFFFFFFFFFFFFFFFFFFFFFFFFFFFFF AND PUSH20 0xFFFFFFFFFFFFFFFFFFFFFFFFFFFFFFFFFFFFFFFF AND CALLER PUSH20 0xFFFFFFFFFFFFFFFFFFFFFFFFFFFFFFFFFFFFFFFF AND EQ PUSH3 0x38D JUMPI PUSH3 0x385 PUSH1 0x1 PUSH1 0x0 PUSH3 0x70D PUSH1 0x20 SHL PUSH1 0x20 SHR JUMP JUMPDEST SWAP1 POP PUSH3 0x415 JUMP JUMPDEST PUSH8 0xDE0B6B3A7640000 DUP3 GT ISZERO PUSH3 0x3BA JUMPI PUSH3 0x3B2 PUSH1 0x2 PUSH1 0x23 PUSH3 0x70D PUSH1 0x20 SHL PUSH1 0x20 SHR JUMP JUMPDEST SWAP1 POP PUSH3 0x415 JUMP JUMPDEST PUSH1 0x0 PUSH1 0x5 SLOAD SWAP1 POP DUP3 PUSH1 0x5 DUP2 SWAP1 SSTORE POP PUSH32 0xAAA68312E2EA9D50E16AF5068410AB56E1A1FD06037B1A35664812C30F821460 DUP2 DUP5 PUSH1 0x40 MLOAD PUSH3 0x3FB SWAP3 SWAP2 SWAP1 PUSH3 0xA5D JUMP JUMPDEST PUSH1 0x40 MLOAD DUP1 SWAP2 SUB SWAP1 LOG1 PUSH1 0x0 PUSH1 0x9 DUP2 GT ISZERO PUSH3 0x411 JUMPI INVALID JUMPDEST SWAP2 POP POP JUMPDEST SWAP2 SWAP1 POP JUMP JUMPDEST PUSH1 0x0 PUSH1 0x2 PUSH1 0x0 SWAP1 SLOAD SWAP1 PUSH2 0x100 EXP SWAP1 DIV PUSH20 0xFFFFFFFFFFFFFFFFFFFFFFFFFFFFFFFFFFFFFFFF AND PUSH20 0xFFFFFFFFFFFFFFFFFFFFFFFFFFFFFFFFFFFFFFFF AND CALLER PUSH20 0xFFFFFFFFFFFFFFFFFFFFFFFFFFFFFFFFFFFFFFFF AND EQ PUSH3 0x48E JUMPI PUSH3 0x486 PUSH1 0x1 PUSH1 0x0 PUSH3 0x70D PUSH1 0x20 SHL PUSH1 0x20 SHR JUMP JUMPDEST SWAP1 POP PUSH3 0x516 JUMP JUMPDEST PUSH8 0xDE0B6B3A7640000 DUP3 LT ISZERO PUSH3 0x4BB JUMPI PUSH3 0x4B3 PUSH1 0x2 PUSH1 0x24 PUSH3 0x70D PUSH1 0x20 SHL PUSH1 0x20 SHR JUMP JUMPDEST SWAP1 POP PUSH3 0x516 JUMP JUMPDEST PUSH1 0x0 PUSH1 0x11 SLOAD SWAP1 POP DUP3 PUSH1 0x11 DUP2 SWAP1 SSTORE POP PUSH32 0x389CE8CC8E8243C4EE80C30E284539A8F6FA01C546C8F3F3D76093AACE77367E DUP2 DUP5 PUSH1 0x40 MLOAD PUSH3 0x4FC SWAP3 SWAP2 SWAP1 PUSH3 0xA5D JUMP JUMPDEST PUSH1 0x40 MLOAD DUP1 SWAP2 SUB SWAP1 LOG1 PUSH1 0x0 PUSH1 0x9 DUP2 GT ISZERO PUSH3 0x512 JUMPI INVALID JUMPDEST SWAP2 POP POP JUMPDEST SWAP2 SWAP1 POP JUMP JUMPDEST PUSH1 0x0 DUP1 PUSH1 0x2 PUSH1 0x0 SWAP1 SLOAD SWAP1 PUSH2 0x100 EXP SWAP1 DIV PUSH20 0xFFFFFFFFFFFFFFFFFFFFFFFFFFFFFFFFFFFFFFFF AND PUSH20 0xFFFFFFFFFFFFFFFFFFFFFFFFFFFFFFFFFFFFFFFF AND CALLER PUSH20 0xFFFFFFFFFFFFFFFFFFFFFFFFFFFFFFFFFFFFFFFF AND EQ PUSH3 0x591 JUMPI PUSH3 0x588 PUSH1 0x1 PUSH1 0x0 PUSH3 0x70D PUSH1 0x20 SHL PUSH1 0x20 SHR JUMP JUMPDEST SWAP2 POP POP PUSH3 0x708 JUMP JUMPDEST PUSH1 0x4 PUSH1 0x0 SWAP1 SLOAD SWAP1 PUSH2 0x100 EXP SWAP1 DIV PUSH20 0xFFFFFFFFFFFFFFFFFFFFFFFFFFFFFFFFFFFFFFFF AND SWAP1 POP DUP3 PUSH20 0xFFFFFFFFFFFFFFFFFFFFFFFFFFFFFFFFFFFFFFFF AND PUSH4 0x2191F92A PUSH1 0x40 MLOAD DUP2 PUSH4 0xFFFFFFFF AND PUSH1 0xE0 SHL DUP2 MSTORE PUSH1 0x4 ADD PUSH1 0x20 PUSH1 0x40 MLOAD DUP1 DUP4 SUB DUP2 DUP7 DUP1 EXTCODESIZE ISZERO DUP1 ISZERO PUSH3 0x5FD JUMPI PUSH1 0x0 DUP1 REVERT JUMPDEST POP GAS STATICCALL ISZERO DUP1 ISZERO PUSH3 0x612 JUMPI RETURNDATASIZE PUSH1 0x0 DUP1 RETURNDATACOPY RETURNDATASIZE PUSH1 0x0 REVERT JUMPDEST POP POP POP POP PUSH1 0x40 MLOAD RETURNDATASIZE PUSH1 0x1F NOT PUSH1 0x1F DUP3 ADD AND DUP3 ADD DUP1 PUSH1 0x40 MSTORE POP DUP2 ADD SWAP1 PUSH3 0x638 SWAP2 SWAP1 PUSH3 0x7FE JUMP JUMPDEST PUSH3 0x67A JUMPI PUSH1 0x40 MLOAD PUSH32 0x8C379A000000000000000000000000000000000000000000000000000000000 DUP2 MSTORE PUSH1 0x4 ADD PUSH3 0x671 SWAP1 PUSH3 0x9F7 JUMP JUMPDEST PUSH1 0x40 MLOAD DUP1 SWAP2 SUB SWAP1 REVERT JUMPDEST DUP3 PUSH1 0x4 PUSH1 0x0 PUSH2 0x100 EXP DUP2 SLOAD DUP2 PUSH20 0xFFFFFFFFFFFFFFFFFFFFFFFFFFFFFFFFFFFFFFFF MUL NOT AND SWAP1 DUP4 PUSH20 0xFFFFFFFFFFFFFFFFFFFFFFFFFFFFFFFFFFFFFFFF AND MUL OR SWAP1 SSTORE POP PUSH32 0xEB5CC99F497DC2D7106563BB080E06C9B09E3D81A38623AC4D0839575658D1FA DUP2 DUP5 PUSH1 0x40 MLOAD PUSH3 0x6EE SWAP3 SWAP2 SWAP1 PUSH3 0x98B JUMP JUMPDEST PUSH1 0x40 MLOAD DUP1 SWAP2 SUB SWAP1 LOG1 PUSH1 0x0 PUSH1 0x9 DUP2 GT ISZERO PUSH3 0x704 JUMPI INVALID JUMPDEST SWAP2 POP POP JUMPDEST SWAP2 SWAP1 POP JUMP JUMPDEST PUSH1 0x0 PUSH32 0x45B96FE442630264581B197E84BBADA861235052C5A1AADFFF9EA4E40A969AA0 DUP4 PUSH1 0x9 DUP2 GT ISZERO PUSH3 0x73D JUMPI INVALID JUMPDEST DUP4 PUSH1 0x27 DUP2 GT ISZERO PUSH3 0x74A JUMPI INVALID JUMPDEST PUSH1 0x0 PUSH1 0x40 MLOAD PUSH3 0x75D SWAP4 SWAP3 SWAP2 SWAP1 PUSH3 0xA8A JUMP JUMPDEST PUSH1 0x40 MLOAD DUP1 SWAP2 SUB SWAP1 LOG1 DUP3 PUSH1 0x9 DUP2 GT ISZERO PUSH3 0x772 JUMPI INVALID JUMPDEST SWAP1 POP SWAP3 SWAP2 POP POP JUMP JUMPDEST PUSH1 0x0 DUP2 MLOAD SWAP1 POP PUSH3 0x78B DUP2 PUSH3 0xB5E JUMP JUMPDEST SWAP3 SWAP2 POP POP JUMP JUMPDEST PUSH1 0x0 DUP2 MLOAD SWAP1 POP PUSH3 0x7A2 DUP2 PUSH3 0xB78 JUMP JUMPDEST SWAP3 SWAP2 POP POP JUMP JUMPDEST PUSH1 0x0 DUP1 PUSH1 0x0 PUSH1 0x60 DUP5 DUP7 SUB SLT ISZERO PUSH3 0x7BE JUMPI PUSH1 0x0 DUP1 REVERT JUMPDEST PUSH1 0x0 PUSH3 0x7CE DUP7 DUP3 DUP8 ADD PUSH3 0x77A JUMP JUMPDEST SWAP4 POP POP PUSH1 0x20 PUSH3 0x7E1 DUP7 DUP3 DUP8 ADD PUSH3 0x77A JUMP JUMPDEST SWAP3 POP POP PUSH1 0x40 PUSH3 0x7F4 DUP7 DUP3 DUP8 ADD PUSH3 0x77A JUMP JUMPDEST SWAP2 POP POP SWAP3 POP SWAP3 POP SWAP3 JUMP JUMPDEST PUSH1 0x0 PUSH1 0x20 DUP3 DUP5 SUB SLT ISZERO PUSH3 0x811 JUMPI PUSH1 0x0 DUP1 REVERT JUMPDEST PUSH1 0x0 PUSH3 0x821 DUP5 DUP3 DUP6 ADD PUSH3 0x791 JUMP JUMPDEST SWAP2 POP POP SWAP3 SWAP2 POP POP JUMP JUMPDEST PUSH3 0x835 DUP2 PUSH3 0xB22 JUMP JUMPDEST DUP3 MSTORE POP POP JUMP JUMPDEST PUSH3 0x846 DUP2 PUSH3 0xB4A JUMP JUMPDEST DUP3 MSTORE POP POP JUMP JUMPDEST PUSH1 0x0 PUSH3 0x85B PUSH1 0x22 DUP4 PUSH3 0xAC7 JUMP JUMPDEST SWAP2 POP PUSH32 0x73657474696E6720696E7465726573742072617465206D6F64656C206661696C PUSH1 0x0 DUP4 ADD MSTORE PUSH32 0x6564000000000000000000000000000000000000000000000000000000000000 PUSH1 0x20 DUP4 ADD MSTORE PUSH1 0x40 DUP3 ADD SWAP1 POP SWAP2 SWAP1 POP JUMP JUMPDEST PUSH1 0x0 PUSH3 0x8C3 PUSH1 0x1C DUP4 PUSH3 0xAC7 JUMP JUMPDEST SWAP2 POP PUSH32 0x6D61726B6572206D6574686F642072657475726E65642066616C736500000000 PUSH1 0x0 DUP4 ADD MSTORE PUSH1 0x20 DUP3 ADD SWAP1 POP SWAP2 SWAP1 POP JUMP JUMPDEST PUSH1 0x0 PUSH3 0x905 PUSH1 0x1D DUP4 PUSH3 0xAC7 JUMP JUMPDEST SWAP2 POP PUSH32 0x73657474696E67207265736572766520666163746F72206661696C6564000000 PUSH1 0x0 DUP4 ADD MSTORE PUSH1 0x20 DUP3 ADD SWAP1 POP SWAP2 SWAP1 POP JUMP JUMPDEST PUSH1 0x0 PUSH3 0x947 PUSH1 0x1F DUP4 PUSH3 0xAC7 JUMP JUMPDEST SWAP2 POP PUSH32 0x73657474696E67206C697175696461746520666163746F72206661696C656400 PUSH1 0x0 DUP4 ADD MSTORE PUSH1 0x20 DUP3 ADD SWAP1 POP SWAP2 SWAP1 POP JUMP JUMPDEST PUSH3 0x985 DUP2 PUSH3 0xB18 JUMP JUMPDEST DUP3 MSTORE POP POP JUMP JUMPDEST PUSH1 0x0 PUSH1 0x40 DUP3 ADD SWAP1 POP PUSH3 0x9A2 PUSH1 0x0 DUP4 ADD DUP6 PUSH3 0x82A JUMP JUMPDEST PUSH3 0x9B1 PUSH1 0x20 DUP4 ADD DUP5 PUSH3 0x82A JUMP JUMPDEST SWAP4 SWAP3 POP POP POP JUMP JUMPDEST PUSH1 0x0 PUSH1 0x20 DUP3 ADD SWAP1 POP PUSH3 0x9CF PUSH1 0x0 DUP4 ADD DUP5 PUSH3 0x83B JUMP JUMPDEST SWAP3 SWAP2 POP POP JUMP JUMPDEST PUSH1 0x0 PUSH1 0x20 DUP3 ADD SWAP1 POP DUP2 DUP2 SUB PUSH1 0x0 DUP4 ADD MSTORE PUSH3 0x9F0 DUP2 PUSH3 0x84C JUMP JUMPDEST SWAP1 POP SWAP2 SWAP1 POP JUMP JUMPDEST PUSH1 0x0 PUSH1 0x20 DUP3 ADD SWAP1 POP DUP2 DUP2 SUB PUSH1 0x0 DUP4 ADD MSTORE PUSH3 0xA12 DUP2 PUSH3 0x8B4 JUMP JUMPDEST SWAP1 POP SWAP2 SWAP1 POP JUMP JUMPDEST PUSH1 0x0 PUSH1 0x20 DUP3 ADD SWAP1 POP DUP2 DUP2 SUB PUSH1 0x0 DUP4 ADD MSTORE PUSH3 0xA34 DUP2 PUSH3 0x8F6 JUMP JUMPDEST SWAP1 POP SWAP2 SWAP1 POP JUMP JUMPDEST PUSH1 0x0 PUSH1 0x20 DUP3 ADD SWAP1 POP DUP2 DUP2 SUB PUSH1 0x0 DUP4 ADD MSTORE PUSH3 0xA56 DUP2 PUSH3 0x938 JUMP JUMPDEST SWAP1 POP SWAP2 SWAP1 POP JUMP JUMPDEST PUSH1 0x0 PUSH1 0x40 DUP3 ADD SWAP1 POP PUSH3 0xA74 PUSH1 0x0 DUP4 ADD DUP6 PUSH3 0x97A JUMP JUMPDEST PUSH3 0xA83 PUSH1 0x20 DUP4 ADD DUP5 PUSH3 0x97A JUMP JUMPDEST SWAP4 SWAP3 POP POP POP JUMP JUMPDEST PUSH1 0x0 PUSH1 0x60 DUP3 ADD SWAP1 POP PUSH3 0xAA1 PUSH1 0x0 DUP4 ADD DUP7 PUSH3 0x97A JUMP JUMPDEST PUSH3 0xAB0 PUSH1 0x20 DUP4 ADD DUP6 PUSH3 0x97A JUMP JUMPDEST PUSH3 0xABF PUSH1 0x40 DUP4 ADD DUP5 PUSH3 0x83B JUMP JUMPDEST SWAP5 SWAP4 POP POP POP POP JUMP JUMPDEST PUSH1 0x0 DUP3 DUP3 MSTORE PUSH1 0x20 DUP3 ADD SWAP1 POP SWAP3 SWAP2 POP POP JUMP JUMPDEST PUSH1 0x0 PUSH3 0xAE5 DUP3 PUSH3 0xAF8 JUMP JUMPDEST SWAP1 POP SWAP2 SWAP1 POP JUMP JUMPDEST PUSH1 0x0 DUP2 ISZERO ISZERO SWAP1 POP SWAP2 SWAP1 POP JUMP JUMPDEST PUSH1 0x0 PUSH20 0xFFFFFFFFFFFFFFFFFFFFFFFFFFFFFFFFFFFFFFFF DUP3 AND SWAP1 POP SWAP2 SWAP1 POP JUMP JUMPDEST PUSH1 0x0 DUP2 SWAP1 POP SWAP2 SWAP1 POP JUMP JUMPDEST PUSH1 0x0 PUSH3 0xB2F DUP3 PUSH3 0xB36 JUMP JUMPDEST SWAP1 POP SWAP2 SWAP1 POP JUMP JUMPDEST PUSH1 0x0 PUSH3 0xB43 DUP3 PUSH3 0xAF8 JUMP JUMPDEST SWAP1 POP SWAP2 SWAP1 POP JUMP JUMPDEST PUSH1 0x0 PUSH3 0xB57 DUP3 PUSH3 0xB18 JUMP JUMPDEST SWAP1 POP SWAP2 SWAP1 POP JUMP JUMPDEST PUSH3 0xB69 DUP2 PUSH3 0xAD8 JUMP JUMPDEST DUP2 EQ PUSH3 0xB75 JUMPI PUSH1 0x0 DUP1 REVERT JUMPDEST POP JUMP JUMPDEST PUSH3 0xB83 DUP2 PUSH3 0xAEC JUMP JUMPDEST DUP2 EQ PUSH3 0xB8F JUMPI PUSH1 0x0 DUP1 REVERT JUMPDEST POP JUMP JUMPDEST PUSH2 0x7428 DUP1 PUSH3 0xBA2 PUSH1 0x0 CODECOPY PUSH1 0x0 RETURN INVALID PUSH1 0x80 PUSH1 0x40 MSTORE CALLVALUE DUP1 ISZERO PUSH2 0x10 JUMPI PUSH1 0x0 DUP1 REVERT JUMPDEST POP PUSH1 0x4 CALLDATASIZE LT PUSH2 0x341 JUMPI PUSH1 0x0 CALLDATALOAD PUSH1 0xE0 SHR DUP1 PUSH4 0x95D89B41 GT PUSH2 0x1B8 JUMPI DUP1 PUSH4 0xBD37B775 GT PUSH2 0x104 JUMPI DUP1 PUSH4 0xDD62ED3E GT PUSH2 0xA2 JUMPI DUP1 PUSH4 0xF3FDB15A GT PUSH2 0x7C JUMPI DUP1 PUSH4 0xF3FDB15A EQ PUSH2 0xAF4 JUMPI DUP1 PUSH4 0xF851A440 EQ PUSH2 0xB12 JUMPI DUP1 PUSH4 0xF8F9DA28 EQ PUSH2 0xB30 JUMPI DUP1 PUSH4 0xFCA7820B EQ PUSH2 0xB4E JUMPI PUSH2 0x341 JUMP JUMPDEST DUP1 PUSH4 0xDD62ED3E EQ PUSH2 0xA76 JUMPI DUP1 PUSH4 0xE9C714F2 EQ PUSH2 0xAA6 JUMPI DUP1 PUSH4 0xF2B3ABBD EQ PUSH2 0xAC4 JUMPI PUSH2 0x341 JUMP JUMPDEST DUP1 PUSH4 0xC5EBEAEC GT PUSH2 0xDE JUMPI DUP1 PUSH4 0xC5EBEAEC EQ PUSH2 0x9B6 JUMPI DUP1 PUSH4 0xC95DE7CF EQ PUSH2 0x9E6 JUMPI DUP1 PUSH4 0xD8E94EA9 EQ PUSH2 0xA16 JUMPI DUP1 PUSH4 0xDB006A75 EQ PUSH2 0xA46 JUMPI PUSH2 0x341 JUMP JUMPDEST DUP1 PUSH4 0xBD37B775 EQ PUSH2 0x94A JUMPI DUP1 PUSH4 0xBD6D894D EQ PUSH2 0x97A JUMPI DUP1 PUSH4 0xC467201E EQ PUSH2 0x998 JUMPI PUSH2 0x341 JUMP JUMPDEST DUP1 PUSH4 0xA2E354C8 GT PUSH2 0x171 JUMPI DUP1 PUSH4 0xAA5AF0FD GT PUSH2 0x14B JUMPI DUP1 PUSH4 0xAA5AF0FD EQ PUSH2 0x8C0 JUMPI DUP1 PUSH4 0xAE9D70B0 EQ PUSH2 0x8DE JUMPI DUP1 PUSH4 0xB2879EE4 EQ PUSH2 0x8FC JUMPI DUP1 PUSH4 0xB71D1A0C EQ PUSH2 0x91A JUMPI PUSH2 0x341 JUMP JUMPDEST DUP1 PUSH4 0xA2E354C8 EQ PUSH2 0x854 JUMPI DUP1 PUSH4 0xA6AFED95 EQ PUSH2 0x872 JUMPI DUP1 PUSH4 0xA9059CBB EQ PUSH2 0x890 JUMPI PUSH2 0x341 JUMP JUMPDEST DUP1 PUSH4 0x95D89B41 EQ PUSH2 0x746 JUMPI DUP1 PUSH4 0x95DD9193 EQ PUSH2 0x764 JUMPI DUP1 PUSH4 0x9937EDFE EQ PUSH2 0x794 JUMPI DUP1 PUSH4 0x9B56D6C9 EQ PUSH2 0x7C4 JUMPI DUP1 PUSH4 0x9F06AA08 EQ PUSH2 0x7F4 JUMPI DUP1 PUSH4 0xA0712D68 EQ PUSH2 0x824 JUMPI PUSH2 0x341 JUMP JUMPDEST DUP1 PUSH4 0x30504B6F GT PUSH2 0x292 JUMPI DUP1 PUSH4 0x5BF8633A GT PUSH2 0x230 JUMPI DUP1 PUSH4 0x73ACEE98 GT PUSH2 0x20A JUMPI DUP1 PUSH4 0x73ACEE98 EQ PUSH2 0x6BE JUMPI DUP1 PUSH4 0x852A12E3 EQ PUSH2 0x6DC JUMPI DUP1 PUSH4 0x883747C4 EQ PUSH2 0x70C JUMPI DUP1 PUSH4 0x8F840DDD EQ PUSH2 0x728 JUMPI PUSH2 0x341 JUMP JUMPDEST DUP1 PUSH4 0x5BF8633A EQ PUSH2 0x652 JUMPI DUP1 PUSH4 0x6C540BAF EQ PUSH2 0x670 JUMPI DUP1 PUSH4 0x70A08231 EQ PUSH2 0x68E JUMPI PUSH2 0x341 JUMP JUMPDEST DUP1 PUSH4 0x3B1D21A2 GT PUSH2 0x26C JUMPI DUP1 PUSH4 0x3B1D21A2 EQ PUSH2 0x5C8 JUMPI DUP1 PUSH4 0x47BD3718 EQ PUSH2 0x5E6 JUMPI DUP1 PUSH4 0x590E3F60 EQ PUSH2 0x604 JUMPI DUP1 PUSH4 0x5BB31693 EQ PUSH2 0x634 JUMPI PUSH2 0x341 JUMP JUMPDEST DUP1 PUSH4 0x30504B6F EQ PUSH2 0x55C JUMPI DUP1 PUSH4 0x313CE567 EQ PUSH2 0x57A JUMPI DUP1 PUSH4 0x3AF9E669 EQ PUSH2 0x598 JUMPI PUSH2 0x341 JUMP JUMPDEST DUP1 PUSH4 0x17539B1E GT PUSH2 0x2FF JUMPI DUP1 PUSH4 0x182DF0F5 GT PUSH2 0x2D9 JUMPI DUP1 PUSH4 0x182DF0F5 EQ PUSH2 0x4C0 JUMPI DUP1 PUSH4 0x23B872DD EQ PUSH2 0x4DE JUMPI DUP1 PUSH4 0x2608F818 EQ PUSH2 0x50E JUMPI DUP1 PUSH4 0x26782247 EQ PUSH2 0x53E JUMPI PUSH2 0x341 JUMP JUMPDEST DUP1 PUSH4 0x17539B1E EQ PUSH2 0x442 JUMPI DUP1 PUSH4 0x17BFDFBC EQ PUSH2 0x472 JUMPI DUP1 PUSH4 0x18160DDD EQ PUSH2 0x4A2 JUMPI PUSH2 0x341 JUMP JUMPDEST DUP1 PUSH3 0x517F62 EQ PUSH2 0x346 JUMPI DUP1 PUSH4 0x6FDDE03 EQ PUSH2 0x376 JUMPI DUP1 PUSH4 0x95EA7B3 EQ PUSH2 0x394 JUMPI DUP1 PUSH4 0xE752702 EQ PUSH2 0x3C4 JUMPI DUP1 PUSH4 0x12F0DEA7 EQ PUSH2 0x3F4 JUMPI DUP1 PUSH4 0x173B9904 EQ PUSH2 0x424 JUMPI JUMPDEST PUSH1 0x0 DUP1 REVERT JUMPDEST PUSH2 0x360 PUSH1 0x4 DUP1 CALLDATASIZE SUB DUP2 ADD SWAP1 PUSH2 0x35B SWAP2 SWAP1 PUSH2 0x5EDA JUMP JUMPDEST PUSH2 0xB7E JUMP JUMPDEST PUSH1 0x40 MLOAD PUSH2 0x36D SWAP2 SWAP1 PUSH2 0x710F JUMP JUMPDEST PUSH1 0x40 MLOAD DUP1 SWAP2 SUB SWAP1 RETURN JUMPDEST PUSH2 0x37E PUSH2 0xBF5 JUMP JUMPDEST PUSH1 0x40 MLOAD PUSH2 0x38B SWAP2 SWAP1 PUSH2 0x6D6D JUMP JUMPDEST PUSH1 0x40 MLOAD DUP1 SWAP2 SUB SWAP1 RETURN JUMPDEST PUSH2 0x3AE PUSH1 0x4 DUP1 CALLDATASIZE SUB DUP2 ADD SWAP1 PUSH2 0x3A9 SWAP2 SWAP1 PUSH2 0x5FB7 JUMP JUMPDEST PUSH2 0xC2E JUMP JUMPDEST PUSH1 0x40 MLOAD PUSH2 0x3BB SWAP2 SWAP1 PUSH2 0x6D0E JUMP JUMPDEST PUSH1 0x40 MLOAD DUP1 SWAP2 SUB SWAP1 RETURN JUMPDEST PUSH2 0x3DE PUSH1 0x4 DUP1 CALLDATASIZE SUB DUP2 ADD SWAP1 PUSH2 0x3D9 SWAP2 SWAP1 PUSH2 0x606E JUMP JUMPDEST PUSH2 0xD95 JUMP JUMPDEST PUSH1 0x40 MLOAD PUSH2 0x3EB SWAP2 SWAP1 PUSH2 0x710F JUMP JUMPDEST PUSH1 0x40 MLOAD DUP1 SWAP2 SUB SWAP1 RETURN JUMPDEST PUSH2 0x40E PUSH1 0x4 DUP1 CALLDATASIZE SUB DUP2 ADD SWAP1 PUSH2 0x409 SWAP2 SWAP1 PUSH2 0x5EDA JUMP JUMPDEST PUSH2 0xE44 JUMP JUMPDEST PUSH1 0x40 MLOAD PUSH2 0x41B SWAP2 SWAP1 PUSH2 0x710F JUMP JUMPDEST PUSH1 0x40 MLOAD DUP1 SWAP2 SUB SWAP1 RETURN JUMPDEST PUSH2 0x42C PUSH2 0xEEC JUMP JUMPDEST PUSH1 0x40 MLOAD PUSH2 0x439 SWAP2 SWAP1 PUSH2 0x710F JUMP JUMPDEST PUSH1 0x40 MLOAD DUP1 SWAP2 SUB SWAP1 RETURN JUMPDEST PUSH2 0x45C PUSH1 0x4 DUP1 CALLDATASIZE SUB DUP2 ADD SWAP1 PUSH2 0x457 SWAP2 SWAP1 PUSH2 0x5FF3 JUMP JUMPDEST PUSH2 0xEF2 JUMP JUMPDEST PUSH1 0x40 MLOAD PUSH2 0x469 SWAP2 SWAP1 PUSH2 0x710F JUMP JUMPDEST PUSH1 0x40 MLOAD DUP1 SWAP2 SUB SWAP1 RETURN JUMPDEST PUSH2 0x48C PUSH1 0x4 DUP1 CALLDATASIZE SUB DUP2 ADD SWAP1 PUSH2 0x487 SWAP2 SWAP1 PUSH2 0x5EDA JUMP JUMPDEST PUSH2 0xFDD JUMP JUMPDEST PUSH1 0x40 MLOAD PUSH2 0x499 SWAP2 SWAP1 PUSH2 0x710F JUMP JUMPDEST PUSH1 0x40 MLOAD DUP1 SWAP2 SUB SWAP1 RETURN JUMPDEST PUSH2 0x4AA PUSH2 0x109A JUMP JUMPDEST PUSH1 0x40 MLOAD PUSH2 0x4B7 SWAP2 SWAP1 PUSH2 0x710F JUMP JUMPDEST PUSH1 0x40 MLOAD DUP1 SWAP2 SUB SWAP1 RETURN JUMPDEST PUSH2 0x4C8 PUSH2 0x10A0 JUMP JUMPDEST PUSH1 0x40 MLOAD PUSH2 0x4D5 SWAP2 SWAP1 PUSH2 0x710F JUMP JUMPDEST PUSH1 0x40 MLOAD DUP1 SWAP2 SUB SWAP1 RETURN JUMPDEST PUSH2 0x4F8 PUSH1 0x4 DUP1 CALLDATASIZE SUB DUP2 ADD SWAP1 PUSH2 0x4F3 SWAP2 SWAP1 PUSH2 0x5F68 JUMP JUMPDEST PUSH2 0x1112 JUMP JUMPDEST PUSH1 0x40 MLOAD PUSH2 0x505 SWAP2 SWAP1 PUSH2 0x6D0E JUMP JUMPDEST PUSH1 0x40 MLOAD DUP1 SWAP2 SUB SWAP1 RETURN JUMPDEST PUSH2 0x528 PUSH1 0x4 DUP1 CALLDATASIZE SUB DUP2 ADD SWAP1 PUSH2 0x523 SWAP2 SWAP1 PUSH2 0x5FB7 JUMP JUMPDEST PUSH2 0x118D JUMP JUMPDEST PUSH1 0x40 MLOAD PUSH2 0x535 SWAP2 SWAP1 PUSH2 0x710F JUMP JUMPDEST PUSH1 0x40 MLOAD DUP1 SWAP2 SUB SWAP1 RETURN JUMPDEST PUSH2 0x546 PUSH2 0x123D JUMP JUMPDEST PUSH1 0x40 MLOAD PUSH2 0x553 SWAP2 SWAP1 PUSH2 0x6B34 JUMP JUMPDEST PUSH1 0x40 MLOAD DUP1 SWAP2 SUB SWAP1 RETURN JUMPDEST PUSH2 0x564 PUSH2 0x1263 JUMP JUMPDEST PUSH1 0x40 MLOAD PUSH2 0x571 SWAP2 SWAP1 PUSH2 0x710F JUMP JUMPDEST PUSH1 0x40 MLOAD DUP1 SWAP2 SUB SWAP1 RETURN JUMPDEST PUSH2 0x582 PUSH2 0x1269 JUMP JUMPDEST PUSH1 0x40 MLOAD PUSH2 0x58F SWAP2 SWAP1 PUSH2 0x7206 JUMP JUMPDEST PUSH1 0x40 MLOAD DUP1 SWAP2 SUB SWAP1 RETURN JUMPDEST PUSH2 0x5B2 PUSH1 0x4 DUP1 CALLDATASIZE SUB DUP2 ADD SWAP1 PUSH2 0x5AD SWAP2 SWAP1 PUSH2 0x5EDA JUMP JUMPDEST PUSH2 0x126E JUMP JUMPDEST PUSH1 0x40 MLOAD PUSH2 0x5BF SWAP2 SWAP1 PUSH2 0x710F JUMP JUMPDEST PUSH1 0x40 MLOAD DUP1 SWAP2 SUB SWAP1 RETURN JUMPDEST PUSH2 0x5D0 PUSH2 0x133D JUMP JUMPDEST PUSH1 0x40 MLOAD PUSH2 0x5DD SWAP2 SWAP1 PUSH2 0x710F JUMP JUMPDEST PUSH1 0x40 MLOAD DUP1 SWAP2 SUB SWAP1 RETURN JUMPDEST PUSH2 0x5EE PUSH2 0x134C JUMP JUMPDEST PUSH1 0x40 MLOAD PUSH2 0x5FB SWAP2 SWAP1 PUSH2 0x710F JUMP JUMPDEST PUSH1 0x40 MLOAD DUP1 SWAP2 SUB SWAP1 RETURN JUMPDEST PUSH2 0x61E PUSH1 0x4 DUP1 CALLDATASIZE SUB DUP2 ADD SWAP1 PUSH2 0x619 SWAP2 SWAP1 PUSH2 0x5EDA JUMP JUMPDEST PUSH2 0x1352 JUMP JUMPDEST PUSH1 0x40 MLOAD PUSH2 0x62B SWAP2 SWAP1 PUSH2 0x6CEC JUMP JUMPDEST PUSH1 0x40 MLOAD DUP1 SWAP2 SUB SWAP1 RETURN JUMPDEST PUSH2 0x63C PUSH2 0x1459 JUMP JUMPDEST PUSH1 0x40 MLOAD PUSH2 0x649 SWAP2 SWAP1 PUSH2 0x6D0E JUMP JUMPDEST PUSH1 0x40 MLOAD DUP1 SWAP2 SUB SWAP1 RETURN JUMPDEST PUSH2 0x65A PUSH2 0x146C JUMP JUMPDEST PUSH1 0x40 MLOAD PUSH2 0x667 SWAP2 SWAP1 PUSH2 0x6B34 JUMP JUMPDEST PUSH1 0x40 MLOAD DUP1 SWAP2 SUB SWAP1 RETURN JUMPDEST PUSH2 0x678 PUSH2 0x1492 JUMP JUMPDEST PUSH1 0x40 MLOAD PUSH2 0x685 SWAP2 SWAP1 PUSH2 0x710F JUMP JUMPDEST PUSH1 0x40 MLOAD DUP1 SWAP2 SUB SWAP1 RETURN JUMPDEST PUSH2 0x6A8 PUSH1 0x4 DUP1 CALLDATASIZE SUB DUP2 ADD SWAP1 PUSH2 0x6A3 SWAP2 SWAP1 PUSH2 0x5EDA JUMP JUMPDEST PUSH2 0x1498 JUMP JUMPDEST PUSH1 0x40 MLOAD PUSH2 0x6B5 SWAP2 SWAP1 PUSH2 0x710F JUMP JUMPDEST PUSH1 0x40 MLOAD DUP1 SWAP2 SUB SWAP1 RETURN JUMPDEST PUSH2 0x6C6 PUSH2 0x14E1 JUMP JUMPDEST PUSH1 0x40 MLOAD PUSH2 0x6D3 SWAP2 SWAP1 PUSH2 0x710F JUMP JUMPDEST PUSH1 0x40 MLOAD DUP1 SWAP2 SUB SWAP1 RETURN JUMPDEST PUSH2 0x6F6 PUSH1 0x4 DUP1 CALLDATASIZE SUB DUP2 ADD SWAP1 PUSH2 0x6F1 SWAP2 SWAP1 PUSH2 0x606E JUMP JUMPDEST PUSH2 0x1596 JUMP JUMPDEST PUSH1 0x40 MLOAD PUSH2 0x703 SWAP2 SWAP1 PUSH2 0x710F JUMP JUMPDEST PUSH1 0x40 MLOAD DUP1 SWAP2 SUB SWAP1 RETURN JUMPDEST PUSH2 0x726 PUSH1 0x4 DUP1 CALLDATASIZE SUB DUP2 ADD SWAP1 PUSH2 0x721 SWAP2 SWAP1 PUSH2 0x606E JUMP JUMPDEST PUSH2 0x1640 JUMP JUMPDEST STOP JUMPDEST PUSH2 0x730 PUSH2 0x166F JUMP JUMPDEST PUSH1 0x40 MLOAD PUSH2 0x73D SWAP2 SWAP1 PUSH2 0x710F JUMP JUMPDEST PUSH1 0x40 MLOAD DUP1 SWAP2 SUB SWAP1 RETURN JUMPDEST PUSH2 0x74E PUSH2 0x1675 JUMP JUMPDEST PUSH1 0x40 MLOAD PUSH2 0x75B SWAP2 SWAP1 PUSH2 0x6D6D JUMP JUMPDEST PUSH1 0x40 MLOAD DUP1 SWAP2 SUB SWAP1 RETURN JUMPDEST PUSH2 0x77E PUSH1 0x4 DUP1 CALLDATASIZE SUB DUP2 ADD SWAP1 PUSH2 0x779 SWAP2 SWAP1 PUSH2 0x5EDA JUMP JUMPDEST PUSH2 0x16AE JUMP JUMPDEST PUSH1 0x40 MLOAD PUSH2 0x78B SWAP2 SWAP1 PUSH2 0x710F JUMP JUMPDEST PUSH1 0x40 MLOAD DUP1 SWAP2 SUB SWAP1 RETURN JUMPDEST PUSH2 0x7AE PUSH1 0x4 DUP1 CALLDATASIZE SUB DUP2 ADD SWAP1 PUSH2 0x7A9 SWAP2 SWAP1 PUSH2 0x5EDA JUMP JUMPDEST PUSH2 0x1723 JUMP JUMPDEST PUSH1 0x40 MLOAD PUSH2 0x7BB SWAP2 SWAP1 PUSH2 0x710F JUMP JUMPDEST PUSH1 0x40 MLOAD DUP1 SWAP2 SUB SWAP1 RETURN JUMPDEST PUSH2 0x7DE PUSH1 0x4 DUP1 CALLDATASIZE SUB DUP2 ADD SWAP1 PUSH2 0x7D9 SWAP2 SWAP1 PUSH2 0x5EDA JUMP JUMPDEST PUSH2 0x1789 JUMP JUMPDEST PUSH1 0x40 MLOAD PUSH2 0x7EB SWAP2 SWAP1 PUSH2 0x710F JUMP JUMPDEST PUSH1 0x40 MLOAD DUP1 SWAP2 SUB SWAP1 RETURN JUMPDEST PUSH2 0x80E PUSH1 0x4 DUP1 CALLDATASIZE SUB DUP2 ADD SWAP1 PUSH2 0x809 SWAP2 SWAP1 PUSH2 0x606E JUMP JUMPDEST PUSH2 0x17D2 JUMP JUMPDEST PUSH1 0x40 MLOAD PUSH2 0x81B SWAP2 SWAP1 PUSH2 0x710F JUMP JUMPDEST PUSH1 0x40 MLOAD DUP1 SWAP2 SUB SWAP1 RETURN JUMPDEST PUSH2 0x83E PUSH1 0x4 DUP1 CALLDATASIZE SUB DUP2 ADD SWAP1 PUSH2 0x839 SWAP2 SWAP1 PUSH2 0x606E JUMP JUMPDEST PUSH2 0x18F6 JUMP JUMPDEST PUSH1 0x40 MLOAD PUSH2 0x84B SWAP2 SWAP1 PUSH2 0x710F JUMP JUMPDEST PUSH1 0x40 MLOAD DUP1 SWAP2 SUB SWAP1 RETURN JUMPDEST PUSH2 0x85C PUSH2 0x19A4 JUMP JUMPDEST PUSH1 0x40 MLOAD PUSH2 0x869 SWAP2 SWAP1 PUSH2 0x710F JUMP JUMPDEST PUSH1 0x40 MLOAD DUP1 SWAP2 SUB SWAP1 RETURN JUMPDEST PUSH2 0x87A PUSH2 0x19AA JUMP JUMPDEST PUSH1 0x40 MLOAD PUSH2 0x887 SWAP2 SWAP1 PUSH2 0x710F JUMP JUMPDEST PUSH1 0x40 MLOAD DUP1 SWAP2 SUB SWAP1 RETURN JUMPDEST PUSH2 0x8AA PUSH1 0x4 DUP1 CALLDATASIZE SUB DUP2 ADD SWAP1 PUSH2 0x8A5 SWAP2 SWAP1 PUSH2 0x5FB7 JUMP JUMPDEST PUSH2 0x1D92 JUMP JUMPDEST PUSH1 0x40 MLOAD PUSH2 0x8B7 SWAP2 SWAP1 PUSH2 0x6D0E JUMP JUMPDEST PUSH1 0x40 MLOAD DUP1 SWAP2 SUB SWAP1 RETURN JUMPDEST PUSH2 0x8C8 PUSH2 0x1E0C JUMP JUMPDEST PUSH1 0x40 MLOAD PUSH2 0x8D5 SWAP2 SWAP1 PUSH2 0x710F JUMP JUMPDEST PUSH1 0x40 MLOAD DUP1 SWAP2 SUB SWAP1 RETURN JUMPDEST PUSH2 0x8E6 PUSH2 0x1E12 JUMP JUMPDEST PUSH1 0x40 MLOAD PUSH2 0x8F3 SWAP2 SWAP1 PUSH2 0x710F JUMP JUMPDEST PUSH1 0x40 MLOAD DUP1 SWAP2 SUB SWAP1 RETURN JUMPDEST PUSH2 0x904 PUSH2 0x1ED7 JUMP JUMPDEST PUSH1 0x40 MLOAD PUSH2 0x911 SWAP2 SWAP1 PUSH2 0x6B34 JUMP JUMPDEST PUSH1 0x40 MLOAD DUP1 SWAP2 SUB SWAP1 RETURN JUMPDEST PUSH2 0x934 PUSH1 0x4 DUP1 CALLDATASIZE SUB DUP2 ADD SWAP1 PUSH2 0x92F SWAP2 SWAP1 PUSH2 0x5EDA JUMP JUMPDEST PUSH2 0x1EFD JUMP JUMPDEST PUSH1 0x40 MLOAD PUSH2 0x941 SWAP2 SWAP1 PUSH2 0x710F JUMP JUMPDEST PUSH1 0x40 MLOAD DUP1 SWAP2 SUB SWAP1 RETURN JUMPDEST PUSH2 0x964 PUSH1 0x4 DUP1 CALLDATASIZE SUB DUP2 ADD SWAP1 PUSH2 0x95F SWAP2 SWAP1 PUSH2 0x606E JUMP JUMPDEST PUSH2 0x201E JUMP JUMPDEST PUSH1 0x40 MLOAD PUSH2 0x971 SWAP2 SWAP1 PUSH2 0x710F JUMP JUMPDEST PUSH1 0x40 MLOAD DUP1 SWAP2 SUB SWAP1 RETURN JUMPDEST PUSH2 0x982 PUSH2 0x20C6 JUMP JUMPDEST PUSH1 0x40 MLOAD PUSH2 0x98F SWAP2 SWAP1 PUSH2 0x710F JUMP JUMPDEST PUSH1 0x40 MLOAD DUP1 SWAP2 SUB SWAP1 RETURN JUMPDEST PUSH2 0x9A0 PUSH2 0x2129 JUMP JUMPDEST PUSH1 0x40 MLOAD PUSH2 0x9AD SWAP2 SWAP1 PUSH2 0x6D0E JUMP JUMPDEST PUSH1 0x40 MLOAD DUP1 SWAP2 SUB SWAP1 RETURN JUMPDEST PUSH2 0x9D0 PUSH1 0x4 DUP1 CALLDATASIZE SUB DUP2 ADD SWAP1 PUSH2 0x9CB SWAP2 SWAP1 PUSH2 0x606E JUMP JUMPDEST PUSH2 0x213C JUMP JUMPDEST PUSH1 0x40 MLOAD PUSH2 0x9DD SWAP2 SWAP1 PUSH2 0x710F JUMP JUMPDEST PUSH1 0x40 MLOAD DUP1 SWAP2 SUB SWAP1 RETURN JUMPDEST PUSH2 0xA00 PUSH1 0x4 DUP1 CALLDATASIZE SUB DUP2 ADD SWAP1 PUSH2 0x9FB SWAP2 SWAP1 PUSH2 0x606E JUMP JUMPDEST PUSH2 0x21E4 JUMP JUMPDEST PUSH1 0x40 MLOAD PUSH2 0xA0D SWAP2 SWAP1 PUSH2 0x710F JUMP JUMPDEST PUSH1 0x40 MLOAD DUP1 SWAP2 SUB SWAP1 RETURN JUMPDEST PUSH2 0xA30 PUSH1 0x4 DUP1 CALLDATASIZE SUB DUP2 ADD SWAP1 PUSH2 0xA2B SWAP2 SWAP1 PUSH2 0x5FF3 JUMP JUMPDEST PUSH2 0x228B JUMP JUMPDEST PUSH1 0x40 MLOAD PUSH2 0xA3D SWAP2 SWAP1 PUSH2 0x710F JUMP JUMPDEST PUSH1 0x40 MLOAD DUP1 SWAP2 SUB SWAP1 RETURN JUMPDEST PUSH2 0xA60 PUSH1 0x4 DUP1 CALLDATASIZE SUB DUP2 ADD SWAP1 PUSH2 0xA5B SWAP2 SWAP1 PUSH2 0x606E JUMP JUMPDEST PUSH2 0x2376 JUMP JUMPDEST PUSH1 0x40 MLOAD PUSH2 0xA6D SWAP2 SWAP1 PUSH2 0x710F JUMP JUMPDEST PUSH1 0x40 MLOAD DUP1 SWAP2 SUB SWAP1 RETURN JUMPDEST PUSH2 0xA90 PUSH1 0x4 DUP1 CALLDATASIZE SUB DUP2 ADD SWAP1 PUSH2 0xA8B SWAP2 SWAP1 PUSH2 0x5F2C JUMP JUMPDEST PUSH2 0x2420 JUMP JUMPDEST PUSH1 0x40 MLOAD PUSH2 0xA9D SWAP2 SWAP1 PUSH2 0x710F JUMP JUMPDEST PUSH1 0x40 MLOAD DUP1 SWAP2 SUB SWAP1 RETURN JUMPDEST PUSH2 0xAAE PUSH2 0x24A7 JUMP JUMPDEST PUSH1 0x40 MLOAD PUSH2 0xABB SWAP2 SWAP1 PUSH2 0x710F JUMP JUMPDEST PUSH1 0x40 MLOAD DUP1 SWAP2 SUB SWAP1 RETURN JUMPDEST PUSH2 0xADE PUSH1 0x4 DUP1 CALLDATASIZE SUB DUP2 ADD SWAP1 PUSH2 0xAD9 SWAP2 SWAP1 PUSH2 0x6045 JUMP JUMPDEST PUSH2 0x2708 JUMP JUMPDEST PUSH1 0x40 MLOAD PUSH2 0xAEB SWAP2 SWAP1 PUSH2 0x710F JUMP JUMPDEST PUSH1 0x40 MLOAD DUP1 SWAP2 SUB SWAP1 RETURN JUMPDEST PUSH2 0xAFC PUSH2 0x27AF JUMP JUMPDEST PUSH1 0x40 MLOAD PUSH2 0xB09 SWAP2 SWAP1 PUSH2 0x6D29 JUMP JUMPDEST PUSH1 0x40 MLOAD DUP1 SWAP2 SUB SWAP1 RETURN JUMPDEST PUSH2 0xB1A PUSH2 0x27D5 JUMP JUMPDEST PUSH1 0x40 MLOAD PUSH2 0xB27 SWAP2 SWAP1 PUSH2 0x6B34 JUMP JUMPDEST PUSH1 0x40 MLOAD DUP1 SWAP2 SUB SWAP1 RETURN JUMPDEST PUSH2 0xB38 PUSH2 0x27FB JUMP JUMPDEST PUSH1 0x40 MLOAD PUSH2 0xB45 SWAP2 SWAP1 PUSH2 0x710F JUMP JUMPDEST PUSH1 0x40 MLOAD DUP1 SWAP2 SUB SWAP1 RETURN JUMPDEST PUSH2 0xB68 PUSH1 0x4 DUP1 CALLDATASIZE SUB DUP2 ADD SWAP1 PUSH2 0xB63 SWAP2 SWAP1 PUSH2 0x606E JUMP JUMPDEST PUSH2 0x28BC JUMP JUMPDEST PUSH1 0x40 MLOAD PUSH2 0xB75 SWAP2 SWAP1 PUSH2 0x710F JUMP JUMPDEST PUSH1 0x40 MLOAD DUP1 SWAP2 SUB SWAP1 RETURN JUMPDEST PUSH1 0x0 DUP1 PUSH1 0x0 PUSH2 0xB8C DUP5 PUSH2 0x2963 JUMP JUMPDEST POP POP SWAP2 POP SWAP2 POP PUSH1 0x0 PUSH1 0x3 DUP2 GT ISZERO PUSH2 0xB9F JUMPI INVALID JUMPDEST DUP3 PUSH1 0x3 DUP2 GT ISZERO PUSH2 0xBAB JUMPI INVALID JUMPDEST EQ PUSH2 0xBEB JUMPI PUSH1 0x40 MLOAD PUSH32 0x8C379A000000000000000000000000000000000000000000000000000000000 DUP2 MSTORE PUSH1 0x4 ADD PUSH2 0xBE2 SWAP1 PUSH2 0x6EAF JUMP JUMPDEST PUSH1 0x40 MLOAD DUP1 SWAP2 SUB SWAP1 REVERT JUMPDEST DUP1 SWAP3 POP POP POP SWAP2 SWAP1 POP JUMP JUMPDEST PUSH1 0x40 MLOAD DUP1 PUSH1 0x40 ADD PUSH1 0x40 MSTORE DUP1 PUSH1 0x13 DUP2 MSTORE PUSH1 0x20 ADD PUSH32 0x4365727469666963617465206F66206546494C00000000000000000000000000 DUP2 MSTORE POP DUP2 JUMP JUMPDEST PUSH1 0x0 DUP1 PUSH20 0xFFFFFFFFFFFFFFFFFFFFFFFFFFFFFFFFFFFFFFFF AND DUP4 PUSH20 0xFFFFFFFFFFFFFFFFFFFFFFFFFFFFFFFFFFFFFFFF AND EQ ISZERO PUSH2 0xC9F JUMPI PUSH1 0x40 MLOAD PUSH32 0x8C379A000000000000000000000000000000000000000000000000000000000 DUP2 MSTORE PUSH1 0x4 ADD PUSH2 0xC96 SWAP1 PUSH2 0x6F2F JUMP JUMPDEST PUSH1 0x40 MLOAD DUP1 SWAP2 SUB SWAP1 REVERT JUMPDEST PUSH1 0x0 CALLER SWAP1 POP DUP3 PUSH1 0xD PUSH1 0x0 DUP4 PUSH20 0xFFFFFFFFFFFFFFFFFFFFFFFFFFFFFFFFFFFFFFFF AND PUSH20 0xFFFFFFFFFFFFFFFFFFFFFFFFFFFFFFFFFFFFFFFF AND DUP2 MSTORE PUSH1 0x20 ADD SWAP1 DUP2 MSTORE PUSH1 0x20 ADD PUSH1 0x0 KECCAK256 PUSH1 0x0 DUP7 PUSH20 0xFFFFFFFFFFFFFFFFFFFFFFFFFFFFFFFFFFFFFFFF AND PUSH20 0xFFFFFFFFFFFFFFFFFFFFFFFFFFFFFFFFFFFFFFFF AND DUP2 MSTORE PUSH1 0x20 ADD SWAP1 DUP2 MSTORE PUSH1 0x20 ADD PUSH1 0x0 KECCAK256 DUP2 SWAP1 SSTORE POP DUP4 PUSH20 0xFFFFFFFFFFFFFFFFFFFFFFFFFFFFFFFFFFFFFFFF AND DUP2 PUSH20 0xFFFFFFFFFFFFFFFFFFFFFFFFFFFFFFFFFFFFFFFF AND PUSH32 0x8C5BE1E5EBEC7D5BD14F71427D1E84F3DD0314C0F7B2291E5B200AC8C7C3B925 DUP6 PUSH1 0x40 MLOAD PUSH2 0xD82 SWAP2 SWAP1 PUSH2 0x710F JUMP JUMPDEST PUSH1 0x40 MLOAD DUP1 SWAP2 SUB SWAP1 LOG3 PUSH1 0x1 SWAP2 POP POP SWAP3 SWAP2 POP POP JUMP JUMPDEST PUSH1 0x0 PUSH1 0x2 PUSH1 0x0 SLOAD EQ ISZERO PUSH2 0xDDD JUMPI PUSH1 0x40 MLOAD PUSH32 0x8C379A000000000000000000000000000000000000000000000000000000000 DUP2 MSTORE PUSH1 0x4 ADD PUSH2 0xDD4 SWAP1 PUSH2 0x70CF JUMP JUMPDEST PUSH1 0x40 MLOAD DUP1 SWAP2 SUB SWAP1 REVERT JUMPDEST PUSH1 0x2 PUSH1 0x0 DUP2 SWAP1 SSTORE POP PUSH1 0x0 PUSH2 0xDEF PUSH2 0x19AA JUMP JUMPDEST SWAP1 POP PUSH1 0x0 PUSH1 0x9 DUP2 GT ISZERO PUSH2 0xDFE JUMPI INVALID JUMPDEST DUP2 EQ PUSH2 0xE22 JUMPI PUSH2 0xE1A DUP2 PUSH1 0x9 DUP2 GT ISZERO PUSH2 0xE13 JUMPI INVALID JUMPDEST PUSH1 0x2 PUSH2 0x2A62 JUMP JUMPDEST SWAP2 POP POP PUSH2 0xE37 JUMP JUMPDEST PUSH2 0xE2D CALLER CALLER DUP6 PUSH2 0x2ACA JUMP JUMPDEST POP DUP1 SWAP2 POP POP DUP1 SWAP2 POP POP JUMPDEST PUSH1 0x1 PUSH1 0x0 DUP2 SWAP1 SSTORE POP SWAP2 SWAP1 POP JUMP JUMPDEST PUSH1 0x0 PUSH1 0x2 PUSH1 0x0 SLOAD EQ ISZERO PUSH2 0xE8C JUMPI PUSH1 0x40 MLOAD PUSH32 0x8C379A000000000000000000000000000000000000000000000000000000000 DUP2 MSTORE PUSH1 0x4 ADD PUSH2 0xE83 SWAP1 PUSH2 0x70CF JUMP JUMPDEST PUSH1 0x40 MLOAD DUP1 SWAP2 SUB SWAP1 REVERT JUMPDEST PUSH1 0x2 PUSH1 0x0 DUP2 SWAP1 SSTORE POP PUSH1 0x0 PUSH2 0xE9E PUSH2 0x19AA JUMP JUMPDEST SWAP1 POP PUSH1 0x0 PUSH1 0x9 DUP2 GT ISZERO PUSH2 0xEAD JUMPI INVALID JUMPDEST DUP2 EQ PUSH2 0xED1 JUMPI PUSH2 0xEC9 DUP2 PUSH1 0x9 DUP2 GT ISZERO PUSH2 0xEC2 JUMPI INVALID JUMPDEST PUSH1 0x2 PUSH2 0x2A62 JUMP JUMPDEST SWAP2 POP POP PUSH2 0xEDF JUMP JUMPDEST PUSH2 0xEDB CALLER DUP5 PUSH2 0x2E52 JUMP JUMPDEST SWAP2 POP POP JUMPDEST PUSH1 0x1 PUSH1 0x0 DUP2 SWAP1 SSTORE POP SWAP2 SWAP1 POP JUMP JUMPDEST PUSH1 0x5 SLOAD DUP2 JUMP JUMPDEST PUSH1 0x0 PUSH1 0x2 PUSH1 0x0 SWAP1 SLOAD SWAP1 PUSH2 0x100 EXP SWAP1 DIV PUSH20 0xFFFFFFFFFFFFFFFFFFFFFFFFFFFFFFFFFFFFFFFF AND PUSH20 0xFFFFFFFFFFFFFFFFFFFFFFFFFFFFFFFFFFFFFFFF AND CALLER PUSH20 0xFFFFFFFFFFFFFFFFFFFFFFFFFFFFFFFFFFFFFFFF AND EQ PUSH2 0xF5C JUMPI PUSH2 0xF55 PUSH1 0x1 PUSH1 0x0 PUSH2 0x2A62 JUMP JUMPDEST SWAP1 POP PUSH2 0xFD8 JUMP JUMPDEST DUP2 ISZERO ISZERO PUSH1 0xB PUSH1 0x1 SWAP1 SLOAD SWAP1 PUSH2 0x100 EXP SWAP1 DIV PUSH1 0xFF AND ISZERO ISZERO EQ PUSH2 0xFC8 JUMPI DUP2 PUSH1 0xB PUSH1 0x1 PUSH2 0x100 EXP DUP2 SLOAD DUP2 PUSH1 0xFF MUL NOT AND SWAP1 DUP4 ISZERO ISZERO MUL OR SWAP1 SSTORE POP PUSH32 0x1717B5EA3DEEE7263023836CDD49998AC11579E79797DF6028A834ABAD3619A2 DUP3 PUSH1 0x40 MLOAD PUSH2 0xFBF SWAP2 SWAP1 PUSH2 0x6D0E JUMP JUMPDEST PUSH1 0x40 MLOAD DUP1 SWAP2 SUB SWAP1 LOG1 JUMPDEST PUSH1 0x0 PUSH1 0x9 DUP2 GT ISZERO PUSH2 0xFD5 JUMPI INVALID JUMPDEST SWAP1 POP JUMPDEST SWAP2 SWAP1 POP JUMP JUMPDEST PUSH1 0x0 PUSH1 0x2 PUSH1 0x0 SLOAD EQ ISZERO PUSH2 0x1025 JUMPI PUSH1 0x40 MLOAD PUSH32 0x8C379A000000000000000000000000000000000000000000000000000000000 DUP2 MSTORE PUSH1 0x4 ADD PUSH2 0x101C SWAP1 PUSH2 0x70CF JUMP JUMPDEST PUSH1 0x40 MLOAD DUP1 SWAP2 SUB SWAP1 REVERT JUMPDEST PUSH1 0x2 PUSH1 0x0 DUP2 SWAP1 SSTORE POP PUSH1 0x0 PUSH1 0x9 DUP2 GT ISZERO PUSH2 0x103A JUMPI INVALID JUMPDEST PUSH2 0x1042 PUSH2 0x19AA JUMP JUMPDEST EQ PUSH2 0x1082 JUMPI PUSH1 0x40 MLOAD PUSH32 0x8C379A000000000000000000000000000000000000000000000000000000000 DUP2 MSTORE PUSH1 0x4 ADD PUSH2 0x1079 SWAP1 PUSH2 0x6DAF JUMP JUMPDEST PUSH1 0x40 MLOAD DUP1 SWAP2 SUB SWAP1 REVERT JUMPDEST PUSH2 0x108B DUP3 PUSH2 0x16AE JUMP JUMPDEST SWAP1 POP PUSH1 0x1 PUSH1 0x0 DUP2 SWAP1 SSTORE POP SWAP2 SWAP1 POP JUMP JUMPDEST PUSH1 0xA SLOAD DUP2 JUMP JUMPDEST PUSH1 0x0 DUP1 PUSH1 0x0 PUSH2 0x10AD PUSH2 0x323D JUMP JUMPDEST SWAP2 POP SWAP2 POP PUSH1 0x0 PUSH1 0x3 DUP2 GT ISZERO PUSH2 0x10BE JUMPI INVALID JUMPDEST DUP3 PUSH1 0x3 DUP2 GT ISZERO PUSH2 0x10CA JUMPI INVALID JUMPDEST EQ PUSH2 0x110A JUMPI PUSH1 0x40 MLOAD PUSH32 0x8C379A000000000000000000000000000000000000000000000000000000000 DUP2 MSTORE PUSH1 0x4 ADD PUSH2 0x1101 SWAP1 PUSH2 0x706F JUMP JUMPDEST PUSH1 0x40 MLOAD DUP1 SWAP2 SUB SWAP1 REVERT JUMPDEST DUP1 SWAP3 POP POP POP SWAP1 JUMP JUMPDEST PUSH1 0x0 PUSH1 0x2 PUSH1 0x0 SLOAD EQ ISZERO PUSH2 0x115A JUMPI PUSH1 0x40 MLOAD PUSH32 0x8C379A000000000000000000000000000000000000000000000000000000000 DUP2 MSTORE PUSH1 0x4 ADD PUSH2 0x1151 SWAP1 PUSH2 0x70CF JUMP JUMPDEST PUSH1 0x40 MLOAD DUP1 SWAP2 SUB SWAP1 REVERT JUMPDEST PUSH1 0x2 PUSH1 0x0 DUP2 SWAP1 SSTORE POP PUSH1 0x0 PUSH1 0x9 DUP2 GT ISZERO PUSH2 0x116F JUMPI INVALID JUMPDEST PUSH2 0x117B CALLER DUP7 DUP7 DUP7 PUSH2 0x3318 JUMP JUMPDEST EQ SWAP1 POP PUSH1 0x1 PUSH1 0x0 DUP2 SWAP1 SSTORE POP SWAP4 SWAP3 POP POP POP JUMP JUMPDEST PUSH1 0x0 PUSH1 0x2 PUSH1 0x0 SLOAD EQ ISZERO PUSH2 0x11D5 JUMPI PUSH1 0x40 MLOAD PUSH32 0x8C379A000000000000000000000000000000000000000000000000000000000 DUP2 MSTORE PUSH1 0x4 ADD PUSH2 0x11CC SWAP1 PUSH2 0x70CF JUMP JUMPDEST PUSH1 0x40 MLOAD DUP1 SWAP2 SUB SWAP1 REVERT JUMPDEST PUSH1 0x2 PUSH1 0x0 DUP2 SWAP1 SSTORE POP PUSH1 0x0 PUSH2 0x11E7 PUSH2 0x19AA JUMP JUMPDEST SWAP1 POP PUSH1 0x0 PUSH1 0x9 DUP2 GT ISZERO PUSH2 0x11F6 JUMPI INVALID JUMPDEST DUP2 EQ PUSH2 0x121A JUMPI PUSH2 0x1212 DUP2 PUSH1 0x9 DUP2 GT ISZERO PUSH2 0x120B JUMPI INVALID JUMPDEST PUSH1 0x2 PUSH2 0x2A62 JUMP JUMPDEST SWAP2 POP POP PUSH2 0x122F JUMP JUMPDEST PUSH2 0x1225 CALLER DUP6 DUP6 PUSH2 0x2ACA JUMP JUMPDEST POP DUP1 SWAP2 POP POP DUP1 SWAP2 POP POP JUMPDEST PUSH1 0x1 PUSH1 0x0 DUP2 SWAP1 SSTORE POP SWAP3 SWAP2 POP POP JUMP JUMPDEST PUSH1 0x3 PUSH1 0x0 SWAP1 SLOAD SWAP1 PUSH2 0x100 EXP SWAP1 DIV PUSH20 0xFFFFFFFFFFFFFFFFFFFFFFFFFFFFFFFFFFFFFFFF AND DUP2 JUMP JUMPDEST PUSH1 0xF SLOAD DUP2 JUMP JUMPDEST PUSH1 0x12 DUP2 JUMP JUMPDEST PUSH1 0x0 DUP1 PUSH1 0x40 MLOAD DUP1 PUSH1 0x20 ADD PUSH1 0x40 MSTORE DUP1 PUSH2 0x1284 PUSH2 0x20C6 JUMP JUMPDEST DUP2 MSTORE POP SWAP1 POP PUSH1 0x0 DUP1 PUSH2 0x12D5 DUP4 PUSH1 0xC PUSH1 0x0 DUP9 PUSH20 0xFFFFFFFFFFFFFFFFFFFFFFFFFFFFFFFFFFFFFFFF AND PUSH20 0xFFFFFFFFFFFFFFFFFFFFFFFFFFFFFFFFFFFFFFFF AND DUP2 MSTORE PUSH1 0x20 ADD SWAP1 DUP2 MSTORE PUSH1 0x20 ADD PUSH1 0x0 KECCAK256 SLOAD PUSH2 0x3785 JUMP JUMPDEST SWAP2 POP SWAP2 POP PUSH1 0x0 PUSH1 0x3 DUP2 GT ISZERO PUSH2 0x12E6 JUMPI INVALID JUMPDEST DUP3 PUSH1 0x3 DUP2 GT ISZERO PUSH2 0x12F2 JUMPI INVALID JUMPDEST EQ PUSH2 0x1332 JUMPI PUSH1 0x40 MLOAD PUSH32 0x8C379A000000000000000000000000000000000000000000000000000000000 DUP2 MSTORE PUSH1 0x4 ADD PUSH2 0x1329 SWAP1 PUSH2 0x6DEF JUMP JUMPDEST PUSH1 0x40 MLOAD DUP1 SWAP2 SUB SWAP1 REVERT JUMPDEST DUP1 SWAP4 POP POP POP POP SWAP2 SWAP1 POP JUMP JUMPDEST PUSH1 0x0 PUSH2 0x1347 PUSH2 0x37DE JUMP JUMPDEST SWAP1 POP SWAP1 JUMP JUMPDEST PUSH1 0x8 SLOAD DUP2 JUMP JUMPDEST PUSH1 0x60 PUSH1 0x0 PUSH20 0xFFFFFFFFFFFFFFFFFFFFFFFFFFFFFFFFFFFFFFFF AND DUP3 PUSH20 0xFFFFFFFFFFFFFFFFFFFFFFFFFFFFFFFFFFFFFFFF AND EQ ISZERO PUSH2 0x13C4 JUMPI PUSH1 0x40 MLOAD PUSH32 0x8C379A000000000000000000000000000000000000000000000000000000000 DUP2 MSTORE PUSH1 0x4 ADD PUSH2 0x13BB SWAP1 PUSH2 0x6FEF JUMP JUMPDEST PUSH1 0x40 MLOAD DUP1 SWAP2 SUB SWAP1 REVERT JUMPDEST PUSH1 0x12 PUSH1 0x0 DUP4 PUSH20 0xFFFFFFFFFFFFFFFFFFFFFFFFFFFFFFFFFFFFFFFF AND PUSH20 0xFFFFFFFFFFFFFFFFFFFFFFFFFFFFFFFFFFFFFFFF AND DUP2 MSTORE PUSH1 0x20 ADD SWAP1 DUP2 MSTORE PUSH1 0x20 ADD PUSH1 0x0 KECCAK256 DUP1 SLOAD DUP1 PUSH1 0x20 MUL PUSH1 0x20 ADD PUSH1 0x40 MLOAD SWAP1 DUP2 ADD PUSH1 0x40 MSTORE DUP1 SWAP3 SWAP2 SWAP1 DUP2 DUP2 MSTORE PUSH1 0x20 ADD DUP3 DUP1 SLOAD DUP1 ISZERO PUSH2 0x144D JUMPI PUSH1 0x20 MUL DUP3 ADD SWAP2 SWAP1 PUSH1 0x0 MSTORE PUSH1 0x20 PUSH1 0x0 KECCAK256 SWAP1 JUMPDEST DUP2 SLOAD DUP2 MSTORE PUSH1 0x20 ADD SWAP1 PUSH1 0x1 ADD SWAP1 DUP1 DUP4 GT PUSH2 0x1439 JUMPI JUMPDEST POP POP POP POP POP SWAP1 POP SWAP2 SWAP1 POP JUMP JUMPDEST PUSH1 0xB PUSH1 0x1 SWAP1 SLOAD SWAP1 PUSH2 0x100 EXP SWAP1 DIV PUSH1 0xFF AND DUP2 JUMP JUMPDEST PUSH1 0x13 PUSH1 0x0 SWAP1 SLOAD SWAP1 PUSH2 0x100 EXP SWAP1 DIV PUSH20 0xFFFFFFFFFFFFFFFFFFFFFFFFFFFFFFFFFFFFFFFF AND DUP2 JUMP JUMPDEST PUSH1 0x6 SLOAD DUP2 JUMP JUMPDEST PUSH1 0x0 PUSH1 0xC PUSH1 0x0 DUP4 PUSH20 0xFFFFFFFFFFFFFFFFFFFFFFFFFFFFFFFFFFFFFFFF AND PUSH20 0xFFFFFFFFFFFFFFFFFFFFFFFFFFFFFFFFFFFFFFFF AND DUP2 MSTORE PUSH1 0x20 ADD SWAP1 DUP2 MSTORE PUSH1 0x20 ADD PUSH1 0x0 KECCAK256 SLOAD SWAP1 POP SWAP2 SWAP1 POP JUMP JUMPDEST PUSH1 0x0 PUSH1 0x2 PUSH1 0x0 SLOAD EQ ISZERO PUSH2 0x1529 JUMPI PUSH1 0x40 MLOAD PUSH32 0x8C379A000000000000000000000000000000000000000000000000000000000 DUP2 MSTORE PUSH1 0x4 ADD PUSH2 0x1520 SWAP1 PUSH2 0x70CF JUMP JUMPDEST PUSH1 0x40 MLOAD DUP1 SWAP2 SUB SWAP1 REVERT JUMPDEST PUSH1 0x2 PUSH1 0x0 DUP2 SWAP1 SSTORE POP PUSH1 0x0 PUSH1 0x9 DUP2 GT ISZERO PUSH2 0x153E JUMPI INVALID JUMPDEST PUSH2 0x1546 PUSH2 0x19AA JUMP JUMPDEST EQ PUSH2 0x1586 JUMPI PUSH1 0x40 MLOAD PUSH32 0x8C379A000000000000000000000000000000000000000000000000000000000 DUP2 MSTORE PUSH1 0x4 ADD PUSH2 0x157D SWAP1 PUSH2 0x6DAF JUMP JUMPDEST PUSH1 0x40 MLOAD DUP1 SWAP2 SUB SWAP1 REVERT JUMPDEST PUSH1 0x8 SLOAD SWAP1 POP PUSH1 0x1 PUSH1 0x0 DUP2 SWAP1 SSTORE POP SWAP1 JUMP JUMPDEST PUSH1 0x0 PUSH1 0x2 PUSH1 0x0 SLOAD EQ ISZERO PUSH2 0x15DE JUMPI PUSH1 0x40 MLOAD PUSH32 0x8C379A000000000000000000000000000000000000000000000000000000000 DUP2 MSTORE PUSH1 0x4 ADD PUSH2 0x15D5 SWAP1 PUSH2 0x70CF JUMP JUMPDEST PUSH1 0x40 MLOAD DUP1 SWAP2 SUB SWAP1 REVERT JUMPDEST PUSH1 0x2 PUSH1 0x0 DUP2 SWAP1 SSTORE POP PUSH1 0x0 PUSH2 0x15F0 PUSH2 0x19AA JUMP JUMPDEST SWAP1 POP PUSH1 0x0 PUSH1 0x9 DUP2 GT ISZERO PUSH2 0x15FF JUMPI INVALID JUMPDEST DUP2 EQ PUSH2 0x1623 JUMPI PUSH2 0x161B DUP2 PUSH1 0x9 DUP2 GT ISZERO PUSH2 0x1614 JUMPI INVALID JUMPDEST PUSH1 0x2 PUSH2 0x2A62 JUMP JUMPDEST SWAP2 POP POP PUSH2 0x1633 JUMP JUMPDEST PUSH2 0x162F CALLER PUSH1 0x0 DUP6 PUSH2 0x3895 JUMP JUMPDEST SWAP2 POP POP JUMPDEST PUSH1 0x1 PUSH1 0x0 DUP2 SWAP1 SSTORE POP SWAP2 SWAP1 POP JUMP JUMPDEST PUSH2 0x166C PUSH1 0x13 PUSH1 0x0 SWAP1 SLOAD SWAP1 PUSH2 0x100 EXP SWAP1 DIV PUSH20 0xFFFFFFFFFFFFFFFFFFFFFFFFFFFFFFFFFFFFFFFF AND DUP3 PUSH2 0x3D41 JUMP JUMPDEST POP JUMP JUMPDEST PUSH1 0x9 SLOAD DUP2 JUMP JUMPDEST PUSH1 0x40 MLOAD DUP1 PUSH1 0x40 ADD PUSH1 0x40 MSTORE DUP1 PUSH1 0x5 DUP2 MSTORE PUSH1 0x20 ADD PUSH32 0x636546494C000000000000000000000000000000000000000000000000000000 DUP2 MSTORE POP DUP2 JUMP JUMPDEST PUSH1 0x0 DUP1 PUSH1 0x0 PUSH2 0x16BC DUP5 PUSH2 0x3EC8 JUMP JUMPDEST SWAP2 POP SWAP2 POP PUSH1 0x0 PUSH1 0x3 DUP2 GT ISZERO PUSH2 0x16CD JUMPI INVALID JUMPDEST DUP3 PUSH1 0x3 DUP2 GT ISZERO PUSH2 0x16D9 JUMPI INVALID JUMPDEST EQ PUSH2 0x1719 JUMPI PUSH1 0x40 MLOAD PUSH32 0x8C379A000000000000000000000000000000000000000000000000000000000 DUP2 MSTORE PUSH1 0x4 ADD PUSH2 0x1710 SWAP1 PUSH2 0x6F0F JUMP JUMPDEST PUSH1 0x40 MLOAD DUP1 SWAP2 SUB SWAP1 REVERT JUMPDEST DUP1 SWAP3 POP POP POP SWAP2 SWAP1 POP JUMP JUMPDEST PUSH1 0x0 DUP1 PUSH1 0x9 DUP2 GT ISZERO PUSH2 0x1731 JUMPI INVALID JUMPDEST PUSH2 0x1739 PUSH2 0x19AA JUMP JUMPDEST EQ PUSH2 0x1779 JUMPI PUSH1 0x40 MLOAD PUSH32 0x8C379A000000000000000000000000000000000000000000000000000000000 DUP2 MSTORE PUSH1 0x4 ADD PUSH2 0x1770 SWAP1 PUSH2 0x6DAF JUMP JUMPDEST PUSH1 0x40 MLOAD DUP1 SWAP2 SUB SWAP1 REVERT JUMPDEST PUSH2 0x1782 DUP3 PUSH2 0xB7E JUMP JUMPDEST SWAP1 POP SWAP2 SWAP1 POP JUMP JUMPDEST PUSH1 0x0 PUSH1 0x10 PUSH1 0x0 DUP4 PUSH20 0xFFFFFFFFFFFFFFFFFFFFFFFFFFFFFFFFFFFFFFFF AND PUSH20 0xFFFFFFFFFFFFFFFFFFFFFFFFFFFFFFFFFFFFFFFF AND DUP2 MSTORE PUSH1 0x20 ADD SWAP1 DUP2 MSTORE PUSH1 0x20 ADD PUSH1 0x0 KECCAK256 SLOAD SWAP1 POP SWAP2 SWAP1 POP JUMP JUMPDEST PUSH1 0x0 PUSH1 0x2 PUSH1 0x0 SLOAD EQ ISZERO PUSH2 0x181A JUMPI PUSH1 0x40 MLOAD PUSH32 0x8C379A000000000000000000000000000000000000000000000000000000000 DUP2 MSTORE PUSH1 0x4 ADD PUSH2 0x1811 SWAP1 PUSH2 0x70CF JUMP JUMPDEST PUSH1 0x40 MLOAD DUP1 SWAP2 SUB SWAP1 REVERT JUMPDEST PUSH1 0x2 PUSH1 0x0 DUP2 SWAP1 SSTORE POP PUSH2 0x182B DUP3 PUSH2 0x3FCA JUMP JUMPDEST PUSH20 0xFFFFFFFFFFFFFFFFFFFFFFFFFFFFFFFFFFFFFFFF AND CALLER PUSH20 0xFFFFFFFFFFFFFFFFFFFFFFFFFFFFFFFFFFFFFFFF AND EQ PUSH2 0x1898 JUMPI PUSH1 0x40 MLOAD PUSH32 0x8C379A000000000000000000000000000000000000000000000000000000000 DUP2 MSTORE PUSH1 0x4 ADD PUSH2 0x188F SWAP1 PUSH2 0x6E0F JUMP JUMPDEST PUSH1 0x40 MLOAD DUP1 SWAP2 SUB SWAP1 REVERT JUMPDEST PUSH1 0x0 PUSH2 0x18A2 PUSH2 0x19AA JUMP JUMPDEST SWAP1 POP PUSH1 0x0 PUSH1 0x9 DUP2 GT ISZERO PUSH2 0x18B1 JUMPI INVALID JUMPDEST DUP2 EQ PUSH2 0x18D5 JUMPI PUSH2 0x18CD DUP2 PUSH1 0x9 DUP2 GT ISZERO PUSH2 0x18C6 JUMPI INVALID JUMPDEST PUSH1 0x2 PUSH2 0x2A62 JUMP JUMPDEST SWAP2 POP POP PUSH2 0x18E9 JUMP JUMPDEST PUSH2 0x18DF CALLER DUP5 PUSH2 0x41A3 JUMP JUMPDEST POP DUP1 SWAP2 POP POP DUP1 SWAP2 POP POP JUMPDEST PUSH1 0x1 PUSH1 0x0 DUP2 SWAP1 SSTORE POP SWAP2 SWAP1 POP JUMP JUMPDEST PUSH1 0x0 PUSH1 0x2 PUSH1 0x0 SLOAD EQ ISZERO PUSH2 0x193E JUMPI PUSH1 0x40 MLOAD PUSH32 0x8C379A000000000000000000000000000000000000000000000000000000000 DUP2 MSTORE PUSH1 0x4 ADD PUSH2 0x1935 SWAP1 PUSH2 0x70CF JUMP JUMPDEST PUSH1 0x40 MLOAD DUP1 SWAP2 SUB SWAP1 REVERT JUMPDEST PUSH1 0x2 PUSH1 0x0 DUP2 SWAP1 SSTORE POP PUSH1 0x0 PUSH2 0x1950 PUSH2 0x19AA JUMP JUMPDEST SWAP1 POP PUSH1 0x0 PUSH1 0x9 DUP2 GT ISZERO PUSH2 0x195F JUMPI INVALID JUMPDEST DUP2 EQ PUSH2 0x1983 JUMPI PUSH2 0x197B DUP2 PUSH1 0x9 DUP2 GT ISZERO PUSH2 0x1974 JUMPI INVALID JUMPDEST PUSH1 0x2 PUSH2 0x2A62 JUMP JUMPDEST SWAP2 POP POP PUSH2 0x1997 JUMP JUMPDEST PUSH2 0x198D CALLER DUP5 PUSH2 0x44C6 JUMP JUMPDEST POP DUP1 SWAP2 POP POP DUP1 SWAP2 POP POP JUMPDEST PUSH1 0x1 PUSH1 0x0 DUP2 SWAP1 SSTORE POP SWAP2 SWAP1 POP JUMP JUMPDEST PUSH1 0x11 SLOAD DUP2 JUMP JUMPDEST PUSH1 0x0 DUP1 PUSH2 0x19B5 PUSH2 0x4923 JUMP JUMPDEST SWAP1 POP PUSH1 0x0 PUSH1 0x6 SLOAD SWAP1 POP DUP2 DUP2 EQ ISZERO PUSH2 0x19DC JUMPI PUSH1 0x0 PUSH1 0x9 DUP2 GT ISZERO PUSH2 0x19D3 JUMPI INVALID JUMPDEST SWAP3 POP POP POP PUSH2 0x1D8F JUMP JUMPDEST PUSH1 0x0 PUSH2 0x19E6 PUSH2 0x37DE JUMP JUMPDEST SWAP1 POP PUSH1 0x0 PUSH1 0x8 SLOAD SWAP1 POP PUSH1 0x0 PUSH1 0x9 SLOAD SWAP1 POP PUSH1 0x0 PUSH1 0x7 SLOAD SWAP1 POP PUSH1 0x0 PUSH1 0x4 PUSH1 0x0 SWAP1 SLOAD SWAP1 PUSH2 0x100 EXP SWAP1 DIV PUSH20 0xFFFFFFFFFFFFFFFFFFFFFFFFFFFFFFFFFFFFFFFF AND PUSH20 0xFFFFFFFFFFFFFFFFFFFFFFFFFFFFFFFFFFFFFFFF AND PUSH4 0x15F24053 DUP7 DUP7 DUP7 PUSH1 0x40 MLOAD DUP5 PUSH4 0xFFFFFFFF AND PUSH1 0xE0 SHL DUP2 MSTORE PUSH1 0x4 ADD PUSH2 0x1A5E SWAP4 SWAP3 SWAP2 SWAP1 PUSH2 0x718A JUMP JUMPDEST PUSH1 0x20 PUSH1 0x40 MLOAD DUP1 DUP4 SUB DUP2 DUP7 DUP1 EXTCODESIZE ISZERO DUP1 ISZERO PUSH2 0x1A76 JUMPI PUSH1 0x0 DUP1 REVERT JUMPDEST POP GAS STATICCALL ISZERO DUP1 ISZERO PUSH2 0x1A8A JUMPI RETURNDATASIZE PUSH1 0x0 DUP1 RETURNDATACOPY RETURNDATASIZE PUSH1 0x0 REVERT JUMPDEST POP POP POP POP PUSH1 0x40 MLOAD RETURNDATASIZE PUSH1 0x1F NOT PUSH1 0x1F DUP3 ADD AND DUP3 ADD DUP1 PUSH1 0x40 MSTORE POP DUP2 ADD SWAP1 PUSH2 0x1AAE SWAP2 SWAP1 PUSH2 0x6097 JUMP JUMPDEST SWAP1 POP PUSH1 0x0 DUP1 PUSH2 0x1ABD DUP10 DUP10 PUSH2 0x492B JUMP JUMPDEST SWAP2 POP SWAP2 POP PUSH1 0x0 PUSH1 0x3 DUP2 GT ISZERO PUSH2 0x1ACE JUMPI INVALID JUMPDEST DUP3 PUSH1 0x3 DUP2 GT ISZERO PUSH2 0x1ADA JUMPI INVALID JUMPDEST EQ PUSH2 0x1B1A JUMPI PUSH1 0x40 MLOAD PUSH32 0x8C379A000000000000000000000000000000000000000000000000000000000 DUP2 MSTORE PUSH1 0x4 ADD PUSH2 0x1B11 SWAP1 PUSH2 0x6FAF JUMP JUMPDEST PUSH1 0x40 MLOAD DUP1 SWAP2 SUB SWAP1 REVERT JUMPDEST PUSH2 0x1B22 PUSH2 0x5C15 JUMP JUMPDEST PUSH1 0x0 DUP1 PUSH1 0x0 DUP1 PUSH2 0x1B40 PUSH1 0x40 MLOAD DUP1 PUSH1 0x20 ADD PUSH1 0x40 MSTORE DUP1 DUP11 DUP2 MSTORE POP DUP8 PUSH2 0x4953 JUMP JUMPDEST DUP1 SWAP7 POP DUP2 SWAP9 POP POP POP PUSH1 0x0 PUSH1 0x3 DUP2 GT ISZERO PUSH2 0x1B55 JUMPI INVALID JUMPDEST DUP8 PUSH1 0x3 DUP2 GT ISZERO PUSH2 0x1B61 JUMPI INVALID JUMPDEST EQ PUSH2 0x1B93 JUMPI PUSH2 0x1B7E PUSH1 0x4 PUSH1 0x7 DUP10 PUSH1 0x3 DUP2 GT ISZERO PUSH2 0x1B79 JUMPI INVALID JUMPDEST PUSH2 0x49CB JUMP JUMPDEST SWAP15 POP POP POP POP POP POP POP POP POP POP POP POP POP POP POP PUSH2 0x1D8F JUMP JUMPDEST PUSH2 0x1B9D DUP6 DUP13 PUSH2 0x3785 JUMP JUMPDEST DUP1 SWAP6 POP DUP2 SWAP9 POP POP POP PUSH1 0x0 PUSH1 0x3 DUP2 GT ISZERO PUSH2 0x1BB2 JUMPI INVALID JUMPDEST DUP8 PUSH1 0x3 DUP2 GT ISZERO PUSH2 0x1BBE JUMPI INVALID JUMPDEST EQ PUSH2 0x1BF0 JUMPI PUSH2 0x1BDB PUSH1 0x4 PUSH1 0x3 DUP10 PUSH1 0x3 DUP2 GT ISZERO PUSH2 0x1BD6 JUMPI INVALID JUMPDEST PUSH2 0x49CB JUMP JUMPDEST SWAP15 POP POP POP POP POP POP POP POP POP POP POP POP POP POP POP PUSH2 0x1D8F JUMP JUMPDEST PUSH2 0x1BFA DUP5 DUP13 PUSH2 0x4A33 JUMP JUMPDEST DUP1 SWAP5 POP DUP2 SWAP9 POP POP POP PUSH1 0x0 PUSH1 0x3 DUP2 GT ISZERO PUSH2 0x1C0F JUMPI INVALID JUMPDEST DUP8 PUSH1 0x3 DUP2 GT ISZERO PUSH2 0x1C1B JUMPI INVALID JUMPDEST EQ PUSH2 0x1C4D JUMPI PUSH2 0x1C38 PUSH1 0x4 PUSH1 0x5 DUP10 PUSH1 0x3 DUP2 GT ISZERO PUSH2 0x1C33 JUMPI INVALID JUMPDEST PUSH2 0x49CB JUMP JUMPDEST SWAP15 POP POP POP POP POP POP POP POP POP POP POP POP POP POP POP PUSH2 0x1D8F JUMP JUMPDEST PUSH2 0x1C68 PUSH1 0x40 MLOAD DUP1 PUSH1 0x20 ADD PUSH1 0x40 MSTORE DUP1 PUSH1 0x5 SLOAD DUP2 MSTORE POP DUP6 DUP13 PUSH2 0x4A62 JUMP JUMPDEST DUP1 SWAP4 POP DUP2 SWAP9 POP POP POP PUSH1 0x0 PUSH1 0x3 DUP2 GT ISZERO PUSH2 0x1C7D JUMPI INVALID JUMPDEST DUP8 PUSH1 0x3 DUP2 GT ISZERO PUSH2 0x1C89 JUMPI INVALID JUMPDEST EQ PUSH2 0x1CBB JUMPI PUSH2 0x1CA6 PUSH1 0x4 PUSH1 0x6 DUP10 PUSH1 0x3 DUP2 GT ISZERO PUSH2 0x1CA1 JUMPI INVALID JUMPDEST PUSH2 0x49CB JUMP JUMPDEST SWAP15 POP POP POP POP POP POP POP POP POP POP POP POP POP POP POP PUSH2 0x1D8F JUMP JUMPDEST PUSH2 0x1CC6 DUP6 DUP11 DUP12 PUSH2 0x4A62 JUMP JUMPDEST DUP1 SWAP3 POP DUP2 SWAP9 POP POP POP PUSH1 0x0 PUSH1 0x3 DUP2 GT ISZERO PUSH2 0x1CDB JUMPI INVALID JUMPDEST DUP8 PUSH1 0x3 DUP2 GT ISZERO PUSH2 0x1CE7 JUMPI INVALID JUMPDEST EQ PUSH2 0x1D18 JUMPI PUSH2 0x1D03 PUSH1 0x4 DUP1 DUP10 PUSH1 0x3 DUP2 GT ISZERO PUSH2 0x1CFE JUMPI INVALID JUMPDEST PUSH2 0x49CB JUMP JUMPDEST SWAP15 POP POP POP POP POP POP POP POP POP POP POP POP POP POP POP PUSH2 0x1D8F JUMP JUMPDEST DUP14 PUSH1 0x6 DUP2 SWAP1 SSTORE POP DUP1 PUSH1 0x7 DUP2 SWAP1 SSTORE POP DUP3 PUSH1 0x8 DUP2 SWAP1 SSTORE POP DUP2 PUSH1 0x9 DUP2 SWAP1 SSTORE POP PUSH32 0x4DEC04E750CA11537CABCD8A9EAB06494DE08DA3735BC8871CD41250E190BC04 DUP13 DUP6 DUP4 DUP7 PUSH1 0x40 MLOAD PUSH2 0x1D69 SWAP5 SWAP4 SWAP3 SWAP2 SWAP1 PUSH2 0x71C1 JUMP JUMPDEST PUSH1 0x40 MLOAD DUP1 SWAP2 SUB SWAP1 LOG1 PUSH1 0x0 PUSH1 0x9 DUP2 GT ISZERO PUSH2 0x1D7E JUMPI INVALID JUMPDEST SWAP15 POP POP POP POP POP POP POP POP POP POP POP POP POP POP POP JUMPDEST SWAP1 JUMP JUMPDEST PUSH1 0x0 PUSH1 0x2 PUSH1 0x0 SLOAD EQ ISZERO PUSH2 0x1DDA JUMPI PUSH1 0x40 MLOAD PUSH32 0x8C379A000000000000000000000000000000000000000000000000000000000 DUP2 MSTORE PUSH1 0x4 ADD PUSH2 0x1DD1 SWAP1 PUSH2 0x70CF JUMP JUMPDEST PUSH1 0x40 MLOAD DUP1 SWAP2 SUB SWAP1 REVERT JUMPDEST PUSH1 0x2 PUSH1 0x0 DUP2 SWAP1 SSTORE POP PUSH1 0x0 PUSH1 0x9 DUP2 GT ISZERO PUSH2 0x1DEF JUMPI INVALID JUMPDEST PUSH2 0x1DFB CALLER CALLER DUP7 DUP7 PUSH2 0x3318 JUMP JUMPDEST EQ SWAP1 POP PUSH1 0x1 PUSH1 0x0 DUP2 SWAP1 SSTORE POP SWAP3 SWAP2 POP POP JUMP JUMPDEST PUSH1 0x7 SLOAD DUP2 JUMP JUMPDEST PUSH1 0x0 PUSH1 0x4 PUSH1 0x0 SWAP1 SLOAD SWAP1 PUSH2 0x100 EXP SWAP1 DIV PUSH20 0xFFFFFFFFFFFFFFFFFFFFFFFFFFFFFFFFFFFFFFFF AND PUSH20 0xFFFFFFFFFFFFFFFFFFFFFFFFFFFFFFFFFFFFFFFF AND PUSH4 0xB8168816 PUSH2 0x1E5A PUSH2 0x37DE JUMP JUMPDEST PUSH1 0x8 SLOAD PUSH1 0x9 SLOAD PUSH1 0x5 SLOAD PUSH1 0x40 MLOAD DUP6 PUSH4 0xFFFFFFFF AND PUSH1 0xE0 SHL DUP2 MSTORE PUSH1 0x4 ADD PUSH2 0x1E82 SWAP5 SWAP4 SWAP3 SWAP2 SWAP1 PUSH2 0x71C1 JUMP JUMPDEST PUSH1 0x20 PUSH1 0x40 MLOAD DUP1 DUP4 SUB DUP2 DUP7 DUP1 EXTCODESIZE ISZERO DUP1 ISZERO PUSH2 0x1E9A JUMPI PUSH1 0x0 DUP1 REVERT JUMPDEST POP GAS STATICCALL ISZERO DUP1 ISZERO PUSH2 0x1EAE JUMPI RETURNDATASIZE PUSH1 0x0 DUP1 RETURNDATACOPY RETURNDATASIZE PUSH1 0x0 REVERT JUMPDEST POP POP POP POP PUSH1 0x40 MLOAD RETURNDATASIZE PUSH1 0x1F NOT PUSH1 0x1F DUP3 ADD AND DUP3 ADD DUP1 PUSH1 0x40 MSTORE POP DUP2 ADD SWAP1 PUSH2 0x1ED2 SWAP2 SWAP1 PUSH2 0x6097 JUMP JUMPDEST SWAP1 POP SWAP1 JUMP JUMPDEST PUSH1 0x1 PUSH1 0x0 SWAP1 SLOAD SWAP1 PUSH2 0x100 EXP SWAP1 DIV PUSH20 0xFFFFFFFFFFFFFFFFFFFFFFFFFFFFFFFFFFFFFFFF AND DUP2 JUMP JUMPDEST PUSH1 0x0 PUSH1 0x2 PUSH1 0x0 SWAP1 SLOAD SWAP1 PUSH2 0x100 EXP SWAP1 DIV PUSH20 0xFFFFFFFFFFFFFFFFFFFFFFFFFFFFFFFFFFFFFFFF AND PUSH20 0xFFFFFFFFFFFFFFFFFFFFFFFFFFFFFFFFFFFFFFFF AND CALLER PUSH20 0xFFFFFFFFFFFFFFFFFFFFFFFFFFFFFFFFFFFFFFFF AND EQ PUSH2 0x1F67 JUMPI PUSH2 0x1F60 PUSH1 0x1 PUSH1 0x0 PUSH2 0x2A62 JUMP JUMPDEST SWAP1 POP PUSH2 0x2019 JUMP JUMPDEST PUSH1 0x0 PUSH1 0x3 PUSH1 0x0 SWAP1 SLOAD SWAP1 PUSH2 0x100 EXP SWAP1 DIV PUSH20 0xFFFFFFFFFFFFFFFFFFFFFFFFFFFFFFFFFFFFFFFF AND SWAP1 POP DUP3 PUSH1 0x3 PUSH1 0x0 PUSH2 0x100 EXP DUP2 SLOAD DUP2 PUSH20 0xFFFFFFFFFFFFFFFFFFFFFFFFFFFFFFFFFFFFFFFF MUL NOT AND SWAP1 DUP4 PUSH20 0xFFFFFFFFFFFFFFFFFFFFFFFFFFFFFFFFFFFFFFFF AND MUL OR SWAP1 SSTORE POP PUSH32 0xCA4F2F25D0898EDD99413412FB94012F9E54EC8142F9B093E7720646A95B16A9 DUP2 DUP5 PUSH1 0x40 MLOAD PUSH2 0x2000 SWAP3 SWAP2 SWAP1 PUSH2 0x6B4F JUMP JUMPDEST PUSH1 0x40 MLOAD DUP1 SWAP2 SUB SWAP1 LOG1 PUSH1 0x0 PUSH1 0x9 DUP2 GT ISZERO PUSH2 0x2015 JUMPI INVALID JUMPDEST SWAP2 POP POP JUMPDEST SWAP2 SWAP1 POP JUMP JUMPDEST PUSH1 0x0 PUSH1 0x2 PUSH1 0x0 SLOAD EQ ISZERO PUSH2 0x2066 JUMPI PUSH1 0x40 MLOAD PUSH32 0x8C379A000000000000000000000000000000000000000000000000000000000 DUP2 MSTORE PUSH1 0x4 ADD PUSH2 0x205D SWAP1 PUSH2 0x70CF JUMP JUMPDEST PUSH1 0x40 MLOAD DUP1 SWAP2 SUB SWAP1 REVERT JUMPDEST PUSH1 0x2 PUSH1 0x0 DUP2 SWAP1 SSTORE POP PUSH1 0x0 PUSH2 0x2078 PUSH2 0x19AA JUMP JUMPDEST SWAP1 POP PUSH1 0x0 PUSH1 0x9 DUP2 GT ISZERO PUSH2 0x2087 JUMPI INVALID JUMPDEST DUP2 EQ PUSH2 0x20AB JUMPI PUSH2 0x20A3 DUP2 PUSH1 0x9 DUP2 GT ISZERO PUSH2 0x209C JUMPI INVALID JUMPDEST PUSH1 0x2 PUSH2 0x2A62 JUMP JUMPDEST SWAP2 POP POP PUSH2 0x20B9 JUMP JUMPDEST PUSH2 0x20B5 CALLER DUP5 PUSH2 0x4AC3 JUMP JUMPDEST SWAP2 POP POP JUMPDEST PUSH1 0x1 PUSH1 0x0 DUP2 SWAP1 SSTORE POP SWAP2 SWAP1 POP JUMP JUMPDEST PUSH1 0x0 DUP1 PUSH1 0x9 DUP2 GT ISZERO PUSH2 0x20D4 JUMPI INVALID JUMPDEST PUSH2 0x20DC PUSH2 0x19AA JUMP JUMPDEST EQ PUSH2 0x211C JUMPI PUSH1 0x40 MLOAD PUSH32 0x8C379A000000000000000000000000000000000000000000000000000000000 DUP2 MSTORE PUSH1 0x4 ADD PUSH2 0x2113 SWAP1 PUSH2 0x6DAF JUMP JUMPDEST PUSH1 0x40 MLOAD DUP1 SWAP2 SUB SWAP1 REVERT JUMPDEST PUSH2 0x2124 PUSH2 0x10A0 JUMP JUMPDEST SWAP1 POP SWAP1 JUMP JUMPDEST PUSH1 0xB PUSH1 0x0 SWAP1 SLOAD SWAP1 PUSH2 0x100 EXP SWAP1 DIV PUSH1 0xFF AND DUP2 JUMP JUMPDEST PUSH1 0x0 PUSH1 0x2 PUSH1 0x0 SLOAD EQ ISZERO PUSH2 0x2184 JUMPI PUSH1 0x40 MLOAD PUSH32 0x8C379A000000000000000000000000000000000000000000000000000000000 DUP2 MSTORE PUSH1 0x4 ADD PUSH2 0x217B SWAP1 PUSH2 0x70CF JUMP JUMPDEST PUSH1 0x40 MLOAD DUP1 SWAP2 SUB SWAP1 REVERT JUMPDEST PUSH1 0x2 PUSH1 0x0 DUP2 SWAP1 SSTORE POP PUSH1 0x0 PUSH2 0x2196 PUSH2 0x19AA JUMP JUMPDEST SWAP1 POP PUSH1 0x0 PUSH1 0x9 DUP2 GT ISZERO PUSH2 0x21A5 JUMPI INVALID JUMPDEST DUP2 EQ PUSH2 0x21C9 JUMPI PUSH2 0x21C1 DUP2 PUSH1 0x9 DUP2 GT ISZERO PUSH2 0x21BA JUMPI INVALID JUMPDEST PUSH1 0x2 PUSH2 0x2A62 JUMP JUMPDEST SWAP2 POP POP PUSH2 0x21D7 JUMP JUMPDEST PUSH2 0x21D3 CALLER DUP5 PUSH2 0x4E0C JUMP JUMPDEST SWAP2 POP POP JUMPDEST PUSH1 0x1 PUSH1 0x0 DUP2 SWAP1 SSTORE POP SWAP2 SWAP1 POP JUMP JUMPDEST PUSH1 0x0 PUSH1 0x2 PUSH1 0x0 SLOAD EQ ISZERO PUSH2 0x222C JUMPI PUSH1 0x40 MLOAD PUSH32 0x8C379A000000000000000000000000000000000000000000000000000000000 DUP2 MSTORE PUSH1 0x4 ADD PUSH2 0x2223 SWAP1 PUSH2 0x70CF JUMP JUMPDEST PUSH1 0x40 MLOAD DUP1 SWAP2 SUB SWAP1 REVERT JUMPDEST PUSH1 0x2 PUSH1 0x0 DUP2 SWAP1 SSTORE POP PUSH1 0x0 PUSH2 0x223E PUSH2 0x19AA JUMP JUMPDEST SWAP1 POP PUSH1 0x0 PUSH1 0x9 DUP2 GT ISZERO PUSH2 0x224D JUMPI INVALID JUMPDEST DUP2 EQ PUSH2 0x2271 JUMPI PUSH2 0x2269 DUP2 PUSH1 0x9 DUP2 GT ISZERO PUSH2 0x2262 JUMPI INVALID JUMPDEST PUSH1 0x2 PUSH2 0x2A62 JUMP JUMPDEST SWAP2 POP POP PUSH2 0x227E JUMP JUMPDEST PUSH2 0x227A DUP4 PUSH2 0x5241 JUMP JUMPDEST SWAP2 POP POP JUMPDEST PUSH1 0x1 PUSH1 0x0 DUP2 SWAP1 SSTORE POP SWAP2 SWAP1 POP JUMP JUMPDEST PUSH1 0x0 PUSH1 0x2 PUSH1 0x0 SWAP1 SLOAD SWAP1 PUSH2 0x100 EXP SWAP1 DIV PUSH20 0xFFFFFFFFFFFFFFFFFFFFFFFFFFFFFFFFFFFFFFFF AND PUSH20 0xFFFFFFFFFFFFFFFFFFFFFFFFFFFFFFFFFFFFFFFF AND CALLER PUSH20 0xFFFFFFFFFFFFFFFFFFFFFFFFFFFFFFFFFFFFFFFF AND EQ PUSH2 0x22F5 JUMPI PUSH2 0x22EE PUSH1 0x1 PUSH1 0x0 PUSH2 0x2A62 JUMP JUMPDEST SWAP1 POP PUSH2 0x2371 JUMP JUMPDEST DUP2 ISZERO ISZERO PUSH1 0xB PUSH1 0x0 SWAP1 SLOAD SWAP1 PUSH2 0x100 EXP SWAP1 DIV PUSH1 0xFF AND ISZERO ISZERO EQ PUSH2 0x2361 JUMPI DUP2 PUSH1 0xB PUSH1 0x0 PUSH2 0x100 EXP DUP2 SLOAD DUP2 PUSH1 0xFF MUL NOT AND SWAP1 DUP4 ISZERO ISZERO MUL OR SWAP1 SSTORE POP PUSH32 0x7C11D7B79BDCC9099218EF3518D3A3202389AB06E9690C937F724618B9E0C46F DUP3 PUSH1 0x40 MLOAD PUSH2 0x2358 SWAP2 SWAP1 PUSH2 0x6D0E JUMP JUMPDEST PUSH1 0x40 MLOAD DUP1 SWAP2 SUB SWAP1 LOG1 JUMPDEST PUSH1 0x0 PUSH1 0x9 DUP2 GT ISZERO PUSH2 0x236E JUMPI INVALID JUMPDEST SWAP1 POP JUMPDEST SWAP2 SWAP1 POP JUMP JUMPDEST PUSH1 0x0 PUSH1 0x2 PUSH1 0x0 SLOAD EQ ISZERO PUSH2 0x23BE JUMPI PUSH1 0x40 MLOAD PUSH32 0x8C379A000000000000000000000000000000000000000000000000000000000 DUP2 MSTORE PUSH1 0x4 ADD PUSH2 0x23B5 SWAP1 PUSH2 0x70CF JUMP JUMPDEST PUSH1 0x40 MLOAD DUP1 SWAP2 SUB SWAP1 REVERT JUMPDEST PUSH1 0x2 PUSH1 0x0 DUP2 SWAP1 SSTORE POP PUSH1 0x0 PUSH2 0x23D0 PUSH2 0x19AA JUMP JUMPDEST SWAP1 POP PUSH1 0x0 PUSH1 0x9 DUP2 GT ISZERO PUSH2 0x23DF JUMPI INVALID JUMPDEST DUP2 EQ PUSH2 0x2403 JUMPI PUSH2 0x23FB DUP2 PUSH1 0x9 DUP2 GT ISZERO PUSH2 0x23F4 JUMPI INVALID JUMPDEST PUSH1 0x2 PUSH2 0x2A62 JUMP JUMPDEST SWAP2 POP POP PUSH2 0x2413 JUMP JUMPDEST PUSH2 0x240F CALLER DUP5 PUSH1 0x0 PUSH2 0x3895 JUMP JUMPDEST SWAP2 POP POP JUMPDEST PUSH1 0x1 PUSH1 0x0 DUP2 SWAP1 SSTORE POP SWAP2 SWAP1 POP JUMP JUMPDEST PUSH1 0x0 PUSH1 0xD PUSH1 0x0 DUP5 PUSH20 0xFFFFFFFFFFFFFFFFFFFFFFFFFFFFFFFFFFFFFFFF AND PUSH20 0xFFFFFFFFFFFFFFFFFFFFFFFFFFFFFFFFFFFFFFFF AND DUP2 MSTORE PUSH1 0x20 ADD SWAP1 DUP2 MSTORE PUSH1 0x20 ADD PUSH1 0x0 KECCAK256 PUSH1 0x0 DUP4 PUSH20 0xFFFFFFFFFFFFFFFFFFFFFFFFFFFFFFFFFFFFFFFF AND PUSH20 0xFFFFFFFFFFFFFFFFFFFFFFFFFFFFFFFFFFFFFFFF AND DUP2 MSTORE PUSH1 0x20 ADD SWAP1 DUP2 MSTORE PUSH1 0x20 ADD PUSH1 0x0 KECCAK256 SLOAD SWAP1 POP SWAP3 SWAP2 POP POP JUMP JUMPDEST PUSH1 0x0 PUSH1 0x3 PUSH1 0x0 SWAP1 SLOAD SWAP1 PUSH2 0x100 EXP SWAP1 DIV PUSH20 0xFFFFFFFFFFFFFFFFFFFFFFFFFFFFFFFFFFFFFFFF AND PUSH20 0xFFFFFFFFFFFFFFFFFFFFFFFFFFFFFFFFFFFFFFFF AND CALLER PUSH20 0xFFFFFFFFFFFFFFFFFFFFFFFFFFFFFFFFFFFFFFFF AND EQ ISZERO DUP1 PUSH2 0x2532 JUMPI POP PUSH1 0x0 PUSH20 0xFFFFFFFFFFFFFFFFFFFFFFFFFFFFFFFFFFFFFFFF AND CALLER PUSH20 0xFFFFFFFFFFFFFFFFFFFFFFFFFFFFFFFFFFFFFFFF AND EQ JUMPDEST ISZERO PUSH2 0x254A JUMPI PUSH2 0x2543 PUSH1 0x1 PUSH1 0x0 PUSH2 0x2A62 JUMP JUMPDEST SWAP1 POP PUSH2 0x2705 JUMP JUMPDEST PUSH1 0x0 PUSH1 0x2 PUSH1 0x0 SWAP1 SLOAD SWAP1 PUSH2 0x100 EXP SWAP1 DIV PUSH20 0xFFFFFFFFFFFFFFFFFFFFFFFFFFFFFFFFFFFFFFFF AND SWAP1 POP PUSH1 0x0 PUSH1 0x3 PUSH1 0x0 SWAP1 SLOAD SWAP1 PUSH2 0x100 EXP SWAP1 DIV PUSH20 0xFFFFFFFFFFFFFFFFFFFFFFFFFFFFFFFFFFFFFFFF AND SWAP1 POP PUSH1 0x3 PUSH1 0x0 SWAP1 SLOAD SWAP1 PUSH2 0x100 EXP SWAP1 DIV PUSH20 0xFFFFFFFFFFFFFFFFFFFFFFFFFFFFFFFFFFFFFFFF AND PUSH1 0x2 PUSH1 0x0 PUSH2 0x100 EXP DUP2 SLOAD DUP2 PUSH20 0xFFFFFFFFFFFFFFFFFFFFFFFFFFFFFFFFFFFFFFFF MUL NOT AND SWAP1 DUP4 PUSH20 0xFFFFFFFFFFFFFFFFFFFFFFFFFFFFFFFFFFFFFFFF AND MUL OR SWAP1 SSTORE POP PUSH1 0x0 PUSH1 0x3 PUSH1 0x0 PUSH2 0x100 EXP DUP2 SLOAD DUP2 PUSH20 0xFFFFFFFFFFFFFFFFFFFFFFFFFFFFFFFFFFFFFFFF MUL NOT AND SWAP1 DUP4 PUSH20 0xFFFFFFFFFFFFFFFFFFFFFFFFFFFFFFFFFFFFFFFF AND MUL OR SWAP1 SSTORE POP PUSH32 0xF9FFABCA9C8276E99321725BCB43FB076A6C66A54B7F21C4E8146D8519B417DC DUP3 PUSH1 0x2 PUSH1 0x0 SWAP1 SLOAD SWAP1 PUSH2 0x100 EXP SWAP1 DIV PUSH20 0xFFFFFFFFFFFFFFFFFFFFFFFFFFFFFFFFFFFFFFFF AND PUSH1 0x40 MLOAD PUSH2 0x2690 SWAP3 SWAP2 SWAP1 PUSH2 0x6B4F JUMP JUMPDEST PUSH1 0x40 MLOAD DUP1 SWAP2 SUB SWAP1 LOG1 PUSH32 0xCA4F2F25D0898EDD99413412FB94012F9E54EC8142F9B093E7720646A95B16A9 DUP2 PUSH1 0x3 PUSH1 0x0 SWAP1 SLOAD SWAP1 PUSH2 0x100 EXP SWAP1 DIV PUSH20 0xFFFFFFFFFFFFFFFFFFFFFFFFFFFFFFFFFFFFFFFF AND PUSH1 0x40 MLOAD PUSH2 0x26EB SWAP3 SWAP2 SWAP1 PUSH2 0x6B4F JUMP JUMPDEST PUSH1 0x40 MLOAD DUP1 SWAP2 SUB SWAP1 LOG1 PUSH1 0x0 PUSH1 0x9 DUP2 GT ISZERO PUSH2 0x2700 JUMPI INVALID JUMPDEST SWAP3 POP POP POP JUMPDEST SWAP1 JUMP JUMPDEST PUSH1 0x0 PUSH1 0x2 PUSH1 0x0 SLOAD EQ ISZERO PUSH2 0x2750 JUMPI PUSH1 0x40 MLOAD PUSH32 0x8C379A000000000000000000000000000000000000000000000000000000000 DUP2 MSTORE PUSH1 0x4 ADD PUSH2 0x2747 SWAP1 PUSH2 0x70CF JUMP JUMPDEST PUSH1 0x40 MLOAD DUP1 SWAP2 SUB SWAP1 REVERT JUMPDEST PUSH1 0x2 PUSH1 0x0 DUP2 SWAP1 SSTORE POP PUSH1 0x0 PUSH2 0x2762 PUSH2 0x19AA JUMP JUMPDEST SWAP1 POP PUSH1 0x0 PUSH1 0x9 DUP2 GT ISZERO PUSH2 0x2771 JUMPI INVALID JUMPDEST DUP2 EQ PUSH2 0x2795 JUMPI PUSH2 0x278D DUP2 PUSH1 0x9 DUP2 GT ISZERO PUSH2 0x2786 JUMPI INVALID JUMPDEST PUSH1 0x2 PUSH2 0x2A62 JUMP JUMPDEST SWAP2 POP POP PUSH2 0x27A2 JUMP JUMPDEST PUSH2 0x279E DUP4 PUSH2 0x532B JUMP JUMPDEST SWAP2 POP POP JUMPDEST PUSH1 0x1 PUSH1 0x0 DUP2 SWAP1 SSTORE POP SWAP2 SWAP1 POP JUMP JUMPDEST PUSH1 0x4 PUSH1 0x0 SWAP1 SLOAD SWAP1 PUSH2 0x100 EXP SWAP1 DIV PUSH20 0xFFFFFFFFFFFFFFFFFFFFFFFFFFFFFFFFFFFFFFFF AND DUP2 JUMP JUMPDEST PUSH1 0x2 PUSH1 0x0 SWAP1 SLOAD SWAP1 PUSH2 0x100 EXP SWAP1 DIV PUSH20 0xFFFFFFFFFFFFFFFFFFFFFFFFFFFFFFFFFFFFFFFF AND DUP2 JUMP JUMPDEST PUSH1 0x0 PUSH1 0x4 PUSH1 0x0 SWAP1 SLOAD SWAP1 PUSH2 0x100 EXP SWAP1 DIV PUSH20 0xFFFFFFFFFFFFFFFFFFFFFFFFFFFFFFFFFFFFFFFF AND PUSH20 0xFFFFFFFFFFFFFFFFFFFFFFFFFFFFFFFFFFFFFFFF AND PUSH4 0x15F24053 PUSH2 0x2843 PUSH2 0x37DE JUMP JUMPDEST PUSH1 0x8 SLOAD PUSH1 0x9 SLOAD PUSH1 0x40 MLOAD DUP5 PUSH4 0xFFFFFFFF AND PUSH1 0xE0 SHL DUP2 MSTORE PUSH1 0x4 ADD PUSH2 0x2867 SWAP4 SWAP3 SWAP2 SWAP1 PUSH2 0x718A JUMP JUMPDEST PUSH1 0x20 PUSH1 0x40 MLOAD DUP1 DUP4 SUB DUP2 DUP7 DUP1 EXTCODESIZE ISZERO DUP1 ISZERO PUSH2 0x287F JUMPI PUSH1 0x0 DUP1 REVERT JUMPDEST POP GAS STATICCALL ISZERO DUP1 ISZERO PUSH2 0x2893 JUMPI RETURNDATASIZE PUSH1 0x0 DUP1 RETURNDATACOPY RETURNDATASIZE PUSH1 0x0 REVERT JUMPDEST POP POP POP POP PUSH1 0x40 MLOAD RETURNDATASIZE PUSH1 0x1F NOT PUSH1 0x1F DUP3 ADD AND DUP3 ADD DUP1 PUSH1 0x40 MSTORE POP DUP2 ADD SWAP1 PUSH2 0x28B7 SWAP2 SWAP1 PUSH2 0x6097 JUMP JUMPDEST SWAP1 POP SWAP1 JUMP JUMPDEST PUSH1 0x0 PUSH1 0x2 PUSH1 0x0 SLOAD EQ ISZERO PUSH2 0x2904 JUMPI PUSH1 0x40 MLOAD PUSH32 0x8C379A000000000000000000000000000000000000000000000000000000000 DUP2 MSTORE PUSH1 0x4 ADD PUSH2 0x28FB SWAP1 PUSH2 0x70CF JUMP JUMPDEST PUSH1 0x40 MLOAD DUP1 SWAP2 SUB SWAP1 REVERT JUMPDEST PUSH1 0x2 PUSH1 0x0 DUP2 SWAP1 SSTORE POP PUSH1 0x0 PUSH2 0x2916 PUSH2 0x19AA JUMP JUMPDEST SWAP1 POP PUSH1 0x0 PUSH1 0x9 DUP2 GT ISZERO PUSH2 0x2925 JUMPI INVALID JUMPDEST DUP2 EQ PUSH2 0x2949 JUMPI PUSH2 0x2941 DUP2 PUSH1 0x9 DUP2 GT ISZERO PUSH2 0x293A JUMPI INVALID JUMPDEST PUSH1 0x2 PUSH2 0x2A62 JUMP JUMPDEST SWAP2 POP POP PUSH2 0x2956 JUMP JUMPDEST PUSH2 0x2952 DUP4 PUSH2 0x5509 JUMP JUMPDEST SWAP2 POP POP JUMPDEST PUSH1 0x1 PUSH1 0x0 DUP2 SWAP1 SSTORE POP SWAP2 SWAP1 POP JUMP JUMPDEST PUSH1 0x0 DUP1 PUSH1 0x0 DUP1 PUSH1 0x0 DUP1 PUSH1 0x0 PUSH2 0x2976 PUSH2 0x5C15 JUMP JUMPDEST PUSH2 0x297F DUP10 PUSH2 0x3EC8 JUMP JUMPDEST DUP1 SWAP5 POP DUP2 SWAP6 POP POP POP PUSH1 0x0 PUSH1 0x3 DUP2 GT ISZERO PUSH2 0x2994 JUMPI INVALID JUMPDEST DUP5 PUSH1 0x3 DUP2 GT ISZERO PUSH2 0x29A0 JUMPI INVALID JUMPDEST EQ PUSH2 0x29BC JUMPI DUP4 PUSH1 0x0 DUP1 PUSH1 0x0 SWAP8 POP SWAP8 POP SWAP8 POP SWAP8 POP POP POP POP POP PUSH2 0x2A5B JUMP JUMPDEST PUSH1 0x10 PUSH1 0x0 DUP11 PUSH20 0xFFFFFFFFFFFFFFFFFFFFFFFFFFFFFFFFFFFFFFFF AND PUSH20 0xFFFFFFFFFFFFFFFFFFFFFFFFFFFFFFFFFFFFFFFF AND DUP2 MSTORE PUSH1 0x20 ADD SWAP1 DUP2 MSTORE PUSH1 0x20 ADD PUSH1 0x0 KECCAK256 SLOAD SWAP2 POP PUSH2 0x2A08 DUP4 DUP4 PUSH2 0x55F3 JUMP JUMPDEST DUP1 SWAP3 POP DUP2 SWAP6 POP POP POP PUSH1 0x0 PUSH1 0x3 DUP2 GT ISZERO PUSH2 0x2A1D JUMPI INVALID JUMPDEST DUP5 PUSH1 0x3 DUP2 GT ISZERO PUSH2 0x2A29 JUMPI INVALID JUMPDEST EQ PUSH2 0x2A45 JUMPI DUP4 PUSH1 0x0 DUP1 PUSH1 0x0 SWAP8 POP SWAP8 POP SWAP8 POP SWAP8 POP POP POP POP POP PUSH2 0x2A5B JUMP JUMPDEST PUSH1 0x0 DUP2 PUSH1 0x0 ADD MLOAD DUP5 DUP5 SWAP8 POP SWAP8 POP SWAP8 POP SWAP8 POP POP POP POP POP JUMPDEST SWAP2 SWAP4 POP SWAP2 SWAP4 JUMP JUMPDEST PUSH1 0x0 PUSH32 0x45B96FE442630264581B197E84BBADA861235052C5A1AADFFF9EA4E40A969AA0 DUP4 PUSH1 0x9 DUP2 GT ISZERO PUSH2 0x2A91 JUMPI INVALID JUMPDEST DUP4 PUSH1 0x27 DUP2 GT ISZERO PUSH2 0x2A9D JUMPI INVALID JUMPDEST PUSH1 0x0 PUSH1 0x40 MLOAD PUSH2 0x2AAE SWAP4 SWAP3 SWAP2 SWAP1 PUSH2 0x7153 JUMP JUMPDEST PUSH1 0x40 MLOAD DUP1 SWAP2 SUB SWAP1 LOG1 DUP3 PUSH1 0x9 DUP2 GT ISZERO PUSH2 0x2AC2 JUMPI INVALID JUMPDEST SWAP1 POP SWAP3 SWAP2 POP POP JUMP JUMPDEST PUSH1 0x0 DUP1 PUSH2 0x2AD5 PUSH2 0x5C28 JUMP JUMPDEST PUSH1 0xE PUSH1 0x0 DUP7 PUSH20 0xFFFFFFFFFFFFFFFFFFFFFFFFFFFFFFFFFFFFFFFF AND PUSH20 0xFFFFFFFFFFFFFFFFFFFFFFFFFFFFFFFFFFFFFFFF AND DUP2 MSTORE PUSH1 0x20 ADD SWAP1 DUP2 MSTORE PUSH1 0x20 ADD PUSH1 0x0 KECCAK256 PUSH1 0x1 ADD SLOAD DUP2 PUSH1 0x60 ADD DUP2 DUP2 MSTORE POP POP PUSH2 0x2B2A DUP6 PUSH2 0x3EC8 JUMP JUMPDEST DUP3 PUSH1 0x20 ADD DUP4 PUSH1 0x80 ADD DUP3 DUP2 MSTORE POP DUP3 PUSH1 0x3 DUP2 GT ISZERO PUSH2 0x2B42 JUMPI INVALID JUMPDEST PUSH1 0x3 DUP2 GT ISZERO PUSH2 0x2B4D JUMPI INVALID JUMPDEST DUP2 MSTORE POP POP POP PUSH1 0x0 PUSH1 0x3 DUP2 GT ISZERO PUSH2 0x2B5F JUMPI INVALID JUMPDEST DUP2 PUSH1 0x20 ADD MLOAD PUSH1 0x3 DUP2 GT ISZERO PUSH2 0x2B6F JUMPI INVALID JUMPDEST EQ PUSH2 0x2B9C JUMPI PUSH2 0x2B90 PUSH1 0x4 PUSH1 0x19 DUP4 PUSH1 0x20 ADD MLOAD PUSH1 0x3 DUP2 GT ISZERO PUSH2 0x2B8B JUMPI INVALID JUMPDEST PUSH2 0x49CB JUMP JUMPDEST PUSH1 0x0 SWAP3 POP SWAP3 POP POP PUSH2 0x2E4A JUMP JUMPDEST PUSH32 0xFFFFFFFFFFFFFFFFFFFFFFFFFFFFFFFFFFFFFFFFFFFFFFFFFFFFFFFFFFFFFFFF DUP5 EQ ISZERO PUSH2 0x2BD7 JUMPI DUP1 PUSH1 0x80 ADD MLOAD DUP2 PUSH1 0x40 ADD DUP2 DUP2 MSTORE POP POP PUSH2 0x2BE2 JUMP JUMPDEST DUP4 DUP2 PUSH1 0x40 ADD DUP2 DUP2 MSTORE POP POP JUMPDEST PUSH2 0x2C13 PUSH1 0x1 PUSH1 0x0 SWAP1 SLOAD SWAP1 PUSH2 0x100 EXP SWAP1 DIV PUSH20 0xFFFFFFFFFFFFFFFFFFFFFFFFFFFFFFFFFFFFFFFF AND DUP8 DUP4 PUSH1 0x40 ADD MLOAD PUSH2 0x56BE JUMP JUMPDEST DUP2 PUSH1 0xE0 ADD DUP2 DUP2 MSTORE POP POP PUSH2 0x2C2E DUP2 PUSH1 0x80 ADD MLOAD DUP3 PUSH1 0xE0 ADD MLOAD PUSH2 0x492B JUMP JUMPDEST DUP3 PUSH1 0x20 ADD DUP4 PUSH1 0xA0 ADD DUP3 DUP2 MSTORE POP DUP3 PUSH1 0x3 DUP2 GT ISZERO PUSH2 0x2C46 JUMPI INVALID JUMPDEST PUSH1 0x3 DUP2 GT ISZERO PUSH2 0x2C51 JUMPI INVALID JUMPDEST DUP2 MSTORE POP POP POP PUSH1 0x0 PUSH1 0x3 DUP2 GT ISZERO PUSH2 0x2C63 JUMPI INVALID JUMPDEST DUP2 PUSH1 0x20 ADD MLOAD PUSH1 0x3 DUP2 GT ISZERO PUSH2 0x2C73 JUMPI INVALID JUMPDEST EQ PUSH2 0x2CB3 JUMPI PUSH1 0x40 MLOAD PUSH32 0x8C379A000000000000000000000000000000000000000000000000000000000 DUP2 MSTORE PUSH1 0x4 ADD PUSH2 0x2CAA SWAP1 PUSH2 0x6F6F JUMP JUMPDEST PUSH1 0x40 MLOAD DUP1 SWAP2 SUB SWAP1 REVERT JUMPDEST PUSH2 0x2CC3 PUSH1 0x8 SLOAD DUP3 PUSH1 0xE0 ADD MLOAD PUSH2 0x492B JUMP JUMPDEST DUP3 PUSH1 0x20 ADD DUP4 PUSH1 0xC0 ADD DUP3 DUP2 MSTORE POP DUP3 PUSH1 0x3 DUP2 GT ISZERO PUSH2 0x2CDB JUMPI INVALID JUMPDEST PUSH1 0x3 DUP2 GT ISZERO PUSH2 0x2CE6 JUMPI INVALID JUMPDEST DUP2 MSTORE POP POP POP PUSH1 0x0 PUSH1 0x3 DUP2 GT ISZERO PUSH2 0x2CF8 JUMPI INVALID JUMPDEST DUP2 PUSH1 0x20 ADD MLOAD PUSH1 0x3 DUP2 GT ISZERO PUSH2 0x2D08 JUMPI INVALID JUMPDEST EQ PUSH2 0x2D48 JUMPI PUSH1 0x40 MLOAD PUSH32 0x8C379A000000000000000000000000000000000000000000000000000000000 DUP2 MSTORE PUSH1 0x4 ADD PUSH2 0x2D3F SWAP1 PUSH2 0x6FCF JUMP JUMPDEST PUSH1 0x40 MLOAD DUP1 SWAP2 SUB SWAP1 REVERT JUMPDEST DUP1 PUSH1 0xA0 ADD MLOAD PUSH1 0xE PUSH1 0x0 DUP8 PUSH20 0xFFFFFFFFFFFFFFFFFFFFFFFFFFFFFFFFFFFFFFFF AND PUSH20 0xFFFFFFFFFFFFFFFFFFFFFFFFFFFFFFFFFFFFFFFF AND DUP2 MSTORE PUSH1 0x20 ADD SWAP1 DUP2 MSTORE PUSH1 0x20 ADD PUSH1 0x0 KECCAK256 PUSH1 0x0 ADD DUP2 SWAP1 SSTORE POP PUSH1 0x7 SLOAD PUSH1 0xE PUSH1 0x0 DUP8 PUSH20 0xFFFFFFFFFFFFFFFFFFFFFFFFFFFFFFFFFFFFFFFF AND PUSH20 0xFFFFFFFFFFFFFFFFFFFFFFFFFFFFFFFFFFFFFFFF AND DUP2 MSTORE PUSH1 0x20 ADD SWAP1 DUP2 MSTORE PUSH1 0x20 ADD PUSH1 0x0 KECCAK256 PUSH1 0x1 ADD DUP2 SWAP1 SSTORE POP DUP1 PUSH1 0xC0 ADD MLOAD PUSH1 0x8 DUP2 SWAP1 SSTORE POP PUSH32 0x1A2A22CB034D26D1854BDC6666A5B91FE25EFBBB5DCAD3B0355478D6F5C362A1 DUP7 DUP7 DUP4 PUSH1 0xE0 ADD MLOAD DUP5 PUSH1 0xA0 ADD MLOAD DUP6 PUSH1 0xC0 ADD MLOAD PUSH1 0x40 MLOAD PUSH2 0x2E2A SWAP6 SWAP5 SWAP4 SWAP3 SWAP2 SWAP1 PUSH2 0x6BF4 JUMP JUMPDEST PUSH1 0x40 MLOAD DUP1 SWAP2 SUB SWAP1 LOG1 PUSH1 0x0 PUSH1 0x9 DUP2 GT ISZERO PUSH2 0x2E3F JUMPI INVALID JUMPDEST DUP2 PUSH1 0xE0 ADD MLOAD SWAP3 POP SWAP3 POP POP JUMPDEST SWAP4 POP SWAP4 SWAP2 POP POP JUMP JUMPDEST PUSH1 0x0 DUP1 PUSH1 0x10 PUSH1 0x0 DUP6 PUSH20 0xFFFFFFFFFFFFFFFFFFFFFFFFFFFFFFFFFFFFFFFF AND PUSH20 0xFFFFFFFFFFFFFFFFFFFFFFFFFFFFFFFFFFFFFFFF AND DUP2 MSTORE PUSH1 0x20 ADD SWAP1 DUP2 MSTORE PUSH1 0x20 ADD PUSH1 0x0 KECCAK256 SLOAD EQ ISZERO DUP1 PUSH2 0x2EE2 JUMPI POP PUSH1 0x0 PUSH1 0xC PUSH1 0x0 DUP6 PUSH20 0xFFFFFFFFFFFFFFFFFFFFFFFFFFFFFFFFFFFFFFFF AND PUSH20 0xFFFFFFFFFFFFFFFFFFFFFFFFFFFFFFFFFFFFFFFF AND DUP2 MSTORE PUSH1 0x20 ADD SWAP1 DUP2 MSTORE PUSH1 0x20 ADD PUSH1 0x0 KECCAK256 SLOAD EQ ISZERO JUMPDEST ISZERO PUSH2 0x2EFA JUMPI PUSH2 0x2EF3 PUSH1 0x3 PUSH1 0x20 PUSH2 0x2A62 JUMP JUMPDEST SWAP1 POP PUSH2 0x3237 JUMP JUMPDEST PUSH2 0x2F02 PUSH2 0x5C83 JUMP JUMPDEST PUSH2 0x2F0B DUP4 PUSH2 0x2963 JUMP JUMPDEST DUP5 PUSH1 0x20 ADD DUP6 PUSH1 0x80 ADD DUP7 PUSH1 0x40 ADD DUP8 PUSH1 0x60 ADD DUP5 DUP2 MSTORE POP DUP5 DUP2 MSTORE POP DUP5 DUP2 MSTORE POP DUP5 PUSH1 0x3 DUP2 GT ISZERO PUSH2 0x2F33 JUMPI INVALID JUMPDEST PUSH1 0x3 DUP2 GT ISZERO PUSH2 0x2F3E JUMPI INVALID JUMPDEST DUP2 MSTORE POP POP POP POP POP PUSH1 0x0 PUSH1 0x3 DUP2 GT ISZERO PUSH2 0x2F52 JUMPI INVALID JUMPDEST DUP2 PUSH1 0x20 ADD MLOAD PUSH1 0x3 DUP2 GT ISZERO PUSH2 0x2F62 JUMPI INVALID JUMPDEST EQ PUSH2 0x2F8B JUMPI PUSH2 0x2F83 PUSH1 0x4 PUSH1 0x21 DUP4 PUSH1 0x20 ADD MLOAD PUSH1 0x3 DUP2 GT ISZERO PUSH2 0x2F7E JUMPI INVALID JUMPDEST PUSH2 0x49CB JUMP JUMPDEST SWAP2 POP POP PUSH2 0x3237 JUMP JUMPDEST PUSH1 0x11 SLOAD DUP2 PUSH1 0x80 ADD MLOAD LT ISZERO PUSH2 0x2FAD JUMPI PUSH2 0x2FA5 PUSH1 0x3 PUSH1 0x22 PUSH2 0x2A62 JUMP JUMPDEST SWAP2 POP POP PUSH2 0x3237 JUMP JUMPDEST DUP1 PUSH1 0x40 ADD MLOAD PUSH2 0x2FE3 PUSH1 0x1 PUSH1 0x0 SWAP1 SLOAD SWAP1 PUSH2 0x100 EXP SWAP1 DIV PUSH20 0xFFFFFFFFFFFFFFFFFFFFFFFFFFFFFFFFFFFFFFFF AND DUP7 DUP5 PUSH1 0x40 ADD MLOAD PUSH2 0x56BE JUMP JUMPDEST EQ PUSH2 0x3023 JUMPI PUSH1 0x40 MLOAD PUSH32 0x8C379A000000000000000000000000000000000000000000000000000000000 DUP2 MSTORE PUSH1 0x4 ADD PUSH2 0x301A SWAP1 PUSH2 0x6F8F JUMP JUMPDEST PUSH1 0x40 MLOAD DUP1 SWAP2 SUB SWAP1 REVERT JUMPDEST PUSH2 0x3033 PUSH1 0x8 SLOAD DUP3 PUSH1 0x40 ADD MLOAD PUSH2 0x492B JUMP JUMPDEST DUP3 PUSH1 0x20 ADD DUP4 PUSH1 0xA0 ADD DUP3 DUP2 MSTORE POP DUP3 PUSH1 0x3 DUP2 GT ISZERO PUSH2 0x304B JUMPI INVALID JUMPDEST PUSH1 0x3 DUP2 GT ISZERO PUSH2 0x3056 JUMPI INVALID JUMPDEST DUP2 MSTORE POP POP POP PUSH1 0x0 PUSH1 0x3 DUP2 GT ISZERO PUSH2 0x3068 JUMPI INVALID JUMPDEST DUP2 PUSH1 0x20 ADD MLOAD PUSH1 0x3 DUP2 GT ISZERO PUSH2 0x3078 JUMPI INVALID JUMPDEST EQ PUSH2 0x30B8 JUMPI PUSH1 0x40 MLOAD PUSH32 0x8C379A000000000000000000000000000000000000000000000000000000000 DUP2 MSTORE PUSH1 0x4 ADD PUSH2 0x30AF SWAP1 PUSH2 0x6F4F JUMP JUMPDEST PUSH1 0x40 MLOAD DUP1 SWAP2 SUB SWAP1 REVERT JUMPDEST PUSH1 0x0 PUSH1 0xE PUSH1 0x0 DUP6 PUSH20 0xFFFFFFFFFFFFFFFFFFFFFFFFFFFFFFFFFFFFFFFF AND PUSH20 0xFFFFFFFFFFFFFFFFFFFFFFFFFFFFFFFFFFFFFFFF AND DUP2 MSTORE PUSH1 0x20 ADD SWAP1 DUP2 MSTORE PUSH1 0x20 ADD PUSH1 0x0 KECCAK256 PUSH1 0x0 ADD DUP2 SWAP1 SSTORE POP PUSH1 0x7 SLOAD PUSH1 0xE PUSH1 0x0 DUP6 PUSH20 0xFFFFFFFFFFFFFFFFFFFFFFFFFFFFFFFFFFFFFFFF AND PUSH20 0xFFFFFFFFFFFFFFFFFFFFFFFFFFFFFFFFFFFFFFFF AND DUP2 MSTORE PUSH1 0x20 ADD SWAP1 DUP2 MSTORE PUSH1 0x20 ADD PUSH1 0x0 KECCAK256 PUSH1 0x1 ADD DUP2 SWAP1 SSTORE POP DUP1 PUSH1 0xA0 ADD MLOAD PUSH1 0x8 DUP2 SWAP1 SSTORE POP PUSH1 0x0 PUSH1 0x10 PUSH1 0x0 DUP6 PUSH20 0xFFFFFFFFFFFFFFFFFFFFFFFFFFFFFFFFFFFFFFFF AND PUSH20 0xFFFFFFFFFFFFFFFFFFFFFFFFFFFFFFFFFFFFFFFF AND DUP2 MSTORE PUSH1 0x20 ADD SWAP1 DUP2 MSTORE PUSH1 0x20 ADD PUSH1 0x0 KECCAK256 DUP2 SWAP1 SSTORE POP DUP1 PUSH1 0x60 ADD MLOAD PUSH1 0x10 PUSH1 0x0 DUP7 PUSH20 0xFFFFFFFFFFFFFFFFFFFFFFFFFFFFFFFFFFFFFFFF AND PUSH20 0xFFFFFFFFFFFFFFFFFFFFFFFFFFFFFFFFFFFFFFFF AND DUP2 MSTORE PUSH1 0x20 ADD SWAP1 DUP2 MSTORE PUSH1 0x20 ADD PUSH1 0x0 KECCAK256 DUP2 SWAP1 SSTORE POP PUSH32 0x8B197B6AE66D18EE6FA20A826A84579A925B9E646A3BF19E96F59ED568C2688 DUP5 DUP5 DUP4 PUSH1 0x40 ADD MLOAD DUP5 PUSH1 0x60 ADD MLOAD PUSH1 0x40 MLOAD PUSH2 0x321E SWAP5 SWAP4 SWAP3 SWAP2 SWAP1 PUSH2 0x6BAF JUMP JUMPDEST PUSH1 0x40 MLOAD DUP1 SWAP2 SUB SWAP1 LOG1 PUSH1 0x0 PUSH1 0x9 DUP2 GT ISZERO PUSH2 0x3233 JUMPI INVALID JUMPDEST SWAP2 POP POP JUMPDEST SWAP3 SWAP2 POP POP JUMP JUMPDEST PUSH1 0x0 DUP1 PUSH1 0x0 PUSH1 0xA SLOAD SWAP1 POP PUSH1 0x0 DUP2 EQ ISZERO PUSH2 0x3264 JUMPI PUSH1 0x0 PUSH7 0x71AFD498D0000 SWAP3 POP SWAP3 POP POP PUSH2 0x3314 JUMP JUMPDEST PUSH1 0x0 PUSH2 0x326E PUSH2 0x37DE JUMP JUMPDEST SWAP1 POP PUSH1 0x0 PUSH2 0x327A PUSH2 0x5C15 JUMP JUMPDEST PUSH1 0x0 PUSH2 0x328B DUP5 PUSH1 0x8 SLOAD PUSH1 0x9 SLOAD PUSH2 0x590F JUMP JUMPDEST DUP1 SWAP5 POP DUP2 SWAP3 POP POP POP PUSH1 0x0 PUSH1 0x3 DUP2 GT ISZERO PUSH2 0x32A0 JUMPI INVALID JUMPDEST DUP2 PUSH1 0x3 DUP2 GT ISZERO PUSH2 0x32AC JUMPI INVALID JUMPDEST EQ PUSH2 0x32C2 JUMPI DUP1 PUSH1 0x0 SWAP7 POP SWAP7 POP POP POP POP POP POP PUSH2 0x3314 JUMP JUMPDEST PUSH2 0x32CC DUP4 DUP7 PUSH2 0x55F3 JUMP JUMPDEST DUP1 SWAP4 POP DUP2 SWAP3 POP POP POP PUSH1 0x0 PUSH1 0x3 DUP2 GT ISZERO PUSH2 0x32E1 JUMPI INVALID JUMPDEST DUP2 PUSH1 0x3 DUP2 GT ISZERO PUSH2 0x32ED JUMPI INVALID JUMPDEST EQ PUSH2 0x3303 JUMPI DUP1 PUSH1 0x0 SWAP7 POP SWAP7 POP POP POP POP POP POP PUSH2 0x3314 JUMP JUMPDEST PUSH1 0x0 DUP3 PUSH1 0x0 ADD MLOAD SWAP7 POP SWAP7 POP POP POP POP POP POP JUMPDEST SWAP1 SWAP2 JUMP JUMPDEST PUSH1 0x0 DUP3 PUSH20 0xFFFFFFFFFFFFFFFFFFFFFFFFFFFFFFFFFFFFFFFF AND DUP5 PUSH20 0xFFFFFFFFFFFFFFFFFFFFFFFFFFFFFFFFFFFFFFFF AND EQ DUP1 PUSH2 0x3380 JUMPI POP PUSH1 0x0 PUSH20 0xFFFFFFFFFFFFFFFFFFFFFFFFFFFFFFFFFFFFFFFF AND DUP4 PUSH20 0xFFFFFFFFFFFFFFFFFFFFFFFFFFFFFFFFFFFFFFFF AND EQ JUMPDEST ISZERO PUSH2 0x3398 JUMPI PUSH2 0x3391 PUSH1 0x2 PUSH1 0x25 PUSH2 0x2A62 JUMP JUMPDEST SWAP1 POP PUSH2 0x377D JUMP JUMPDEST PUSH1 0x0 DUP5 PUSH20 0xFFFFFFFFFFFFFFFFFFFFFFFFFFFFFFFFFFFFFFFF AND DUP7 PUSH20 0xFFFFFFFFFFFFFFFFFFFFFFFFFFFFFFFFFFFFFFFF AND EQ ISZERO PUSH2 0x33F6 JUMPI PUSH32 0xFFFFFFFFFFFFFFFFFFFFFFFFFFFFFFFFFFFFFFFFFFFFFFFFFFFFFFFFFFFFFFFF SWAP1 POP PUSH2 0x3476 JUMP JUMPDEST PUSH1 0xD PUSH1 0x0 DUP7 PUSH20 0xFFFFFFFFFFFFFFFFFFFFFFFFFFFFFFFFFFFFFFFF AND PUSH20 0xFFFFFFFFFFFFFFFFFFFFFFFFFFFFFFFFFFFFFFFF AND DUP2 MSTORE PUSH1 0x20 ADD SWAP1 DUP2 MSTORE PUSH1 0x20 ADD PUSH1 0x0 KECCAK256 PUSH1 0x0 DUP8 PUSH20 0xFFFFFFFFFFFFFFFFFFFFFFFFFFFFFFFFFFFFFFFF AND PUSH20 0xFFFFFFFFFFFFFFFFFFFFFFFFFFFFFFFFFFFFFFFF AND DUP2 MSTORE PUSH1 0x20 ADD SWAP1 DUP2 MSTORE PUSH1 0x20 ADD PUSH1 0x0 KECCAK256 SLOAD SWAP1 POP JUMPDEST PUSH1 0x0 DUP1 PUSH1 0x0 DUP1 PUSH2 0x3486 DUP6 DUP9 PUSH2 0x492B JUMP JUMPDEST DUP1 SWAP5 POP DUP2 SWAP6 POP POP POP PUSH1 0x0 PUSH1 0x3 DUP2 GT ISZERO PUSH2 0x349B JUMPI INVALID JUMPDEST DUP5 PUSH1 0x3 DUP2 GT ISZERO PUSH2 0x34A7 JUMPI INVALID JUMPDEST EQ PUSH2 0x34C4 JUMPI PUSH2 0x34B8 PUSH1 0x4 PUSH1 0x25 PUSH2 0x2A62 JUMP JUMPDEST SWAP6 POP POP POP POP POP POP PUSH2 0x377D JUMP JUMPDEST PUSH2 0x350D PUSH1 0xC PUSH1 0x0 DUP12 PUSH20 0xFFFFFFFFFFFFFFFFFFFFFFFFFFFFFFFFFFFFFFFF AND PUSH20 0xFFFFFFFFFFFFFFFFFFFFFFFFFFFFFFFFFFFFFFFF AND DUP2 MSTORE PUSH1 0x20 ADD SWAP1 DUP2 MSTORE PUSH1 0x20 ADD PUSH1 0x0 KECCAK256 SLOAD DUP9 PUSH2 0x492B JUMP JUMPDEST DUP1 SWAP4 POP DUP2 SWAP6 POP POP POP PUSH1 0x0 PUSH1 0x3 DUP2 GT ISZERO PUSH2 0x3522 JUMPI INVALID JUMPDEST DUP5 PUSH1 0x3 DUP2 GT ISZERO PUSH2 0x352E JUMPI INVALID JUMPDEST EQ PUSH2 0x354B JUMPI PUSH2 0x353F PUSH1 0x4 PUSH1 0x26 PUSH2 0x2A62 JUMP JUMPDEST SWAP6 POP POP POP POP POP POP PUSH2 0x377D JUMP JUMPDEST PUSH2 0x3594 PUSH1 0xC PUSH1 0x0 DUP11 PUSH20 0xFFFFFFFFFFFFFFFFFFFFFFFFFFFFFFFFFFFFFFFF AND PUSH20 0xFFFFFFFFFFFFFFFFFFFFFFFFFFFFFFFFFFFFFFFF AND DUP2 MSTORE PUSH1 0x20 ADD SWAP1 DUP2 MSTORE PUSH1 0x20 ADD PUSH1 0x0 KECCAK256 SLOAD DUP9 PUSH2 0x4A33 JUMP JUMPDEST DUP1 SWAP3 POP DUP2 SWAP6 POP POP POP PUSH1 0x0 PUSH1 0x3 DUP2 GT ISZERO PUSH2 0x35A9 JUMPI INVALID JUMPDEST DUP5 PUSH1 0x3 DUP2 GT ISZERO PUSH2 0x35B5 JUMPI INVALID JUMPDEST EQ PUSH2 0x35D2 JUMPI PUSH2 0x35C6 PUSH1 0x4 PUSH1 0x27 PUSH2 0x2A62 JUMP JUMPDEST SWAP6 POP POP POP POP POP POP PUSH2 0x377D JUMP JUMPDEST DUP2 PUSH1 0xC PUSH1 0x0 DUP12 PUSH20 0xFFFFFFFFFFFFFFFFFFFFFFFFFFFFFFFFFFFFFFFF AND PUSH20 0xFFFFFFFFFFFFFFFFFFFFFFFFFFFFFFFFFFFFFFFF AND DUP2 MSTORE PUSH1 0x20 ADD SWAP1 DUP2 MSTORE PUSH1 0x20 ADD PUSH1 0x0 KECCAK256 DUP2 SWAP1 SSTORE POP DUP1 PUSH1 0xC PUSH1 0x0 DUP11 PUSH20 0xFFFFFFFFFFFFFFFFFFFFFFFFFFFFFFFFFFFFFFFF AND PUSH20 0xFFFFFFFFFFFFFFFFFFFFFFFFFFFFFFFFFFFFFFFF AND DUP2 MSTORE PUSH1 0x20 ADD SWAP1 DUP2 MSTORE PUSH1 0x20 ADD PUSH1 0x0 KECCAK256 DUP2 SWAP1 SSTORE POP PUSH32 0xFFFFFFFFFFFFFFFFFFFFFFFFFFFFFFFFFFFFFFFFFFFFFFFFFFFFFFFFFFFFFFFF DUP6 EQ PUSH2 0x3703 JUMPI DUP3 PUSH1 0xD PUSH1 0x0 DUP12 PUSH20 0xFFFFFFFFFFFFFFFFFFFFFFFFFFFFFFFFFFFFFFFF AND PUSH20 0xFFFFFFFFFFFFFFFFFFFFFFFFFFFFFFFFFFFFFFFF AND DUP2 MSTORE PUSH1 0x20 ADD SWAP1 DUP2 MSTORE PUSH1 0x20 ADD PUSH1 0x0 KECCAK256 PUSH1 0x0 DUP13 PUSH20 0xFFFFFFFFFFFFFFFFFFFFFFFFFFFFFFFFFFFFFFFF AND PUSH20 0xFFFFFFFFFFFFFFFFFFFFFFFFFFFFFFFFFFFFFFFF AND DUP2 MSTORE PUSH1 0x20 ADD SWAP1 DUP2 MSTORE PUSH1 0x20 ADD PUSH1 0x0 KECCAK256 DUP2 SWAP1 SSTORE POP JUMPDEST DUP8 PUSH20 0xFFFFFFFFFFFFFFFFFFFFFFFFFFFFFFFFFFFFFFFF AND DUP10 PUSH20 0xFFFFFFFFFFFFFFFFFFFFFFFFFFFFFFFFFFFFFFFF AND PUSH32 0xDDF252AD1BE2C89B69C2B068FC378DAA952BA7F163C4A11628F55A4DF523B3EF DUP10 PUSH1 0x40 MLOAD PUSH2 0x3760 SWAP2 SWAP1 PUSH2 0x710F JUMP JUMPDEST PUSH1 0x40 MLOAD DUP1 SWAP2 SUB SWAP1 LOG3 PUSH1 0x0 PUSH1 0x9 DUP2 GT ISZERO PUSH2 0x3775 JUMPI INVALID JUMPDEST SWAP6 POP POP POP POP POP POP JUMPDEST SWAP5 SWAP4 POP POP POP POP JUMP JUMPDEST PUSH1 0x0 DUP1 PUSH1 0x0 DUP1 PUSH2 0x3795 DUP7 DUP7 PUSH2 0x4953 JUMP JUMPDEST SWAP2 POP SWAP2 POP PUSH1 0x0 PUSH1 0x3 DUP2 GT ISZERO PUSH2 0x37A6 JUMPI INVALID JUMPDEST DUP3 PUSH1 0x3 DUP2 GT ISZERO PUSH2 0x37B2 JUMPI INVALID JUMPDEST EQ PUSH2 0x37C5 JUMPI DUP2 PUSH1 0x0 SWAP4 POP SWAP4 POP POP POP PUSH2 0x37D7 JUMP JUMPDEST PUSH1 0x0 PUSH2 0x37D0 DUP3 PUSH2 0x5968 JUMP JUMPDEST SWAP4 POP SWAP4 POP POP POP JUMPDEST SWAP3 POP SWAP3 SWAP1 POP JUMP JUMPDEST PUSH1 0x0 DUP1 PUSH1 0x1 PUSH1 0x0 SWAP1 SLOAD SWAP1 PUSH2 0x100 EXP SWAP1 DIV PUSH20 0xFFFFFFFFFFFFFFFFFFFFFFFFFFFFFFFFFFFFFFFF AND SWAP1 POP DUP1 PUSH20 0xFFFFFFFFFFFFFFFFFFFFFFFFFFFFFFFFFFFFFFFF AND PUSH4 0x70A08231 ADDRESS PUSH1 0x40 MLOAD DUP3 PUSH4 0xFFFFFFFF AND PUSH1 0xE0 SHL DUP2 MSTORE PUSH1 0x4 ADD PUSH2 0x383F SWAP2 SWAP1 PUSH2 0x6B34 JUMP JUMPDEST PUSH1 0x20 PUSH1 0x40 MLOAD DUP1 DUP4 SUB DUP2 DUP7 DUP1 EXTCODESIZE ISZERO DUP1 ISZERO PUSH2 0x3857 JUMPI PUSH1 0x0 DUP1 REVERT JUMPDEST POP GAS STATICCALL ISZERO DUP1 ISZERO PUSH2 0x386B JUMPI RETURNDATASIZE PUSH1 0x0 DUP1 RETURNDATACOPY RETURNDATASIZE PUSH1 0x0 REVERT JUMPDEST POP POP POP POP PUSH1 0x40 MLOAD RETURNDATASIZE PUSH1 0x1F NOT PUSH1 0x1F DUP3 ADD AND DUP3 ADD DUP1 PUSH1 0x40 MSTORE POP DUP2 ADD SWAP1 PUSH2 0x388F SWAP2 SWAP1 PUSH2 0x6097 JUMP JUMPDEST SWAP2 POP POP SWAP1 JUMP JUMPDEST PUSH1 0x0 DUP1 DUP4 EQ DUP1 PUSH2 0x38A5 JUMPI POP PUSH1 0x0 DUP3 EQ JUMPDEST PUSH2 0x38E4 JUMPI PUSH1 0x40 MLOAD PUSH32 0x8C379A000000000000000000000000000000000000000000000000000000000 DUP2 MSTORE PUSH1 0x4 ADD PUSH2 0x38DB SWAP1 PUSH2 0x70AF JUMP JUMPDEST PUSH1 0x40 MLOAD DUP1 SWAP2 SUB SWAP1 REVERT JUMPDEST PUSH2 0x38EC PUSH2 0x5CCF JUMP JUMPDEST PUSH2 0x38F4 PUSH2 0x323D JUMP JUMPDEST DUP3 PUSH1 0x20 ADD DUP4 PUSH1 0x40 ADD DUP3 DUP2 MSTORE POP DUP3 PUSH1 0x3 DUP2 GT ISZERO PUSH2 0x390C JUMPI INVALID JUMPDEST PUSH1 0x3 DUP2 GT ISZERO PUSH2 0x3917 JUMPI INVALID JUMPDEST DUP2 MSTORE POP POP POP PUSH1 0x0 PUSH1 0x3 DUP2 GT ISZERO PUSH2 0x3929 JUMPI INVALID JUMPDEST DUP2 PUSH1 0x20 ADD MLOAD PUSH1 0x3 DUP2 GT ISZERO PUSH2 0x3939 JUMPI INVALID JUMPDEST EQ PUSH2 0x3962 JUMPI PUSH2 0x395A PUSH1 0x4 PUSH1 0x15 DUP4 PUSH1 0x20 ADD MLOAD PUSH1 0x3 DUP2 GT ISZERO PUSH2 0x3955 JUMPI INVALID JUMPDEST PUSH2 0x49CB JUMP JUMPDEST SWAP2 POP POP PUSH2 0x3D3A JUMP JUMPDEST PUSH1 0x0 DUP5 GT ISZERO PUSH2 0x3A04 JUMPI DUP4 DUP2 PUSH1 0x60 ADD DUP2 DUP2 MSTORE POP POP PUSH2 0x3991 PUSH1 0x40 MLOAD DUP1 PUSH1 0x20 ADD PUSH1 0x40 MSTORE DUP1 DUP4 PUSH1 0x40 ADD MLOAD DUP2 MSTORE POP DUP6 PUSH2 0x3785 JUMP JUMPDEST DUP3 PUSH1 0x20 ADD DUP4 PUSH1 0x80 ADD DUP3 DUP2 MSTORE POP DUP3 PUSH1 0x3 DUP2 GT ISZERO PUSH2 0x39A9 JUMPI INVALID JUMPDEST PUSH1 0x3 DUP2 GT ISZERO PUSH2 0x39B4 JUMPI INVALID JUMPDEST DUP2 MSTORE POP POP POP PUSH1 0x0 PUSH1 0x3 DUP2 GT ISZERO PUSH2 0x39C6 JUMPI INVALID JUMPDEST DUP2 PUSH1 0x20 ADD MLOAD PUSH1 0x3 DUP2 GT ISZERO PUSH2 0x39D6 JUMPI INVALID JUMPDEST EQ PUSH2 0x39FF JUMPI PUSH2 0x39F7 PUSH1 0x4 PUSH1 0x13 DUP4 PUSH1 0x20 ADD MLOAD PUSH1 0x3 DUP2 GT ISZERO PUSH2 0x39F2 JUMPI INVALID JUMPDEST PUSH2 0x49CB JUMP JUMPDEST SWAP2 POP POP PUSH2 0x3D3A JUMP JUMPDEST PUSH2 0x3A99 JUMP JUMPDEST PUSH2 0x3A20 DUP4 PUSH1 0x40 MLOAD DUP1 PUSH1 0x20 ADD PUSH1 0x40 MSTORE DUP1 DUP5 PUSH1 0x40 ADD MLOAD DUP2 MSTORE POP PUSH2 0x5987 JUMP JUMPDEST DUP3 PUSH1 0x20 ADD DUP4 PUSH1 0x60 ADD DUP3 DUP2 MSTORE POP DUP3 PUSH1 0x3 DUP2 GT ISZERO PUSH2 0x3A38 JUMPI INVALID JUMPDEST PUSH1 0x3 DUP2 GT ISZERO PUSH2 0x3A43 JUMPI INVALID JUMPDEST DUP2 MSTORE POP POP POP PUSH1 0x0 PUSH1 0x3 DUP2 GT ISZERO PUSH2 0x3A55 JUMPI INVALID JUMPDEST DUP2 PUSH1 0x20 ADD MLOAD PUSH1 0x3 DUP2 GT ISZERO PUSH2 0x3A65 JUMPI INVALID JUMPDEST EQ PUSH2 0x3A8E JUMPI PUSH2 0x3A86 PUSH1 0x4 PUSH1 0x14 DUP4 PUSH1 0x20 ADD MLOAD PUSH1 0x3 DUP2 GT ISZERO PUSH2 0x3A81 JUMPI INVALID JUMPDEST PUSH2 0x49CB JUMP JUMPDEST SWAP2 POP POP PUSH2 0x3D3A JUMP JUMPDEST DUP3 DUP2 PUSH1 0x80 ADD DUP2 DUP2 MSTORE POP POP JUMPDEST PUSH2 0x3AA9 PUSH1 0xA SLOAD DUP3 PUSH1 0x60 ADD MLOAD PUSH2 0x492B JUMP JUMPDEST DUP3 PUSH1 0x20 ADD DUP4 PUSH1 0xA0 ADD DUP3 DUP2 MSTORE POP DUP3 PUSH1 0x3 DUP2 GT ISZERO PUSH2 0x3AC1 JUMPI INVALID JUMPDEST PUSH1 0x3 DUP2 GT ISZERO PUSH2 0x3ACC JUMPI INVALID JUMPDEST DUP2 MSTORE POP POP POP PUSH1 0x0 PUSH1 0x3 DUP2 GT ISZERO PUSH2 0x3ADE JUMPI INVALID JUMPDEST DUP2 PUSH1 0x20 ADD MLOAD PUSH1 0x3 DUP2 GT ISZERO PUSH2 0x3AEE JUMPI INVALID JUMPDEST EQ PUSH2 0x3B17 JUMPI PUSH2 0x3B0F PUSH1 0x4 PUSH1 0x17 DUP4 PUSH1 0x20 ADD MLOAD PUSH1 0x3 DUP2 GT ISZERO PUSH2 0x3B0A JUMPI INVALID JUMPDEST PUSH2 0x49CB JUMP JUMPDEST SWAP2 POP POP PUSH2 0x3D3A JUMP JUMPDEST PUSH2 0x3B64 PUSH1 0xC PUSH1 0x0 DUP8 PUSH20 0xFFFFFFFFFFFFFFFFFFFFFFFFFFFFFFFFFFFFFFFF AND PUSH20 0xFFFFFFFFFFFFFFFFFFFFFFFFFFFFFFFFFFFFFFFF AND DUP2 MSTORE PUSH1 0x20 ADD SWAP1 DUP2 MSTORE PUSH1 0x20 ADD PUSH1 0x0 KECCAK256 SLOAD DUP3 PUSH1 0x60 ADD MLOAD PUSH2 0x492B JUMP JUMPDEST DUP3 PUSH1 0x20 ADD DUP4 PUSH1 0xC0 ADD DUP3 DUP2 MSTORE POP DUP3 PUSH1 0x3 DUP2 GT ISZERO PUSH2 0x3B7C JUMPI INVALID JUMPDEST PUSH1 0x3 DUP2 GT ISZERO PUSH2 0x3B87 JUMPI INVALID JUMPDEST DUP2 MSTORE POP POP POP PUSH1 0x0 PUSH1 0x3 DUP2 GT ISZERO PUSH2 0x3B99 JUMPI INVALID JUMPDEST DUP2 PUSH1 0x20 ADD MLOAD PUSH1 0x3 DUP2 GT ISZERO PUSH2 0x3BA9 JUMPI INVALID JUMPDEST EQ PUSH2 0x3BD2 JUMPI PUSH2 0x3BCA PUSH1 0x4 PUSH1 0x16 DUP4 PUSH1 0x20 ADD MLOAD PUSH1 0x3 DUP2 GT ISZERO PUSH2 0x3BC5 JUMPI INVALID JUMPDEST PUSH2 0x49CB JUMP JUMPDEST SWAP2 POP POP PUSH2 0x3D3A JUMP JUMPDEST DUP1 PUSH1 0x80 ADD MLOAD PUSH2 0x3BDF PUSH2 0x37DE JUMP JUMPDEST LT ISZERO PUSH2 0x3BF9 JUMPI PUSH2 0x3BF1 PUSH1 0x6 PUSH1 0x18 PUSH2 0x2A62 JUMP JUMPDEST SWAP2 POP POP PUSH2 0x3D3A JUMP JUMPDEST PUSH2 0x3C2A PUSH1 0x1 PUSH1 0x0 SWAP1 SLOAD SWAP1 PUSH2 0x100 EXP SWAP1 DIV PUSH20 0xFFFFFFFFFFFFFFFFFFFFFFFFFFFFFFFFFFFFFFFF AND DUP7 DUP4 PUSH1 0x80 ADD MLOAD PUSH2 0x59E0 JUMP JUMPDEST DUP1 PUSH1 0xA0 ADD MLOAD PUSH1 0xA DUP2 SWAP1 SSTORE POP DUP1 PUSH1 0xC0 ADD MLOAD PUSH1 0xC PUSH1 0x0 DUP8 PUSH20 0xFFFFFFFFFFFFFFFFFFFFFFFFFFFFFFFFFFFFFFFF AND PUSH20 0xFFFFFFFFFFFFFFFFFFFFFFFFFFFFFFFFFFFFFFFF AND DUP2 MSTORE PUSH1 0x20 ADD SWAP1 DUP2 MSTORE PUSH1 0x20 ADD PUSH1 0x0 KECCAK256 DUP2 SWAP1 SSTORE POP ADDRESS PUSH20 0xFFFFFFFFFFFFFFFFFFFFFFFFFFFFFFFFFFFFFFFF AND DUP6 PUSH20 0xFFFFFFFFFFFFFFFFFFFFFFFFFFFFFFFFFFFFFFFF AND PUSH32 0xDDF252AD1BE2C89B69C2B068FC378DAA952BA7F163C4A11628F55A4DF523B3EF DUP4 PUSH1 0x60 ADD MLOAD PUSH1 0x40 MLOAD PUSH2 0x3CDE SWAP2 SWAP1 PUSH2 0x710F JUMP JUMPDEST PUSH1 0x40 MLOAD DUP1 SWAP2 SUB SWAP1 LOG3 PUSH32 0xE5B754FB1ABB7F01B499791D0B820AE3B6AF3424AC1C59768EDB53F4EC31A929 DUP6 DUP3 PUSH1 0x80 ADD MLOAD DUP4 PUSH1 0x60 ADD MLOAD PUSH1 0x40 MLOAD PUSH2 0x3D21 SWAP4 SWAP3 SWAP2 SWAP1 PUSH2 0x6C70 JUMP JUMPDEST PUSH1 0x40 MLOAD DUP1 SWAP2 SUB SWAP1 LOG1 PUSH1 0x0 PUSH1 0x9 DUP2 GT ISZERO PUSH2 0x3D36 JUMPI INVALID JUMPDEST SWAP2 POP POP JUMPDEST SWAP4 SWAP3 POP POP POP JUMP JUMPDEST PUSH1 0x0 DUP1 DUP4 PUSH20 0xFFFFFFFFFFFFFFFFFFFFFFFFFFFFFFFFFFFFFFFF AND PUSH1 0x40 MLOAD DUP1 PUSH1 0x40 ADD PUSH1 0x40 MSTORE DUP1 PUSH1 0x16 DUP2 MSTORE PUSH1 0x20 ADD PUSH32 0x74616B654F776E6572736869702875696E743235362900000000000000000000 DUP2 MSTORE POP DUP1 MLOAD SWAP1 PUSH1 0x20 ADD KECCAK256 DUP5 PUSH1 0x40 MLOAD PUSH1 0x24 ADD PUSH2 0x3DA9 SWAP2 SWAP1 PUSH2 0x710F JUMP JUMPDEST PUSH1 0x40 MLOAD PUSH1 0x20 DUP2 DUP4 SUB SUB DUP2 MSTORE SWAP1 PUSH1 0x40 MSTORE SWAP1 PUSH28 0xFFFFFFFFFFFFFFFFFFFFFFFFFFFFFFFFFFFFFFFFFFFFFFFFFFFFFFFF NOT AND PUSH1 0x20 DUP3 ADD DUP1 MLOAD PUSH28 0xFFFFFFFFFFFFFFFFFFFFFFFFFFFFFFFFFFFFFFFFFFFFFFFFFFFFFFFF DUP4 DUP2 DUP4 AND OR DUP4 MSTORE POP POP POP POP PUSH1 0x40 MLOAD PUSH2 0x3E13 SWAP2 SWAP1 PUSH2 0x6B1D JUMP JUMPDEST PUSH1 0x0 PUSH1 0x40 MLOAD DUP1 DUP4 SUB DUP2 PUSH1 0x0 DUP7 GAS CALL SWAP2 POP POP RETURNDATASIZE DUP1 PUSH1 0x0 DUP2 EQ PUSH2 0x3E50 JUMPI PUSH1 0x40 MLOAD SWAP2 POP PUSH1 0x1F NOT PUSH1 0x3F RETURNDATASIZE ADD AND DUP3 ADD PUSH1 0x40 MSTORE RETURNDATASIZE DUP3 MSTORE RETURNDATASIZE PUSH1 0x0 PUSH1 0x20 DUP5 ADD RETURNDATACOPY PUSH2 0x3E55 JUMP JUMPDEST PUSH1 0x60 SWAP2 POP JUMPDEST POP SWAP2 POP SWAP2 POP DUP2 DUP1 ISZERO PUSH2 0x3E83 JUMPI POP PUSH1 0x0 DUP2 MLOAD EQ DUP1 PUSH2 0x3E82 JUMPI POP DUP1 DUP1 PUSH1 0x20 ADD SWAP1 MLOAD DUP2 ADD SWAP1 PUSH2 0x3E81 SWAP2 SWAP1 PUSH2 0x601C JUMP JUMPDEST JUMPDEST JUMPDEST PUSH2 0x3EC2 JUMPI PUSH1 0x40 MLOAD PUSH32 0x8C379A000000000000000000000000000000000000000000000000000000000 DUP2 MSTORE PUSH1 0x4 ADD PUSH2 0x3EB9 SWAP1 PUSH2 0x6E8F JUMP JUMPDEST PUSH1 0x40 MLOAD DUP1 SWAP2 SUB SWAP1 REVERT JUMPDEST POP POP POP POP JUMP JUMPDEST PUSH1 0x0 DUP1 PUSH1 0x0 DUP1 PUSH1 0x0 DUP1 PUSH1 0xE PUSH1 0x0 DUP9 PUSH20 0xFFFFFFFFFFFFFFFFFFFFFFFFFFFFFFFFFFFFFFFF AND PUSH20 0xFFFFFFFFFFFFFFFFFFFFFFFFFFFFFFFFFFFFFFFF AND DUP2 MSTORE PUSH1 0x20 ADD SWAP1 DUP2 MSTORE PUSH1 0x20 ADD PUSH1 0x0 KECCAK256 SWAP1 POP PUSH1 0x0 DUP2 PUSH1 0x0 ADD SLOAD EQ ISZERO PUSH2 0x3F2F JUMPI PUSH1 0x0 DUP1 SWAP6 POP SWAP6 POP POP POP POP POP PUSH2 0x3FC5 JUMP JUMPDEST PUSH2 0x3F3F DUP2 PUSH1 0x0 ADD SLOAD PUSH1 0x7 SLOAD PUSH2 0x5AC8 JUMP JUMPDEST DUP1 SWAP5 POP DUP2 SWAP6 POP POP POP PUSH1 0x0 PUSH1 0x3 DUP2 GT ISZERO PUSH2 0x3F54 JUMPI INVALID JUMPDEST DUP5 PUSH1 0x3 DUP2 GT ISZERO PUSH2 0x3F60 JUMPI INVALID JUMPDEST EQ PUSH2 0x3F75 JUMPI DUP4 PUSH1 0x0 SWAP6 POP SWAP6 POP POP POP POP POP PUSH2 0x3FC5 JUMP JUMPDEST PUSH2 0x3F83 DUP4 DUP3 PUSH1 0x1 ADD SLOAD PUSH2 0x5B15 JUMP JUMPDEST DUP1 SWAP4 POP DUP2 SWAP6 POP POP POP PUSH1 0x0 PUSH1 0x3 DUP2 GT ISZERO PUSH2 0x3F98 JUMPI INVALID JUMPDEST DUP5 PUSH1 0x3 DUP2 GT ISZERO PUSH2 0x3FA4 JUMPI INVALID JUMPDEST EQ PUSH2 0x3FB9 JUMPI DUP4 PUSH1 0x0 SWAP6 POP SWAP6 POP POP POP POP POP PUSH2 0x3FC5 JUMP JUMPDEST PUSH1 0x0 DUP3 SWAP6 POP SWAP6 POP POP POP POP POP JUMPDEST SWAP2 POP SWAP2 JUMP JUMPDEST PUSH1 0x0 DUP1 PUSH1 0x0 PUSH1 0x13 PUSH1 0x0 SWAP1 SLOAD SWAP1 PUSH2 0x100 EXP SWAP1 DIV PUSH20 0xFFFFFFFFFFFFFFFFFFFFFFFFFFFFFFFFFFFFFFFF AND PUSH20 0xFFFFFFFFFFFFFFFFFFFFFFFFFFFFFFFFFFFFFFFF AND PUSH1 0x40 MLOAD DUP1 PUSH1 0x40 ADD PUSH1 0x40 MSTORE DUP1 PUSH1 0x10 DUP2 MSTORE PUSH1 0x20 ADD PUSH32 0x6F776E65724F662875696E743235362900000000000000000000000000000000 DUP2 MSTORE POP DUP1 MLOAD SWAP1 PUSH1 0x20 ADD KECCAK256 DUP6 PUSH1 0x40 MLOAD PUSH1 0x24 ADD PUSH2 0x4056 SWAP2 SWAP1 PUSH2 0x710F JUMP JUMPDEST PUSH1 0x40 MLOAD PUSH1 0x20 DUP2 DUP4 SUB SUB DUP2 MSTORE SWAP1 PUSH1 0x40 MSTORE SWAP1 PUSH28 0xFFFFFFFFFFFFFFFFFFFFFFFFFFFFFFFFFFFFFFFFFFFFFFFFFFFFFFFF NOT AND PUSH1 0x20 DUP3 ADD DUP1 MLOAD PUSH28 0xFFFFFFFFFFFFFFFFFFFFFFFFFFFFFFFFFFFFFFFFFFFFFFFFFFFFFFFF DUP4 DUP2 DUP4 AND OR DUP4 MSTORE POP POP POP POP PUSH1 0x40 MLOAD PUSH2 0x40C0 SWAP2 SWAP1 PUSH2 0x6B1D JUMP JUMPDEST PUSH1 0x0 PUSH1 0x40 MLOAD DUP1 DUP4 SUB DUP2 PUSH1 0x0 DUP7 GAS CALL SWAP2 POP POP RETURNDATASIZE DUP1 PUSH1 0x0 DUP2 EQ PUSH2 0x40FD JUMPI PUSH1 0x40 MLOAD SWAP2 POP PUSH1 0x1F NOT PUSH1 0x3F RETURNDATASIZE ADD AND DUP3 ADD PUSH1 0x40 MSTORE RETURNDATASIZE DUP3 MSTORE RETURNDATASIZE PUSH1 0x0 PUSH1 0x20 DUP5 ADD RETURNDATACOPY PUSH2 0x4102 JUMP JUMPDEST PUSH1 0x60 SWAP2 POP JUMPDEST POP SWAP2 POP SWAP2 POP PUSH1 0x0 DUP2 DUP1 PUSH1 0x20 ADD SWAP1 MLOAD DUP2 ADD SWAP1 PUSH2 0x411D SWAP2 SWAP1 PUSH2 0x5F03 JUMP JUMPDEST SWAP1 POP DUP3 DUP1 ISZERO PUSH2 0x4159 JUMPI POP PUSH1 0x0 PUSH20 0xFFFFFFFFFFFFFFFFFFFFFFFFFFFFFFFFFFFFFFFF AND DUP2 PUSH20 0xFFFFFFFFFFFFFFFFFFFFFFFFFFFFFFFFFFFFFFFF AND EQ ISZERO JUMPDEST PUSH2 0x4198 JUMPI PUSH1 0x40 MLOAD PUSH32 0x8C379A000000000000000000000000000000000000000000000000000000000 DUP2 MSTORE PUSH1 0x4 ADD PUSH2 0x418F SWAP1 PUSH2 0x704F JUMP JUMPDEST PUSH1 0x40 MLOAD DUP1 SWAP2 SUB SWAP1 REVERT JUMPDEST DUP1 SWAP4 POP POP POP POP SWAP2 SWAP1 POP JUMP JUMPDEST PUSH1 0x0 DUP1 PUSH1 0x0 PUSH1 0xC PUSH1 0x0 DUP7 PUSH20 0xFFFFFFFFFFFFFFFFFFFFFFFFFFFFFFFFFFFFFFFF AND PUSH20 0xFFFFFFFFFFFFFFFFFFFFFFFFFFFFFFFFFFFFFFFF AND DUP2 MSTORE PUSH1 0x20 ADD SWAP1 DUP2 MSTORE PUSH1 0x20 ADD PUSH1 0x0 KECCAK256 SLOAD EQ PUSH2 0x4204 JUMPI PUSH2 0x41F9 PUSH1 0x3 PUSH1 0x1C PUSH2 0x2A62 JUMP JUMPDEST PUSH1 0x0 SWAP2 POP SWAP2 POP PUSH2 0x44BF JUMP JUMPDEST PUSH2 0x420C PUSH2 0x5D22 JUMP JUMPDEST PUSH2 0x4215 DUP5 PUSH2 0x5B46 JUMP JUMPDEST DUP2 PUSH1 0x80 ADD DUP2 DUP2 MSTORE POP POP PUSH1 0x12 PUSH1 0x0 DUP7 PUSH20 0xFFFFFFFFFFFFFFFFFFFFFFFFFFFFFFFFFFFFFFFF AND PUSH20 0xFFFFFFFFFFFFFFFFFFFFFFFFFFFFFFFFFFFFFFFF AND DUP2 MSTORE PUSH1 0x20 ADD SWAP1 DUP2 MSTORE PUSH1 0x20 ADD PUSH1 0x0 KECCAK256 DUP5 SWAP1 DUP1 PUSH1 0x1 DUP2 SLOAD ADD DUP1 DUP3 SSTORE DUP1 SWAP2 POP POP PUSH1 0x1 SWAP1 SUB SWAP1 PUSH1 0x0 MSTORE PUSH1 0x20 PUSH1 0x0 KECCAK256 ADD PUSH1 0x0 SWAP1 SWAP2 SWAP1 SWAP2 SWAP1 SWAP2 POP SSTORE PUSH2 0x42B0 PUSH1 0x13 PUSH1 0x0 SWAP1 SLOAD SWAP1 PUSH2 0x100 EXP SWAP1 DIV PUSH20 0xFFFFFFFFFFFFFFFFFFFFFFFFFFFFFFFFFFFFFFFF AND DUP6 PUSH2 0x3D41 JUMP JUMPDEST PUSH2 0x42C0 PUSH1 0xF SLOAD DUP3 PUSH1 0x80 ADD MLOAD PUSH2 0x4A33 JUMP JUMPDEST DUP3 PUSH1 0x20 ADD DUP4 PUSH1 0x40 ADD DUP3 DUP2 MSTORE POP DUP3 PUSH1 0x3 DUP2 GT ISZERO PUSH2 0x42D8 JUMPI INVALID JUMPDEST PUSH1 0x3 DUP2 GT ISZERO PUSH2 0x42E3 JUMPI INVALID JUMPDEST DUP2 MSTORE POP POP POP PUSH1 0x0 PUSH1 0x3 DUP2 GT ISZERO PUSH2 0x42F5 JUMPI INVALID JUMPDEST DUP2 PUSH1 0x20 ADD MLOAD PUSH1 0x3 DUP2 GT ISZERO PUSH2 0x4305 JUMPI INVALID JUMPDEST EQ PUSH2 0x4345 JUMPI PUSH1 0x40 MLOAD PUSH32 0x8C379A000000000000000000000000000000000000000000000000000000000 DUP2 MSTORE PUSH1 0x4 ADD PUSH2 0x433C SWAP1 PUSH2 0x70EF JUMP JUMPDEST PUSH1 0x40 MLOAD DUP1 SWAP2 SUB SWAP1 REVERT JUMPDEST PUSH2 0x4392 PUSH1 0x10 PUSH1 0x0 DUP8 PUSH20 0xFFFFFFFFFFFFFFFFFFFFFFFFFFFFFFFFFFFFFFFF AND PUSH20 0xFFFFFFFFFFFFFFFFFFFFFFFFFFFFFFFFFFFFFFFF AND DUP2 MSTORE PUSH1 0x20 ADD SWAP1 DUP2 MSTORE PUSH1 0x20 ADD PUSH1 0x0 KECCAK256 SLOAD DUP3 PUSH1 0x80 ADD MLOAD PUSH2 0x4A33 JUMP JUMPDEST DUP3 PUSH1 0x20 ADD DUP4 PUSH1 0x60 ADD DUP3 DUP2 MSTORE POP DUP3 PUSH1 0x3 DUP2 GT ISZERO PUSH2 0x43AA JUMPI INVALID JUMPDEST PUSH1 0x3 DUP2 GT ISZERO PUSH2 0x43B5 JUMPI INVALID JUMPDEST DUP2 MSTORE POP POP POP PUSH1 0x0 PUSH1 0x3 DUP2 GT ISZERO PUSH2 0x43C7 JUMPI INVALID JUMPDEST DUP2 PUSH1 0x20 ADD MLOAD PUSH1 0x3 DUP2 GT ISZERO PUSH2 0x43D7 JUMPI INVALID JUMPDEST EQ PUSH2 0x4417 JUMPI PUSH1 0x40 MLOAD PUSH32 0x8C379A000000000000000000000000000000000000000000000000000000000 DUP2 MSTORE PUSH1 0x4 ADD PUSH2 0x440E SWAP1 PUSH2 0x6E6F JUMP JUMPDEST PUSH1 0x40 MLOAD DUP1 SWAP2 SUB SWAP1 REVERT JUMPDEST DUP1 PUSH1 0x40 ADD MLOAD PUSH1 0xF DUP2 SWAP1 SSTORE POP DUP1 PUSH1 0x60 ADD MLOAD PUSH1 0x10 PUSH1 0x0 DUP8 PUSH20 0xFFFFFFFFFFFFFFFFFFFFFFFFFFFFFFFFFFFFFFFF AND PUSH20 0xFFFFFFFFFFFFFFFFFFFFFFFFFFFFFFFFFFFFFFFF AND DUP2 MSTORE PUSH1 0x20 ADD SWAP1 DUP2 MSTORE PUSH1 0x20 ADD PUSH1 0x0 KECCAK256 DUP2 SWAP1 SSTORE POP PUSH32 0x94C9D5464FED48366596C718219E5FBD3C0C61C1A21391BF239075E9DE5A727A DUP6 DUP3 PUSH1 0x80 ADD MLOAD PUSH1 0x40 MLOAD PUSH2 0x449F SWAP3 SWAP2 SWAP1 PUSH2 0x6C47 JUMP JUMPDEST PUSH1 0x40 MLOAD DUP1 SWAP2 SUB SWAP1 LOG1 PUSH1 0x0 PUSH1 0x9 DUP2 GT ISZERO PUSH2 0x44B4 JUMPI INVALID JUMPDEST DUP2 PUSH1 0x80 ADD MLOAD SWAP3 POP SWAP3 POP POP JUMPDEST SWAP3 POP SWAP3 SWAP1 POP JUMP JUMPDEST PUSH1 0x0 DUP1 PUSH1 0xB PUSH1 0x0 SWAP1 SLOAD SWAP1 PUSH2 0x100 EXP SWAP1 DIV PUSH1 0xFF AND ISZERO DUP1 PUSH2 0x4525 JUMPI POP PUSH1 0x0 PUSH1 0x10 PUSH1 0x0 DUP7 PUSH20 0xFFFFFFFFFFFFFFFFFFFFFFFFFFFFFFFFFFFFFFFF AND PUSH20 0xFFFFFFFFFFFFFFFFFFFFFFFFFFFFFFFFFFFFFFFF AND DUP2 MSTORE PUSH1 0x20 ADD SWAP1 DUP2 MSTORE PUSH1 0x20 ADD PUSH1 0x0 KECCAK256 SLOAD EQ ISZERO JUMPDEST ISZERO PUSH2 0x4541 JUMPI PUSH2 0x4536 PUSH1 0x3 PUSH1 0xE PUSH2 0x2A62 JUMP JUMPDEST PUSH1 0x0 SWAP2 POP SWAP2 POP PUSH2 0x491C JUMP JUMPDEST PUSH2 0x4549 PUSH2 0x5D67 JUMP JUMPDEST PUSH2 0x4551 PUSH2 0x323D JUMP JUMPDEST DUP3 PUSH1 0x20 ADD DUP4 PUSH1 0x40 ADD DUP3 DUP2 MSTORE POP DUP3 PUSH1 0x3 DUP2 GT ISZERO PUSH2 0x4569 JUMPI INVALID JUMPDEST PUSH1 0x3 DUP2 GT ISZERO PUSH2 0x4574 JUMPI INVALID JUMPDEST DUP2 MSTORE POP POP POP PUSH1 0x0 PUSH1 0x3 DUP2 GT ISZERO PUSH2 0x4586 JUMPI INVALID JUMPDEST DUP2 PUSH1 0x20 ADD MLOAD PUSH1 0x3 DUP2 GT ISZERO PUSH2 0x4596 JUMPI INVALID JUMPDEST EQ PUSH2 0x45C3 JUMPI PUSH2 0x45B7 PUSH1 0x4 PUSH1 0x10 DUP4 PUSH1 0x20 ADD MLOAD PUSH1 0x3 DUP2 GT ISZERO PUSH2 0x45B2 JUMPI INVALID JUMPDEST PUSH2 0x49CB JUMP JUMPDEST PUSH1 0x0 SWAP3 POP SWAP3 POP POP PUSH2 0x491C JUMP JUMPDEST PUSH2 0x45F0 PUSH1 0x1 PUSH1 0x0 SWAP1 SLOAD SWAP1 PUSH2 0x100 EXP SWAP1 DIV PUSH20 0xFFFFFFFFFFFFFFFFFFFFFFFFFFFFFFFFFFFFFFFF AND DUP7 DUP7 PUSH2 0x56BE JUMP JUMPDEST DUP2 PUSH1 0xC0 ADD DUP2 DUP2 MSTORE POP POP PUSH2 0x4619 DUP2 PUSH1 0xC0 ADD MLOAD PUSH1 0x40 MLOAD DUP1 PUSH1 0x20 ADD PUSH1 0x40 MSTORE DUP1 DUP5 PUSH1 0x40 ADD MLOAD DUP2 MSTORE POP PUSH2 0x5987 JUMP JUMPDEST DUP3 PUSH1 0x20 ADD DUP4 PUSH1 0x60 ADD DUP3 DUP2 MSTORE POP DUP3 PUSH1 0x3 DUP2 GT ISZERO PUSH2 0x4631 JUMPI INVALID JUMPDEST PUSH1 0x3 DUP2 GT ISZERO PUSH2 0x463C JUMPI INVALID JUMPDEST DUP2 MSTORE POP POP POP PUSH1 0x0 PUSH1 0x3 DUP2 GT ISZERO PUSH2 0x464E JUMPI INVALID JUMPDEST DUP2 PUSH1 0x20 ADD MLOAD PUSH1 0x3 DUP2 GT ISZERO PUSH2 0x465E JUMPI INVALID JUMPDEST EQ PUSH2 0x469E JUMPI PUSH1 0x40 MLOAD PUSH32 0x8C379A000000000000000000000000000000000000000000000000000000000 DUP2 MSTORE PUSH1 0x4 ADD PUSH2 0x4695 SWAP1 PUSH2 0x702F JUMP JUMPDEST PUSH1 0x40 MLOAD DUP1 SWAP2 SUB SWAP1 REVERT JUMPDEST PUSH2 0x46AE PUSH1 0xA SLOAD DUP3 PUSH1 0x60 ADD MLOAD PUSH2 0x4A33 JUMP JUMPDEST DUP3 PUSH1 0x20 ADD DUP4 PUSH1 0x80 ADD DUP3 DUP2 MSTORE POP DUP3 PUSH1 0x3 DUP2 GT ISZERO PUSH2 0x46C6 JUMPI INVALID JUMPDEST PUSH1 0x3 DUP2 GT ISZERO PUSH2 0x46D1 JUMPI INVALID JUMPDEST DUP2 MSTORE POP POP POP PUSH1 0x0 PUSH1 0x3 DUP2 GT ISZERO PUSH2 0x46E3 JUMPI INVALID JUMPDEST DUP2 PUSH1 0x20 ADD MLOAD PUSH1 0x3 DUP2 GT ISZERO PUSH2 0x46F3 JUMPI INVALID JUMPDEST EQ PUSH2 0x4733 JUMPI PUSH1 0x40 MLOAD PUSH32 0x8C379A000000000000000000000000000000000000000000000000000000000 DUP2 MSTORE PUSH1 0x4 ADD PUSH2 0x472A SWAP1 PUSH2 0x708F JUMP JUMPDEST PUSH1 0x40 MLOAD DUP1 SWAP2 SUB SWAP1 REVERT JUMPDEST PUSH2 0x4780 PUSH1 0xC PUSH1 0x0 DUP8 PUSH20 0xFFFFFFFFFFFFFFFFFFFFFFFFFFFFFFFFFFFFFFFF AND PUSH20 0xFFFFFFFFFFFFFFFFFFFFFFFFFFFFFFFFFFFFFFFF AND DUP2 MSTORE PUSH1 0x20 ADD SWAP1 DUP2 MSTORE PUSH1 0x20 ADD PUSH1 0x0 KECCAK256 SLOAD DUP3 PUSH1 0x60 ADD MLOAD PUSH2 0x4A33 JUMP JUMPDEST DUP3 PUSH1 0x20 ADD DUP4 PUSH1 0xA0 ADD DUP3 DUP2 MSTORE POP DUP3 PUSH1 0x3 DUP2 GT ISZERO PUSH2 0x4798 JUMPI INVALID JUMPDEST PUSH1 0x3 DUP2 GT ISZERO PUSH2 0x47A3 JUMPI INVALID JUMPDEST DUP2 MSTORE POP POP POP PUSH1 0x0 PUSH1 0x3 DUP2 GT ISZERO PUSH2 0x47B5 JUMPI INVALID JUMPDEST DUP2 PUSH1 0x20 ADD MLOAD PUSH1 0x3 DUP2 GT ISZERO PUSH2 0x47C5 JUMPI INVALID JUMPDEST EQ PUSH2 0x4805 JUMPI PUSH1 0x40 MLOAD PUSH32 0x8C379A000000000000000000000000000000000000000000000000000000000 DUP2 MSTORE PUSH1 0x4 ADD PUSH2 0x47FC SWAP1 PUSH2 0x6EEF JUMP JUMPDEST PUSH1 0x40 MLOAD DUP1 SWAP2 SUB SWAP1 REVERT JUMPDEST DUP1 PUSH1 0x80 ADD MLOAD PUSH1 0xA DUP2 SWAP1 SSTORE POP DUP1 PUSH1 0xA0 ADD MLOAD PUSH1 0xC PUSH1 0x0 DUP8 PUSH20 0xFFFFFFFFFFFFFFFFFFFFFFFFFFFFFFFFFFFFFFFF AND PUSH20 0xFFFFFFFFFFFFFFFFFFFFFFFFFFFFFFFFFFFFFFFF AND DUP2 MSTORE PUSH1 0x20 ADD SWAP1 DUP2 MSTORE PUSH1 0x20 ADD PUSH1 0x0 KECCAK256 DUP2 SWAP1 SSTORE POP PUSH32 0x4C209B5FC8AD50758F13E2E1088BA56A560DFF690A1C6FEF26394F4C03821C4F DUP6 DUP3 PUSH1 0xC0 ADD MLOAD DUP4 PUSH1 0x60 ADD MLOAD PUSH1 0x40 MLOAD PUSH2 0x4893 SWAP4 SWAP3 SWAP2 SWAP1 PUSH2 0x6C70 JUMP JUMPDEST PUSH1 0x40 MLOAD DUP1 SWAP2 SUB SWAP1 LOG1 DUP5 PUSH20 0xFFFFFFFFFFFFFFFFFFFFFFFFFFFFFFFFFFFFFFFF AND ADDRESS PUSH20 0xFFFFFFFFFFFFFFFFFFFFFFFFFFFFFFFFFFFFFFFF AND PUSH32 0xDDF252AD1BE2C89B69C2B068FC378DAA952BA7F163C4A11628F55A4DF523B3EF DUP4 PUSH1 0x60 ADD MLOAD PUSH1 0x40 MLOAD PUSH2 0x48FC SWAP2 SWAP1 PUSH2 0x710F JUMP JUMPDEST PUSH1 0x40 MLOAD DUP1 SWAP2 SUB SWAP1 LOG3 PUSH1 0x0 PUSH1 0x9 DUP2 GT ISZERO PUSH2 0x4911 JUMPI INVALID JUMPDEST DUP2 PUSH1 0xC0 ADD MLOAD SWAP3 POP SWAP3 POP POP JUMPDEST SWAP3 POP SWAP3 SWAP1 POP JUMP JUMPDEST PUSH1 0x0 NUMBER SWAP1 POP SWAP1 JUMP JUMPDEST PUSH1 0x0 DUP1 DUP4 DUP4 GT PUSH2 0x4943 JUMPI PUSH1 0x0 DUP4 DUP6 SUB SWAP2 POP SWAP2 POP PUSH2 0x494C JUMP JUMPDEST PUSH1 0x3 PUSH1 0x0 SWAP2 POP SWAP2 POP JUMPDEST SWAP3 POP SWAP3 SWAP1 POP JUMP JUMPDEST PUSH1 0x0 PUSH2 0x495D PUSH2 0x5C15 JUMP JUMPDEST PUSH1 0x0 DUP1 PUSH2 0x496E DUP7 PUSH1 0x0 ADD MLOAD DUP7 PUSH2 0x5AC8 JUMP JUMPDEST SWAP2 POP SWAP2 POP PUSH1 0x0 PUSH1 0x3 DUP2 GT ISZERO PUSH2 0x497F JUMPI INVALID JUMPDEST DUP3 PUSH1 0x3 DUP2 GT ISZERO PUSH2 0x498B JUMPI INVALID JUMPDEST EQ PUSH2 0x49AC JUMPI DUP2 PUSH1 0x40 MLOAD DUP1 PUSH1 0x20 ADD PUSH1 0x40 MSTORE DUP1 PUSH1 0x0 DUP2 MSTORE POP SWAP4 POP SWAP4 POP POP POP PUSH2 0x49C4 JUMP JUMPDEST PUSH1 0x0 PUSH1 0x40 MLOAD DUP1 PUSH1 0x20 ADD PUSH1 0x40 MSTORE DUP1 DUP4 DUP2 MSTORE POP SWAP4 POP SWAP4 POP POP POP JUMPDEST SWAP3 POP SWAP3 SWAP1 POP JUMP JUMPDEST PUSH1 0x0 PUSH32 0x45B96FE442630264581B197E84BBADA861235052C5A1AADFFF9EA4E40A969AA0 DUP5 PUSH1 0x9 DUP2 GT ISZERO PUSH2 0x49FA JUMPI INVALID JUMPDEST DUP5 PUSH1 0x27 DUP2 GT ISZERO PUSH2 0x4A06 JUMPI INVALID JUMPDEST DUP5 PUSH1 0x40 MLOAD PUSH2 0x4A16 SWAP4 SWAP3 SWAP2 SWAP1 PUSH2 0x718A JUMP JUMPDEST PUSH1 0x40 MLOAD DUP1 SWAP2 SUB SWAP1 LOG1 DUP4 PUSH1 0x9 DUP2 GT ISZERO PUSH2 0x4A2A JUMPI INVALID JUMPDEST SWAP1 POP SWAP4 SWAP3 POP POP POP JUMP JUMPDEST PUSH1 0x0 DUP1 PUSH1 0x0 DUP4 DUP6 ADD SWAP1 POP DUP5 DUP2 LT PUSH2 0x4A51 JUMPI PUSH1 0x0 DUP2 SWAP3 POP SWAP3 POP POP PUSH2 0x4A5B JUMP JUMPDEST PUSH1 0x2 PUSH1 0x0 SWAP3 POP SWAP3 POP POP JUMPDEST SWAP3 POP SWAP3 SWAP1 POP JUMP JUMPDEST PUSH1 0x0 DUP1 PUSH1 0x0 DUP1 PUSH2 0x4A72 DUP8 DUP8 PUSH2 0x4953 JUMP JUMPDEST SWAP2 POP SWAP2 POP PUSH1 0x0 PUSH1 0x3 DUP2 GT ISZERO PUSH2 0x4A83 JUMPI INVALID JUMPDEST DUP3 PUSH1 0x3 DUP2 GT ISZERO PUSH2 0x4A8F JUMPI INVALID JUMPDEST EQ PUSH2 0x4AA2 JUMPI DUP2 PUSH1 0x0 SWAP4 POP SWAP4 POP POP POP PUSH2 0x4ABB JUMP JUMPDEST PUSH2 0x4AB4 PUSH2 0x4AAE DUP3 PUSH2 0x5968 JUMP JUMPDEST DUP7 PUSH2 0x4A33 JUMP JUMPDEST SWAP4 POP SWAP4 POP POP POP JUMPDEST SWAP4 POP SWAP4 SWAP2 POP POP JUMP JUMPDEST PUSH1 0x0 PUSH2 0x4ACD PUSH2 0x5DBA JUMP JUMPDEST PUSH2 0x4AD6 DUP5 PUSH2 0x3EC8 JUMP JUMPDEST DUP3 PUSH1 0x20 ADD DUP4 PUSH1 0x60 ADD DUP3 DUP2 MSTORE POP DUP3 PUSH1 0x3 DUP2 GT ISZERO PUSH2 0x4AEE JUMPI INVALID JUMPDEST PUSH1 0x3 DUP2 GT ISZERO PUSH2 0x4AF9 JUMPI INVALID JUMPDEST DUP2 MSTORE POP POP POP PUSH1 0x0 PUSH1 0x3 DUP2 GT ISZERO PUSH2 0x4B0B JUMPI INVALID JUMPDEST DUP2 PUSH1 0x20 ADD MLOAD PUSH1 0x3 DUP2 GT ISZERO PUSH2 0x4B1B JUMPI INVALID JUMPDEST EQ PUSH2 0x4B44 JUMPI PUSH2 0x4B3C PUSH1 0x4 PUSH1 0x1D DUP4 PUSH1 0x20 ADD MLOAD PUSH1 0x3 DUP2 GT ISZERO PUSH2 0x4B37 JUMPI INVALID JUMPDEST PUSH2 0x49CB JUMP JUMPDEST SWAP2 POP POP PUSH2 0x4E06 JUMP JUMPDEST PUSH1 0x10 PUSH1 0x0 DUP6 PUSH20 0xFFFFFFFFFFFFFFFFFFFFFFFFFFFFFFFFFFFFFFFF AND PUSH20 0xFFFFFFFFFFFFFFFFFFFFFFFFFFFFFFFFFFFFFFFF AND DUP2 MSTORE PUSH1 0x20 ADD SWAP1 DUP2 MSTORE PUSH1 0x20 ADD PUSH1 0x0 KECCAK256 SLOAD DUP2 PUSH1 0x80 ADD DUP2 DUP2 MSTORE POP POP PUSH32 0xFFFFFFFFFFFFFFFFFFFFFFFFFFFFFFFFFFFFFFFFFFFFFFFFFFFFFFFFFFFFFFFF DUP4 EQ ISZERO PUSH2 0x4BE6 JUMPI DUP1 PUSH1 0x60 ADD MLOAD DUP2 PUSH1 0x80 ADD MLOAD LT ISZERO PUSH2 0x4BCC JUMPI PUSH1 0x0 PUSH2 0x4BD8 JUMP JUMPDEST DUP1 PUSH1 0x60 ADD MLOAD DUP2 PUSH1 0x80 ADD MLOAD SUB JUMPDEST DUP2 PUSH1 0x40 ADD DUP2 DUP2 MSTORE POP POP PUSH2 0x4BF1 JUMP JUMPDEST DUP3 DUP2 PUSH1 0x40 ADD DUP2 DUP2 MSTORE POP POP JUMPDEST PUSH2 0x4C3E PUSH1 0x10 PUSH1 0x0 DUP7 PUSH20 0xFFFFFFFFFFFFFFFFFFFFFFFFFFFFFFFFFFFFFFFF AND PUSH20 0xFFFFFFFFFFFFFFFFFFFFFFFFFFFFFFFFFFFFFFFF AND DUP2 MSTORE PUSH1 0x20 ADD SWAP1 DUP2 MSTORE PUSH1 0x20 ADD PUSH1 0x0 KECCAK256 SLOAD DUP3 PUSH1 0x40 ADD MLOAD PUSH2 0x492B JUMP JUMPDEST DUP3 PUSH1 0x20 ADD DUP4 PUSH1 0xA0 ADD DUP3 DUP2 MSTORE POP DUP3 PUSH1 0x3 DUP2 GT ISZERO PUSH2 0x4C56 JUMPI INVALID JUMPDEST PUSH1 0x3 DUP2 GT ISZERO PUSH2 0x4C61 JUMPI INVALID JUMPDEST DUP2 MSTORE POP POP POP PUSH1 0x0 PUSH1 0x3 DUP2 GT ISZERO PUSH2 0x4C73 JUMPI INVALID JUMPDEST DUP2 PUSH1 0x20 ADD MLOAD PUSH1 0x3 DUP2 GT ISZERO PUSH2 0x4C83 JUMPI INVALID JUMPDEST EQ PUSH2 0x4CAC JUMPI PUSH2 0x4CA4 PUSH1 0x4 PUSH1 0x1E DUP4 PUSH1 0x20 ADD MLOAD PUSH1 0x3 DUP2 GT ISZERO PUSH2 0x4C9F JUMPI INVALID JUMPDEST PUSH2 0x49CB JUMP JUMPDEST SWAP2 POP POP PUSH2 0x4E06 JUMP JUMPDEST DUP1 PUSH1 0x60 ADD MLOAD DUP2 PUSH1 0xA0 ADD MLOAD LT ISZERO PUSH2 0x4CD0 JUMPI PUSH2 0x4CC8 PUSH1 0x9 PUSH1 0x1F PUSH2 0x2A62 JUMP JUMPDEST SWAP2 POP POP PUSH2 0x4E06 JUMP JUMPDEST PUSH2 0x4CE0 PUSH1 0xF SLOAD DUP3 PUSH1 0x40 ADD MLOAD PUSH2 0x492B JUMP JUMPDEST DUP3 PUSH1 0x20 ADD DUP4 PUSH1 0xC0 ADD DUP3 DUP2 MSTORE POP DUP3 PUSH1 0x3 DUP2 GT ISZERO PUSH2 0x4CF8 JUMPI INVALID JUMPDEST PUSH1 0x3 DUP2 GT ISZERO PUSH2 0x4D03 JUMPI INVALID JUMPDEST DUP2 MSTORE POP POP POP PUSH1 0x0 PUSH1 0x3 DUP2 GT ISZERO PUSH2 0x4D15 JUMPI INVALID JUMPDEST DUP2 PUSH1 0x20 ADD MLOAD PUSH1 0x3 DUP2 GT ISZERO PUSH2 0x4D25 JUMPI INVALID JUMPDEST EQ PUSH2 0x4D65 JUMPI PUSH1 0x40 MLOAD PUSH32 0x8C379A000000000000000000000000000000000000000000000000000000000 DUP2 MSTORE PUSH1 0x4 ADD PUSH2 0x4D5C SWAP1 PUSH2 0x6D8F JUMP JUMPDEST PUSH1 0x40 MLOAD DUP1 SWAP2 SUB SWAP1 REVERT JUMPDEST DUP1 PUSH1 0xC0 ADD MLOAD PUSH1 0xF DUP2 SWAP1 SSTORE POP DUP1 PUSH1 0xA0 ADD MLOAD PUSH1 0x10 PUSH1 0x0 DUP7 PUSH20 0xFFFFFFFFFFFFFFFFFFFFFFFFFFFFFFFFFFFFFFFF AND PUSH20 0xFFFFFFFFFFFFFFFFFFFFFFFFFFFFFFFFFFFFFFFF AND DUP2 MSTORE PUSH1 0x20 ADD SWAP1 DUP2 MSTORE PUSH1 0x20 ADD PUSH1 0x0 KECCAK256 DUP2 SWAP1 SSTORE POP PUSH32 0x925B1ADD21F66E1E2C8C9E9FFFB3E0F4105DF02DBD05C280F2FE4D19F5C50BE5 DUP5 DUP3 PUSH1 0x40 ADD MLOAD PUSH1 0x40 MLOAD PUSH2 0x4DED SWAP3 SWAP2 SWAP1 PUSH2 0x6C47 JUMP JUMPDEST PUSH1 0x40 MLOAD DUP1 SWAP2 SUB SWAP1 LOG1 PUSH1 0x0 PUSH1 0x9 DUP2 GT ISZERO PUSH2 0x4E02 JUMPI INVALID JUMPDEST SWAP2 POP POP JUMPDEST SWAP3 SWAP2 POP POP JUMP JUMPDEST PUSH1 0x0 PUSH1 0xB PUSH1 0x1 SWAP1 SLOAD SWAP1 PUSH2 0x100 EXP SWAP1 DIV PUSH1 0xFF AND PUSH2 0x4E35 JUMPI PUSH2 0x4E2E PUSH1 0x3 PUSH1 0xC PUSH2 0x2A62 JUMP JUMPDEST SWAP1 POP PUSH2 0x523B JUMP JUMPDEST PUSH2 0x4E3D PUSH2 0x5E0D JUMP JUMPDEST PUSH2 0x4E46 DUP5 PUSH2 0x3EC8 JUMP JUMPDEST DUP3 PUSH1 0x0 ADD DUP4 PUSH1 0x40 ADD DUP3 DUP2 MSTORE POP DUP3 PUSH1 0x3 DUP2 GT ISZERO PUSH2 0x4E5E JUMPI INVALID JUMPDEST PUSH1 0x3 DUP2 GT ISZERO PUSH2 0x4E69 JUMPI INVALID JUMPDEST DUP2 MSTORE POP POP POP PUSH1 0x0 PUSH1 0x3 DUP2 GT ISZERO PUSH2 0x4E7B JUMPI INVALID JUMPDEST DUP2 PUSH1 0x0 ADD MLOAD PUSH1 0x3 DUP2 GT ISZERO PUSH2 0x4E8B JUMPI INVALID JUMPDEST EQ PUSH2 0x4EB4 JUMPI PUSH2 0x4EAC PUSH1 0x4 PUSH1 0x8 DUP4 PUSH1 0x0 ADD MLOAD PUSH1 0x3 DUP2 GT ISZERO PUSH2 0x4EA7 JUMPI INVALID JUMPDEST PUSH2 0x49CB JUMP JUMPDEST SWAP2 POP POP PUSH2 0x523B JUMP JUMPDEST PUSH32 0xFFFFFFFFFFFFFFFFFFFFFFFFFFFFFFFFFFFFFFFFFFFFFFFFFFFFFFFFFFFFFFFF DUP4 EQ ISZERO PUSH2 0x4F82 JUMPI DUP1 PUSH1 0x40 ADD MLOAD PUSH1 0x10 PUSH1 0x0 DUP7 PUSH20 0xFFFFFFFFFFFFFFFFFFFFFFFFFFFFFFFFFFFFFFFF AND PUSH20 0xFFFFFFFFFFFFFFFFFFFFFFFFFFFFFFFFFFFFFFFF AND DUP2 MSTORE PUSH1 0x20 ADD SWAP1 DUP2 MSTORE PUSH1 0x20 ADD PUSH1 0x0 KECCAK256 SLOAD GT PUSH2 0x4F2D JUMPI PUSH1 0x0 PUSH2 0x4F74 JUMP JUMPDEST DUP1 PUSH1 0x40 ADD MLOAD PUSH1 0x10 PUSH1 0x0 DUP7 PUSH20 0xFFFFFFFFFFFFFFFFFFFFFFFFFFFFFFFFFFFFFFFF AND PUSH20 0xFFFFFFFFFFFFFFFFFFFFFFFFFFFFFFFFFFFFFFFF AND DUP2 MSTORE PUSH1 0x20 ADD SWAP1 DUP2 MSTORE PUSH1 0x20 ADD PUSH1 0x0 KECCAK256 SLOAD SUB JUMPDEST DUP2 PUSH1 0x20 ADD DUP2 DUP2 MSTORE POP POP PUSH2 0x4F8D JUMP JUMPDEST DUP3 DUP2 PUSH1 0x20 ADD DUP2 DUP2 MSTORE POP POP JUMPDEST DUP1 PUSH1 0x20 ADD MLOAD PUSH2 0x4F9A PUSH2 0x37DE JUMP JUMPDEST LT ISZERO PUSH2 0x4FB4 JUMPI PUSH2 0x4FAC PUSH1 0x6 PUSH1 0x9 PUSH2 0x2A62 JUMP JUMPDEST SWAP2 POP POP PUSH2 0x523B JUMP JUMPDEST PUSH2 0x4FC6 DUP2 PUSH1 0x40 ADD MLOAD DUP3 PUSH1 0x20 ADD MLOAD PUSH2 0x4A33 JUMP JUMPDEST DUP3 PUSH1 0x0 ADD DUP4 PUSH1 0x60 ADD DUP3 DUP2 MSTORE POP DUP3 PUSH1 0x3 DUP2 GT ISZERO PUSH2 0x4FDE JUMPI INVALID JUMPDEST PUSH1 0x3 DUP2 GT ISZERO PUSH2 0x4FE9 JUMPI INVALID JUMPDEST DUP2 MSTORE POP POP POP PUSH1 0x0 PUSH1 0x3 DUP2 GT ISZERO PUSH2 0x4FFB JUMPI INVALID JUMPDEST DUP2 PUSH1 0x0 ADD MLOAD PUSH1 0x3 DUP2 GT ISZERO PUSH2 0x500B JUMPI INVALID JUMPDEST EQ PUSH2 0x5034 JUMPI PUSH2 0x502C PUSH1 0x4 PUSH1 0xB DUP4 PUSH1 0x0 ADD MLOAD PUSH1 0x3 DUP2 GT ISZERO PUSH2 0x5027 JUMPI INVALID JUMPDEST PUSH2 0x49CB JUMP JUMPDEST SWAP2 POP POP PUSH2 0x523B JUMP JUMPDEST DUP1 PUSH1 0x60 ADD MLOAD PUSH1 0x10 PUSH1 0x0 DUP7 PUSH20 0xFFFFFFFFFFFFFFFFFFFFFFFFFFFFFFFFFFFFFFFF AND PUSH20 0xFFFFFFFFFFFFFFFFFFFFFFFFFFFFFFFFFFFFFFFF AND DUP2 MSTORE PUSH1 0x20 ADD SWAP1 DUP2 MSTORE PUSH1 0x20 ADD PUSH1 0x0 KECCAK256 SLOAD LT ISZERO PUSH2 0x5093 JUMPI PUSH2 0x508B PUSH1 0x9 PUSH1 0xD PUSH2 0x2A62 JUMP JUMPDEST SWAP2 POP POP PUSH2 0x523B JUMP JUMPDEST PUSH2 0x50A3 PUSH1 0x8 SLOAD DUP3 PUSH1 0x20 ADD MLOAD PUSH2 0x4A33 JUMP JUMPDEST DUP3 PUSH1 0x0 ADD DUP4 PUSH1 0x80 ADD DUP3 DUP2 MSTORE POP DUP3 PUSH1 0x3 DUP2 GT ISZERO PUSH2 0x50BB JUMPI INVALID JUMPDEST PUSH1 0x3 DUP2 GT ISZERO PUSH2 0x50C6 JUMPI INVALID JUMPDEST DUP2 MSTORE POP POP POP PUSH1 0x0 PUSH1 0x3 DUP2 GT ISZERO PUSH2 0x50D8 JUMPI INVALID JUMPDEST DUP2 PUSH1 0x0 ADD MLOAD PUSH1 0x3 DUP2 GT ISZERO PUSH2 0x50E8 JUMPI INVALID JUMPDEST EQ PUSH2 0x5111 JUMPI PUSH2 0x5109 PUSH1 0x4 PUSH1 0xA DUP4 PUSH1 0x0 ADD MLOAD PUSH1 0x3 DUP2 GT ISZERO PUSH2 0x5104 JUMPI INVALID JUMPDEST PUSH2 0x49CB JUMP JUMPDEST SWAP2 POP POP PUSH2 0x523B JUMP JUMPDEST PUSH2 0x5142 PUSH1 0x1 PUSH1 0x0 SWAP1 SLOAD SWAP1 PUSH2 0x100 EXP SWAP1 DIV PUSH20 0xFFFFFFFFFFFFFFFFFFFFFFFFFFFFFFFFFFFFFFFF AND DUP6 DUP4 PUSH1 0x20 ADD MLOAD PUSH2 0x59E0 JUMP JUMPDEST DUP1 PUSH1 0x60 ADD MLOAD PUSH1 0xE PUSH1 0x0 DUP7 PUSH20 0xFFFFFFFFFFFFFFFFFFFFFFFFFFFFFFFFFFFFFFFF AND PUSH20 0xFFFFFFFFFFFFFFFFFFFFFFFFFFFFFFFFFFFFFFFF AND DUP2 MSTORE PUSH1 0x20 ADD SWAP1 DUP2 MSTORE PUSH1 0x20 ADD PUSH1 0x0 KECCAK256 PUSH1 0x0 ADD DUP2 SWAP1 SSTORE POP PUSH1 0x7 SLOAD PUSH1 0xE PUSH1 0x0 DUP7 PUSH20 0xFFFFFFFFFFFFFFFFFFFFFFFFFFFFFFFFFFFFFFFF AND PUSH20 0xFFFFFFFFFFFFFFFFFFFFFFFFFFFFFFFFFFFFFFFF AND DUP2 MSTORE PUSH1 0x20 ADD SWAP1 DUP2 MSTORE PUSH1 0x20 ADD PUSH1 0x0 KECCAK256 PUSH1 0x1 ADD DUP2 SWAP1 SSTORE POP DUP1 PUSH1 0x80 ADD MLOAD PUSH1 0x8 DUP2 SWAP1 SSTORE POP PUSH32 0x13ED6866D4E1EE6DA46F845C46D7E54120883D75C5EA9A2DACC1C4CA8984AB80 DUP5 DUP3 PUSH1 0x20 ADD MLOAD DUP4 PUSH1 0x60 ADD MLOAD DUP5 PUSH1 0x80 ADD MLOAD PUSH1 0x40 MLOAD PUSH2 0x5222 SWAP5 SWAP4 SWAP3 SWAP2 SWAP1 PUSH2 0x6CA7 JUMP JUMPDEST PUSH1 0x40 MLOAD DUP1 SWAP2 SUB SWAP1 LOG1 PUSH1 0x0 PUSH1 0x9 DUP2 GT ISZERO PUSH2 0x5237 JUMPI INVALID JUMPDEST SWAP2 POP POP JUMPDEST SWAP3 SWAP2 POP POP JUMP JUMPDEST PUSH1 0x0 PUSH1 0x2 PUSH1 0x0 SWAP1 SLOAD SWAP1 PUSH2 0x100 EXP SWAP1 DIV PUSH20 0xFFFFFFFFFFFFFFFFFFFFFFFFFFFFFFFFFFFFFFFF AND PUSH20 0xFFFFFFFFFFFFFFFFFFFFFFFFFFFFFFFFFFFFFFFF AND CALLER PUSH20 0xFFFFFFFFFFFFFFFFFFFFFFFFFFFFFFFFFFFFFFFF AND EQ PUSH2 0x52AB JUMPI PUSH2 0x52A4 PUSH1 0x1 PUSH1 0x0 PUSH2 0x2A62 JUMP JUMPDEST SWAP1 POP PUSH2 0x5326 JUMP JUMPDEST PUSH8 0xDE0B6B3A7640000 DUP3 LT ISZERO PUSH2 0x52CE JUMPI PUSH2 0x52C7 PUSH1 0x2 PUSH1 0x24 PUSH2 0x2A62 JUMP JUMPDEST SWAP1 POP PUSH2 0x5326 JUMP JUMPDEST PUSH1 0x0 PUSH1 0x11 SLOAD SWAP1 POP DUP3 PUSH1 0x11 DUP2 SWAP1 SSTORE POP PUSH32 0x389CE8CC8E8243C4EE80C30E284539A8F6FA01C546C8F3F3D76093AACE77367E DUP2 DUP5 PUSH1 0x40 MLOAD PUSH2 0x530D SWAP3 SWAP2 SWAP1 PUSH2 0x712A JUMP JUMPDEST PUSH1 0x40 MLOAD DUP1 SWAP2 SUB SWAP1 LOG1 PUSH1 0x0 PUSH1 0x9 DUP2 GT ISZERO PUSH2 0x5322 JUMPI INVALID JUMPDEST SWAP2 POP POP JUMPDEST SWAP2 SWAP1 POP JUMP JUMPDEST PUSH1 0x0 DUP1 PUSH1 0x2 PUSH1 0x0 SWAP1 SLOAD SWAP1 PUSH2 0x100 EXP SWAP1 DIV PUSH20 0xFFFFFFFFFFFFFFFFFFFFFFFFFFFFFFFFFFFFFFFF AND PUSH20 0xFFFFFFFFFFFFFFFFFFFFFFFFFFFFFFFFFFFFFFFF AND CALLER PUSH20 0xFFFFFFFFFFFFFFFFFFFFFFFFFFFFFFFFFFFFFFFF AND EQ PUSH2 0x5397 JUMPI PUSH2 0x538F PUSH1 0x1 PUSH1 0x0 PUSH2 0x2A62 JUMP JUMPDEST SWAP2 POP POP PUSH2 0x5504 JUMP JUMPDEST PUSH1 0x4 PUSH1 0x0 SWAP1 SLOAD SWAP1 PUSH2 0x100 EXP SWAP1 DIV PUSH20 0xFFFFFFFFFFFFFFFFFFFFFFFFFFFFFFFFFFFFFFFF AND SWAP1 POP DUP3 PUSH20 0xFFFFFFFFFFFFFFFFFFFFFFFFFFFFFFFFFFFFFFFF AND PUSH4 0x2191F92A PUSH1 0x40 MLOAD DUP2 PUSH4 0xFFFFFFFF AND PUSH1 0xE0 SHL DUP2 MSTORE PUSH1 0x4 ADD PUSH1 0x20 PUSH1 0x40 MLOAD DUP1 DUP4 SUB DUP2 DUP7 DUP1 EXTCODESIZE ISZERO DUP1 ISZERO PUSH2 0x5402 JUMPI PUSH1 0x0 DUP1 REVERT JUMPDEST POP GAS STATICCALL ISZERO DUP1 ISZERO PUSH2 0x5416 JUMPI RETURNDATASIZE PUSH1 0x0 DUP1 RETURNDATACOPY RETURNDATASIZE PUSH1 0x0 REVERT JUMPDEST POP POP POP POP PUSH1 0x40 MLOAD RETURNDATASIZE PUSH1 0x1F NOT PUSH1 0x1F DUP3 ADD AND DUP3 ADD DUP1 PUSH1 0x40 MSTORE POP DUP2 ADD SWAP1 PUSH2 0x543A SWAP2 SWAP1 PUSH2 0x601C JUMP JUMPDEST PUSH2 0x5479 JUMPI PUSH1 0x40 MLOAD PUSH32 0x8C379A000000000000000000000000000000000000000000000000000000000 DUP2 MSTORE PUSH1 0x4 ADD PUSH2 0x5470 SWAP1 PUSH2 0x6ECF JUMP JUMPDEST PUSH1 0x40 MLOAD DUP1 SWAP2 SUB SWAP1 REVERT JUMPDEST DUP3 PUSH1 0x4 PUSH1 0x0 PUSH2 0x100 EXP DUP2 SLOAD DUP2 PUSH20 0xFFFFFFFFFFFFFFFFFFFFFFFFFFFFFFFFFFFFFFFF MUL NOT AND SWAP1 DUP4 PUSH20 0xFFFFFFFFFFFFFFFFFFFFFFFFFFFFFFFFFFFFFFFF AND MUL OR SWAP1 SSTORE POP PUSH32 0xEB5CC99F497DC2D7106563BB080E06C9B09E3D81A38623AC4D0839575658D1FA DUP2 DUP5 PUSH1 0x40 MLOAD PUSH2 0x54EB SWAP3 SWAP2 SWAP1 PUSH2 0x6D44 JUMP JUMPDEST PUSH1 0x40 MLOAD DUP1 SWAP2 SUB SWAP1 LOG1 PUSH1 0x0 PUSH1 0x9 DUP2 GT ISZERO PUSH2 0x5500 JUMPI INVALID JUMPDEST SWAP2 POP POP JUMPDEST SWAP2 SWAP1 POP JUMP JUMPDEST PUSH1 0x0 PUSH1 0x2 PUSH1 0x0 SWAP1 SLOAD SWAP1 PUSH2 0x100 EXP SWAP1 DIV PUSH20 0xFFFFFFFFFFFFFFFFFFFFFFFFFFFFFFFFFFFFFFFF AND PUSH20 0xFFFFFFFFFFFFFFFFFFFFFFFFFFFFFFFFFFFFFFFF AND CALLER PUSH20 0xFFFFFFFFFFFFFFFFFFFFFFFFFFFFFFFFFFFFFFFF AND EQ PUSH2 0x5573 JUMPI PUSH2 0x556C PUSH1 0x1 PUSH1 0x0 PUSH2 0x2A62 JUMP JUMPDEST SWAP1 POP PUSH2 0x55EE JUMP JUMPDEST PUSH8 0xDE0B6B3A7640000 DUP3 GT ISZERO PUSH2 0x5596 JUMPI PUSH2 0x558F PUSH1 0x2 PUSH1 0x23 PUSH2 0x2A62 JUMP JUMPDEST SWAP1 POP PUSH2 0x55EE JUMP JUMPDEST PUSH1 0x0 PUSH1 0x5 SLOAD SWAP1 POP DUP3 PUSH1 0x5 DUP2 SWAP1 SSTORE POP PUSH32 0xAAA68312E2EA9D50E16AF5068410AB56E1A1FD06037B1A35664812C30F821460 DUP2 DUP5 PUSH1 0x40 MLOAD PUSH2 0x55D5 SWAP3 SWAP2 SWAP1 PUSH2 0x712A JUMP JUMPDEST PUSH1 0x40 MLOAD DUP1 SWAP2 SUB SWAP1 LOG1 PUSH1 0x0 PUSH1 0x9 DUP2 GT ISZERO PUSH2 0x55EA JUMPI INVALID JUMPDEST SWAP2 POP POP JUMPDEST SWAP2 SWAP1 POP JUMP JUMPDEST PUSH1 0x0 PUSH2 0x55FD PUSH2 0x5C15 JUMP JUMPDEST PUSH1 0x0 DUP1 PUSH2 0x5612 DUP7 PUSH8 0xDE0B6B3A7640000 PUSH2 0x5AC8 JUMP JUMPDEST SWAP2 POP SWAP2 POP PUSH1 0x0 PUSH1 0x3 DUP2 GT ISZERO PUSH2 0x5623 JUMPI INVALID JUMPDEST DUP3 PUSH1 0x3 DUP2 GT ISZERO PUSH2 0x562F JUMPI INVALID JUMPDEST EQ PUSH2 0x5650 JUMPI DUP2 PUSH1 0x40 MLOAD DUP1 PUSH1 0x20 ADD PUSH1 0x40 MSTORE DUP1 PUSH1 0x0 DUP2 MSTORE POP SWAP4 POP SWAP4 POP POP POP PUSH2 0x56B7 JUMP JUMPDEST PUSH1 0x0 DUP1 PUSH2 0x565D DUP4 DUP9 PUSH2 0x5B15 JUMP JUMPDEST SWAP2 POP SWAP2 POP PUSH1 0x0 PUSH1 0x3 DUP2 GT ISZERO PUSH2 0x566E JUMPI INVALID JUMPDEST DUP3 PUSH1 0x3 DUP2 GT ISZERO PUSH2 0x567A JUMPI INVALID JUMPDEST EQ PUSH2 0x569D JUMPI DUP2 PUSH1 0x40 MLOAD DUP1 PUSH1 0x20 ADD PUSH1 0x40 MSTORE DUP1 PUSH1 0x0 DUP2 MSTORE POP SWAP6 POP SWAP6 POP POP POP POP POP PUSH2 0x56B7 JUMP JUMPDEST PUSH1 0x0 PUSH1 0x40 MLOAD DUP1 PUSH1 0x20 ADD PUSH1 0x40 MSTORE DUP1 DUP4 DUP2 MSTORE POP SWAP6 POP SWAP6 POP POP POP POP POP JUMPDEST SWAP3 POP SWAP3 SWAP1 POP JUMP JUMPDEST PUSH1 0x0 DUP1 DUP5 SWAP1 POP PUSH1 0x0 DUP6 PUSH20 0xFFFFFFFFFFFFFFFFFFFFFFFFFFFFFFFFFFFFFFFF AND PUSH4 0x70A08231 ADDRESS PUSH1 0x40 MLOAD DUP3 PUSH4 0xFFFFFFFF AND PUSH1 0xE0 SHL DUP2 MSTORE PUSH1 0x4 ADD PUSH2 0x56FF SWAP2 SWAP1 PUSH2 0x6B34 JUMP JUMPDEST PUSH1 0x20 PUSH1 0x40 MLOAD DUP1 DUP4 SUB DUP2 DUP7 DUP1 EXTCODESIZE ISZERO DUP1 ISZERO PUSH2 0x5717 JUMPI PUSH1 0x0 DUP1 REVERT JUMPDEST POP GAS STATICCALL ISZERO DUP1 ISZERO PUSH2 0x572B JUMPI RETURNDATASIZE PUSH1 0x0 DUP1 RETURNDATACOPY RETURNDATASIZE PUSH1 0x0 REVERT JUMPDEST POP POP POP POP PUSH1 0x40 MLOAD RETURNDATASIZE PUSH1 0x1F NOT PUSH1 0x1F DUP3 ADD AND DUP3 ADD DUP1 PUSH1 0x40 MSTORE POP DUP2 ADD SWAP1 PUSH2 0x574F SWAP2 SWAP1 PUSH2 0x6097 JUMP JUMPDEST SWAP1 POP DUP2 PUSH20 0xFFFFFFFFFFFFFFFFFFFFFFFFFFFFFFFFFFFFFFFF AND PUSH4 0x23B872DD DUP7 ADDRESS DUP8 PUSH1 0x40 MLOAD DUP5 PUSH4 0xFFFFFFFF AND PUSH1 0xE0 SHL DUP2 MSTORE PUSH1 0x4 ADD PUSH2 0x578E SWAP4 SWAP3 SWAP2 SWAP1 PUSH2 0x6B78 JUMP JUMPDEST PUSH1 0x0 PUSH1 0x40 MLOAD DUP1 DUP4 SUB DUP2 PUSH1 0x0 DUP8 DUP1 EXTCODESIZE ISZERO DUP1 ISZERO PUSH2 0x57A8 JUMPI PUSH1 0x0 DUP1 REVERT JUMPDEST POP GAS CALL ISZERO DUP1 ISZERO PUSH2 0x57BC JUMPI RETURNDATASIZE PUSH1 0x0 DUP1 RETURNDATACOPY RETURNDATASIZE PUSH1 0x0 REVERT JUMPDEST POP POP POP POP PUSH1 0x0 RETURNDATASIZE PUSH1 0x0 DUP2 EQ PUSH2 0x57D8 JUMPI PUSH1 0x20 DUP2 EQ PUSH2 0x57E2 JUMPI PUSH1 0x0 DUP1 REVERT JUMPDEST PUSH1 0x0 NOT SWAP2 POP PUSH2 0x57EE JUMP JUMPDEST PUSH1 0x20 PUSH1 0x0 DUP1 RETURNDATACOPY PUSH1 0x0 MLOAD SWAP2 POP JUMPDEST POP DUP1 PUSH2 0x582F JUMPI PUSH1 0x40 MLOAD PUSH32 0x8C379A000000000000000000000000000000000000000000000000000000000 DUP2 MSTORE PUSH1 0x4 ADD PUSH2 0x5826 SWAP1 PUSH2 0x6DCF JUMP JUMPDEST PUSH1 0x40 MLOAD DUP1 SWAP2 SUB SWAP1 REVERT JUMPDEST PUSH1 0x0 DUP8 PUSH20 0xFFFFFFFFFFFFFFFFFFFFFFFFFFFFFFFFFFFFFFFF AND PUSH4 0x70A08231 ADDRESS PUSH1 0x40 MLOAD DUP3 PUSH4 0xFFFFFFFF AND PUSH1 0xE0 SHL DUP2 MSTORE PUSH1 0x4 ADD PUSH2 0x586A SWAP2 SWAP1 PUSH2 0x6B34 JUMP JUMPDEST PUSH1 0x20 PUSH1 0x40 MLOAD DUP1 DUP4 SUB DUP2 DUP7 DUP1 EXTCODESIZE ISZERO DUP1 ISZERO PUSH2 0x5882 JUMPI PUSH1 0x0 DUP1 REVERT JUMPDEST POP GAS STATICCALL ISZERO DUP1 ISZERO PUSH2 0x5896 JUMPI RETURNDATASIZE PUSH1 0x0 DUP1 RETURNDATACOPY RETURNDATASIZE PUSH1 0x0 REVERT JUMPDEST POP POP POP POP PUSH1 0x40 MLOAD RETURNDATASIZE PUSH1 0x1F NOT PUSH1 0x1F DUP3 ADD AND DUP3 ADD DUP1 PUSH1 0x40 MSTORE POP DUP2 ADD SWAP1 PUSH2 0x58BA SWAP2 SWAP1 PUSH2 0x6097 JUMP JUMPDEST SWAP1 POP DUP3 DUP2 LT ISZERO PUSH2 0x58FF JUMPI PUSH1 0x40 MLOAD PUSH32 0x8C379A000000000000000000000000000000000000000000000000000000000 DUP2 MSTORE PUSH1 0x4 ADD PUSH2 0x58F6 SWAP1 PUSH2 0x6E2F JUMP JUMPDEST PUSH1 0x40 MLOAD DUP1 SWAP2 SUB SWAP1 REVERT JUMPDEST DUP3 DUP2 SUB SWAP5 POP POP POP POP POP SWAP4 SWAP3 POP POP POP JUMP JUMPDEST PUSH1 0x0 DUP1 PUSH1 0x0 DUP1 PUSH2 0x591F DUP8 DUP8 PUSH2 0x4A33 JUMP JUMPDEST SWAP2 POP SWAP2 POP PUSH1 0x0 PUSH1 0x3 DUP2 GT ISZERO PUSH2 0x5930 JUMPI INVALID JUMPDEST DUP3 PUSH1 0x3 DUP2 GT ISZERO PUSH2 0x593C JUMPI INVALID JUMPDEST EQ PUSH2 0x594F JUMPI DUP2 PUSH1 0x0 SWAP4 POP SWAP4 POP POP POP PUSH2 0x5960 JUMP JUMPDEST PUSH2 0x5959 DUP2 DUP7 PUSH2 0x492B JUMP JUMPDEST SWAP4 POP SWAP4 POP POP POP JUMPDEST SWAP4 POP SWAP4 SWAP2 POP POP JUMP JUMPDEST PUSH1 0x0 PUSH8 0xDE0B6B3A7640000 DUP3 PUSH1 0x0 ADD MLOAD DUP2 PUSH2 0x597F JUMPI INVALID JUMPDEST DIV SWAP1 POP SWAP2 SWAP1 POP JUMP JUMPDEST PUSH1 0x0 DUP1 PUSH1 0x0 DUP1 PUSH2 0x5997 DUP7 DUP7 PUSH2 0x5B9C JUMP JUMPDEST SWAP2 POP SWAP2 POP PUSH1 0x0 PUSH1 0x3 DUP2 GT ISZERO PUSH2 0x59A8 JUMPI INVALID JUMPDEST DUP3 PUSH1 0x3 DUP2 GT ISZERO PUSH2 0x59B4 JUMPI INVALID JUMPDEST EQ PUSH2 0x59C7 JUMPI DUP2 PUSH1 0x0 SWAP4 POP SWAP4 POP POP POP PUSH2 0x59D9 JUMP JUMPDEST PUSH1 0x0 PUSH2 0x59D2 DUP3 PUSH2 0x5968 JUMP JUMPDEST SWAP4 POP SWAP4 POP POP POP JUMPDEST SWAP3 POP SWAP3 SWAP1 POP JUMP JUMPDEST PUSH1 0x0 DUP4 SWAP1 POP DUP1 PUSH20 0xFFFFFFFFFFFFFFFFFFFFFFFFFFFFFFFFFFFFFFFF AND PUSH4 0xA9059CBB DUP5 DUP5 PUSH1 0x40 MLOAD DUP4 PUSH4 0xFFFFFFFF AND PUSH1 0xE0 SHL DUP2 MSTORE PUSH1 0x4 ADD PUSH2 0x5A20 SWAP3 SWAP2 SWAP1 PUSH2 0x6C47 JUMP JUMPDEST PUSH1 0x0 PUSH1 0x40 MLOAD DUP1 DUP4 SUB DUP2 PUSH1 0x0 DUP8 DUP1 EXTCODESIZE ISZERO DUP1 ISZERO PUSH2 0x5A3A JUMPI PUSH1 0x0 DUP1 REVERT JUMPDEST POP GAS CALL ISZERO DUP1 ISZERO PUSH2 0x5A4E JUMPI RETURNDATASIZE PUSH1 0x0 DUP1 RETURNDATACOPY RETURNDATASIZE PUSH1 0x0 REVERT JUMPDEST POP POP POP POP PUSH1 0x0 RETURNDATASIZE PUSH1 0x0 DUP2 EQ PUSH2 0x5A6A JUMPI PUSH1 0x20 DUP2 EQ PUSH2 0x5A74 JUMPI PUSH1 0x0 DUP1 REVERT JUMPDEST PUSH1 0x0 NOT SWAP2 POP PUSH2 0x5A80 JUMP JUMPDEST PUSH1 0x20 PUSH1 0x0 DUP1 RETURNDATACOPY PUSH1 0x0 MLOAD SWAP2 POP JUMPDEST POP DUP1 PUSH2 0x5AC1 JUMPI PUSH1 0x40 MLOAD PUSH32 0x8C379A000000000000000000000000000000000000000000000000000000000 DUP2 MSTORE PUSH1 0x4 ADD PUSH2 0x5AB8 SWAP1 PUSH2 0x6E4F JUMP JUMPDEST PUSH1 0x40 MLOAD DUP1 SWAP2 SUB SWAP1 REVERT JUMPDEST POP POP POP POP POP JUMP JUMPDEST PUSH1 0x0 DUP1 PUSH1 0x0 DUP5 EQ ISZERO PUSH2 0x5AE0 JUMPI PUSH1 0x0 DUP1 SWAP2 POP SWAP2 POP PUSH2 0x5B0E JUMP JUMPDEST PUSH1 0x0 DUP4 DUP6 MUL SWAP1 POP DUP4 DUP6 DUP3 DUP2 PUSH2 0x5AF1 JUMPI INVALID JUMPDEST DIV EQ PUSH2 0x5B05 JUMPI PUSH1 0x2 PUSH1 0x0 SWAP3 POP SWAP3 POP POP PUSH2 0x5B0E JUMP JUMPDEST PUSH1 0x0 DUP2 SWAP3 POP SWAP3 POP POP JUMPDEST SWAP3 POP SWAP3 SWAP1 POP JUMP JUMPDEST PUSH1 0x0 DUP1 PUSH1 0x0 DUP4 EQ ISZERO PUSH2 0x5B2E JUMPI PUSH1 0x1 PUSH1 0x0 SWAP2 POP SWAP2 POP PUSH2 0x5B3F JUMP JUMPDEST PUSH1 0x0 DUP4 DUP6 DUP2 PUSH2 0x5B39 JUMPI INVALID JUMPDEST DIV SWAP2 POP SWAP2 POP JUMPDEST SWAP3 POP SWAP3 SWAP1 POP JUMP JUMPDEST PUSH1 0x0 DUP1 DUP3 LT ISZERO PUSH2 0x5B8B JUMPI PUSH1 0x40 MLOAD PUSH32 0x8C379A000000000000000000000000000000000000000000000000000000000 DUP2 MSTORE PUSH1 0x4 ADD PUSH2 0x5B82 SWAP1 PUSH2 0x700F JUMP JUMPDEST PUSH1 0x40 MLOAD DUP1 SWAP2 SUB SWAP1 REVERT JUMPDEST PUSH9 0x56BC75E2D63100000 SWAP1 POP SWAP2 SWAP1 POP JUMP JUMPDEST PUSH1 0x0 PUSH2 0x5BA6 PUSH2 0x5C15 JUMP JUMPDEST PUSH1 0x0 DUP1 PUSH2 0x5BBB PUSH8 0xDE0B6B3A7640000 DUP8 PUSH2 0x5AC8 JUMP JUMPDEST SWAP2 POP SWAP2 POP PUSH1 0x0 PUSH1 0x3 DUP2 GT ISZERO PUSH2 0x5BCC JUMPI INVALID JUMPDEST DUP3 PUSH1 0x3 DUP2 GT ISZERO PUSH2 0x5BD8 JUMPI INVALID JUMPDEST EQ PUSH2 0x5BF9 JUMPI DUP2 PUSH1 0x40 MLOAD DUP1 PUSH1 0x20 ADD PUSH1 0x40 MSTORE DUP1 PUSH1 0x0 DUP2 MSTORE POP SWAP4 POP SWAP4 POP POP POP PUSH2 0x5C0E JUMP JUMPDEST PUSH2 0x5C07 DUP2 DUP7 PUSH1 0x0 ADD MLOAD PUSH2 0x55F3 JUMP JUMPDEST SWAP4 POP SWAP4 POP POP POP JUMPDEST SWAP3 POP SWAP3 SWAP1 POP JUMP JUMPDEST PUSH1 0x40 MLOAD DUP1 PUSH1 0x20 ADD PUSH1 0x40 MSTORE DUP1 PUSH1 0x0 DUP2 MSTORE POP SWAP1 JUMP JUMPDEST PUSH1 0x40 MLOAD DUP1 PUSH2 0x100 ADD PUSH1 0x40 MSTORE DUP1 PUSH1 0x0 PUSH1 0x9 DUP2 GT ISZERO PUSH2 0x5C41 JUMPI INVALID JUMPDEST DUP2 MSTORE PUSH1 0x20 ADD PUSH1 0x0 PUSH1 0x3 DUP2 GT ISZERO PUSH2 0x5C53 JUMPI INVALID JUMPDEST DUP2 MSTORE PUSH1 0x20 ADD PUSH1 0x0 DUP2 MSTORE PUSH1 0x20 ADD PUSH1 0x0 DUP2 MSTORE PUSH1 0x20 ADD PUSH1 0x0 DUP2 MSTORE PUSH1 0x20 ADD PUSH1 0x0 DUP2 MSTORE PUSH1 0x20 ADD PUSH1 0x0 DUP2 MSTORE PUSH1 0x20 ADD PUSH1 0x0 DUP2 MSTORE POP SWAP1 JUMP JUMPDEST PUSH1 0x40 MLOAD DUP1 PUSH1 0xC0 ADD PUSH1 0x40 MSTORE DUP1 PUSH1 0x0 PUSH1 0x9 DUP2 GT ISZERO PUSH2 0x5C9B JUMPI INVALID JUMPDEST DUP2 MSTORE PUSH1 0x20 ADD PUSH1 0x0 PUSH1 0x3 DUP2 GT ISZERO PUSH2 0x5CAD JUMPI INVALID JUMPDEST DUP2 MSTORE PUSH1 0x20 ADD PUSH1 0x0 DUP2 MSTORE PUSH1 0x20 ADD PUSH1 0x0 DUP2 MSTORE PUSH1 0x20 ADD PUSH1 0x0 DUP2 MSTORE PUSH1 0x20 ADD PUSH1 0x0 DUP2 MSTORE POP SWAP1 JUMP JUMPDEST PUSH1 0x40 MLOAD DUP1 PUSH1 0xE0 ADD PUSH1 0x40 MSTORE DUP1 PUSH1 0x0 PUSH1 0x9 DUP2 GT ISZERO PUSH2 0x5CE7 JUMPI INVALID JUMPDEST DUP2 MSTORE PUSH1 0x20 ADD PUSH1 0x0 PUSH1 0x3 DUP2 GT ISZERO PUSH2 0x5CF9 JUMPI INVALID JUMPDEST DUP2 MSTORE PUSH1 0x20 ADD PUSH1 0x0 DUP2 MSTORE PUSH1 0x20 ADD PUSH1 0x0 DUP2 MSTORE PUSH1 0x20 ADD PUSH1 0x0 DUP2 MSTORE PUSH1 0x20 ADD PUSH1 0x0 DUP2 MSTORE PUSH1 0x20 ADD PUSH1 0x0 DUP2 MSTORE POP SWAP1 JUMP JUMPDEST PUSH1 0x40 MLOAD DUP1 PUSH1 0xA0 ADD PUSH1 0x40 MSTORE DUP1 PUSH1 0x0 PUSH1 0x9 DUP2 GT ISZERO PUSH2 0x5D3A JUMPI INVALID JUMPDEST DUP2 MSTORE PUSH1 0x20 ADD PUSH1 0x0 PUSH1 0x3 DUP2 GT ISZERO PUSH2 0x5D4C JUMPI INVALID JUMPDEST DUP2 MSTORE PUSH1 0x20 ADD PUSH1 0x0 DUP2 MSTORE PUSH1 0x20 ADD PUSH1 0x0 DUP2 MSTORE PUSH1 0x20 ADD PUSH1 0x0 DUP2 MSTORE POP SWAP1 JUMP JUMPDEST PUSH1 0x40 MLOAD DUP1 PUSH1 0xE0 ADD PUSH1 0x40 MSTORE DUP1 PUSH1 0x0 PUSH1 0x9 DUP2 GT ISZERO PUSH2 0x5D7F JUMPI INVALID JUMPDEST DUP2 MSTORE PUSH1 0x20 ADD PUSH1 0x0 PUSH1 0x3 DUP2 GT ISZERO PUSH2 0x5D91 JUMPI INVALID JUMPDEST DUP2 MSTORE PUSH1 0x20 ADD PUSH1 0x0 DUP2 MSTORE PUSH1 0x20 ADD PUSH1 0x0 DUP2 MSTORE PUSH1 0x20 ADD PUSH1 0x0 DUP2 MSTORE PUSH1 0x20 ADD PUSH1 0x0 DUP2 MSTORE PUSH1 0x20 ADD PUSH1 0x0 DUP2 MSTORE POP SWAP1 JUMP JUMPDEST PUSH1 0x40 MLOAD DUP1 PUSH1 0xE0 ADD PUSH1 0x40 MSTORE DUP1 PUSH1 0x0 PUSH1 0x9 DUP2 GT ISZERO PUSH2 0x5DD2 JUMPI INVALID JUMPDEST DUP2 MSTORE PUSH1 0x20 ADD PUSH1 0x0 PUSH1 0x3 DUP2 GT ISZERO PUSH2 0x5DE4 JUMPI INVALID JUMPDEST DUP2 MSTORE PUSH1 0x20 ADD PUSH1 0x0 DUP2 MSTORE PUSH1 0x20 ADD PUSH1 0x0 DUP2 MSTORE PUSH1 0x20 ADD PUSH1 0x0 DUP2 MSTORE PUSH1 0x20 ADD PUSH1 0x0 DUP2 MSTORE PUSH1 0x20 ADD PUSH1 0x0 DUP2 MSTORE POP SWAP1 JUMP JUMPDEST PUSH1 0x40 MLOAD DUP1 PUSH1 0xA0 ADD PUSH1 0x40 MSTORE DUP1 PUSH1 0x0 PUSH1 0x3 DUP2 GT ISZERO PUSH2 0x5E25 JUMPI INVALID JUMPDEST DUP2 MSTORE PUSH1 0x20 ADD PUSH1 0x0 DUP2 MSTORE PUSH1 0x20 ADD PUSH1 0x0 DUP2 MSTORE PUSH1 0x20 ADD PUSH1 0x0 DUP2 MSTORE PUSH1 0x20 ADD PUSH1 0x0 DUP2 MSTORE POP SWAP1 JUMP JUMPDEST PUSH1 0x0 DUP2 CALLDATALOAD SWAP1 POP PUSH2 0x5E56 DUP2 PUSH2 0x737F JUMP JUMPDEST SWAP3 SWAP2 POP POP JUMP JUMPDEST PUSH1 0x0 DUP2 MLOAD SWAP1 POP PUSH2 0x5E6B DUP2 PUSH2 0x7396 JUMP JUMPDEST SWAP3 SWAP2 POP POP JUMP JUMPDEST PUSH1 0x0 DUP2 CALLDATALOAD SWAP1 POP PUSH2 0x5E80 DUP2 PUSH2 0x73AD JUMP JUMPDEST SWAP3 SWAP2 POP POP JUMP JUMPDEST PUSH1 0x0 DUP2 MLOAD SWAP1 POP PUSH2 0x5E95 DUP2 PUSH2 0x73AD JUMP JUMPDEST SWAP3 SWAP2 POP POP JUMP JUMPDEST PUSH1 0x0 DUP2 CALLDATALOAD SWAP1 POP PUSH2 0x5EAA DUP2 PUSH2 0x73C4 JUMP JUMPDEST SWAP3 SWAP2 POP POP JUMP JUMPDEST PUSH1 0x0 DUP2 CALLDATALOAD SWAP1 POP PUSH2 0x5EBF DUP2 PUSH2 0x73DB JUMP JUMPDEST SWAP3 SWAP2 POP POP JUMP JUMPDEST PUSH1 0x0 DUP2 MLOAD SWAP1 POP PUSH2 0x5ED4 DUP2 PUSH2 0x73DB JUMP JUMPDEST SWAP3 SWAP2 POP POP JUMP JUMPDEST PUSH1 0x0 PUSH1 0x20 DUP3 DUP5 SUB SLT ISZERO PUSH2 0x5EEC JUMPI PUSH1 0x0 DUP1 REVERT JUMPDEST PUSH1 0x0 PUSH2 0x5EFA DUP5 DUP3 DUP6 ADD PUSH2 0x5E47 JUMP JUMPDEST SWAP2 POP POP SWAP3 SWAP2 POP POP JUMP JUMPDEST PUSH1 0x0 PUSH1 0x20 DUP3 DUP5 SUB SLT ISZERO PUSH2 0x5F15 JUMPI PUSH1 0x0 DUP1 REVERT JUMPDEST PUSH1 0x0 PUSH2 0x5F23 DUP5 DUP3 DUP6 ADD PUSH2 0x5E5C JUMP JUMPDEST SWAP2 POP POP SWAP3 SWAP2 POP POP JUMP JUMPDEST PUSH1 0x0 DUP1 PUSH1 0x40 DUP4 DUP6 SUB SLT ISZERO PUSH2 0x5F3F JUMPI PUSH1 0x0 DUP1 REVERT JUMPDEST PUSH1 0x0 PUSH2 0x5F4D DUP6 DUP3 DUP7 ADD PUSH2 0x5E47 JUMP JUMPDEST SWAP3 POP POP PUSH1 0x20 PUSH2 0x5F5E DUP6 DUP3 DUP7 ADD PUSH2 0x5E47 JUMP JUMPDEST SWAP2 POP POP SWAP3 POP SWAP3 SWAP1 POP JUMP JUMPDEST PUSH1 0x0 DUP1 PUSH1 0x0 PUSH1 0x60 DUP5 DUP7 SUB SLT ISZERO PUSH2 0x5F7D JUMPI PUSH1 0x0 DUP1 REVERT JUMPDEST PUSH1 0x0 PUSH2 0x5F8B DUP7 DUP3 DUP8 ADD PUSH2 0x5E47 JUMP JUMPDEST SWAP4 POP POP PUSH1 0x20 PUSH2 0x5F9C DUP7 DUP3 DUP8 ADD PUSH2 0x5E47 JUMP JUMPDEST SWAP3 POP POP PUSH1 0x40 PUSH2 0x5FAD DUP7 DUP3 DUP8 ADD PUSH2 0x5EB0 JUMP JUMPDEST SWAP2 POP POP SWAP3 POP SWAP3 POP SWAP3 JUMP JUMPDEST PUSH1 0x0 DUP1 PUSH1 0x40 DUP4 DUP6 SUB SLT ISZERO PUSH2 0x5FCA JUMPI PUSH1 0x0 DUP1 REVERT JUMPDEST PUSH1 0x0 PUSH2 0x5FD8 DUP6 DUP3 DUP7 ADD PUSH2 0x5E47 JUMP JUMPDEST SWAP3 POP POP PUSH1 0x20 PUSH2 0x5FE9 DUP6 DUP3 DUP7 ADD PUSH2 0x5EB0 JUMP JUMPDEST SWAP2 POP POP SWAP3 POP SWAP3 SWAP1 POP JUMP JUMPDEST PUSH1 0x0 PUSH1 0x20 DUP3 DUP5 SUB SLT ISZERO PUSH2 0x6005 JUMPI PUSH1 0x0 DUP1 REVERT JUMPDEST PUSH1 0x0 PUSH2 0x6013 DUP5 DUP3 DUP6 ADD PUSH2 0x5E71 JUMP JUMPDEST SWAP2 POP POP SWAP3 SWAP2 POP POP JUMP JUMPDEST PUSH1 0x0 PUSH1 0x20 DUP3 DUP5 SUB SLT ISZERO PUSH2 0x602E JUMPI PUSH1 0x0 DUP1 REVERT JUMPDEST PUSH1 0x0 PUSH2 0x603C DUP5 DUP3 DUP6 ADD PUSH2 0x5E86 JUMP JUMPDEST SWAP2 POP POP SWAP3 SWAP2 POP POP JUMP JUMPDEST PUSH1 0x0 PUSH1 0x20 DUP3 DUP5 SUB SLT ISZERO PUSH2 0x6057 JUMPI PUSH1 0x0 DUP1 REVERT JUMPDEST PUSH1 0x0 PUSH2 0x6065 DUP5 DUP3 DUP6 ADD PUSH2 0x5E9B JUMP JUMPDEST SWAP2 POP POP SWAP3 SWAP2 POP POP JUMP JUMPDEST PUSH1 0x0 PUSH1 0x20 DUP3 DUP5 SUB SLT ISZERO PUSH2 0x6080 JUMPI PUSH1 0x0 DUP1 REVERT JUMPDEST PUSH1 0x0 PUSH2 0x608E DUP5 DUP3 DUP6 ADD PUSH2 0x5EB0 JUMP JUMPDEST SWAP2 POP POP SWAP3 SWAP2 POP POP JUMP JUMPDEST PUSH1 0x0 PUSH1 0x20 DUP3 DUP5 SUB SLT ISZERO PUSH2 0x60A9 JUMPI PUSH1 0x0 DUP1 REVERT JUMPDEST PUSH1 0x0 PUSH2 0x60B7 DUP5 DUP3 DUP6 ADD PUSH2 0x5EC5 JUMP JUMPDEST SWAP2 POP POP SWAP3 SWAP2 POP POP JUMP JUMPDEST PUSH1 0x0 PUSH2 0x60CC DUP4 DUP4 PUSH2 0x6AF0 JUMP JUMPDEST PUSH1 0x20 DUP4 ADD SWAP1 POP SWAP3 SWAP2 POP POP JUMP JUMPDEST PUSH2 0x60E1 DUP2 PUSH2 0x728C JUMP JUMPDEST DUP3 MSTORE POP POP JUMP JUMPDEST PUSH1 0x0 PUSH2 0x60F2 DUP3 PUSH2 0x7231 JUMP JUMPDEST PUSH2 0x60FC DUP2 DUP6 PUSH2 0x725F JUMP JUMPDEST SWAP4 POP PUSH2 0x6107 DUP4 PUSH2 0x7221 JUMP JUMPDEST DUP1 PUSH1 0x0 JUMPDEST DUP4 DUP2 LT ISZERO PUSH2 0x6138 JUMPI DUP2 MLOAD PUSH2 0x611F DUP9 DUP3 PUSH2 0x60C0 JUMP JUMPDEST SWAP8 POP PUSH2 0x612A DUP4 PUSH2 0x7252 JUMP JUMPDEST SWAP3 POP POP PUSH1 0x1 DUP2 ADD SWAP1 POP PUSH2 0x610B JUMP JUMPDEST POP DUP6 SWAP4 POP POP POP POP SWAP3 SWAP2 POP POP JUMP JUMPDEST PUSH2 0x614E DUP2 PUSH2 0x72B0 JUMP JUMPDEST DUP3 MSTORE POP POP JUMP JUMPDEST PUSH1 0x0 PUSH2 0x615F DUP3 PUSH2 0x723C JUMP JUMPDEST PUSH2 0x6169 DUP2 DUP6 PUSH2 0x7270 JUMP JUMPDEST SWAP4 POP PUSH2 0x6179 DUP2 DUP6 PUSH1 0x20 DUP7 ADD PUSH2 0x733B JUMP JUMPDEST DUP1 DUP5 ADD SWAP2 POP POP SWAP3 SWAP2 POP POP JUMP JUMPDEST PUSH2 0x618E DUP2 PUSH2 0x7305 JUMP JUMPDEST DUP3 MSTORE POP POP JUMP JUMPDEST PUSH2 0x619D DUP2 PUSH2 0x7329 JUMP JUMPDEST DUP3 MSTORE POP POP JUMP JUMPDEST PUSH1 0x0 PUSH2 0x61AE DUP3 PUSH2 0x7247 JUMP JUMPDEST PUSH2 0x61B8 DUP2 DUP6 PUSH2 0x727B JUMP JUMPDEST SWAP4 POP PUSH2 0x61C8 DUP2 DUP6 PUSH1 0x20 DUP7 ADD PUSH2 0x733B JUMP JUMPDEST PUSH2 0x61D1 DUP2 PUSH2 0x736E JUMP JUMPDEST DUP5 ADD SWAP2 POP POP SWAP3 SWAP2 POP POP JUMP JUMPDEST PUSH1 0x0 PUSH2 0x61E9 PUSH1 0x3B DUP4 PUSH2 0x727B JUMP JUMPDEST SWAP2 POP PUSH32 0x52454445454D5F434F4C4C41544552414C535F4E45575F544F54414C5F434F4C PUSH1 0x0 DUP4 ADD MSTORE PUSH32 0x4C41544552414C535F43414C43554C4154494F4E5F4641494C45440000000000 PUSH1 0x20 DUP4 ADD MSTORE PUSH1 0x40 DUP3 ADD SWAP1 POP SWAP2 SWAP1 POP JUMP JUMPDEST PUSH1 0x0 PUSH2 0x624F PUSH1 0x16 DUP4 PUSH2 0x727B JUMP JUMPDEST SWAP2 POP PUSH32 0x61636372756520696E746572657374206661696C656400000000000000000000 PUSH1 0x0 DUP4 ADD MSTORE PUSH1 0x20 DUP3 ADD SWAP1 POP SWAP2 SWAP1 POP JUMP JUMPDEST PUSH1 0x0 PUSH2 0x628F PUSH1 0x18 DUP4 PUSH2 0x727B JUMP JUMPDEST SWAP2 POP PUSH32 0x544F4B454E5F5452414E534645525F494E5F4641494C45440000000000000000 PUSH1 0x0 DUP4 ADD MSTORE PUSH1 0x20 DUP3 ADD SWAP1 POP SWAP2 SWAP1 POP JUMP JUMPDEST PUSH1 0x0 PUSH2 0x62CF PUSH1 0x1F DUP4 PUSH2 0x727B JUMP JUMPDEST SWAP2 POP PUSH32 0x62616C616E636520636F756C64206E6F742062652063616C63756C6174656400 PUSH1 0x0 DUP4 ADD MSTORE PUSH1 0x20 DUP3 ADD SWAP1 POP SWAP2 SWAP1 POP JUMP JUMPDEST PUSH1 0x0 PUSH2 0x630F PUSH1 0xD DUP4 PUSH2 0x727B JUMP JUMPDEST SWAP2 POP PUSH32 0x6D757374206265206F6E77657200000000000000000000000000000000000000 PUSH1 0x0 DUP4 ADD MSTORE PUSH1 0x20 DUP3 ADD SWAP1 POP SWAP2 SWAP1 POP JUMP JUMPDEST PUSH1 0x0 PUSH2 0x634F PUSH1 0x1A DUP4 PUSH2 0x727B JUMP JUMPDEST SWAP2 POP PUSH32 0x544F4B454E5F5452414E534645525F494E5F4F564552464C4F57000000000000 PUSH1 0x0 DUP4 ADD MSTORE PUSH1 0x20 DUP3 ADD SWAP1 POP SWAP2 SWAP1 POP JUMP JUMPDEST PUSH1 0x0 PUSH2 0x638F PUSH1 0x19 DUP4 PUSH2 0x727B JUMP JUMPDEST SWAP2 POP PUSH32 0x544F4B454E5F5452414E534645525F4F55545F4641494C454400000000000000 PUSH1 0x0 DUP4 ADD MSTORE PUSH1 0x20 DUP3 ADD SWAP1 POP SWAP2 SWAP1 POP JUMP JUMPDEST PUSH1 0x0 PUSH2 0x63CF PUSH1 0x34 DUP4 PUSH2 0x727B JUMP JUMPDEST SWAP2 POP PUSH32 0x434F4C4C41544552414C495A455F4E45575F4143434F554E545F42414C414E43 PUSH1 0x0 DUP4 ADD MSTORE PUSH32 0x455F43414C43554C4154494F4E5F4641494C4544000000000000000000000000 PUSH1 0x20 DUP4 ADD MSTORE PUSH1 0x40 DUP3 ADD SWAP1 POP SWAP2 SWAP1 POP JUMP JUMPDEST PUSH1 0x0 PUSH2 0x6435 PUSH1 0x1D DUP4 PUSH2 0x727B JUMP JUMPDEST SWAP2 POP PUSH32 0x4E46544F776E6572736869703A205452414E534645525F4641494C4544000000 PUSH1 0x0 DUP4 ADD MSTORE PUSH1 0x20 DUP3 ADD SWAP1 POP SWAP2 SWAP1 POP JUMP JUMPDEST PUSH1 0x0 PUSH2 0x6475 PUSH1 0x33 DUP4 PUSH2 0x727B JUMP JUMPDEST SWAP2 POP PUSH32 0x636F6C6C61746572616C5261746553746F7265643A20636F6C6C61746572616C PUSH1 0x0 DUP4 ADD MSTORE PUSH32 0x52617465496E7465726E616C206661696C656400000000000000000000000000 PUSH1 0x20 DUP4 ADD MSTORE PUSH1 0x40 DUP3 ADD SWAP1 POP SWAP2 SWAP1 POP JUMP JUMPDEST PUSH1 0x0 PUSH2 0x64DB PUSH1 0x1C DUP4 PUSH2 0x727B JUMP JUMPDEST SWAP2 POP PUSH32 0x6D61726B6572206D6574686F642072657475726E65642066616C736500000000 PUSH1 0x0 DUP4 ADD MSTORE PUSH1 0x20 DUP3 ADD SWAP1 POP SWAP2 SWAP1 POP JUMP JUMPDEST PUSH1 0x0 PUSH2 0x651B PUSH1 0x2B DUP4 PUSH2 0x727B JUMP JUMPDEST SWAP2 POP PUSH32 0x4D494E545F4E45575F4143434F554E545F42414C414E43455F43414C43554C41 PUSH1 0x0 DUP4 ADD MSTORE PUSH32 0x54494F4E5F4641494C4544000000000000000000000000000000000000000000 PUSH1 0x20 DUP4 ADD MSTORE PUSH1 0x40 DUP3 ADD SWAP1 POP SWAP2 SWAP1 POP JUMP JUMPDEST PUSH1 0x0 PUSH2 0x6581 PUSH1 0x37 DUP4 PUSH2 0x727B JUMP JUMPDEST SWAP2 POP PUSH32 0x626F72726F7742616C616E636553746F7265643A20626F72726F7742616C616E PUSH1 0x0 DUP4 ADD MSTORE PUSH32 0x636553746F726564496E7465726E616C206661696C6564000000000000000000 PUSH1 0x20 DUP4 ADD MSTORE PUSH1 0x40 DUP3 ADD SWAP1 POP SWAP2 SWAP1 POP JUMP JUMPDEST PUSH1 0x0 PUSH2 0x65E7 PUSH1 0x22 DUP4 PUSH2 0x727B JUMP JUMPDEST SWAP2 POP PUSH32 0x63616E6E6F7420617070726F766520746F20746865207A65726F206164647265 PUSH1 0x0 DUP4 ADD MSTORE PUSH32 0x7373000000000000000000000000000000000000000000000000000000000000 PUSH1 0x20 DUP4 ADD MSTORE PUSH1 0x40 DUP3 ADD SWAP1 POP SWAP2 SWAP1 POP JUMP JUMPDEST PUSH1 0x0 PUSH2 0x664D PUSH1 0x35 DUP4 PUSH2 0x727B JUMP JUMPDEST SWAP2 POP PUSH32 0x4C49515549444154455F424F52524F575F4E45575F544F54414C5F424F52524F PUSH1 0x0 DUP4 ADD MSTORE PUSH32 0x57535F43414C43554C4154494F4E5F4641494C45440000000000000000000000 PUSH1 0x20 DUP4 ADD MSTORE PUSH1 0x40 DUP3 ADD SWAP1 POP SWAP2 SWAP1 POP JUMP JUMPDEST PUSH1 0x0 PUSH2 0x66B3 PUSH1 0x3A DUP4 PUSH2 0x727B JUMP JUMPDEST SWAP2 POP PUSH32 0x52455041595F424F52524F575F4E45575F4143434F554E545F424F52524F575F PUSH1 0x0 DUP4 ADD MSTORE PUSH32 0x42414C414E43455F43414C43554C4154494F4E5F4641494C4544000000000000 PUSH1 0x20 DUP4 ADD MSTORE PUSH1 0x40 DUP3 ADD SWAP1 POP SWAP2 SWAP1 POP JUMP JUMPDEST PUSH1 0x0 PUSH2 0x6719 PUSH1 0x23 DUP4 PUSH2 0x727B JUMP JUMPDEST SWAP2 POP PUSH32 0x4C49515549444154455F424F52524F575F5452414E534645525F494E5F464149 PUSH1 0x0 DUP4 ADD MSTORE PUSH32 0x4C45440000000000000000000000000000000000000000000000000000000000 PUSH1 0x20 DUP4 ADD MSTORE PUSH1 0x40 DUP3 ADD SWAP1 POP SWAP2 SWAP1 POP JUMP JUMPDEST PUSH1 0x0 PUSH2 0x677F PUSH1 0x1F DUP4 PUSH2 0x727B JUMP JUMPDEST SWAP2 POP PUSH32 0x636F756C64206E6F742063616C63756C61746520626C6F636B2064656C746100 PUSH1 0x0 DUP4 ADD MSTORE PUSH1 0x20 DUP3 ADD SWAP1 POP SWAP2 SWAP1 POP JUMP JUMPDEST PUSH1 0x0 PUSH2 0x67BF PUSH1 0x31 DUP4 PUSH2 0x727B JUMP JUMPDEST SWAP2 POP PUSH32 0x52455041595F424F52524F575F4E45575F544F54414C5F42414C414E43455F43 PUSH1 0x0 DUP4 ADD MSTORE PUSH32 0x414C43554C4154494F4E5F4641494C4544000000000000000000000000000000 PUSH1 0x20 DUP4 ADD MSTORE PUSH1 0x40 DUP3 ADD SWAP1 POP SWAP2 SWAP1 POP JUMP JUMPDEST PUSH1 0x0 PUSH2 0x6825 PUSH1 0x14 DUP4 PUSH2 0x727B JUMP JUMPDEST SWAP2 POP PUSH32 0x616464726573732063616E74206265207A65726F000000000000000000000000 PUSH1 0x0 DUP4 ADD MSTORE PUSH1 0x20 DUP3 ADD SWAP1 POP SWAP2 SWAP1 POP JUMP JUMPDEST PUSH1 0x0 PUSH2 0x6865 PUSH1 0xE DUP4 PUSH2 0x727B JUMP JUMPDEST SWAP2 POP PUSH32 0x6D75737420626520657869737473000000000000000000000000000000000000 PUSH1 0x0 DUP4 ADD MSTORE PUSH1 0x20 DUP3 ADD SWAP1 POP SWAP2 SWAP1 POP JUMP JUMPDEST PUSH1 0x0 PUSH2 0x68A5 PUSH1 0x20 DUP4 PUSH2 0x727B JUMP JUMPDEST SWAP2 POP PUSH32 0x4D494E545F45584348414E47455F43414C43554C4154494F4E5F4641494C4544 PUSH1 0x0 DUP4 ADD MSTORE PUSH1 0x20 DUP3 ADD SWAP1 POP SWAP2 SWAP1 POP JUMP JUMPDEST PUSH1 0x0 PUSH2 0x68E5 PUSH1 0x11 DUP4 PUSH2 0x727B JUMP JUMPDEST SWAP2 POP PUSH32 0x6E66743A206E6F74207661696C64206964000000000000000000000000000000 PUSH1 0x0 DUP4 ADD MSTORE PUSH1 0x20 DUP3 ADD SWAP1 POP SWAP2 SWAP1 POP JUMP JUMPDEST PUSH1 0x0 PUSH2 0x6925 PUSH1 0x35 DUP4 PUSH2 0x727B JUMP JUMPDEST SWAP2 POP PUSH32 0x65786368616E67655261746553746F7265643A2065786368616E676552617465 PUSH1 0x0 DUP4 ADD MSTORE PUSH32 0x53746F726564496E7465726E616C206661696C65640000000000000000000000 PUSH1 0x20 DUP4 ADD MSTORE PUSH1 0x40 DUP3 ADD SWAP1 POP SWAP2 SWAP1 POP JUMP JUMPDEST PUSH1 0x0 PUSH2 0x698B PUSH1 0x28 DUP4 PUSH2 0x727B JUMP JUMPDEST SWAP2 POP PUSH32 0x4D494E545F4E45575F544F54414C5F535550504C595F43414C43554C4154494F PUSH1 0x0 DUP4 ADD MSTORE PUSH32 0x4E5F4641494C4544000000000000000000000000000000000000000000000000 PUSH1 0x20 DUP4 ADD MSTORE PUSH1 0x40 DUP3 ADD SWAP1 POP SWAP2 SWAP1 POP JUMP JUMPDEST PUSH1 0x0 PUSH2 0x69F1 PUSH1 0x34 DUP4 PUSH2 0x727B JUMP JUMPDEST SWAP2 POP PUSH32 0x6F6E65206F662072656465656D546F6B656E73496E206F722072656465656D41 PUSH1 0x0 DUP4 ADD MSTORE PUSH32 0x6D6F756E74496E206D757374206265207A65726F000000000000000000000000 PUSH1 0x20 DUP4 ADD MSTORE PUSH1 0x40 DUP3 ADD SWAP1 POP SWAP2 SWAP1 POP JUMP JUMPDEST PUSH1 0x0 PUSH2 0x6A57 PUSH1 0x1F DUP4 PUSH2 0x727B JUMP JUMPDEST SWAP2 POP PUSH32 0x5265656E7472616E637947756172643A207265656E7472616E742063616C6C00 PUSH1 0x0 DUP4 ADD MSTORE PUSH1 0x20 DUP3 ADD SWAP1 POP SWAP2 SWAP1 POP JUMP JUMPDEST PUSH1 0x0 PUSH2 0x6A97 PUSH1 0x36 DUP4 PUSH2 0x727B JUMP JUMPDEST SWAP2 POP PUSH32 0x434F4C4C41544552414C495A455F4E45575F544F54414C5F434F4C4C41544552 PUSH1 0x0 DUP4 ADD MSTORE PUSH32 0x414C535F43414C43554C4154494F4E5F4641494C454400000000000000000000 PUSH1 0x20 DUP4 ADD MSTORE PUSH1 0x40 DUP3 ADD SWAP1 POP SWAP2 SWAP1 POP JUMP JUMPDEST PUSH2 0x6AF9 DUP2 PUSH2 0x72EE JUMP JUMPDEST DUP3 MSTORE POP POP JUMP JUMPDEST PUSH2 0x6B08 DUP2 PUSH2 0x72EE JUMP JUMPDEST DUP3 MSTORE POP POP JUMP JUMPDEST PUSH2 0x6B17 DUP2 PUSH2 0x72F8 JUMP JUMPDEST DUP3 MSTORE POP POP JUMP JUMPDEST PUSH1 0x0 PUSH2 0x6B29 DUP3 DUP5 PUSH2 0x6154 JUMP JUMPDEST SWAP2 POP DUP2 SWAP1 POP SWAP3 SWAP2 POP POP JUMP JUMPDEST PUSH1 0x0 PUSH1 0x20 DUP3 ADD SWAP1 POP PUSH2 0x6B49 PUSH1 0x0 DUP4 ADD DUP5 PUSH2 0x60D8 JUMP JUMPDEST SWAP3 SWAP2 POP POP JUMP JUMPDEST PUSH1 0x0 PUSH1 0x40 DUP3 ADD SWAP1 POP PUSH2 0x6B64 PUSH1 0x0 DUP4 ADD DUP6 PUSH2 0x60D8 JUMP JUMPDEST PUSH2 0x6B71 PUSH1 0x20 DUP4 ADD DUP5 PUSH2 0x60D8 JUMP JUMPDEST SWAP4 SWAP3 POP POP POP JUMP JUMPDEST PUSH1 0x0 PUSH1 0x60 DUP3 ADD SWAP1 POP PUSH2 0x6B8D PUSH1 0x0 DUP4 ADD DUP7 PUSH2 0x60D8 JUMP JUMPDEST PUSH2 0x6B9A PUSH1 0x20 DUP4 ADD DUP6 PUSH2 0x60D8 JUMP JUMPDEST PUSH2 0x6BA7 PUSH1 0x40 DUP4 ADD DUP5 PUSH2 0x6AFF JUMP JUMPDEST SWAP5 SWAP4 POP POP POP POP JUMP JUMPDEST PUSH1 0x0 PUSH1 0x80 DUP3 ADD SWAP1 POP PUSH2 0x6BC4 PUSH1 0x0 DUP4 ADD DUP8 PUSH2 0x60D8 JUMP JUMPDEST PUSH2 0x6BD1 PUSH1 0x20 DUP4 ADD DUP7 PUSH2 0x60D8 JUMP JUMPDEST PUSH2 0x6BDE PUSH1 0x40 DUP4 ADD DUP6 PUSH2 0x6AFF JUMP JUMPDEST PUSH2 0x6BEB PUSH1 0x60 DUP4 ADD DUP5 PUSH2 0x6AFF JUMP JUMPDEST SWAP6 SWAP5 POP POP POP POP POP JUMP JUMPDEST PUSH1 0x0 PUSH1 0xA0 DUP3 ADD SWAP1 POP PUSH2 0x6C09 PUSH1 0x0 DUP4 ADD DUP9 PUSH2 0x60D8 JUMP JUMPDEST PUSH2 0x6C16 PUSH1 0x20 DUP4 ADD DUP8 PUSH2 0x60D8 JUMP JUMPDEST PUSH2 0x6C23 PUSH1 0x40 DUP4 ADD DUP7 PUSH2 0x6AFF JUMP JUMPDEST PUSH2 0x6C30 PUSH1 0x60 DUP4 ADD DUP6 PUSH2 0x6AFF JUMP JUMPDEST PUSH2 0x6C3D PUSH1 0x80 DUP4 ADD DUP5 PUSH2 0x6AFF JUMP JUMPDEST SWAP7 SWAP6 POP POP POP POP POP POP JUMP JUMPDEST PUSH1 0x0 PUSH1 0x40 DUP3 ADD SWAP1 POP PUSH2 0x6C5C PUSH1 0x0 DUP4 ADD DUP6 PUSH2 0x60D8 JUMP JUMPDEST PUSH2 0x6C69 PUSH1 0x20 DUP4 ADD DUP5 PUSH2 0x6AFF JUMP JUMPDEST SWAP4 SWAP3 POP POP POP JUMP JUMPDEST PUSH1 0x0 PUSH1 0x60 DUP3 ADD SWAP1 POP PUSH2 0x6C85 PUSH1 0x0 DUP4 ADD DUP7 PUSH2 0x60D8 JUMP JUMPDEST PUSH2 0x6C92 PUSH1 0x20 DUP4 ADD DUP6 PUSH2 0x6AFF JUMP JUMPDEST PUSH2 0x6C9F PUSH1 0x40 DUP4 ADD DUP5 PUSH2 0x6AFF JUMP JUMPDEST SWAP5 SWAP4 POP POP POP POP JUMP JUMPDEST PUSH1 0x0 PUSH1 0x80 DUP3 ADD SWAP1 POP PUSH2 0x6CBC PUSH1 0x0 DUP4 ADD DUP8 PUSH2 0x60D8 JUMP JUMPDEST PUSH2 0x6CC9 PUSH1 0x20 DUP4 ADD DUP7 PUSH2 0x6AFF JUMP JUMPDEST PUSH2 0x6CD6 PUSH1 0x40 DUP4 ADD DUP6 PUSH2 0x6AFF JUMP JUMPDEST PUSH2 0x6CE3 PUSH1 0x60 DUP4 ADD DUP5 PUSH2 0x6AFF JUMP JUMPDEST SWAP6 SWAP5 POP POP POP POP POP JUMP JUMPDEST PUSH1 0x0 PUSH1 0x20 DUP3 ADD SWAP1 POP DUP2 DUP2 SUB PUSH1 0x0 DUP4 ADD MSTORE PUSH2 0x6D06 DUP2 DUP5 PUSH2 0x60E7 JUMP JUMPDEST SWAP1 POP SWAP3 SWAP2 POP POP JUMP JUMPDEST PUSH1 0x0 PUSH1 0x20 DUP3 ADD SWAP1 POP PUSH2 0x6D23 PUSH1 0x0 DUP4 ADD DUP5 PUSH2 0x6145 JUMP JUMPDEST SWAP3 SWAP2 POP POP JUMP JUMPDEST PUSH1 0x0 PUSH1 0x20 DUP3 ADD SWAP1 POP PUSH2 0x6D3E PUSH1 0x0 DUP4 ADD DUP5 PUSH2 0x6185 JUMP JUMPDEST SWAP3 SWAP2 POP POP JUMP JUMPDEST PUSH1 0x0 PUSH1 0x40 DUP3 ADD SWAP1 POP PUSH2 0x6D59 PUSH1 0x0 DUP4 ADD DUP6 PUSH2 0x6185 JUMP JUMPDEST PUSH2 0x6D66 PUSH1 0x20 DUP4 ADD DUP5 PUSH2 0x6185 JUMP JUMPDEST SWAP4 SWAP3 POP POP POP JUMP JUMPDEST PUSH1 0x0 PUSH1 0x20 DUP3 ADD SWAP1 POP DUP2 DUP2 SUB PUSH1 0x0 DUP4 ADD MSTORE PUSH2 0x6D87 DUP2 DUP5 PUSH2 0x61A3 JUMP JUMPDEST SWAP1 POP SWAP3 SWAP2 POP POP JUMP JUMPDEST PUSH1 0x0 PUSH1 0x20 DUP3 ADD SWAP1 POP DUP2 DUP2 SUB PUSH1 0x0 DUP4 ADD MSTORE PUSH2 0x6DA8 DUP2 PUSH2 0x61DC JUMP JUMPDEST SWAP1 POP SWAP2 SWAP1 POP JUMP JUMPDEST PUSH1 0x0 PUSH1 0x20 DUP3 ADD SWAP1 POP DUP2 DUP2 SUB PUSH1 0x0 DUP4 ADD MSTORE PUSH2 0x6DC8 DUP2 PUSH2 0x6242 JUMP JUMPDEST SWAP1 POP SWAP2 SWAP1 POP JUMP JUMPDEST PUSH1 0x0 PUSH1 0x20 DUP3 ADD SWAP1 POP DUP2 DUP2 SUB PUSH1 0x0 DUP4 ADD MSTORE PUSH2 0x6DE8 DUP2 PUSH2 0x6282 JUMP JUMPDEST SWAP1 POP SWAP2 SWAP1 POP JUMP JUMPDEST PUSH1 0x0 PUSH1 0x20 DUP3 ADD SWAP1 POP DUP2 DUP2 SUB PUSH1 0x0 DUP4 ADD MSTORE PUSH2 0x6E08 DUP2 PUSH2 0x62C2 JUMP JUMPDEST SWAP1 POP SWAP2 SWAP1 POP JUMP JUMPDEST PUSH1 0x0 PUSH1 0x20 DUP3 ADD SWAP1 POP DUP2 DUP2 SUB PUSH1 0x0 DUP4 ADD MSTORE PUSH2 0x6E28 DUP2 PUSH2 0x6302 JUMP JUMPDEST SWAP1 POP SWAP2 SWAP1 POP JUMP JUMPDEST PUSH1 0x0 PUSH1 0x20 DUP3 ADD SWAP1 POP DUP2 DUP2 SUB PUSH1 0x0 DUP4 ADD MSTORE PUSH2 0x6E48 DUP2 PUSH2 0x6342 JUMP JUMPDEST SWAP1 POP SWAP2 SWAP1 POP JUMP JUMPDEST PUSH1 0x0 PUSH1 0x20 DUP3 ADD SWAP1 POP DUP2 DUP2 SUB PUSH1 0x0 DUP4 ADD MSTORE PUSH2 0x6E68 DUP2 PUSH2 0x6382 JUMP JUMPDEST SWAP1 POP SWAP2 SWAP1 POP JUMP JUMPDEST PUSH1 0x0 PUSH1 0x20 DUP3 ADD SWAP1 POP DUP2 DUP2 SUB PUSH1 0x0 DUP4 ADD MSTORE PUSH2 0x6E88 DUP2 PUSH2 0x63C2 JUMP JUMPDEST SWAP1 POP SWAP2 SWAP1 POP JUMP JUMPDEST PUSH1 0x0 PUSH1 0x20 DUP3 ADD SWAP1 POP DUP2 DUP2 SUB PUSH1 0x0 DUP4 ADD MSTORE PUSH2 0x6EA8 DUP2 PUSH2 0x6428 JUMP JUMPDEST SWAP1 POP SWAP2 SWAP1 POP JUMP JUMPDEST PUSH1 0x0 PUSH1 0x20 DUP3 ADD SWAP1 POP DUP2 DUP2 SUB PUSH1 0x0 DUP4 ADD MSTORE PUSH2 0x6EC8 DUP2 PUSH2 0x6468 JUMP JUMPDEST SWAP1 POP SWAP2 SWAP1 POP JUMP JUMPDEST PUSH1 0x0 PUSH1 0x20 DUP3 ADD SWAP1 POP DUP2 DUP2 SUB PUSH1 0x0 DUP4 ADD MSTORE PUSH2 0x6EE8 DUP2 PUSH2 0x64CE JUMP JUMPDEST SWAP1 POP SWAP2 SWAP1 POP JUMP JUMPDEST PUSH1 0x0 PUSH1 0x20 DUP3 ADD SWAP1 POP DUP2 DUP2 SUB PUSH1 0x0 DUP4 ADD MSTORE PUSH2 0x6F08 DUP2 PUSH2 0x650E JUMP JUMPDEST SWAP1 POP SWAP2 SWAP1 POP JUMP JUMPDEST PUSH1 0x0 PUSH1 0x20 DUP3 ADD SWAP1 POP DUP2 DUP2 SUB PUSH1 0x0 DUP4 ADD MSTORE PUSH2 0x6F28 DUP2 PUSH2 0x6574 JUMP JUMPDEST SWAP1 POP SWAP2 SWAP1 POP JUMP JUMPDEST PUSH1 0x0 PUSH1 0x20 DUP3 ADD SWAP1 POP DUP2 DUP2 SUB PUSH1 0x0 DUP4 ADD MSTORE PUSH2 0x6F48 DUP2 PUSH2 0x65DA JUMP JUMPDEST SWAP1 POP SWAP2 SWAP1 POP JUMP JUMPDEST PUSH1 0x0 PUSH1 0x20 DUP3 ADD SWAP1 POP DUP2 DUP2 SUB PUSH1 0x0 DUP4 ADD MSTORE PUSH2 0x6F68 DUP2 PUSH2 0x6640 JUMP JUMPDEST SWAP1 POP SWAP2 SWAP1 POP JUMP JUMPDEST PUSH1 0x0 PUSH1 0x20 DUP3 ADD SWAP1 POP DUP2 DUP2 SUB PUSH1 0x0 DUP4 ADD MSTORE PUSH2 0x6F88 DUP2 PUSH2 0x66A6 JUMP JUMPDEST SWAP1 POP SWAP2 SWAP1 POP JUMP JUMPDEST PUSH1 0x0 PUSH1 0x20 DUP3 ADD SWAP1 POP DUP2 DUP2 SUB PUSH1 0x0 DUP4 ADD MSTORE PUSH2 0x6FA8 DUP2 PUSH2 0x670C JUMP JUMPDEST SWAP1 POP SWAP2 SWAP1 POP JUMP JUMPDEST PUSH1 0x0 PUSH1 0x20 DUP3 ADD SWAP1 POP DUP2 DUP2 SUB PUSH1 0x0 DUP4 ADD MSTORE PUSH2 0x6FC8 DUP2 PUSH2 0x6772 JUMP JUMPDEST SWAP1 POP SWAP2 SWAP1 POP JUMP JUMPDEST PUSH1 0x0 PUSH1 0x20 DUP3 ADD SWAP1 POP DUP2 DUP2 SUB PUSH1 0x0 DUP4 ADD MSTORE PUSH2 0x6FE8 DUP2 PUSH2 0x67B2 JUMP JUMPDEST SWAP1 POP SWAP2 SWAP1 POP JUMP JUMPDEST PUSH1 0x0 PUSH1 0x20 DUP3 ADD SWAP1 POP DUP2 DUP2 SUB PUSH1 0x0 DUP4 ADD MSTORE PUSH2 0x7008 DUP2 PUSH2 0x6818 JUMP JUMPDEST SWAP1 POP SWAP2 SWAP1 POP JUMP JUMPDEST PUSH1 0x0 PUSH1 0x20 DUP3 ADD SWAP1 POP DUP2 DUP2 SUB PUSH1 0x0 DUP4 ADD MSTORE PUSH2 0x7028 DUP2 PUSH2 0x6858 JUMP JUMPDEST SWAP1 POP SWAP2 SWAP1 POP JUMP JUMPDEST PUSH1 0x0 PUSH1 0x20 DUP3 ADD SWAP1 POP DUP2 DUP2 SUB PUSH1 0x0 DUP4 ADD MSTORE PUSH2 0x7048 DUP2 PUSH2 0x6898 JUMP JUMPDEST SWAP1 POP SWAP2 SWAP1 POP JUMP JUMPDEST PUSH1 0x0 PUSH1 0x20 DUP3 ADD SWAP1 POP DUP2 DUP2 SUB PUSH1 0x0 DUP4 ADD MSTORE PUSH2 0x7068 DUP2 PUSH2 0x68D8 JUMP JUMPDEST SWAP1 POP SWAP2 SWAP1 POP JUMP JUMPDEST PUSH1 0x0 PUSH1 0x20 DUP3 ADD SWAP1 POP DUP2 DUP2 SUB PUSH1 0x0 DUP4 ADD MSTORE PUSH2 0x7088 DUP2 PUSH2 0x6918 JUMP JUMPDEST SWAP1 POP SWAP2 SWAP1 POP JUMP JUMPDEST PUSH1 0x0 PUSH1 0x20 DUP3 ADD SWAP1 POP DUP2 DUP2 SUB PUSH1 0x0 DUP4 ADD MSTORE PUSH2 0x70A8 DUP2 PUSH2 0x697E JUMP JUMPDEST SWAP1 POP SWAP2 SWAP1 POP JUMP JUMPDEST PUSH1 0x0 PUSH1 0x20 DUP3 ADD SWAP1 POP DUP2 DUP2 SUB PUSH1 0x0 DUP4 ADD MSTORE PUSH2 0x70C8 DUP2 PUSH2 0x69E4 JUMP JUMPDEST SWAP1 POP SWAP2 SWAP1 POP JUMP JUMPDEST PUSH1 0x0 PUSH1 0x20 DUP3 ADD SWAP1 POP DUP2 DUP2 SUB PUSH1 0x0 DUP4 ADD MSTORE PUSH2 0x70E8 DUP2 PUSH2 0x6A4A JUMP JUMPDEST SWAP1 POP SWAP2 SWAP1 POP JUMP JUMPDEST PUSH1 0x0 PUSH1 0x20 DUP3 ADD SWAP1 POP DUP2 DUP2 SUB PUSH1 0x0 DUP4 ADD MSTORE PUSH2 0x7108 DUP2 PUSH2 0x6A8A JUMP JUMPDEST SWAP1 POP SWAP2 SWAP1 POP JUMP JUMPDEST PUSH1 0x0 PUSH1 0x20 DUP3 ADD SWAP1 POP PUSH2 0x7124 PUSH1 0x0 DUP4 ADD DUP5 PUSH2 0x6AFF JUMP JUMPDEST SWAP3 SWAP2 POP POP JUMP JUMPDEST PUSH1 0x0 PUSH1 0x40 DUP3 ADD SWAP1 POP PUSH2 0x713F PUSH1 0x0 DUP4 ADD DUP6 PUSH2 0x6AFF JUMP JUMPDEST PUSH2 0x714C PUSH1 0x20 DUP4 ADD DUP5 PUSH2 0x6AFF JUMP JUMPDEST SWAP4 SWAP3 POP POP POP JUMP JUMPDEST PUSH1 0x0 PUSH1 0x60 DUP3 ADD SWAP1 POP PUSH2 0x7168 PUSH1 0x0 DUP4 ADD DUP7 PUSH2 0x6AFF JUMP JUMPDEST PUSH2 0x7175 PUSH1 0x20 DUP4 ADD DUP6 PUSH2 0x6AFF JUMP JUMPDEST PUSH2 0x7182 PUSH1 0x40 DUP4 ADD DUP5 PUSH2 0x6194 JUMP JUMPDEST SWAP5 SWAP4 POP POP POP POP JUMP JUMPDEST PUSH1 0x0 PUSH1 0x60 DUP3 ADD SWAP1 POP PUSH2 0x719F PUSH1 0x0 DUP4 ADD DUP7 PUSH2 0x6AFF JUMP JUMPDEST PUSH2 0x71AC PUSH1 0x20 DUP4 ADD DUP6 PUSH2 0x6AFF JUMP JUMPDEST PUSH2 0x71B9 PUSH1 0x40 DUP4 ADD DUP5 PUSH2 0x6AFF JUMP JUMPDEST SWAP5 SWAP4 POP POP POP POP JUMP JUMPDEST PUSH1 0x0 PUSH1 0x80 DUP3 ADD SWAP1 POP PUSH2 0x71D6 PUSH1 0x0 DUP4 ADD DUP8 PUSH2 0x6AFF JUMP JUMPDEST PUSH2 0x71E3 PUSH1 0x20 DUP4 ADD DUP7 PUSH2 0x6AFF JUMP JUMPDEST PUSH2 0x71F0 PUSH1 0x40 DUP4 ADD DUP6 PUSH2 0x6AFF JUMP JUMPDEST PUSH2 0x71FD PUSH1 0x60 DUP4 ADD DUP5 PUSH2 0x6AFF JUMP JUMPDEST SWAP6 SWAP5 POP POP POP POP POP JUMP JUMPDEST PUSH1 0x0 PUSH1 0x20 DUP3 ADD SWAP1 POP PUSH2 0x721B PUSH1 0x0 DUP4 ADD DUP5 PUSH2 0x6B0E JUMP JUMPDEST SWAP3 SWAP2 POP POP JUMP JUMPDEST PUSH1 0x0 DUP2 SWAP1 POP PUSH1 0x20 DUP3 ADD SWAP1 POP SWAP2 SWAP1 POP JUMP JUMPDEST PUSH1 0x0 DUP2 MLOAD SWAP1 POP SWAP2 SWAP1 POP JUMP JUMPDEST PUSH1 0x0 DUP2 MLOAD SWAP1 POP SWAP2 SWAP1 POP JUMP JUMPDEST PUSH1 0x0 DUP2 MLOAD SWAP1 POP SWAP2 SWAP1 POP JUMP JUMPDEST PUSH1 0x0 PUSH1 0x20 DUP3 ADD SWAP1 POP SWAP2 SWAP1 POP JUMP JUMPDEST PUSH1 0x0 DUP3 DUP3 MSTORE PUSH1 0x20 DUP3 ADD SWAP1 POP SWAP3 SWAP2 POP POP JUMP JUMPDEST PUSH1 0x0 DUP2 SWAP1 POP SWAP3 SWAP2 POP POP JUMP JUMPDEST PUSH1 0x0 DUP3 DUP3 MSTORE PUSH1 0x20 DUP3 ADD SWAP1 POP SWAP3 SWAP2 POP POP JUMP JUMPDEST PUSH1 0x0 PUSH2 0x7297 DUP3 PUSH2 0x72CE JUMP JUMPDEST SWAP1 POP SWAP2 SWAP1 POP JUMP JUMPDEST PUSH1 0x0 PUSH2 0x72A9 DUP3 PUSH2 0x72CE JUMP JUMPDEST SWAP1 POP SWAP2 SWAP1 POP JUMP JUMPDEST PUSH1 0x0 DUP2 ISZERO ISZERO SWAP1 POP SWAP2 SWAP1 POP JUMP JUMPDEST PUSH1 0x0 PUSH2 0x72C7 DUP3 PUSH2 0x728C JUMP JUMPDEST SWAP1 POP SWAP2 SWAP1 POP JUMP JUMPDEST PUSH1 0x0 PUSH20 0xFFFFFFFFFFFFFFFFFFFFFFFFFFFFFFFFFFFFFFFF DUP3 AND SWAP1 POP SWAP2 SWAP1 POP JUMP JUMPDEST PUSH1 0x0 DUP2 SWAP1 POP SWAP2 SWAP1 POP JUMP JUMPDEST PUSH1 0x0 PUSH1 0xFF DUP3 AND SWAP1 POP SWAP2 SWAP1 POP JUMP JUMPDEST PUSH1 0x0 PUSH2 0x7310 DUP3 PUSH2 0x7317 JUMP JUMPDEST SWAP1 POP SWAP2 SWAP1 POP JUMP JUMPDEST PUSH1 0x0 PUSH2 0x7322 DUP3 PUSH2 0x72CE JUMP JUMPDEST SWAP1 POP SWAP2 SWAP1 POP JUMP JUMPDEST PUSH1 0x0 PUSH2 0x7334 DUP3 PUSH2 0x72EE JUMP JUMPDEST SWAP1 POP SWAP2 SWAP1 POP JUMP JUMPDEST PUSH1 0x0 JUMPDEST DUP4 DUP2 LT ISZERO PUSH2 0x7359 JUMPI DUP1 DUP3 ADD MLOAD DUP2 DUP5 ADD MSTORE PUSH1 0x20 DUP2 ADD SWAP1 POP PUSH2 0x733E JUMP JUMPDEST DUP4 DUP2 GT ISZERO PUSH2 0x7368 JUMPI PUSH1 0x0 DUP5 DUP5 ADD MSTORE JUMPDEST POP POP POP POP JUMP JUMPDEST PUSH1 0x0 PUSH1 0x1F NOT PUSH1 0x1F DUP4 ADD AND SWAP1 POP SWAP2 SWAP1 POP JUMP JUMPDEST PUSH2 0x7388 DUP2 PUSH2 0x728C JUMP JUMPDEST DUP2 EQ PUSH2 0x7393 JUMPI PUSH1 0x0 DUP1 REVERT JUMPDEST POP JUMP JUMPDEST PUSH2 0x739F DUP2 PUSH2 0x729E JUMP JUMPDEST DUP2 EQ PUSH2 0x73AA JUMPI PUSH1 0x0 DUP1 REVERT JUMPDEST POP JUMP JUMPDEST PUSH2 0x73B6 DUP2 PUSH2 0x72B0 JUMP JUMPDEST DUP2 EQ PUSH2 0x73C1 JUMPI PUSH1 0x0 DUP1 REVERT JUMPDEST POP JUMP JUMPDEST PUSH2 0x73CD DUP2 PUSH2 0x72BC JUMP JUMPDEST DUP2 EQ PUSH2 0x73D8 JUMPI PUSH1 0x0 DUP1 REVERT JUMPDEST POP JUMP JUMPDEST PUSH2 0x73E4 DUP2 PUSH2 0x72EE JUMP JUMPDEST DUP2 EQ PUSH2 0x73EF JUMPI PUSH1 0x0 DUP1 REVERT JUMPDEST POP JUMP INVALID LOG2 PUSH5 0x6970667358 0x22 SLT KECCAK256 0xF 0xD7 0x4F SHR MSTORE 0x5D 0xE 0xF 0x5F DUP10 LOG2 0x1E 0xD7 0xEF 0xB0 STATICCALL EXTCODESIZE REVERT 0xB0 0xAC EXTCODESIZE NUMBER DUP4 GASPRICE SAR 0xA5 0x5F 0x4A DUP9 0x2B STOP SAR PUSH5 0x736F6C6343 STOP SMOD MOD STOP CALLER "
		},
		"gasEstimates": {
			"creation": {
				"codeDepositCost": "5947200",
				"executionCost": "infinite",
				"totalCost": "infinite"
			},
			"external": {
				"_acceptAdmin()": "infinite",
				"_setBorrowAllowed(bool)": "infinite",
				"_setInterestRateModel(address)": "infinite",
				"_setLiquidateFactor(uint256)": "infinite",
				"_setMintAllowed(bool)": "infinite",
				"_setPendingAdmin(address)": "infinite",
				"_setReserveFactor(uint256)": "infinite",
				"accrualBlockNumber()": "1219",
				"accrueInterest()": "infinite",
				"admin()": "1302",
				"allowance(address,address)": "infinite",
				"approve(address,uint256)": "infinite",
				"balanceOf(address)": "1653",
				"balanceOfUnderlying(address)": "infinite",
				"borrow(uint256)": "infinite",
				"borrowAllowed()": "1355",
				"borrowBalanceCurrent(address)": "infinite",
				"borrowBalanceStored(address)": "3783",
				"borrowIndex()": "1196",
				"borrowRatePerBlock()": "infinite",
				"collateralRateCurrent(address)": "infinite",
				"collateralRateStored(address)": "4039",
				"collateralize(uint256)": "infinite",
				"decimals()": "426",
				"eFILAddress()": "1325",
				"exchangeRateCurrent()": "infinite",
				"exchangeRateStored()": "infinite",
				"getAccountCollateralsInfo(address)": "infinite",
				"getCash()": "infinite",
				"getCollateral(address)": "1653",
				"interestRateModel()": "1323",
				"liquidateBorrow(address)": "infinite",
				"liquidateFactorMantissa()": "1197",
				"mint(uint256)": "infinite",
				"mintAllowed()": "1283",
				"name()": "infinite",
				"nftAddress()": "1282",
				"nftSafeTransfer(uint256)": "infinite",
				"pendingAdmin()": "1348",
				"redeem(uint256)": "infinite",
				"redeemCollateral(uint256)": "infinite",
				"redeemUnderlying(uint256)": "infinite",
				"repayBorrow(uint256)": "infinite",
				"repayBorrowBehalf(address,uint256)": "infinite",
				"reserveFactorMantissa()": "1286",
				"supplyRatePerBlock()": "infinite",
				"symbol()": "infinite",
				"totalBorrows()": "1219",
				"totalBorrowsCurrent()": "infinite",
				"totalCollaterals()": "1198",
				"totalReserves()": "1262",
				"totalSupply()": "1242",
				"transfer(address,uint256)": "infinite",
				"transferFrom(address,address,uint256)": "infinite"
			},
			"internal": {
				"_nftSafeTransfer(address,uint256)": "infinite",
				"_setInterestRateModelFresh(contract InterestRateModel)": "infinite",
				"_setLiquidateFactorFresh(uint256)": "infinite",
				"_setReserveFactorFresh(uint256)": "infinite",
				"borrowBalanceStoredInternal(address)": "2878",
				"borrowFresh(address,uint256)": "infinite",
				"collateralRateInternal(address)": "infinite",
				"collateralizeFresh(address,uint256)": "infinite",
				"doTransferIn(address,address,uint256)": "infinite",
				"doTransferOut(address,address,uint256)": "infinite",
				"exchangeRateStoredInternal()": "infinite",
				"getBlockNumber()": "22",
				"getCashPrior()": "infinite",
				"getNftValue(uint256)": "54",
				"getNftownerOf(uint256)": "infinite",
				"liquidateBorrowFresh(address,address)": "infinite",
				"mintFresh(address,uint256)": "infinite",
				"redeemCollateralFresh(address,uint256)": "infinite",
				"redeemFresh(address,uint256,uint256)": "infinite",
				"repayBorrowFresh(address,address,uint256)": "infinite",
				"transferTokens(address,address,address,uint256)": "infinite"
			}
		},
		"methodIdentifiers": {
			"_acceptAdmin()": "e9c714f2",
			"_setBorrowAllowed(bool)": "17539b1e",
			"_setInterestRateModel(address)": "f2b3abbd",
			"_setLiquidateFactor(uint256)": "c95de7cf",
			"_setMintAllowed(bool)": "d8e94ea9",
			"_setPendingAdmin(address)": "b71d1a0c",
			"_setReserveFactor(uint256)": "fca7820b",
			"accrualBlockNumber()": "6c540baf",
			"accrueInterest()": "a6afed95",
			"admin()": "f851a440",
			"allowance(address,address)": "dd62ed3e",
			"approve(address,uint256)": "095ea7b3",
			"balanceOf(address)": "70a08231",
			"balanceOfUnderlying(address)": "3af9e669",
			"borrow(uint256)": "c5ebeaec",
			"borrowAllowed()": "5bb31693",
			"borrowBalanceCurrent(address)": "17bfdfbc",
			"borrowBalanceStored(address)": "95dd9193",
			"borrowIndex()": "aa5af0fd",
			"borrowRatePerBlock()": "f8f9da28",
			"collateralRateCurrent(address)": "9937edfe",
			"collateralRateStored(address)": "00517f62",
			"collateralize(uint256)": "9f06aa08",
			"decimals()": "313ce567",
			"eFILAddress()": "b2879ee4",
			"exchangeRateCurrent()": "bd6d894d",
			"exchangeRateStored()": "182df0f5",
			"getAccountCollateralsInfo(address)": "590e3f60",
			"getCash()": "3b1d21a2",
			"getCollateral(address)": "9b56d6c9",
			"interestRateModel()": "f3fdb15a",
			"liquidateBorrow(address)": "12f0dea7",
			"liquidateFactorMantissa()": "a2e354c8",
			"mint(uint256)": "a0712d68",
			"mintAllowed()": "c467201e",
			"name()": "06fdde03",
			"nftAddress()": "5bf8633a",
			"nftSafeTransfer(uint256)": "883747c4",
			"pendingAdmin()": "26782247",
			"redeem(uint256)": "db006a75",
			"redeemCollateral(uint256)": "bd37b775",
			"redeemUnderlying(uint256)": "852a12e3",
			"repayBorrow(uint256)": "0e752702",
			"repayBorrowBehalf(address,uint256)": "2608f818",
			"reserveFactorMantissa()": "173b9904",
			"supplyRatePerBlock()": "ae9d70b0",
			"symbol()": "95d89b41",
			"totalBorrows()": "47bd3718",
			"totalBorrowsCurrent()": "73acee98",
			"totalCollaterals()": "30504b6f",
			"totalReserves()": "8f840ddd",
			"totalSupply()": "18160ddd",
			"transfer(address,uint256)": "a9059cbb",
			"transferFrom(address,address,uint256)": "23b872dd"
		}
	},
	"abi": [
		{
			"inputs": [
				{
					"internalType": "address",
					"name": "interestRateModelAddress",
					"type": "address"
				},
				{
					"internalType": "address",
					"name": "nftAddress_",
					"type": "address"
				},
				{
					"internalType": "address",
					"name": "eFILAddress_",
					"type": "address"
				}
			],
			"stateMutability": "nonpayable",
			"type": "constructor"
		},
		{
			"anonymous": false,
			"inputs": [
				{
					"indexed": false,
					"internalType": "uint256",
					"name": "cashPrior",
					"type": "uint256"
				},
				{
					"indexed": false,
					"internalType": "uint256",
					"name": "interestAccumulated",
					"type": "uint256"
				},
				{
					"indexed": false,
					"internalType": "uint256",
					"name": "borrowIndex",
					"type": "uint256"
				},
				{
					"indexed": false,
					"internalType": "uint256",
					"name": "totalBorrows",
					"type": "uint256"
				}
			],
			"name": "AccrueInterest",
			"type": "event"
		},
		{
			"anonymous": false,
			"inputs": [
				{
					"indexed": true,
					"internalType": "address",
					"name": "owner",
					"type": "address"
				},
				{
					"indexed": true,
					"internalType": "address",
					"name": "spender",
					"type": "address"
				},
				{
					"indexed": false,
					"internalType": "uint256",
					"name": "amount",
					"type": "uint256"
				}
			],
			"name": "Approval",
			"type": "event"
		},
		{
			"anonymous": false,
			"inputs": [
				{
					"indexed": false,
					"internalType": "address",
					"name": "borrower",
					"type": "address"
				},
				{
					"indexed": false,
					"internalType": "uint256",
					"name": "borrowAmount",
					"type": "uint256"
				},
				{
					"indexed": false,
					"internalType": "uint256",
					"name": "accountBorrows",
					"type": "uint256"
				},
				{
					"indexed": false,
					"internalType": "uint256",
					"name": "totalBorrows",
					"type": "uint256"
				}
			],
			"name": "Borrow",
			"type": "event"
		},
		{
			"anonymous": false,
			"inputs": [
				{
					"indexed": false,
					"internalType": "bool",
					"name": "borrowAllowed",
					"type": "bool"
				}
			],
			"name": "BorrowAllowed",
			"type": "event"
		},
		{
			"anonymous": false,
			"inputs": [
				{
					"indexed": false,
					"internalType": "address",
					"name": "collateralizer",
					"type": "address"
				},
				{
					"indexed": false,
					"internalType": "uint256",
					"name": "collateralizeAmount",
					"type": "uint256"
				}
			],
			"name": "Collateralize",
			"type": "event"
		},
		{
			"anonymous": false,
			"inputs": [
				{
					"indexed": false,
					"internalType": "address",
					"name": "supplier",
					"type": "address"
				},
				{
					"indexed": false,
					"internalType": "uint256",
					"name": "supplierDelta",
					"type": "uint256"
				}
			],
			"name": "DistributedDFL",
			"type": "event"
		},
		{
			"anonymous": false,
			"inputs": [
				{
					"indexed": false,
					"internalType": "uint256",
					"name": "error",
					"type": "uint256"
				},
				{
					"indexed": false,
					"internalType": "uint256",
					"name": "info",
					"type": "uint256"
				},
				{
					"indexed": false,
					"internalType": "uint256",
					"name": "detail",
					"type": "uint256"
				}
			],
			"name": "Failure",
			"type": "event"
		},
		{
			"anonymous": false,
			"inputs": [
				{
					"indexed": false,
					"internalType": "address",
					"name": "liquidator",
					"type": "address"
				},
				{
					"indexed": false,
					"internalType": "address",
					"name": "borrower",
					"type": "address"
				},
				{
					"indexed": false,
					"internalType": "uint256",
					"name": "accountBorrows",
					"type": "uint256"
				},
				{
					"indexed": false,
					"internalType": "uint256",
					"name": "accountCollaterals",
					"type": "uint256"
				}
			],
			"name": "LiquidateBorrow",
			"type": "event"
		},
		{
			"anonymous": false,
			"inputs": [
				{
					"indexed": false,
					"internalType": "address",
					"name": "oldAddress",
					"type": "address"
				},
				{
					"indexed": false,
					"internalType": "address",
					"name": "newAddress",
					"type": "address"
				}
			],
			"name": "MinerLeagueAddressChanged",
			"type": "event"
		},
		{
			"anonymous": false,
			"inputs": [
				{
					"indexed": false,
					"internalType": "address",
					"name": "minter",
					"type": "address"
				},
				{
					"indexed": false,
					"internalType": "uint256",
					"name": "mintAmount",
					"type": "uint256"
				},
				{
					"indexed": false,
					"internalType": "uint256",
					"name": "mintTokens",
					"type": "uint256"
				}
			],
			"name": "Mint",
			"type": "event"
		},
		{
			"anonymous": false,
			"inputs": [
				{
					"indexed": false,
					"internalType": "bool",
					"name": "mintAllowed",
					"type": "bool"
				}
			],
			"name": "MintAllowed",
			"type": "event"
		},
		{
			"anonymous": false,
			"inputs": [
				{
					"indexed": false,
					"internalType": "address",
					"name": "oldAdmin",
					"type": "address"
				},
				{
					"indexed": false,
					"internalType": "address",
					"name": "newAdmin",
					"type": "address"
				}
			],
			"name": "NewAdmin",
			"type": "event"
		},
		{
			"anonymous": false,
			"inputs": [
				{
					"indexed": false,
					"internalType": "contract InterestRateModel",
					"name": "oldInterestRateModel",
					"type": "address"
				},
				{
					"indexed": false,
					"internalType": "contract InterestRateModel",
					"name": "newInterestRateModel",
					"type": "address"
				}
			],
			"name": "NewInterestRateModel",
			"type": "event"
		},
		{
			"anonymous": false,
			"inputs": [
				{
					"indexed": false,
					"internalType": "uint256",
					"name": "oldLiquidateFactorMantissa",
					"type": "uint256"
				},
				{
					"indexed": false,
					"internalType": "uint256",
					"name": "newLiquidateFactorMantissa",
					"type": "uint256"
				}
			],
			"name": "NewLiquidateFactor",
			"type": "event"
		},
		{
			"anonymous": false,
			"inputs": [
				{
					"indexed": false,
					"internalType": "address",
					"name": "oldPendingAdmin",
					"type": "address"
				},
				{
					"indexed": false,
					"internalType": "address",
					"name": "newPendingAdmin",
					"type": "address"
				}
			],
			"name": "NewPendingAdmin",
			"type": "event"
		},
		{
			"anonymous": false,
			"inputs": [
				{
					"indexed": false,
					"internalType": "uint256",
					"name": "oldReserveFactorMantissa",
					"type": "uint256"
				},
				{
					"indexed": false,
					"internalType": "uint256",
					"name": "newReserveFactorMantissa",
					"type": "uint256"
				}
			],
			"name": "NewReserveFactor",
			"type": "event"
		},
		{
			"anonymous": false,
			"inputs": [
				{
					"indexed": false,
					"internalType": "address",
					"name": "oldAddress",
					"type": "address"
				},
				{
					"indexed": false,
					"internalType": "address",
					"name": "newAddress",
					"type": "address"
				}
			],
			"name": "OperatorAddressChanged",
			"type": "event"
		},
		{
			"anonymous": false,
			"inputs": [
				{
					"indexed": false,
					"internalType": "uint256",
					"name": "uniswapPercentage",
					"type": "uint256"
				},
				{
					"indexed": false,
					"internalType": "uint256",
					"name": "minerLeaguePercentage",
					"type": "uint256"
				},
				{
					"indexed": false,
					"internalType": "uint256",
					"name": "operatorPercentage",
					"type": "uint256"
				}
			],
			"name": "PercentagesChanged",
			"type": "event"
		},
		{
			"anonymous": false,
			"inputs": [
				{
					"indexed": false,
					"internalType": "address",
					"name": "redeemer",
					"type": "address"
				},
				{
					"indexed": false,
					"internalType": "uint256",
					"name": "redeemAmount",
					"type": "uint256"
				},
				{
					"indexed": false,
					"internalType": "uint256",
					"name": "redeemTokens",
					"type": "uint256"
				}
			],
			"name": "Redeem",
			"type": "event"
		},
		{
			"anonymous": false,
			"inputs": [
				{
					"indexed": false,
					"internalType": "address",
					"name": "redeemer",
					"type": "address"
				},
				{
					"indexed": false,
					"internalType": "uint256",
					"name": "redeemAmount",
					"type": "uint256"
				}
			],
			"name": "RedeemCollateral",
			"type": "event"
		},
		{
			"anonymous": false,
			"inputs": [
				{
					"indexed": false,
					"internalType": "address",
					"name": "payer",
					"type": "address"
				},
				{
					"indexed": false,
					"internalType": "address",
					"name": "borrower",
					"type": "address"
				},
				{
					"indexed": false,
					"internalType": "uint256",
					"name": "repayAmount",
					"type": "uint256"
				},
				{
					"indexed": false,
					"internalType": "uint256",
					"name": "accountBorrows",
					"type": "uint256"
				},
				{
					"indexed": false,
					"internalType": "uint256",
					"name": "totalBorrows",
					"type": "uint256"
				}
			],
			"name": "RepayBorrow",
			"type": "event"
		},
		{
			"anonymous": false,
			"inputs": [
				{
					"indexed": false,
					"internalType": "address",
					"name": "oldAddress",
					"type": "address"
				},
				{
					"indexed": false,
					"internalType": "address",
					"name": "newAddress",
					"type": "address"
				}
			],
			"name": "ReservesOwnerChanged",
			"type": "event"
		},
		{
			"anonymous": false,
			"inputs": [
				{
					"indexed": false,
					"internalType": "address",
					"name": "toTho",
					"type": "address"
				},
				{
					"indexed": false,
					"internalType": "uint256",
					"name": "amount",
					"type": "uint256"
				}
			],
			"name": "ReservesReduced",
			"type": "event"
		},
		{
			"anonymous": false,
			"inputs": [
				{
					"indexed": false,
					"internalType": "address",
					"name": "oldAddress",
					"type": "address"
				},
				{
					"indexed": false,
					"internalType": "address",
					"name": "newAddress",
					"type": "address"
				}
			],
			"name": "TechnicalAddressChanged",
			"type": "event"
		},
		{
			"anonymous": false,
			"inputs": [
				{
					"indexed": true,
					"internalType": "address",
					"name": "from",
					"type": "address"
				},
				{
					"indexed": true,
					"internalType": "address",
					"name": "to",
					"type": "address"
				},
				{
					"indexed": false,
					"internalType": "uint256",
					"name": "amount",
					"type": "uint256"
				}
			],
			"name": "Transfer",
			"type": "event"
		},
		{
			"anonymous": false,
			"inputs": [
				{
					"indexed": false,
					"internalType": "address",
					"name": "oldAddress",
					"type": "address"
				},
				{
					"indexed": false,
					"internalType": "address",
					"name": "newAddress",
					"type": "address"
				}
			],
			"name": "UndistributedAddressChanged",
			"type": "event"
		},
		{
			"anonymous": false,
			"inputs": [
				{
					"indexed": false,
					"internalType": "address",
					"name": "oldAddress",
					"type": "address"
				},
				{
					"indexed": false,
					"internalType": "address",
					"name": "newAddress",
					"type": "address"
				}
			],
			"name": "UniswapAddressChanged",
			"type": "event"
		},
		{
			"inputs": [],
			"name": "_acceptAdmin",
			"outputs": [
				{
					"internalType": "uint256",
					"name": "",
					"type": "uint256"
				}
			],
			"stateMutability": "nonpayable",
			"type": "function"
		},
		{
			"inputs": [
				{
					"internalType": "bool",
					"name": "borrowAllowed_",
					"type": "bool"
				}
			],
			"name": "_setBorrowAllowed",
			"outputs": [
				{
					"internalType": "uint256",
					"name": "",
					"type": "uint256"
				}
			],
			"stateMutability": "nonpayable",
			"type": "function"
		},
		{
			"inputs": [
				{
					"internalType": "contract InterestRateModel",
					"name": "newInterestRateModel",
					"type": "address"
				}
			],
			"name": "_setInterestRateModel",
			"outputs": [
				{
					"internalType": "uint256",
					"name": "",
					"type": "uint256"
				}
			],
			"stateMutability": "nonpayable",
			"type": "function"
		},
		{
			"inputs": [
				{
					"internalType": "uint256",
					"name": "newLiquidateFactorMantissa",
					"type": "uint256"
				}
			],
			"name": "_setLiquidateFactor",
			"outputs": [
				{
					"internalType": "uint256",
					"name": "",
					"type": "uint256"
				}
			],
			"stateMutability": "nonpayable",
			"type": "function"
		},
		{
			"inputs": [
				{
					"internalType": "bool",
					"name": "mintAllowed_",
					"type": "bool"
				}
			],
			"name": "_setMintAllowed",
			"outputs": [
				{
					"internalType": "uint256",
					"name": "",
					"type": "uint256"
				}
			],
			"stateMutability": "nonpayable",
			"type": "function"
		},
		{
			"inputs": [
				{
					"internalType": "address",
					"name": "newPendingAdmin",
					"type": "address"
				}
			],
			"name": "_setPendingAdmin",
			"outputs": [
				{
					"internalType": "uint256",
					"name": "",
					"type": "uint256"
				}
			],
			"stateMutability": "nonpayable",
			"type": "function"
		},
		{
			"inputs": [
				{
					"internalType": "uint256",
					"name": "newReserveFactorMantissa",
					"type": "uint256"
				}
			],
			"name": "_setReserveFactor",
			"outputs": [
				{
					"internalType": "uint256",
					"name": "",
					"type": "uint256"
				}
			],
			"stateMutability": "nonpayable",
			"type": "function"
		},
		{
			"inputs": [],
			"name": "accrualBlockNumber",
			"outputs": [
				{
					"internalType": "uint256",
					"name": "",
					"type": "uint256"
				}
			],
			"stateMutability": "view",
			"type": "function"
		},
		{
			"inputs": [],
			"name": "accrueInterest",
			"outputs": [
				{
					"internalType": "uint256",
					"name": "",
					"type": "uint256"
				}
			],
			"stateMutability": "nonpayable",
			"type": "function"
		},
		{
			"inputs": [],
			"name": "admin",
			"outputs": [
				{
					"internalType": "address",
					"name": "",
					"type": "address"
				}
			],
			"stateMutability": "view",
			"type": "function"
		},
		{
			"inputs": [
				{
					"internalType": "address",
					"name": "owner",
					"type": "address"
				},
				{
					"internalType": "address",
					"name": "spender",
					"type": "address"
				}
			],
			"name": "allowance",
			"outputs": [
				{
					"internalType": "uint256",
					"name": "",
					"type": "uint256"
				}
			],
			"stateMutability": "view",
			"type": "function"
		},
		{
			"inputs": [
				{
					"internalType": "address",
					"name": "spender",
					"type": "address"
				},
				{
					"internalType": "uint256",
					"name": "amount",
					"type": "uint256"
				}
			],
			"name": "approve",
			"outputs": [
				{
					"internalType": "bool",
					"name": "",
					"type": "bool"
				}
			],
			"stateMutability": "nonpayable",
			"type": "function"
		},
		{
			"inputs": [
				{
					"internalType": "address",
					"name": "owner",
					"type": "address"
				}
			],
			"name": "balanceOf",
			"outputs": [
				{
					"internalType": "uint256",
					"name": "",
					"type": "uint256"
				}
			],
			"stateMutability": "view",
			"type": "function"
		},
		{
			"inputs": [
				{
					"internalType": "address",
					"name": "owner",
					"type": "address"
				}
			],
			"name": "balanceOfUnderlying",
			"outputs": [
				{
					"internalType": "uint256",
					"name": "",
					"type": "uint256"
				}
			],
			"stateMutability": "nonpayable",
			"type": "function"
		},
		{
			"inputs": [
				{
					"internalType": "uint256",
					"name": "borrowAmount",
					"type": "uint256"
				}
			],
			"name": "borrow",
			"outputs": [
				{
					"internalType": "uint256",
					"name": "",
					"type": "uint256"
				}
			],
			"stateMutability": "nonpayable",
			"type": "function"
		},
		{
			"inputs": [],
			"name": "borrowAllowed",
			"outputs": [
				{
					"internalType": "bool",
					"name": "",
					"type": "bool"
				}
			],
			"stateMutability": "view",
			"type": "function"
		},
		{
			"inputs": [
				{
					"internalType": "address",
					"name": "account",
					"type": "address"
				}
			],
			"name": "borrowBalanceCurrent",
			"outputs": [
				{
					"internalType": "uint256",
					"name": "",
					"type": "uint256"
				}
			],
			"stateMutability": "nonpayable",
			"type": "function"
		},
		{
			"inputs": [
				{
					"internalType": "address",
					"name": "account",
					"type": "address"
				}
			],
			"name": "borrowBalanceStored",
			"outputs": [
				{
					"internalType": "uint256",
					"name": "",
					"type": "uint256"
				}
			],
			"stateMutability": "view",
			"type": "function"
		},
		{
			"inputs": [],
			"name": "borrowIndex",
			"outputs": [
				{
					"internalType": "uint256",
					"name": "",
					"type": "uint256"
				}
			],
			"stateMutability": "view",
			"type": "function"
		},
		{
			"inputs": [],
			"name": "borrowRatePerBlock",
			"outputs": [
				{
					"internalType": "uint256",
					"name": "",
					"type": "uint256"
				}
			],
			"stateMutability": "view",
			"type": "function"
		},
		{
			"inputs": [
				{
					"internalType": "address",
					"name": "borrower",
					"type": "address"
				}
			],
			"name": "collateralRateCurrent",
			"outputs": [
				{
					"internalType": "uint256",
					"name": "",
					"type": "uint256"
				}
			],
			"stateMutability": "nonpayable",
			"type": "function"
		},
		{
			"inputs": [
				{
					"internalType": "address",
					"name": "borrower",
					"type": "address"
				}
			],
			"name": "collateralRateStored",
			"outputs": [
				{
					"internalType": "uint256",
					"name": "",
					"type": "uint256"
				}
			],
			"stateMutability": "view",
			"type": "function"
		},
		{
			"inputs": [
				{
					"internalType": "uint256",
					"name": "nftMachineId",
					"type": "uint256"
				}
			],
			"name": "collateralize",
			"outputs": [
				{
					"internalType": "uint256",
					"name": "",
					"type": "uint256"
				}
			],
			"stateMutability": "nonpayable",
			"type": "function"
		},
		{
			"inputs": [],
			"name": "decimals",
			"outputs": [
				{
					"internalType": "uint8",
					"name": "",
					"type": "uint8"
				}
			],
			"stateMutability": "view",
			"type": "function"
		},
		{
			"inputs": [],
			"name": "eFILAddress",
			"outputs": [
				{
					"internalType": "address",
					"name": "",
					"type": "address"
				}
			],
			"stateMutability": "view",
			"type": "function"
		},
		{
			"inputs": [],
			"name": "exchangeRateCurrent",
			"outputs": [
				{
					"internalType": "uint256",
					"name": "",
					"type": "uint256"
				}
			],
			"stateMutability": "nonpayable",
			"type": "function"
		},
		{
			"inputs": [],
			"name": "exchangeRateStored",
			"outputs": [
				{
					"internalType": "uint256",
					"name": "",
					"type": "uint256"
				}
			],
			"stateMutability": "view",
			"type": "function"
		},
		{
			"inputs": [
				{
					"internalType": "address",
					"name": "_adds",
					"type": "address"
				}
			],
			"name": "getAccountCollateralsInfo",
			"outputs": [
				{
					"internalType": "uint256[]",
					"name": "",
					"type": "uint256[]"
				}
			],
			"stateMutability": "view",
			"type": "function"
		},
		{
			"inputs": [],
			"name": "getCash",
			"outputs": [
				{
					"internalType": "uint256",
					"name": "",
					"type": "uint256"
				}
			],
			"stateMutability": "view",
			"type": "function"
		},
		{
			"inputs": [
				{
					"internalType": "address",
					"name": "account",
					"type": "address"
				}
			],
			"name": "getCollateral",
			"outputs": [
				{
					"internalType": "uint256",
					"name": "",
					"type": "uint256"
				}
			],
			"stateMutability": "view",
			"type": "function"
		},
		{
			"inputs": [],
			"name": "interestRateModel",
			"outputs": [
				{
					"internalType": "contract InterestRateModel",
					"name": "",
					"type": "address"
				}
			],
			"stateMutability": "view",
			"type": "function"
		},
		{
			"inputs": [
				{
					"internalType": "address",
					"name": "borrower",
					"type": "address"
				}
			],
			"name": "liquidateBorrow",
			"outputs": [
				{
					"internalType": "uint256",
					"name": "",
					"type": "uint256"
				}
			],
			"stateMutability": "nonpayable",
			"type": "function"
		},
		{
			"inputs": [],
			"name": "liquidateFactorMantissa",
			"outputs": [
				{
					"internalType": "uint256",
					"name": "",
					"type": "uint256"
				}
			],
			"stateMutability": "view",
			"type": "function"
		},
		{
			"inputs": [
				{
					"internalType": "uint256",
					"name": "mintAmount",
					"type": "uint256"
				}
			],
			"name": "mint",
			"outputs": [
				{
					"internalType": "uint256",
					"name": "",
					"type": "uint256"
				}
			],
			"stateMutability": "nonpayable",
			"type": "function"
		},
		{
			"inputs": [],
			"name": "mintAllowed",
			"outputs": [
				{
					"internalType": "bool",
					"name": "",
					"type": "bool"
				}
			],
			"stateMutability": "view",
			"type": "function"
		},
		{
			"inputs": [],
			"name": "name",
			"outputs": [
				{
					"internalType": "string",
					"name": "",
					"type": "string"
				}
			],
			"stateMutability": "view",
			"type": "function"
		},
		{
			"inputs": [],
			"name": "nftAddress",
			"outputs": [
				{
					"internalType": "address",
					"name": "",
					"type": "address"
				}
			],
			"stateMutability": "view",
			"type": "function"
		},
		{
			"inputs": [
				{
					"internalType": "uint256",
					"name": "_id",
					"type": "uint256"
				}
			],
			"name": "nftSafeTransfer",
			"outputs": [],
			"stateMutability": "nonpayable",
			"type": "function"
		},
		{
			"inputs": [],
			"name": "pendingAdmin",
			"outputs": [
				{
					"internalType": "address",
					"name": "",
					"type": "address"
				}
			],
			"stateMutability": "view",
			"type": "function"
		},
		{
			"inputs": [
				{
					"internalType": "uint256",
					"name": "redeemTokens",
					"type": "uint256"
				}
			],
			"name": "redeem",
			"outputs": [
				{
					"internalType": "uint256",
					"name": "",
					"type": "uint256"
				}
			],
			"stateMutability": "nonpayable",
			"type": "function"
		},
		{
			"inputs": [
				{
					"internalType": "uint256",
					"name": "redeemAmount",
					"type": "uint256"
				}
			],
			"name": "redeemCollateral",
			"outputs": [
				{
					"internalType": "uint256",
					"name": "",
					"type": "uint256"
				}
			],
			"stateMutability": "nonpayable",
			"type": "function"
		},
		{
			"inputs": [
				{
					"internalType": "uint256",
					"name": "redeemAmount",
					"type": "uint256"
				}
			],
			"name": "redeemUnderlying",
			"outputs": [
				{
					"internalType": "uint256",
					"name": "",
					"type": "uint256"
				}
			],
			"stateMutability": "nonpayable",
			"type": "function"
		},
		{
			"inputs": [
				{
					"internalType": "uint256",
					"name": "repayAmount",
					"type": "uint256"
				}
			],
			"name": "repayBorrow",
			"outputs": [
				{
					"internalType": "uint256",
					"name": "",
					"type": "uint256"
				}
			],
			"stateMutability": "nonpayable",
			"type": "function"
		},
		{
			"inputs": [
				{
					"internalType": "address",
					"name": "borrower",
					"type": "address"
				},
				{
					"internalType": "uint256",
					"name": "repayAmount",
					"type": "uint256"
				}
			],
			"name": "repayBorrowBehalf",
			"outputs": [
				{
					"internalType": "uint256",
					"name": "",
					"type": "uint256"
				}
			],
			"stateMutability": "nonpayable",
			"type": "function"
		},
		{
			"inputs": [],
			"name": "reserveFactorMantissa",
			"outputs": [
				{
					"internalType": "uint256",
					"name": "",
					"type": "uint256"
				}
			],
			"stateMutability": "view",
			"type": "function"
		},
		{
			"inputs": [],
			"name": "supplyRatePerBlock",
			"outputs": [
				{
					"internalType": "uint256",
					"name": "",
					"type": "uint256"
				}
			],
			"stateMutability": "view",
			"type": "function"
		},
		{
			"inputs": [],
			"name": "symbol",
			"outputs": [
				{
					"internalType": "string",
					"name": "",
					"type": "string"
				}
			],
			"stateMutability": "view",
			"type": "function"
		},
		{
			"inputs": [],
			"name": "totalBorrows",
			"outputs": [
				{
					"internalType": "uint256",
					"name": "",
					"type": "uint256"
				}
			],
			"stateMutability": "view",
			"type": "function"
		},
		{
			"inputs": [],
			"name": "totalBorrowsCurrent",
			"outputs": [
				{
					"internalType": "uint256",
					"name": "",
					"type": "uint256"
				}
			],
			"stateMutability": "nonpayable",
			"type": "function"
		},
		{
			"inputs": [],
			"name": "totalCollaterals",
			"outputs": [
				{
					"internalType": "uint256",
					"name": "",
					"type": "uint256"
				}
			],
			"stateMutability": "view",
			"type": "function"
		},
		{
			"inputs": [],
			"name": "totalReserves",
			"outputs": [
				{
					"internalType": "uint256",
					"name": "",
					"type": "uint256"
				}
			],
			"stateMutability": "view",
			"type": "function"
		},
		{
			"inputs": [],
			"name": "totalSupply",
			"outputs": [
				{
					"internalType": "uint256",
					"name": "",
					"type": "uint256"
				}
			],
			"stateMutability": "view",
			"type": "function"
		},
		{
			"inputs": [
				{
					"internalType": "address",
					"name": "dst",
					"type": "address"
				},
				{
					"internalType": "uint256",
					"name": "amount",
					"type": "uint256"
				}
			],
			"name": "transfer",
			"outputs": [
				{
					"internalType": "bool",
					"name": "",
					"type": "bool"
				}
			],
			"stateMutability": "nonpayable",
			"type": "function"
		},
		{
			"inputs": [
				{
					"internalType": "address",
					"name": "src",
					"type": "address"
				},
				{
					"internalType": "address",
					"name": "dst",
					"type": "address"
				},
				{
					"internalType": "uint256",
					"name": "amount",
					"type": "uint256"
				}
			],
			"name": "transferFrom",
			"outputs": [
				{
					"internalType": "bool",
					"name": "",
					"type": "bool"
				}
			],
			"stateMutability": "nonpayable",
			"type": "function"
		}
	]
}