{
	"data": {
		"bytecode": {
			"linkReferences": {},
			"object": "608060405234801561001057600080fd5b506040516106d33803806106d38339818101604052604081101561003357600080fd5b508051602091820151909161005690839062201480906102c461007c821b17901c565b600155610071816220148061007c602090811b6102c417901c565b6000555061016d9050565b60006100c483836040518060400160405280601a81526020017f536166654d6174683a206469766973696f6e206279207a65726f0000000000008152506100cb60201b60201c565b9392505050565b600081836101575760405162461bcd60e51b81526004018080602001828103825283818151815260200191508051906020019080838360005b8381101561011c578181015183820152602001610104565b50505050905090810190601f1680156101495780820380516001836020036101000a031916815260200191505b509250505060405180910390fd5b50600083858161016357fe5b0495945050505050565b6105578061017c6000396000f3fe608060405234801561001057600080fd5b50600436106100885760003560e01c80638726bb891161005b5780638726bb891461014f578063a385fb9614610157578063b81688161461015f578063f14039de1461018e57610088565b806315f240531461008d5780631628f7c8146100c85780632191f92a1461010a5780636e71e2d814610126575b600080fd5b6100b6600480360360608110156100a357600080fd5b5080359060208101359060400135610196565b60408051918252519081900360200190f35b6100f1600480360360608110156100de57600080fd5b50803590602081013590604001356101b0565b6040805192835260208301919091528051918290030190f35b610112610205565b604080519115158252519081900360200190f35b6100b66004803603606081101561013c57600080fd5b508035906020810135906040013561020a565b6100b661024a565b6100b6610250565b6100b66004803603608081101561017557600080fd5b5080359060208101359060408101359060600135610257565b6100b66102be565b6000806101a48585856101b0565b925050505b9392505050565b60008060006101c086868661020a565b905060006101f76001546101f1670de0b6b3a76400006101eb6000548761030f90919063ffffffff16565b906102c4565b90610368565b919791965090945050505050565b600181565b600082610219575060006101a9565b6102426102308361022a8787610368565b906103c2565b6101eb85670de0b6b3a764000061030f565b949350505050565b60005481565b6220148081565b60008061026c670de0b6b3a7640000846103c2565b905060008061027c8888886101b0565b90925090506000610299670de0b6b3a76400006101eb848761030f565b90506102b1670de0b6b3a76400006101eb858461030f565b9998505050505050505050565b60015481565b600061030683836040518060400160405280601a81526020017f536166654d6174683a206469766973696f6e206279207a65726f000000000000815250610404565b90505b92915050565b60008261031e57506000610309565b8282028284828161032b57fe5b04146103065760405162461bcd60e51b81526004018080602001828103825260218152602001806105016021913960400191505060405180910390fd5b600082820183811015610306576040805162461bcd60e51b815260206004820152601b60248201527f536166654d6174683a206164646974696f6e206f766572666c6f770000000000604482015290519081900360640190fd5b600061030683836040518060400160405280601f81526020017f536166654d6174683a207375627472616374696f6e20756e646572666c6f77008152506104a6565b600081836104905760405162461bcd60e51b81526004018080602001828103825283818151815260200191508051906020019080838360005b8381101561045557818101518382015260200161043d565b50505050905090810190601f1680156104825780820380516001836020036101000a031916815260200191505b509250505060405180910390fd5b50600083858161049c57fe5b0495945050505050565b600081848411156104f85760405162461bcd60e51b815260206004820181815283516024840152835190928392604490910191908501908083836000831561045557818101518382015260200161043d565b50505090039056fe536166654d6174683a206d756c7469706c69636174696f6e206f766572666c6f77a2646970667358221220074fdd41d9668b9253fe311bfa1381548024254582b3b07ce246220386f42a1064736f6c63430007060033",
			"opcodes": "PUSH1 0x80 PUSH1 0x40 MSTORE CALLVALUE DUP1 ISZERO PUSH2 0x10 JUMPI PUSH1 0x0 DUP1 REVERT JUMPDEST POP PUSH1 0x40 MLOAD PUSH2 0x6D3 CODESIZE SUB DUP1 PUSH2 0x6D3 DUP4 CODECOPY DUP2 DUP2 ADD PUSH1 0x40 MSTORE PUSH1 0x40 DUP2 LT ISZERO PUSH2 0x33 JUMPI PUSH1 0x0 DUP1 REVERT JUMPDEST POP DUP1 MLOAD PUSH1 0x20 SWAP2 DUP3 ADD MLOAD SWAP1 SWAP2 PUSH2 0x56 SWAP1 DUP4 SWAP1 PUSH3 0x201480 SWAP1 PUSH2 0x2C4 PUSH2 0x7C DUP3 SHL OR SWAP1 SHR JUMP JUMPDEST PUSH1 0x1 SSTORE PUSH2 0x71 DUP2 PUSH3 0x201480 PUSH2 0x7C PUSH1 0x20 SWAP1 DUP2 SHL PUSH2 0x2C4 OR SWAP1 SHR JUMP JUMPDEST PUSH1 0x0 SSTORE POP PUSH2 0x16D SWAP1 POP JUMP JUMPDEST PUSH1 0x0 PUSH2 0xC4 DUP4 DUP4 PUSH1 0x40 MLOAD DUP1 PUSH1 0x40 ADD PUSH1 0x40 MSTORE DUP1 PUSH1 0x1A DUP2 MSTORE PUSH1 0x20 ADD PUSH32 0x536166654D6174683A206469766973696F6E206279207A65726F000000000000 DUP2 MSTORE POP PUSH2 0xCB PUSH1 0x20 SHL PUSH1 0x20 SHR JUMP JUMPDEST SWAP4 SWAP3 POP POP POP JUMP JUMPDEST PUSH1 0x0 DUP2 DUP4 PUSH2 0x157 JUMPI PUSH1 0x40 MLOAD PUSH3 0x461BCD PUSH1 0xE5 SHL DUP2 MSTORE PUSH1 0x4 ADD DUP1 DUP1 PUSH1 0x20 ADD DUP3 DUP2 SUB DUP3 MSTORE DUP4 DUP2 DUP2 MLOAD DUP2 MSTORE PUSH1 0x20 ADD SWAP2 POP DUP1 MLOAD SWAP1 PUSH1 0x20 ADD SWAP1 DUP1 DUP4 DUP4 PUSH1 0x0 JUMPDEST DUP4 DUP2 LT ISZERO PUSH2 0x11C JUMPI DUP2 DUP2 ADD MLOAD DUP4 DUP3 ADD MSTORE PUSH1 0x20 ADD PUSH2 0x104 JUMP JUMPDEST POP POP POP POP SWAP1 POP SWAP1 DUP2 ADD SWAP1 PUSH1 0x1F AND DUP1 ISZERO PUSH2 0x149 JUMPI DUP1 DUP3 SUB DUP1 MLOAD PUSH1 0x1 DUP4 PUSH1 0x20 SUB PUSH2 0x100 EXP SUB NOT AND DUP2 MSTORE PUSH1 0x20 ADD SWAP2 POP JUMPDEST POP SWAP3 POP POP POP PUSH1 0x40 MLOAD DUP1 SWAP2 SUB SWAP1 REVERT JUMPDEST POP PUSH1 0x0 DUP4 DUP6 DUP2 PUSH2 0x163 JUMPI INVALID JUMPDEST DIV SWAP6 SWAP5 POP POP POP POP POP JUMP JUMPDEST PUSH2 0x557 DUP1 PUSH2 0x17C PUSH1 0x0 CODECOPY PUSH1 0x0 RETURN INVALID PUSH1 0x80 PUSH1 0x40 MSTORE CALLVALUE DUP1 ISZERO PUSH2 0x10 JUMPI PUSH1 0x0 DUP1 REVERT JUMPDEST POP PUSH1 0x4 CALLDATASIZE LT PUSH2 0x88 JUMPI PUSH1 0x0 CALLDATALOAD PUSH1 0xE0 SHR DUP1 PUSH4 0x8726BB89 GT PUSH2 0x5B JUMPI DUP1 PUSH4 0x8726BB89 EQ PUSH2 0x14F JUMPI DUP1 PUSH4 0xA385FB96 EQ PUSH2 0x157 JUMPI DUP1 PUSH4 0xB8168816 EQ PUSH2 0x15F JUMPI DUP1 PUSH4 0xF14039DE EQ PUSH2 0x18E JUMPI PUSH2 0x88 JUMP JUMPDEST DUP1 PUSH4 0x15F24053 EQ PUSH2 0x8D JUMPI DUP1 PUSH4 0x1628F7C8 EQ PUSH2 0xC8 JUMPI DUP1 PUSH4 0x2191F92A EQ PUSH2 0x10A JUMPI DUP1 PUSH4 0x6E71E2D8 EQ PUSH2 0x126 JUMPI JUMPDEST PUSH1 0x0 DUP1 REVERT JUMPDEST PUSH2 0xB6 PUSH1 0x4 DUP1 CALLDATASIZE SUB PUSH1 0x60 DUP2 LT ISZERO PUSH2 0xA3 JUMPI PUSH1 0x0 DUP1 REVERT JUMPDEST POP DUP1 CALLDATALOAD SWAP1 PUSH1 0x20 DUP2 ADD CALLDATALOAD SWAP1 PUSH1 0x40 ADD CALLDATALOAD PUSH2 0x196 JUMP JUMPDEST PUSH1 0x40 DUP1 MLOAD SWAP2 DUP3 MSTORE MLOAD SWAP1 DUP2 SWAP1 SUB PUSH1 0x20 ADD SWAP1 RETURN JUMPDEST PUSH2 0xF1 PUSH1 0x4 DUP1 CALLDATASIZE SUB PUSH1 0x60 DUP2 LT ISZERO PUSH2 0xDE JUMPI PUSH1 0x0 DUP1 REVERT JUMPDEST POP DUP1 CALLDATALOAD SWAP1 PUSH1 0x20 DUP2 ADD CALLDATALOAD SWAP1 PUSH1 0x40 ADD CALLDATALOAD PUSH2 0x1B0 JUMP JUMPDEST PUSH1 0x40 DUP1 MLOAD SWAP3 DUP4 MSTORE PUSH1 0x20 DUP4 ADD SWAP2 SWAP1 SWAP2 MSTORE DUP1 MLOAD SWAP2 DUP3 SWAP1 SUB ADD SWAP1 RETURN JUMPDEST PUSH2 0x112 PUSH2 0x205 JUMP JUMPDEST PUSH1 0x40 DUP1 MLOAD SWAP2 ISZERO ISZERO DUP3 MSTORE MLOAD SWAP1 DUP2 SWAP1 SUB PUSH1 0x20 ADD SWAP1 RETURN JUMPDEST PUSH2 0xB6 PUSH1 0x4 DUP1 CALLDATASIZE SUB PUSH1 0x60 DUP2 LT ISZERO PUSH2 0x13C JUMPI PUSH1 0x0 DUP1 REVERT JUMPDEST POP DUP1 CALLDATALOAD SWAP1 PUSH1 0x20 DUP2 ADD CALLDATALOAD SWAP1 PUSH1 0x40 ADD CALLDATALOAD PUSH2 0x20A JUMP JUMPDEST PUSH2 0xB6 PUSH2 0x24A JUMP JUMPDEST PUSH2 0xB6 PUSH2 0x250 JUMP JUMPDEST PUSH2 0xB6 PUSH1 0x4 DUP1 CALLDATASIZE SUB PUSH1 0x80 DUP2 LT ISZERO PUSH2 0x175 JUMPI PUSH1 0x0 DUP1 REVERT JUMPDEST POP DUP1 CALLDATALOAD SWAP1 PUSH1 0x20 DUP2 ADD CALLDATALOAD SWAP1 PUSH1 0x40 DUP2 ADD CALLDATALOAD SWAP1 PUSH1 0x60 ADD CALLDATALOAD PUSH2 0x257 JUMP JUMPDEST PUSH2 0xB6 PUSH2 0x2BE JUMP JUMPDEST PUSH1 0x0 DUP1 PUSH2 0x1A4 DUP6 DUP6 DUP6 PUSH2 0x1B0 JUMP JUMPDEST SWAP3 POP POP POP JUMPDEST SWAP4 SWAP3 POP POP POP JUMP JUMPDEST PUSH1 0x0 DUP1 PUSH1 0x0 PUSH2 0x1C0 DUP7 DUP7 DUP7 PUSH2 0x20A JUMP JUMPDEST SWAP1 POP PUSH1 0x0 PUSH2 0x1F7 PUSH1 0x1 SLOAD PUSH2 0x1F1 PUSH8 0xDE0B6B3A7640000 PUSH2 0x1EB PUSH1 0x0 SLOAD DUP8 PUSH2 0x30F SWAP1 SWAP2 SWAP1 PUSH4 0xFFFFFFFF AND JUMP JUMPDEST SWAP1 PUSH2 0x2C4 JUMP JUMPDEST SWAP1 PUSH2 0x368 JUMP JUMPDEST SWAP2 SWAP8 SWAP2 SWAP7 POP SWAP1 SWAP5 POP POP POP POP POP JUMP JUMPDEST PUSH1 0x1 DUP2 JUMP JUMPDEST PUSH1 0x0 DUP3 PUSH2 0x219 JUMPI POP PUSH1 0x0 PUSH2 0x1A9 JUMP JUMPDEST PUSH2 0x242 PUSH2 0x230 DUP4 PUSH2 0x22A DUP8 DUP8 PUSH2 0x368 JUMP JUMPDEST SWAP1 PUSH2 0x3C2 JUMP JUMPDEST PUSH2 0x1EB DUP6 PUSH8 0xDE0B6B3A7640000 PUSH2 0x30F JUMP JUMPDEST SWAP5 SWAP4 POP POP POP POP JUMP JUMPDEST PUSH1 0x0 SLOAD DUP2 JUMP JUMPDEST PUSH3 0x201480 DUP2 JUMP JUMPDEST PUSH1 0x0 DUP1 PUSH2 0x26C PUSH8 0xDE0B6B3A7640000 DUP5 PUSH2 0x3C2 JUMP JUMPDEST SWAP1 POP PUSH1 0x0 DUP1 PUSH2 0x27C DUP9 DUP9 DUP9 PUSH2 0x1B0 JUMP JUMPDEST SWAP1 SWAP3 POP SWAP1 POP PUSH1 0x0 PUSH2 0x299 PUSH8 0xDE0B6B3A7640000 PUSH2 0x1EB DUP5 DUP8 PUSH2 0x30F JUMP JUMPDEST SWAP1 POP PUSH2 0x2B1 PUSH8 0xDE0B6B3A7640000 PUSH2 0x1EB DUP6 DUP5 PUSH2 0x30F JUMP JUMPDEST SWAP10 SWAP9 POP POP POP POP POP POP POP POP POP JUMP JUMPDEST PUSH1 0x1 SLOAD DUP2 JUMP JUMPDEST PUSH1 0x0 PUSH2 0x306 DUP4 DUP4 PUSH1 0x40 MLOAD DUP1 PUSH1 0x40 ADD PUSH1 0x40 MSTORE DUP1 PUSH1 0x1A DUP2 MSTORE PUSH1 0x20 ADD PUSH32 0x536166654D6174683A206469766973696F6E206279207A65726F000000000000 DUP2 MSTORE POP PUSH2 0x404 JUMP JUMPDEST SWAP1 POP JUMPDEST SWAP3 SWAP2 POP POP JUMP JUMPDEST PUSH1 0x0 DUP3 PUSH2 0x31E JUMPI POP PUSH1 0x0 PUSH2 0x309 JUMP JUMPDEST DUP3 DUP3 MUL DUP3 DUP5 DUP3 DUP2 PUSH2 0x32B JUMPI INVALID JUMPDEST DIV EQ PUSH2 0x306 JUMPI PUSH1 0x40 MLOAD PUSH3 0x461BCD PUSH1 0xE5 SHL DUP2 MSTORE PUSH1 0x4 ADD DUP1 DUP1 PUSH1 0x20 ADD DUP3 DUP2 SUB DUP3 MSTORE PUSH1 0x21 DUP2 MSTORE PUSH1 0x20 ADD DUP1 PUSH2 0x501 PUSH1 0x21 SWAP2 CODECOPY PUSH1 0x40 ADD SWAP2 POP POP PUSH1 0x40 MLOAD DUP1 SWAP2 SUB SWAP1 REVERT JUMPDEST PUSH1 0x0 DUP3 DUP3 ADD DUP4 DUP2 LT ISZERO PUSH2 0x306 JUMPI PUSH1 0x40 DUP1 MLOAD PUSH3 0x461BCD PUSH1 0xE5 SHL DUP2 MSTORE PUSH1 0x20 PUSH1 0x4 DUP3 ADD MSTORE PUSH1 0x1B PUSH1 0x24 DUP3 ADD MSTORE PUSH32 0x536166654D6174683A206164646974696F6E206F766572666C6F770000000000 PUSH1 0x44 DUP3 ADD MSTORE SWAP1 MLOAD SWAP1 DUP2 SWAP1 SUB PUSH1 0x64 ADD SWAP1 REVERT JUMPDEST PUSH1 0x0 PUSH2 0x306 DUP4 DUP4 PUSH1 0x40 MLOAD DUP1 PUSH1 0x40 ADD PUSH1 0x40 MSTORE DUP1 PUSH1 0x1F DUP2 MSTORE PUSH1 0x20 ADD PUSH32 0x536166654D6174683A207375627472616374696F6E20756E646572666C6F7700 DUP2 MSTORE POP PUSH2 0x4A6 JUMP JUMPDEST PUSH1 0x0 DUP2 DUP4 PUSH2 0x490 JUMPI PUSH1 0x40 MLOAD PUSH3 0x461BCD PUSH1 0xE5 SHL DUP2 MSTORE PUSH1 0x4 ADD DUP1 DUP1 PUSH1 0x20 ADD DUP3 DUP2 SUB DUP3 MSTORE DUP4 DUP2 DUP2 MLOAD DUP2 MSTORE PUSH1 0x20 ADD SWAP2 POP DUP1 MLOAD SWAP1 PUSH1 0x20 ADD SWAP1 DUP1 DUP4 DUP4 PUSH1 0x0 JUMPDEST DUP4 DUP2 LT ISZERO PUSH2 0x455 JUMPI DUP2 DUP2 ADD MLOAD DUP4 DUP3 ADD MSTORE PUSH1 0x20 ADD PUSH2 0x43D JUMP JUMPDEST POP POP POP POP SWAP1 POP SWAP1 DUP2 ADD SWAP1 PUSH1 0x1F AND DUP1 ISZERO PUSH2 0x482 JUMPI DUP1 DUP3 SUB DUP1 MLOAD PUSH1 0x1 DUP4 PUSH1 0x20 SUB PUSH2 0x100 EXP SUB NOT AND DUP2 MSTORE PUSH1 0x20 ADD SWAP2 POP JUMPDEST POP SWAP3 POP POP POP PUSH1 0x40 MLOAD DUP1 SWAP2 SUB SWAP1 REVERT JUMPDEST POP PUSH1 0x0 DUP4 DUP6 DUP2 PUSH2 0x49C JUMPI INVALID JUMPDEST DIV SWAP6 SWAP5 POP POP POP POP POP JUMP JUMPDEST PUSH1 0x0 DUP2 DUP5 DUP5 GT ISZERO PUSH2 0x4F8 JUMPI PUSH1 0x40 MLOAD PUSH3 0x461BCD PUSH1 0xE5 SHL DUP2 MSTORE PUSH1 0x20 PUSH1 0x4 DUP3 ADD DUP2 DUP2 MSTORE DUP4 MLOAD PUSH1 0x24 DUP5 ADD MSTORE DUP4 MLOAD SWAP1 SWAP3 DUP4 SWAP3 PUSH1 0x44 SWAP1 SWAP2 ADD SWAP2 SWAP1 DUP6 ADD SWAP1 DUP1 DUP4 DUP4 PUSH1 0x0 DUP4 ISZERO PUSH2 0x455 JUMPI DUP2 DUP2 ADD MLOAD DUP4 DUP3 ADD MSTORE PUSH1 0x20 ADD PUSH2 0x43D JUMP JUMPDEST POP POP POP SWAP1 SUB SWAP1 JUMP INVALID MSTORE8 PUSH2 0x6665 0x4D PUSH2 0x7468 GASPRICE KECCAK256 PUSH14 0x756C7469706C69636174696F6E20 PUSH16 0x766572666C6F77A26469706673582212 KECCAK256 SMOD 0x4F 0xDD COINBASE 0xD9 PUSH7 0x8B9253FE311BFA SGT DUP2 SLOAD DUP1 0x24 0x25 GASLIMIT DUP3 0xB3 0xB0 PUSH29 0xE246220386F42A1064736F6C6343000706003300000000000000000000 "
		},
		"gasEstimates": {
			"creation": {
				"codeDepositCost": "273400",
				"executionCost": "infinite",
				"totalCost": "infinite"
			},
			"external": {
				"baseRatePerBlock()": "1064",
				"blocksPerYear()": "220",
				"getBorrowRate(uint256,uint256,uint256)": "infinite",
				"getBorrowRateAndUtilization(uint256,uint256,uint256)": "infinite",
				"getSupplyRate(uint256,uint256,uint256,uint256)": "infinite",
				"isInterestRateModel()": "249",
				"multiplierPerBlock()": "998",
				"utilizationRate(uint256,uint256,uint256)": "infinite"
			}
		},
		"methodIdentifiers": {
			"baseRatePerBlock()": "f14039de",
			"blocksPerYear()": "a385fb96",
			"getBorrowRate(uint256,uint256,uint256)": "15f24053",
			"getBorrowRateAndUtilization(uint256,uint256,uint256)": "1628f7c8",
			"getSupplyRate(uint256,uint256,uint256,uint256)": "b8168816",
			"isInterestRateModel()": "2191f92a",
			"multiplierPerBlock()": "8726bb89",
			"utilizationRate(uint256,uint256,uint256)": "6e71e2d8"
		}
	},
	"abi": [
		{
			"inputs": [
				{
					"internalType": "uint256",
					"name": "baseRatePerYear",
					"type": "uint256"
				},
				{
					"internalType": "uint256",
					"name": "multiplierPerYear",
					"type": "uint256"
				}
			],
			"stateMutability": "nonpayable",
			"type": "constructor"
		},
		{
			"inputs": [],
			"name": "baseRatePerBlock",
			"outputs": [
				{
					"internalType": "uint256",
					"name": "",
					"type": "uint256"
				}
			],
			"stateMutability": "view",
			"type": "function"
		},
		{
			"inputs": [],
			"name": "blocksPerYear",
			"outputs": [
				{
					"internalType": "uint256",
					"name": "",
					"type": "uint256"
				}
			],
			"stateMutability": "view",
			"type": "function"
		},
		{
			"inputs": [
				{
					"internalType": "uint256",
					"name": "cash",
					"type": "uint256"
				},
				{
					"internalType": "uint256",
					"name": "borrows",
					"type": "uint256"
				},
				{
					"internalType": "uint256",
					"name": "reserves",
					"type": "uint256"
				}
			],
			"name": "getBorrowRate",
			"outputs": [
				{
					"internalType": "uint256",
					"name": "",
					"type": "uint256"
				}
			],
			"stateMutability": "view",
			"type": "function"
		},
		{
			"inputs": [
				{
					"internalType": "uint256",
					"name": "cash",
					"type": "uint256"
				},
				{
					"internalType": "uint256",
					"name": "borrows",
					"type": "uint256"
				},
				{
					"internalType": "uint256",
					"name": "reserves",
					"type": "uint256"
				}
			],
			"name": "getBorrowRateAndUtilization",
			"outputs": [
				{
					"internalType": "uint256",
					"name": "",
					"type": "uint256"
				},
				{
					"internalType": "uint256",
					"name": "",
					"type": "uint256"
				}
			],
			"stateMutability": "view",
			"type": "function"
		},
		{
			"inputs": [
				{
					"internalType": "uint256",
					"name": "cash",
					"type": "uint256"
				},
				{
					"internalType": "uint256",
					"name": "borrows",
					"type": "uint256"
				},
				{
					"internalType": "uint256",
					"name": "reserves",
					"type": "uint256"
				},
				{
					"internalType": "uint256",
					"name": "reserveFactorMantissa",
					"type": "uint256"
				}
			],
			"name": "getSupplyRate",
			"outputs": [
				{
					"internalType": "uint256",
					"name": "",
					"type": "uint256"
				}
			],
			"stateMutability": "view",
			"type": "function"
		},
		{
			"inputs": [],
			"name": "isInterestRateModel",
			"outputs": [
				{
					"internalType": "bool",
					"name": "",
					"type": "bool"
				}
			],
			"stateMutability": "view",
			"type": "function"
		},
		{
			"inputs": [],
			"name": "multiplierPerBlock",
			"outputs": [
				{
					"internalType": "uint256",
					"name": "",
					"type": "uint256"
				}
			],
			"stateMutability": "view",
			"type": "function"
		},
		{
			"inputs": [
				{
					"internalType": "uint256",
					"name": "cash",
					"type": "uint256"
				},
				{
					"internalType": "uint256",
					"name": "borrows",
					"type": "uint256"
				},
				{
					"internalType": "uint256",
					"name": "reserves",
					"type": "uint256"
				}
			],
			"name": "utilizationRate",
			"outputs": [
				{
					"internalType": "uint256",
					"name": "",
					"type": "uint256"
				}
			],
			"stateMutability": "pure",
			"type": "function"
		}
	]
}